{
	"data": {
		"bytecode": {
			"linkReferences": {},
			"object": "60806040523480156200001157600080fd5b5060006006819055506000600881905550604051620000309062000653565b604051809103906000f0801580156200004d573d6000803e3d6000fd5b50600260006101000a81548173ffffffffffffffffffffffffffffffffffffffff021916908373ffffffffffffffffffffffffffffffffffffffff160217905550600260009054906101000a900473ffffffffffffffffffffffffffffffffffffffff16600160006101000a81548173ffffffffffffffffffffffffffffffffffffffff021916908373ffffffffffffffffffffffffffffffffffffffff1602179055506040518060600160405280602681526020016200664960269139600390816200011b9190620008db565b50604051806080016040528060468152602001620066036046913960079081620001469190620008db565b5033600960006101000a81548173ffffffffffffffffffffffffffffffffffffffff021916908373ffffffffffffffffffffffffffffffffffffffff1602179055506001600a60003373ffffffffffffffffffffffffffffffffffffffff1673ffffffffffffffffffffffffffffffffffffffff16815260200190815260200160002060006101000a81548160ff021916908315150217905550600260009054906101000a900473ffffffffffffffffffffffffffffffffffffffff1673ffffffffffffffffffffffffffffffffffffffff16630e98060233620002496200023933620002b560201b620012db1760201c565b60026022620002ea60201b60201c565b6040518363ffffffff1660e01b81526004016200026892919062000a96565b6020604051808303816000875af115801562000288573d6000803e3d6000fd5b505050506040513d601f19601f82011682018060405250810190620002ae919062000b00565b5062000d54565b6060620002e38273ffffffffffffffffffffffffffffffffffffffff16601460ff16620003f860201b60201c565b9050919050565b606060008490506000848462000301919062000b61565b67ffffffffffffffff8111156200031d576200031c6200066c565b5b6040519080825280601f01601f191660200182016040528015620003505781602001600182028036833780820191505090505b50905060008590505b84811015620003eb5782818151811062000378576200037762000b9c565b5b602001015160f81c60f81b82878362000392919062000b61565b81518110620003a657620003a562000b9c565b5b60200101907effffffffffffffffffffffffffffffffffffffffffffffffffffffffffffff1916908160001a9053508080620003e29062000bcb565b91505062000359565b5080925050509392505050565b6060600060028360026200040d919062000c18565b62000419919062000c79565b67ffffffffffffffff8111156200043557620004346200066c565b5b6040519080825280601f01601f191660200182016040528015620004685781602001600182028036833780820191505090505b5090507f300000000000000000000000000000000000000000000000000000000000000081600081518110620004a357620004a262000b9c565b5b60200101907effffffffffffffffffffffffffffffffffffffffffffffffffffffffffffff1916908160001a9053507f7800000000000000000000000000000000000000000000000000000000000000816001815181106200050a576200050962000b9c565b5b60200101907effffffffffffffffffffffffffffffffffffffffffffffffffffffffffffff1916908160001a905350600060018460026200054c919062000c18565b62000558919062000c79565b90505b600181111562000602577f3031323334353637383961626364656600000000000000000000000000000000600f8616601081106200059e576200059d62000b9c565b5b1a60f81b828281518110620005b857620005b762000b9c565b5b60200101907effffffffffffffffffffffffffffffffffffffffffffffffffffffffffffff1916908160001a905350600485901c945080620005fa9062000cb4565b90506200055b565b506000841462000649576040517f08c379a0000000000000000000000000000000000000000000000000000000008152600401620006409062000d32565b60405180910390fd5b8091505092915050565b613195806200346e83390190565b600081519050919050565b7f4e487b7100000000000000000000000000000000000000000000000000000000600052604160045260246000fd5b7f4e487b7100000000000000000000000000000000000000000000000000000000600052602260045260246000fd5b60006002820490506001821680620006e357607f821691505b602082108103620006f957620006f86200069b565b5b50919050565b60008190508160005260206000209050919050565b60006020601f8301049050919050565b600082821b905092915050565b600060088302620007637fffffffffffffffffffffffffffffffffffffffffffffffffffffffffffffffff8262000724565b6200076f868362000724565b95508019841693508086168417925050509392505050565b6000819050919050565b6000819050919050565b6000620007bc620007b6620007b08462000787565b62000791565b62000787565b9050919050565b6000819050919050565b620007d8836200079b565b620007f0620007e782620007c3565b84845462000731565b825550505050565b600090565b62000807620007f8565b62000814818484620007cd565b505050565b5b818110156200083c5762000830600082620007fd565b6001810190506200081a565b5050565b601f8211156200088b576200085581620006ff565b620008608462000714565b8101602085101562000870578190505b620008886200087f8562000714565b83018262000819565b50505b505050565b600082821c905092915050565b6000620008b06000198460080262000890565b1980831691505092915050565b6000620008cb83836200089d565b9150826002028217905092915050565b620008e68262000661565b67ffffffffffffffff8111156200090257620009016200066c565b5b6200090e8254620006ca565b6200091b82828562000840565b600060209050601f8311600181146200095357600084156200093e578287015190505b6200094a8582620008bd565b865550620009ba565b601f1984166200096386620006ff565b60005b828110156200098d5784890151825560018201915060208501945060208101905062000966565b86831015620009ad5784890151620009a9601f8916826200089d565b8355505b6001600288020188555050505b505050505050565b600073ffffffffffffffffffffffffffffffffffffffff82169050919050565b6000620009ef82620009c2565b9050919050565b62000a0181620009e2565b82525050565b600082825260208201905092915050565b60005b8381101562000a3857808201518184015260208101905062000a1b565b60008484015250505050565b6000601f19601f8301169050919050565b600062000a628262000661565b62000a6e818562000a07565b935062000a8081856020860162000a18565b62000a8b8162000a44565b840191505092915050565b600060408201905062000aad6000830185620009f6565b818103602083015262000ac1818462000a55565b90509392505050565b600080fd5b62000ada8162000787565b811462000ae657600080fd5b50565b60008151905062000afa8162000acf565b92915050565b60006020828403121562000b195762000b1862000aca565b5b600062000b298482850162000ae9565b91505092915050565b7f4e487b7100000000000000000000000000000000000000000000000000000000600052601160045260246000fd5b600062000b6e8262000787565b915062000b7b8362000787565b925082820390508181111562000b965762000b9562000b32565b5b92915050565b7f4e487b7100000000000000000000000000000000000000000000000000000000600052603260045260246000fd5b600062000bd88262000787565b91507fffffffffffffffffffffffffffffffffffffffffffffffffffffffffffffffff820362000c0d5762000c0c62000b32565b5b600182019050919050565b600062000c258262000787565b915062000c328362000787565b9250817fffffffffffffffffffffffffffffffffffffffffffffffffffffffffffffffff048311821515161562000c6e5762000c6d62000b32565b5b828202905092915050565b600062000c868262000787565b915062000c938362000787565b925082820190508082111562000cae5762000cad62000b32565b5b92915050565b600062000cc18262000787565b91506000820362000cd75762000cd662000b32565b5b600182039050919050565b7f537472696e67733a20686578206c656e67746820696e73756666696369656e74600082015250565b600062000d1a60208362000a07565b915062000d278262000ce2565b602082019050919050565b6000602082019050818103600083015262000d4d8162000d0b565b9050919050565b61270a8062000d646000396000f3fe60806040526004361061010d5760003560e01c80638d7af47311610095578063c9d27afe11610064578063c9d27afe14610387578063ca6d56dc146103b0578063d6b78768146103d9578063e66f53b714610404578063ea3fad661461042f57610114565b80638d7af473146102c95780639d63848a146102f4578063a230c5241461031f578063c65c90cc1461035c57610114565b80631a384287116100dc5780631a384287146101ef578063237b21971461022c5780632e6fb0971461025757806370740aab146102875780637b10b293146102b257610114565b8063013cf08b1461011957806301ffc9a71461015e5780630386a0161461019b5780631714f2e0146101c457610114565b3661011457005b600080fd5b34801561012557600080fd5b50610140600480360381019061013b919061168a565b61046c565b604051610155999897969594939291906117b2565b60405180910390f35b34801561016a57600080fd5b506101856004803603810190610180919061189e565b61059c565b60405161019291906118cb565b60405180910390f35b3480156101a757600080fd5b506101c260048036038101906101bd919061168a565b61066e565b005b3480156101d057600080fd5b506101d961095b565b6040516101e69190611945565b60405180910390f35b3480156101fb57600080fd5b506102166004803603810190610211919061198c565b610981565b60405161022391906118cb565b60405180910390f35b34801561023857600080fd5b506102416109b0565b60405161024e91906119cc565b60405180910390f35b610271600480360381019061026c9190611b1c565b6109b6565b60405161027e91906119cc565b60405180910390f35b34801561029357600080fd5b5061029c610d1a565b6040516102a99190611b9f565b60405180910390f35b3480156102be57600080fd5b506102c7610da8565b005b3480156102d557600080fd5b506102de610dad565b6040516102eb91906119cc565b60405180910390f35b34801561030057600080fd5b50610309610db3565b6040516103169190611bc1565b60405180910390f35b34801561032b57600080fd5b5061034660048036038101906103419190611bdc565b610dd9565b60405161035391906118cb565b60405180910390f35b34801561036857600080fd5b50610371610df9565b60405161037e9190611b9f565b60405180910390f35b34801561039357600080fd5b506103ae60048036038101906103a99190611c35565b610e87565b005b3480156103bc57600080fd5b506103d760048036038101906103d29190611bdc565b6110dd565b005b3480156103e557600080fd5b506103ee611280565b6040516103fb91906119cc565b60405180910390f35b34801561041057600080fd5b50610419611286565b6040516104269190611bc1565b60405180910390f35b34801561043b57600080fd5b506104566004803603810190610451919061198c565b6112ac565b60405161046391906118cb565b60405180910390f35b60006020528060005260406000206000915090508060000160009054906101000a900473ffffffffffffffffffffffffffffffffffffffff16908060010154908060020180546104bb90611ca4565b80601f01602080910402602001604051908101604052809291908181526020018280546104e790611ca4565b80156105345780601f1061050957610100808354040283529160200191610534565b820191906000526020600020905b81548152906001019060200180831161051757829003601f168201915b5050505050908060030154908060040160009054906101000a900460ff16908060040160019054906101000a900460ff16908060050154908060060154908060070160009054906101000a900473ffffffffffffffffffffffffffffffffffffffff16905089565b60007fb3df4ba8000000000000000000000000000000000000000000000000000000007bffffffffffffffffffffffffffffffffffffffffffffffffffffffff1916827bffffffffffffffffffffffffffffffffffffffffffffffffffffffff1916148061066757507f01ffc9a7000000000000000000000000000000000000000000000000000000007bffffffffffffffffffffffffffffffffffffffffffffffffffffffff1916827bffffffffffffffffffffffffffffffffffffffffffffffffffffffff1916145b9050919050565b60065481106106b2576040517f08c379a00000000000000000000000000000000000000000000000000000000081526004016106a990611d21565b60405180910390fd5b600080828152602001908152602001600020600301544211610709576040517f08c379a000000000000000000000000000000000000000000000000000000000815260040161070090611d8d565b60405180910390fd5b60011515600a60003373ffffffffffffffffffffffffffffffffffffffff1673ffffffffffffffffffffffffffffffffffffffff16815260200190815260200160002060009054906101000a900460ff1615151461079c576040517f08c379a000000000000000000000000000000000000000000000000000000000815260040161079390611e1f565b60405180910390fd5b60008080600084815260200190815260200160002060040160006101000a81548160ff021916908315150217905550600080838152602001908152602001600020600601546000808481526020019081526020016000206005015411156108f95760019050600080600084815260200190815260200160002060000160009054906101000a900473ffffffffffffffffffffffffffffffffffffffff1673ffffffffffffffffffffffffffffffffffffffff166000808581526020019081526020016000206001015460405161087190611e70565b60006040518083038185875af1925050503d80600081146108ae576040519150601f19603f3d011682016040523d82523d6000602084013e6108b3565b606091505b50509050806108f7576040517f08c379a00000000000000000000000000000000000000000000000000000000081526004016108ee90611ef7565b60405180910390fd5b505b60008083815260200190815260200160002060010154600860008282546109209190611f46565b92505081905550801515827faffed5d901d9fbe9106721fa52653ede403c09699f9f810f6d378acc51fb50fa60405160405180910390a35050565b600260009054906101000a900473ffffffffffffffffffffffffffffffffffffffff1681565b60056020528160005260406000206020528060005260406000206000915091509054906101000a900460ff1681565b60085481565b60006102588210156109fd576040517f08c379a00000000000000000000000000000000000000000000000000000000081526004016109f490611fec565b60405180910390fd5b60011515600a60003373ffffffffffffffffffffffffffffffffffffffff1673ffffffffffffffffffffffffffffffffffffffff16815260200190815260200160002060009054906101000a900460ff16151514610a90576040517f08c379a0000000000000000000000000000000000000000000000000000000008152600401610a879061207e565b60405180910390fd5b83600854610a9e919061209e565b4711610adf576040517f08c379a0000000000000000000000000000000000000000000000000000000008152600401610ad690612144565b60405180910390fd5b60006040518061012001604052808773ffffffffffffffffffffffffffffffffffffffff1681526020018681526020018581526020018442610b21919061209e565b815260200160011515815260200160001515815260200160008152602001600081526020013373ffffffffffffffffffffffffffffffffffffffff1681525090508460086000828254610b74919061209e565b92505081905550600060065490508160008083815260200190815260200160002060008201518160000160006101000a81548173ffffffffffffffffffffffffffffffffffffffff021916908373ffffffffffffffffffffffffffffffffffffffff160217905550602082015181600101556040820151816002019081610bfb9190612306565b506060820151816003015560808201518160040160006101000a81548160ff02191690831515021790555060a08201518160040160016101000a81548160ff02191690831515021790555060c0820151816005015560e082015181600601556101008201518160070160006101000a81548173ffffffffffffffffffffffffffffffffffffffff021916908373ffffffffffffffffffffffffffffffffffffffff16021790555090505060066000815480929190610cb8906123d8565b9190505550858773ffffffffffffffffffffffffffffffffffffffff16827f0de8596bb26a876fd85351415cd7f8ea047829757b6ce0c3e8f6d5ae325c4b2188604051610d059190611b9f565b60405180910390a48092505050949350505050565b60038054610d2790611ca4565b80601f0160208091040260200160405190810160405280929190818152602001828054610d5390611ca4565b8015610da05780601f10610d7557610100808354040283529160200191610da0565b820191906000526020600020905b815481529060010190602001808311610d8357829003601f168201915b505050505081565b600080fd5b60065481565b600160009054906101000a900473ffffffffffffffffffffffffffffffffffffffff1681565b600a6020528060005260406000206000915054906101000a900460ff1681565b60078054610e0690611ca4565b80601f0160208091040260200160405190810160405280929190818152602001828054610e3290611ca4565b8015610e7f5780601f10610e5457610100808354040283529160200191610e7f565b820191906000526020600020905b815481529060010190602001808311610e6257829003601f168201915b505050505081565b6006548210610ecb576040517f08c379a0000000000000000000000000000000000000000000000000000000008152600401610ec290611d21565b60405180910390fd5b60011515600a60003373ffffffffffffffffffffffffffffffffffffffff1673ffffffffffffffffffffffffffffffffffffffff16815260200190815260200160002060009054906101000a900460ff16151514610f5e576040517f08c379a0000000000000000000000000000000000000000000000000000000008152600401610f5590612492565b60405180910390fd5b8015610ffd576001600460003373ffffffffffffffffffffffffffffffffffffffff1673ffffffffffffffffffffffffffffffffffffffff168152602001908152602001600020600084815260200190815260200160002060006101000a81548160ff0219169083151502179055506000808381526020019081526020016000206005016000815480929190610ff3906123d8565b9190505550611092565b6001600560003373ffffffffffffffffffffffffffffffffffffffff1673ffffffffffffffffffffffffffffffffffffffff168152602001908152602001600020600084815260200190815260200160002060006101000a81548160ff021916908315150217905550600080838152602001908152602001600020600601600081548092919061108c906123d8565b91905055505b3373ffffffffffffffffffffffffffffffffffffffff16811515837f86abfce99b7dd908bec0169288797f85049ec73cbe046ed9de818fab3a497ae060405160405180910390a45050565b60011515600a60003373ffffffffffffffffffffffffffffffffffffffff1673ffffffffffffffffffffffffffffffffffffffff16815260200190815260200160002060009054906101000a900460ff16151514611170576040517f08c379a000000000000000000000000000000000000000000000000000000000815260040161116790612524565b60405180910390fd5b6001600a60008373ffffffffffffffffffffffffffffffffffffffff1673ffffffffffffffffffffffffffffffffffffffff16815260200190815260200160002060006101000a81548160ff021916908315150217905550600260009054906101000a900473ffffffffffffffffffffffffffffffffffffffff1673ffffffffffffffffffffffffffffffffffffffff16630e9806028261121c611213856112db565b60026022611308565b6040518363ffffffff1660e01b8152600401611239929190612544565b6020604051808303816000875af1158015611258573d6000803e3d6000fd5b505050506040513d601f19601f8201168201806040525081019061127c9190612589565b5050565b61025881565b600960009054906101000a900473ffffffffffffffffffffffffffffffffffffffff1681565b60046020528160005260406000206020528060005260406000206000915091509054906101000a900460ff1681565b60606113018273ffffffffffffffffffffffffffffffffffffffff16601460ff16611404565b9050919050565b606060008490506000848461131d9190611f46565b67ffffffffffffffff811115611336576113356119f1565b5b6040519080825280601f01601f1916602001820160405280156113685781602001600182028036833780820191505090505b50905060008590505b848110156113f75782818151811061138c5761138b6125b6565b5b602001015160f81c60f81b8287836113a49190611f46565b815181106113b5576113b46125b6565b5b60200101907effffffffffffffffffffffffffffffffffffffffffffffffffffffffffffff1916908160001a90535080806113ef906123d8565b915050611371565b5080925050509392505050565b60606000600283600261141791906125e5565b611421919061209e565b67ffffffffffffffff81111561143a576114396119f1565b5b6040519080825280601f01601f19166020018201604052801561146c5781602001600182028036833780820191505090505b5090507f3000000000000000000000000000000000000000000000000000000000000000816000815181106114a4576114a36125b6565b5b60200101907effffffffffffffffffffffffffffffffffffffffffffffffffffffffffffff1916908160001a9053507f780000000000000000000000000000000000000000000000000000000000000081600181518110611508576115076125b6565b5b60200101907effffffffffffffffffffffffffffffffffffffffffffffffffffffffffffff1916908160001a9053506000600184600261154891906125e5565b611552919061209e565b90505b60018111156115f2577f3031323334353637383961626364656600000000000000000000000000000000600f861660108110611594576115936125b6565b5b1a60f81b8282815181106115ab576115aa6125b6565b5b60200101907effffffffffffffffffffffffffffffffffffffffffffffffffffffffffffff1916908160001a905350600485901c9450806115eb9061263f565b9050611555565b5060008414611636576040517f08c379a000000000000000000000000000000000000000000000000000000000815260040161162d906126b4565b60405180910390fd5b8091505092915050565b6000604051905090565b600080fd5b600080fd5b6000819050919050565b61166781611654565b811461167257600080fd5b50565b6000813590506116848161165e565b92915050565b6000602082840312156116a05761169f61164a565b5b60006116ae84828501611675565b91505092915050565b600073ffffffffffffffffffffffffffffffffffffffff82169050919050565b60006116e2826116b7565b9050919050565b6116f2816116d7565b82525050565b61170181611654565b82525050565b600081519050919050565b600082825260208201905092915050565b60005b83811015611741578082015181840152602081019050611726565b60008484015250505050565b6000601f19601f8301169050919050565b600061176982611707565b6117738185611712565b9350611783818560208601611723565b61178c8161174d565b840191505092915050565b60008115159050919050565b6117ac81611797565b82525050565b6000610120820190506117c8600083018c6116e9565b6117d5602083018b6116f8565b81810360408301526117e7818a61175e565b90506117f660608301896116f8565b61180360808301886117a3565b61181060a08301876117a3565b61181d60c08301866116f8565b61182a60e08301856116f8565b6118386101008301846116e9565b9a9950505050505050505050565b60007fffffffff0000000000000000000000000000000000000000000000000000000082169050919050565b61187b81611846565b811461188657600080fd5b50565b60008135905061189881611872565b92915050565b6000602082840312156118b4576118b361164a565b5b60006118c284828501611889565b91505092915050565b60006020820190506118e060008301846117a3565b92915050565b6000819050919050565b600061190b611906611901846116b7565b6118e6565b6116b7565b9050919050565b600061191d826118f0565b9050919050565b600061192f82611912565b9050919050565b61193f81611924565b82525050565b600060208201905061195a6000830184611936565b92915050565b611969816116d7565b811461197457600080fd5b50565b60008135905061198681611960565b92915050565b600080604083850312156119a3576119a261164a565b5b60006119b185828601611977565b92505060206119c285828601611675565b9150509250929050565b60006020820190506119e160008301846116f8565b92915050565b600080fd5b600080fd5b7f4e487b7100000000000000000000000000000000000000000000000000000000600052604160045260246000fd5b611a298261174d565b810181811067ffffffffffffffff82111715611a4857611a476119f1565b5b80604052505050565b6000611a5b611640565b9050611a678282611a20565b919050565b600067ffffffffffffffff821115611a8757611a866119f1565b5b611a908261174d565b9050602081019050919050565b82818337600083830152505050565b6000611abf611aba84611a6c565b611a51565b905082815260208101848484011115611adb57611ada6119ec565b5b611ae6848285611a9d565b509392505050565b600082601f830112611b0357611b026119e7565b5b8135611b13848260208601611aac565b91505092915050565b60008060008060808587031215611b3657611b3561164a565b5b6000611b4487828801611977565b9450506020611b5587828801611675565b935050604085013567ffffffffffffffff811115611b7657611b7561164f565b5b611b8287828801611aee565b9250506060611b9387828801611675565b91505092959194509250565b60006020820190508181036000830152611bb9818461175e565b905092915050565b6000602082019050611bd660008301846116e9565b92915050565b600060208284031215611bf257611bf161164a565b5b6000611c0084828501611977565b91505092915050565b611c1281611797565b8114611c1d57600080fd5b50565b600081359050611c2f81611c09565b92915050565b60008060408385031215611c4c57611c4b61164a565b5b6000611c5a85828601611675565b9250506020611c6b85828601611c20565b9150509250929050565b7f4e487b7100000000000000000000000000000000000000000000000000000000600052602260045260246000fd5b60006002820490506001821680611cbc57607f821691505b602082108103611ccf57611cce611c75565b5b50919050565b7f4e6f7420612076616c69642070726f706f73616c204944000000000000000000600082015250565b6000611d0b601783611712565b9150611d1682611cd5565b602082019050919050565b60006020820190508181036000830152611d3a81611cfe565b9050919050565b7f566f74657320617265207374696c20746162756c6174696e672e2e2e00000000600082015250565b6000611d77601c83611712565b9150611d8282611d41565b602082019050919050565b60006020820190508181036000830152611da681611d6a565b9050919050565b7f5468652073656e646572206973206e6f742061206d656d626572206f6620746860008201527f652044414f000000000000000000000000000000000000000000000000000000602082015250565b6000611e09602583611712565b9150611e1482611dad565b604082019050919050565b60006020820190508181036000830152611e3881611dfc565b9050919050565b600081905092915050565b50565b6000611e5a600083611e3f565b9150611e6582611e4a565b600082019050919050565b6000611e7b82611e4d565b9150819050919050565b7f4661696c656420746f207061792074686520696e74656e64656420616464726560008201527f7373000000000000000000000000000000000000000000000000000000000000602082015250565b6000611ee1602283611712565b9150611eec82611e85565b604082019050919050565b60006020820190508181036000830152611f1081611ed4565b9050919050565b7f4e487b7100000000000000000000000000000000000000000000000000000000600052601160045260246000fd5b6000611f5182611654565b9150611f5c83611654565b9250828203905081811115611f7457611f73611f17565b5b92915050565b7f50726f706f736564204465626174652074696d6520697320746f6f2073686f7260008201527f7421000000000000000000000000000000000000000000000000000000000000602082015250565b6000611fd6602283611712565b9150611fe182611f7a565b604082019050919050565b6000602082019050818103600083015261200581611fc9565b9050919050565b7f5468652070726f706f73616c207375626d6974746572206973206e6f7420612060008201527f6d656d626572206f66207468652044414f000000000000000000000000000000602082015250565b6000612068603183611712565b91506120738261200c565b604082019050919050565b600060208201905081810360008301526120978161205b565b9050919050565b60006120a982611654565b91506120b483611654565b92508282019050808211156120cc576120cb611f17565b5b92915050565b7f4e6f7420656e6f7567682066756e647320746f2072756e20746869732070726f60008201527f706f73616c000000000000000000000000000000000000000000000000000000602082015250565b600061212e602583611712565b9150612139826120d2565b604082019050919050565b6000602082019050818103600083015261215d81612121565b9050919050565b60008190508160005260206000209050919050565b60006020601f8301049050919050565b600082821b905092915050565b6000600883026121c67fffffffffffffffffffffffffffffffffffffffffffffffffffffffffffffffff82612189565b6121d08683612189565b95508019841693508086168417925050509392505050565b60006122036121fe6121f984611654565b6118e6565b611654565b9050919050565b6000819050919050565b61221d836121e8565b6122316122298261220a565b848454612196565b825550505050565b600090565b612246612239565b612251818484612214565b505050565b5b818110156122755761226a60008261223e565b600181019050612257565b5050565b601f8211156122ba5761228b81612164565b61229484612179565b810160208510156122a3578190505b6122b76122af85612179565b830182612256565b50505b505050565b600082821c905092915050565b60006122dd600019846008026122bf565b1980831691505092915050565b60006122f683836122cc565b9150826002028217905092915050565b61230f82611707565b67ffffffffffffffff811115612328576123276119f1565b5b6123328254611ca4565b61233d828285612279565b600060209050601f831160018114612370576000841561235e578287015190505b61236885826122ea565b8655506123d0565b601f19841661237e86612164565b60005b828110156123a657848901518255600182019150602085019450602081019050612381565b868310156123c357848901516123bf601f8916826122cc565b8355505b6001600288020188555050505b505050505050565b60006123e382611654565b91507fffffffffffffffffffffffffffffffffffffffffffffffffffffffffffffffff820361241557612414611f17565b5b600182019050919050565b7f54686520766f746572206973206e6f742061206d656d626572206f662074686560008201527f2044414f00000000000000000000000000000000000000000000000000000000602082015250565b600061247c602483611712565b915061248782612420565b604082019050919050565b600060208201905081810360008301526124ab8161246f565b9050919050565b7f4f6e6c79206578697374696e67206d656d626572732063616e20616464206d6560008201527f6d6265727320746f207468652044414f00000000000000000000000000000000602082015250565b600061250e603083611712565b9150612519826124b2565b604082019050919050565b6000602082019050818103600083015261253d81612501565b9050919050565b600060408201905061255960008301856116e9565b818103602083015261256b818461175e565b90509392505050565b6000815190506125838161165e565b92915050565b60006020828403121561259f5761259e61164a565b5b60006125ad84828501612574565b91505092915050565b7f4e487b7100000000000000000000000000000000000000000000000000000000600052603260045260246000fd5b60006125f082611654565b91506125fb83611654565b9250817fffffffffffffffffffffffffffffffffffffffffffffffffffffffffffffffff048311821515161561263457612633611f17565b5b828202905092915050565b600061264a82611654565b91506000820361265d5761265c611f17565b5b600182039050919050565b7f537472696e67733a20686578206c656e67746820696e73756666696369656e74600082015250565b600061269e602083611712565b91506126a982612668565b602082019050919050565b600060208201905081810360008301526126cd81612691565b905091905056fea264697066735822122097ebaec2c6a3f396e44dce93a81c7929bd92ef21e9416fc1a0bd699191539cb864736f6c6343000810003360806040523480156200001157600080fd5b50604051806020016040528060008152506040518060400160405280601181526020017f526f622773204e4654204d616e616765720000000000000000000000000000008152508160009081620000699190620002fe565b5080600190816200007b9190620002fe565b505050620003e5565b600081519050919050565b7f4e487b7100000000000000000000000000000000000000000000000000000000600052604160045260246000fd5b7f4e487b7100000000000000000000000000000000000000000000000000000000600052602260045260246000fd5b600060028204905060018216806200010657607f821691505b6020821081036200011c576200011b620000be565b5b50919050565b60008190508160005260206000209050919050565b60006020601f8301049050919050565b600082821b905092915050565b600060088302620001867fffffffffffffffffffffffffffffffffffffffffffffffffffffffffffffffff8262000147565b62000192868362000147565b95508019841693508086168417925050509392505050565b6000819050919050565b6000819050919050565b6000620001df620001d9620001d384620001aa565b620001b4565b620001aa565b9050919050565b6000819050919050565b620001fb83620001be565b620002136200020a82620001e6565b84845462000154565b825550505050565b600090565b6200022a6200021b565b62000237818484620001f0565b505050565b5b818110156200025f576200025360008262000220565b6001810190506200023d565b5050565b601f821115620002ae57620002788162000122565b620002838462000137565b8101602085101562000293578190505b620002ab620002a28562000137565b8301826200023c565b50505b505050565b600082821c905092915050565b6000620002d360001984600802620002b3565b1980831691505092915050565b6000620002ee8383620002c0565b9150826002028217905092915050565b620003098262000084565b67ffffffffffffffff8111156200032557620003246200008f565b5b620003318254620000ed565b6200033e82828562000263565b600060209050601f83116001811462000376576000841562000361578287015190505b6200036d8582620002e0565b865550620003dd565b601f198416620003868662000122565b60005b82811015620003b05784890151825560018201915060208501945060208101905062000389565b86831015620003d05784890151620003cc601f891682620002c0565b8355505b6001600288020188555050505b505050505050565b612da080620003f56000396000f3fe608060405234801561001057600080fd5b506004361061012c5760003560e01c806373b0745f116100ad578063a95adf4911610071578063a95adf4914610369578063b88d4fde14610399578063c87b56dd146103b5578063d796d156146103e5578063e985e9c5146104155761012c565b806373b0745f146102b1578063947b59ae146102cf57806395d89b41146102ff57806396f97a881461031d578063a22cb4651461034d5761012c565b80630e980602116100f45780630e980602146101e957806323b872dd1461021957806342842e0e146102355780636352211e1461025157806370a08231146102815761012c565b806301ffc9a71461013157806306661abd1461016157806306fdde031461017f578063081812fc1461019d578063095ea7b3146101cd575b600080fd5b61014b60048036038101906101469190611b42565b610445565b6040516101589190611b8a565b60405180910390f35b6101696105e7565b6040516101769190611bbe565b60405180910390f35b6101876105f1565b6040516101949190611c69565b60405180910390f35b6101b760048036038101906101b29190611cb7565b610683565b6040516101c49190611d25565b60405180910390f35b6101e760048036038101906101e29190611d6c565b6106c9565b005b61020360048036038101906101fe9190611ee1565b6107e0565b6040516102109190611bbe565b60405180910390f35b610233600480360381019061022e9190611f3d565b610931565b005b61024f600480360381019061024a9190611f3d565b610991565b005b61026b60048036038101906102669190611cb7565b6109b1565b6040516102789190611d25565b60405180910390f35b61029b60048036038101906102969190611f90565b610a37565b6040516102a89190611bbe565b60405180910390f35b6102b9610aee565b6040516102c69190611bbe565b60405180910390f35b6102e960048036038101906102e49190611fbd565b610af4565b6040516102f69190611bbe565b60405180910390f35b610307610c44565b6040516103149190611c69565b60405180910390f35b61033760048036038101906103329190611fbd565b610cd6565b6040516103449190611b8a565b60405180910390f35b61036760048036038101906103629190612032565b610d0c565b005b610383600480360381019061037e9190611cb7565b610d22565b6040516103909190611c69565b60405180910390f35b6103b360048036038101906103ae9190612113565b610dc2565b005b6103cf60048036038101906103ca9190611cb7565b610e24565b6040516103dc9190611c69565b60405180910390f35b6103ff60048036038101906103fa9190611cb7565b610f66565b60405161040c9190611d25565b60405180910390f35b61042f600480360381019061042a9190612196565b610f99565b60405161043c9190611b8a565b60405180910390f35b60007f9c854511000000000000000000000000000000000000000000000000000000007bffffffffffffffffffffffffffffffffffffffffffffffffffffffff1916827bffffffffffffffffffffffffffffffffffffffffffffffffffffffff1916148061051057507f80ac58cd000000000000000000000000000000000000000000000000000000007bffffffffffffffffffffffffffffffffffffffffffffffffffffffff1916827bffffffffffffffffffffffffffffffffffffffffffffffffffffffff1916145b8061057857507f01ffc9a7000000000000000000000000000000000000000000000000000000007bffffffffffffffffffffffffffffffffffffffffffffffffffffffff1916827bffffffffffffffffffffffffffffffffffffffffffffffffffffffff1916145b806105e057507f5b5e139f000000000000000000000000000000000000000000000000000000007bffffffffffffffffffffffffffffffffffffffffffffffffffffffff1916827bffffffffffffffffffffffffffffffffffffffffffffffffffffffff1916145b9050919050565b6000600654905090565b60606000805461060090612205565b80601f016020809104026020016040519081016040528092919081815260200182805461062c90612205565b80156106795780601f1061064e57610100808354040283529160200191610679565b820191906000526020600020905b81548152906001019060200180831161065c57829003601f168201915b5050505050905090565b600061068e8261102d565b6004600083815260200190815260200160002060009054906101000a900473ffffffffffffffffffffffffffffffffffffffff169050919050565b60006106d4826109b1565b90508073ffffffffffffffffffffffffffffffffffffffff168373ffffffffffffffffffffffffffffffffffffffff1603610744576040517f08c379a000000000000000000000000000000000000000000000000000000000815260040161073b906122a8565b60405180910390fd5b8073ffffffffffffffffffffffffffffffffffffffff16610763611078565b73ffffffffffffffffffffffffffffffffffffffff16148061079257506107918161078c611078565b610f99565b5b6107d1576040517f08c379a00000000000000000000000000000000000000000000000000000000081526004016107c89061233a565b60405180910390fd5b6107db8383611080565b505050565b6000600660008154809291906107f590612389565b91905055506000151560098360405161080e919061240d565b908152602001604051809103902060009054906101000a900460ff1615151461086c576040517f08c379a000000000000000000000000000000000000000000000000000000000815260040161086390612470565b60405180910390fd5b8260086000600654815260200190815260200160002060006101000a81548173ffffffffffffffffffffffffffffffffffffffff021916908373ffffffffffffffffffffffffffffffffffffffff1602179055508160076000600654815260200190815260200160002090816108e2919061263c565b5060016009836040516108f5919061240d565b908152602001604051809103902060006101000a81548160ff02191690831515021790555061092683600654611139565b600654905092915050565b61094261093c611078565b82611352565b610981576040517f08c379a000000000000000000000000000000000000000000000000000000000815260040161097890612780565b60405180910390fd5b61098c8383836113e7565b505050565b6109ac83838360405180602001604052806000815250610dc2565b505050565b6000806109bd836116dc565b9050600073ffffffffffffffffffffffffffffffffffffffff168173ffffffffffffffffffffffffffffffffffffffff1603610a2e576040517f08c379a0000000000000000000000000000000000000000000000000000000008152600401610a25906127ec565b60405180910390fd5b80915050919050565b60008073ffffffffffffffffffffffffffffffffffffffff168273ffffffffffffffffffffffffffffffffffffffff1603610aa7576040517f08c379a0000000000000000000000000000000000000000000000000000000008152600401610a9e9061287e565b60405180910390fd5b600360008373ffffffffffffffffffffffffffffffffffffffff1673ffffffffffffffffffffffffffffffffffffffff168152602001908152602001600020549050919050565b60065481565b600060066000815480929190610b0990612389565b919050555060001515600983604051610b22919061240d565b908152602001604051809103902060009054906101000a900460ff16151514610b80576040517f08c379a0000000000000000000000000000000000000000000000000000000008152600401610b7790612470565b60405180910390fd5b3360086000600654815260200190815260200160002060006101000a81548173ffffffffffffffffffffffffffffffffffffffff021916908373ffffffffffffffffffffffffffffffffffffffff160217905550816007600060065481526020019081526020016000209081610bf6919061263c565b506001600983604051610c09919061240d565b908152602001604051809103902060006101000a81548160ff021916908315150217905550610c3a33600654611139565b6006549050919050565b606060018054610c5390612205565b80601f0160208091040260200160405190810160405280929190818152602001828054610c7f90612205565b8015610ccc5780601f10610ca157610100808354040283529160200191610ccc565b820191906000526020600020905b815481529060010190602001808311610caf57829003601f168201915b5050505050905090565b6009818051602081018201805184825260208301602085012081835280955050505050506000915054906101000a900460ff1681565b610d1e610d17611078565b8383611719565b5050565b60076020528060005260406000206000915090508054610d4190612205565b80601f0160208091040260200160405190810160405280929190818152602001828054610d6d90612205565b8015610dba5780601f10610d8f57610100808354040283529160200191610dba565b820191906000526020600020905b815481529060010190602001808311610d9d57829003601f168201915b505050505081565b610dd3610dcd611078565b83611352565b610e12576040517f08c379a0000000000000000000000000000000000000000000000000000000008152600401610e0990612780565b60405180910390fd5b610e1e84848484611885565b50505050565b606060008214158015610e3957506006548211155b610e78576040517f08c379a0000000000000000000000000000000000000000000000000000000008152600401610e6f906128ea565b60405180910390fd5b60006040518060800160405280605f8152602001612d0c605f913990506000600760008581526020019081526020016000208054610eb590612205565b80601f0160208091040260200160405190810160405280929190818152602001828054610ee190612205565b8015610f2e5780601f10610f0357610100808354040283529160200191610f2e565b820191906000526020600020905b815481529060010190602001808311610f1157829003601f168201915b5050505050905060008282604051602001610f4a92919061290a565b6040516020818303038152906040529050809350505050919050565b60086020528060005260406000206000915054906101000a900473ffffffffffffffffffffffffffffffffffffffff1681565b6000600560008473ffffffffffffffffffffffffffffffffffffffff1673ffffffffffffffffffffffffffffffffffffffff16815260200190815260200160002060008373ffffffffffffffffffffffffffffffffffffffff1673ffffffffffffffffffffffffffffffffffffffff16815260200190815260200160002060009054906101000a900460ff16905092915050565b611036816118e1565b611075576040517f08c379a000000000000000000000000000000000000000000000000000000000815260040161106c906127ec565b60405180910390fd5b50565b600033905090565b816004600083815260200190815260200160002060006101000a81548173ffffffffffffffffffffffffffffffffffffffff021916908373ffffffffffffffffffffffffffffffffffffffff160217905550808273ffffffffffffffffffffffffffffffffffffffff166110f3836109b1565b73ffffffffffffffffffffffffffffffffffffffff167f8c5be1e5ebec7d5bd14f71427d1e84f3dd0314c0f7b2291e5b200ac8c7c3b92560405160405180910390a45050565b600073ffffffffffffffffffffffffffffffffffffffff168273ffffffffffffffffffffffffffffffffffffffff16036111a8576040517f08c379a000000000000000000000000000000000000000000000000000000000815260040161119f9061297a565b60405180910390fd5b6111b1816118e1565b156111f1576040517f08c379a00000000000000000000000000000000000000000000000000000000081526004016111e8906129e6565b60405180910390fd5b6111fd60008383611922565b611206816118e1565b15611246576040517f08c379a000000000000000000000000000000000000000000000000000000000815260040161123d906129e6565b60405180910390fd5b6001600360008473ffffffffffffffffffffffffffffffffffffffff1673ffffffffffffffffffffffffffffffffffffffff16815260200190815260200160002060008282540192505081905550816002600083815260200190815260200160002060006101000a81548173ffffffffffffffffffffffffffffffffffffffff021916908373ffffffffffffffffffffffffffffffffffffffff160217905550808273ffffffffffffffffffffffffffffffffffffffff16600073ffffffffffffffffffffffffffffffffffffffff167fddf252ad1be2c89b69c2b068fc378daa952ba7f163c4a11628f55a4df523b3ef60405160405180910390a461134e60008383611927565b5050565b60008061135e836109b1565b90508073ffffffffffffffffffffffffffffffffffffffff168473ffffffffffffffffffffffffffffffffffffffff1614806113a0575061139f8185610f99565b5b806113de57508373ffffffffffffffffffffffffffffffffffffffff166113c684610683565b73ffffffffffffffffffffffffffffffffffffffff16145b91505092915050565b8273ffffffffffffffffffffffffffffffffffffffff16611407826109b1565b73ffffffffffffffffffffffffffffffffffffffff161461145d576040517f08c379a000000000000000000000000000000000000000000000000000000000815260040161145490612a78565b60405180910390fd5b600073ffffffffffffffffffffffffffffffffffffffff168273ffffffffffffffffffffffffffffffffffffffff16036114cc576040517f08c379a00000000000000000000000000000000000000000000000000000000081526004016114c390612b0a565b60405180910390fd5b6114d7838383611922565b8273ffffffffffffffffffffffffffffffffffffffff166114f7826109b1565b73ffffffffffffffffffffffffffffffffffffffff161461154d576040517f08c379a000000000000000000000000000000000000000000000000000000000815260040161154490612a78565b60405180910390fd5b6004600082815260200190815260200160002060006101000a81549073ffffffffffffffffffffffffffffffffffffffff02191690556001600360008573ffffffffffffffffffffffffffffffffffffffff1673ffffffffffffffffffffffffffffffffffffffff168152602001908152602001600020600082825403925050819055506001600360008473ffffffffffffffffffffffffffffffffffffffff1673ffffffffffffffffffffffffffffffffffffffff16815260200190815260200160002060008282540192505081905550816002600083815260200190815260200160002060006101000a81548173ffffffffffffffffffffffffffffffffffffffff021916908373ffffffffffffffffffffffffffffffffffffffff160217905550808273ffffffffffffffffffffffffffffffffffffffff168473ffffffffffffffffffffffffffffffffffffffff167fddf252ad1be2c89b69c2b068fc378daa952ba7f163c4a11628f55a4df523b3ef60405160405180910390a46116d7838383611927565b505050565b60006002600083815260200190815260200160002060009054906101000a900473ffffffffffffffffffffffffffffffffffffffff169050919050565b8173ffffffffffffffffffffffffffffffffffffffff168373ffffffffffffffffffffffffffffffffffffffff1603611787576040517f08c379a000000000000000000000000000000000000000000000000000000000815260040161177e90612b76565b60405180910390fd5b80600560008573ffffffffffffffffffffffffffffffffffffffff1673ffffffffffffffffffffffffffffffffffffffff16815260200190815260200160002060008473ffffffffffffffffffffffffffffffffffffffff1673ffffffffffffffffffffffffffffffffffffffff16815260200190815260200160002060006101000a81548160ff0219169083151502179055508173ffffffffffffffffffffffffffffffffffffffff168373ffffffffffffffffffffffffffffffffffffffff167f17307eab39ab6107e8899845ad3d59bd9653f200f220920489ca2b5937696c31836040516118789190611b8a565b60405180910390a3505050565b6118908484846113e7565b61189c8484848461192c565b6118db576040517f08c379a00000000000000000000000000000000000000000000000000000000081526004016118d290612c08565b60405180910390fd5b50505050565b60008073ffffffffffffffffffffffffffffffffffffffff16611903836116dc565b73ffffffffffffffffffffffffffffffffffffffff1614159050919050565b505050565b505050565b600061194d8473ffffffffffffffffffffffffffffffffffffffff16611ab3565b15611aa6578373ffffffffffffffffffffffffffffffffffffffff1663150b7a02611976611078565b8786866040518563ffffffff1660e01b81526004016119989493929190612c7d565b6020604051808303816000875af19250505080156119d457506040513d601f19601f820116820180604052508101906119d19190612cde565b60015b611a56573d8060008114611a04576040519150601f19603f3d011682016040523d82523d6000602084013e611a09565b606091505b506000815103611a4e576040517f08c379a0000000000000000000000000000000000000000000000000000000008152600401611a4590612c08565b60405180910390fd5b805181602001fd5b63150b7a0260e01b7bffffffffffffffffffffffffffffffffffffffffffffffffffffffff1916817bffffffffffffffffffffffffffffffffffffffffffffffffffffffff191614915050611aab565b600190505b949350505050565b6000808273ffffffffffffffffffffffffffffffffffffffff163b119050919050565b6000604051905090565b600080fd5b600080fd5b60007fffffffff0000000000000000000000000000000000000000000000000000000082169050919050565b611b1f81611aea565b8114611b2a57600080fd5b50565b600081359050611b3c81611b16565b92915050565b600060208284031215611b5857611b57611ae0565b5b6000611b6684828501611b2d565b91505092915050565b60008115159050919050565b611b8481611b6f565b82525050565b6000602082019050611b9f6000830184611b7b565b92915050565b6000819050919050565b611bb881611ba5565b82525050565b6000602082019050611bd36000830184611baf565b92915050565b600081519050919050565b600082825260208201905092915050565b60005b83811015611c13578082015181840152602081019050611bf8565b60008484015250505050565b6000601f19601f8301169050919050565b6000611c3b82611bd9565b611c458185611be4565b9350611c55818560208601611bf5565b611c5e81611c1f565b840191505092915050565b60006020820190508181036000830152611c838184611c30565b905092915050565b611c9481611ba5565b8114611c9f57600080fd5b50565b600081359050611cb181611c8b565b92915050565b600060208284031215611ccd57611ccc611ae0565b5b6000611cdb84828501611ca2565b91505092915050565b600073ffffffffffffffffffffffffffffffffffffffff82169050919050565b6000611d0f82611ce4565b9050919050565b611d1f81611d04565b82525050565b6000602082019050611d3a6000830184611d16565b92915050565b611d4981611d04565b8114611d5457600080fd5b50565b600081359050611d6681611d40565b92915050565b60008060408385031215611d8357611d82611ae0565b5b6000611d9185828601611d57565b9250506020611da285828601611ca2565b9150509250929050565b600080fd5b600080fd5b7f4e487b7100000000000000000000000000000000000000000000000000000000600052604160045260246000fd5b611dee82611c1f565b810181811067ffffffffffffffff82111715611e0d57611e0c611db6565b5b80604052505050565b6000611e20611ad6565b9050611e2c8282611de5565b919050565b600067ffffffffffffffff821115611e4c57611e4b611db6565b5b611e5582611c1f565b9050602081019050919050565b82818337600083830152505050565b6000611e84611e7f84611e31565b611e16565b905082815260208101848484011115611ea057611e9f611db1565b5b611eab848285611e62565b509392505050565b600082601f830112611ec857611ec7611dac565b5b8135611ed8848260208601611e71565b91505092915050565b60008060408385031215611ef857611ef7611ae0565b5b6000611f0685828601611d57565b925050602083013567ffffffffffffffff811115611f2757611f26611ae5565b5b611f3385828601611eb3565b9150509250929050565b600080600060608486031215611f5657611f55611ae0565b5b6000611f6486828701611d57565b9350506020611f7586828701611d57565b9250506040611f8686828701611ca2565b9150509250925092565b600060208284031215611fa657611fa5611ae0565b5b6000611fb484828501611d57565b91505092915050565b600060208284031215611fd357611fd2611ae0565b5b600082013567ffffffffffffffff811115611ff157611ff0611ae5565b5b611ffd84828501611eb3565b91505092915050565b61200f81611b6f565b811461201a57600080fd5b50565b60008135905061202c81612006565b92915050565b6000806040838503121561204957612048611ae0565b5b600061205785828601611d57565b92505060206120688582860161201d565b9150509250929050565b600067ffffffffffffffff82111561208d5761208c611db6565b5b61209682611c1f565b9050602081019050919050565b60006120b66120b184612072565b611e16565b9050828152602081018484840111156120d2576120d1611db1565b5b6120dd848285611e62565b509392505050565b600082601f8301126120fa576120f9611dac565b5b813561210a8482602086016120a3565b91505092915050565b6000806000806080858703121561212d5761212c611ae0565b5b600061213b87828801611d57565b945050602061214c87828801611d57565b935050604061215d87828801611ca2565b925050606085013567ffffffffffffffff81111561217e5761217d611ae5565b5b61218a878288016120e5565b91505092959194509250565b600080604083850312156121ad576121ac611ae0565b5b60006121bb85828601611d57565b92505060206121cc85828601611d57565b9150509250929050565b7f4e487b7100000000000000000000000000000000000000000000000000000000600052602260045260246000fd5b6000600282049050600182168061221d57607f821691505b6020821081036122305761222f6121d6565b5b50919050565b7f4552433732313a20617070726f76616c20746f2063757272656e74206f776e6560008201527f7200000000000000000000000000000000000000000000000000000000000000602082015250565b6000612292602183611be4565b915061229d82612236565b604082019050919050565b600060208201905081810360008301526122c181612285565b9050919050565b7f4552433732313a20617070726f76652063616c6c6572206973206e6f7420746f60008201527f6b656e206f776e6572206f7220617070726f76656420666f7220616c6c000000602082015250565b6000612324603d83611be4565b915061232f826122c8565b604082019050919050565b6000602082019050818103600083015261235381612317565b9050919050565b7f4e487b7100000000000000000000000000000000000000000000000000000000600052601160045260246000fd5b600061239482611ba5565b91507fffffffffffffffffffffffffffffffffffffffffffffffffffffffffffffffff82036123c6576123c561235a565b5b600182019050919050565b600081905092915050565b60006123e782611bd9565b6123f181856123d1565b9350612401818560208601611bf5565b80840191505092915050565b600061241982846123dc565b915081905092915050565b7f526561737369676e6d6e6574206f662075726920746f206e6577206964210000600082015250565b600061245a601e83611be4565b915061246582612424565b602082019050919050565b600060208201905081810360008301526124898161244d565b9050919050565b60008190508160005260206000209050919050565b60006020601f8301049050919050565b600082821b905092915050565b6000600883026124f27fffffffffffffffffffffffffffffffffffffffffffffffffffffffffffffffff826124b5565b6124fc86836124b5565b95508019841693508086168417925050509392505050565b6000819050919050565b600061253961253461252f84611ba5565b612514565b611ba5565b9050919050565b6000819050919050565b6125538361251e565b61256761255f82612540565b8484546124c2565b825550505050565b600090565b61257c61256f565b61258781848461254a565b505050565b5b818110156125ab576125a0600082612574565b60018101905061258d565b5050565b601f8211156125f0576125c181612490565b6125ca846124a5565b810160208510156125d9578190505b6125ed6125e5856124a5565b83018261258c565b50505b505050565b600082821c905092915050565b6000612613600019846008026125f5565b1980831691505092915050565b600061262c8383612602565b9150826002028217905092915050565b61264582611bd9565b67ffffffffffffffff81111561265e5761265d611db6565b5b6126688254612205565b6126738282856125af565b600060209050601f8311600181146126a65760008415612694578287015190505b61269e8582612620565b865550612706565b601f1984166126b486612490565b60005b828110156126dc578489015182556001820191506020850194506020810190506126b7565b868310156126f957848901516126f5601f891682612602565b8355505b6001600288020188555050505b505050505050565b7f4552433732313a2063616c6c6572206973206e6f7420746f6b656e206f776e6560008201527f72206f7220617070726f76656400000000000000000000000000000000000000602082015250565b600061276a602d83611be4565b91506127758261270e565b604082019050919050565b600060208201905081810360008301526127998161275d565b9050919050565b7f4552433732313a20696e76616c696420746f6b656e2049440000000000000000600082015250565b60006127d6601883611be4565b91506127e1826127a0565b602082019050919050565b60006020820190508181036000830152612805816127c9565b9050919050565b7f4552433732313a2061646472657373207a65726f206973206e6f74206120766160008201527f6c6964206f776e65720000000000000000000000000000000000000000000000602082015250565b6000612868602983611be4565b91506128738261280c565b604082019050919050565b600060208201905081810360008301526128978161285b565b9050919050565b7f496e76616c696420746f6b656e49642100000000000000000000000000000000600082015250565b60006128d4601083611be4565b91506128df8261289e565b602082019050919050565b60006020820190508181036000830152612903816128c7565b9050919050565b600061291682856123dc565b915061292282846123dc565b91508190509392505050565b7f4552433732313a206d696e7420746f20746865207a65726f2061646472657373600082015250565b6000612964602083611be4565b915061296f8261292e565b602082019050919050565b6000602082019050818103600083015261299381612957565b9050919050565b7f4552433732313a20746f6b656e20616c7265616479206d696e74656400000000600082015250565b60006129d0601c83611be4565b91506129db8261299a565b602082019050919050565b600060208201905081810360008301526129ff816129c3565b9050919050565b7f4552433732313a207472616e736665722066726f6d20696e636f72726563742060008201527f6f776e6572000000000000000000000000000000000000000000000000000000602082015250565b6000612a62602583611be4565b9150612a6d82612a06565b604082019050919050565b60006020820190508181036000830152612a9181612a55565b9050919050565b7f4552433732313a207472616e7366657220746f20746865207a65726f2061646460008201527f7265737300000000000000000000000000000000000000000000000000000000602082015250565b6000612af4602483611be4565b9150612aff82612a98565b604082019050919050565b60006020820190508181036000830152612b2381612ae7565b9050919050565b7f4552433732313a20617070726f766520746f2063616c6c657200000000000000600082015250565b6000612b60601983611be4565b9150612b6b82612b2a565b602082019050919050565b60006020820190508181036000830152612b8f81612b53565b9050919050565b7f4552433732313a207472616e7366657220746f206e6f6e20455243373231526560008201527f63656976657220696d706c656d656e7465720000000000000000000000000000602082015250565b6000612bf2603283611be4565b9150612bfd82612b96565b604082019050919050565b60006020820190508181036000830152612c2181612be5565b9050919050565b600081519050919050565b600082825260208201905092915050565b6000612c4f82612c28565b612c598185612c33565b9350612c69818560208601611bf5565b612c7281611c1f565b840191505092915050565b6000608082019050612c926000830187611d16565b612c9f6020830186611d16565b612cac6040830185611baf565b8181036060830152612cbe8184612c44565b905095945050505050565b600081519050612cd881611b16565b92915050565b600060208284031215612cf457612cf3611ae0565b5b6000612d0284828501612cc9565b9150509291505056fe68747470733a2f2f636f6c6c61622e6974732e76697267696e69612e6564752f6163636573732f636f6e74656e742f67726f75702f65396164326662622d666163612d343134622d396466312d3666393031396537363565392f697066732fa264697066735822122086eadbe1fac546338317d77ce0231b306915b0d284701261a963ce32bacca44864736f6c6343000810003353656e642074686520626c6f6f64206f6620796f757220666972737420626f726e206368696c6420746f2052756d706c657374696c736b656e202d20616c736f203120457468492077616e7420796f7572206d6f6e65792e2047697665206d6520796f7572206d6f6e657921",
			"opcodes": "PUSH1 0x80 PUSH1 0x40 MSTORE CALLVALUE DUP1 ISZERO PUSH3 0x11 JUMPI PUSH1 0x0 DUP1 REVERT JUMPDEST POP PUSH1 0x0 PUSH1 0x6 DUP2 SWAP1 SSTORE POP PUSH1 0x0 PUSH1 0x8 DUP2 SWAP1 SSTORE POP PUSH1 0x40 MLOAD PUSH3 0x30 SWAP1 PUSH3 0x653 JUMP JUMPDEST PUSH1 0x40 MLOAD DUP1 SWAP2 SUB SWAP1 PUSH1 0x0 CREATE DUP1 ISZERO DUP1 ISZERO PUSH3 0x4D JUMPI RETURNDATASIZE PUSH1 0x0 DUP1 RETURNDATACOPY RETURNDATASIZE PUSH1 0x0 REVERT JUMPDEST POP PUSH1 0x2 PUSH1 0x0 PUSH2 0x100 EXP DUP2 SLOAD DUP2 PUSH20 0xFFFFFFFFFFFFFFFFFFFFFFFFFFFFFFFFFFFFFFFF MUL NOT AND SWAP1 DUP4 PUSH20 0xFFFFFFFFFFFFFFFFFFFFFFFFFFFFFFFFFFFFFFFF AND MUL OR SWAP1 SSTORE POP PUSH1 0x2 PUSH1 0x0 SWAP1 SLOAD SWAP1 PUSH2 0x100 EXP SWAP1 DIV PUSH20 0xFFFFFFFFFFFFFFFFFFFFFFFFFFFFFFFFFFFFFFFF AND PUSH1 0x1 PUSH1 0x0 PUSH2 0x100 EXP DUP2 SLOAD DUP2 PUSH20 0xFFFFFFFFFFFFFFFFFFFFFFFFFFFFFFFFFFFFFFFF MUL NOT AND SWAP1 DUP4 PUSH20 0xFFFFFFFFFFFFFFFFFFFFFFFFFFFFFFFFFFFFFFFF AND MUL OR SWAP1 SSTORE POP PUSH1 0x40 MLOAD DUP1 PUSH1 0x60 ADD PUSH1 0x40 MSTORE DUP1 PUSH1 0x26 DUP2 MSTORE PUSH1 0x20 ADD PUSH3 0x6649 PUSH1 0x26 SWAP2 CODECOPY PUSH1 0x3 SWAP1 DUP2 PUSH3 0x11B SWAP2 SWAP1 PUSH3 0x8DB JUMP JUMPDEST POP PUSH1 0x40 MLOAD DUP1 PUSH1 0x80 ADD PUSH1 0x40 MSTORE DUP1 PUSH1 0x46 DUP2 MSTORE PUSH1 0x20 ADD PUSH3 0x6603 PUSH1 0x46 SWAP2 CODECOPY PUSH1 0x7 SWAP1 DUP2 PUSH3 0x146 SWAP2 SWAP1 PUSH3 0x8DB JUMP JUMPDEST POP CALLER PUSH1 0x9 PUSH1 0x0 PUSH2 0x100 EXP DUP2 SLOAD DUP2 PUSH20 0xFFFFFFFFFFFFFFFFFFFFFFFFFFFFFFFFFFFFFFFF MUL NOT AND SWAP1 DUP4 PUSH20 0xFFFFFFFFFFFFFFFFFFFFFFFFFFFFFFFFFFFFFFFF AND MUL OR SWAP1 SSTORE POP PUSH1 0x1 PUSH1 0xA PUSH1 0x0 CALLER PUSH20 0xFFFFFFFFFFFFFFFFFFFFFFFFFFFFFFFFFFFFFFFF AND PUSH20 0xFFFFFFFFFFFFFFFFFFFFFFFFFFFFFFFFFFFFFFFF AND DUP2 MSTORE PUSH1 0x20 ADD SWAP1 DUP2 MSTORE PUSH1 0x20 ADD PUSH1 0x0 KECCAK256 PUSH1 0x0 PUSH2 0x100 EXP DUP2 SLOAD DUP2 PUSH1 0xFF MUL NOT AND SWAP1 DUP4 ISZERO ISZERO MUL OR SWAP1 SSTORE POP PUSH1 0x2 PUSH1 0x0 SWAP1 SLOAD SWAP1 PUSH2 0x100 EXP SWAP1 DIV PUSH20 0xFFFFFFFFFFFFFFFFFFFFFFFFFFFFFFFFFFFFFFFF AND PUSH20 0xFFFFFFFFFFFFFFFFFFFFFFFFFFFFFFFFFFFFFFFF AND PUSH4 0xE980602 CALLER PUSH3 0x249 PUSH3 0x239 CALLER PUSH3 0x2B5 PUSH1 0x20 SHL PUSH3 0x12DB OR PUSH1 0x20 SHR JUMP JUMPDEST PUSH1 0x2 PUSH1 0x22 PUSH3 0x2EA PUSH1 0x20 SHL PUSH1 0x20 SHR JUMP JUMPDEST PUSH1 0x40 MLOAD DUP4 PUSH4 0xFFFFFFFF AND PUSH1 0xE0 SHL DUP2 MSTORE PUSH1 0x4 ADD PUSH3 0x268 SWAP3 SWAP2 SWAP1 PUSH3 0xA96 JUMP JUMPDEST PUSH1 0x20 PUSH1 0x40 MLOAD DUP1 DUP4 SUB DUP2 PUSH1 0x0 DUP8 GAS CALL ISZERO DUP1 ISZERO PUSH3 0x288 JUMPI RETURNDATASIZE PUSH1 0x0 DUP1 RETURNDATACOPY RETURNDATASIZE PUSH1 0x0 REVERT JUMPDEST POP POP POP POP PUSH1 0x40 MLOAD RETURNDATASIZE PUSH1 0x1F NOT PUSH1 0x1F DUP3 ADD AND DUP3 ADD DUP1 PUSH1 0x40 MSTORE POP DUP2 ADD SWAP1 PUSH3 0x2AE SWAP2 SWAP1 PUSH3 0xB00 JUMP JUMPDEST POP PUSH3 0xD54 JUMP JUMPDEST PUSH1 0x60 PUSH3 0x2E3 DUP3 PUSH20 0xFFFFFFFFFFFFFFFFFFFFFFFFFFFFFFFFFFFFFFFF AND PUSH1 0x14 PUSH1 0xFF AND PUSH3 0x3F8 PUSH1 0x20 SHL PUSH1 0x20 SHR JUMP JUMPDEST SWAP1 POP SWAP2 SWAP1 POP JUMP JUMPDEST PUSH1 0x60 PUSH1 0x0 DUP5 SWAP1 POP PUSH1 0x0 DUP5 DUP5 PUSH3 0x301 SWAP2 SWAP1 PUSH3 0xB61 JUMP JUMPDEST PUSH8 0xFFFFFFFFFFFFFFFF DUP2 GT ISZERO PUSH3 0x31D JUMPI PUSH3 0x31C PUSH3 0x66C JUMP JUMPDEST JUMPDEST PUSH1 0x40 MLOAD SWAP1 DUP1 DUP3 MSTORE DUP1 PUSH1 0x1F ADD PUSH1 0x1F NOT AND PUSH1 0x20 ADD DUP3 ADD PUSH1 0x40 MSTORE DUP1 ISZERO PUSH3 0x350 JUMPI DUP2 PUSH1 0x20 ADD PUSH1 0x1 DUP3 MUL DUP1 CALLDATASIZE DUP4 CALLDATACOPY DUP1 DUP3 ADD SWAP2 POP POP SWAP1 POP JUMPDEST POP SWAP1 POP PUSH1 0x0 DUP6 SWAP1 POP JUMPDEST DUP5 DUP2 LT ISZERO PUSH3 0x3EB JUMPI DUP3 DUP2 DUP2 MLOAD DUP2 LT PUSH3 0x378 JUMPI PUSH3 0x377 PUSH3 0xB9C JUMP JUMPDEST JUMPDEST PUSH1 0x20 ADD ADD MLOAD PUSH1 0xF8 SHR PUSH1 0xF8 SHL DUP3 DUP8 DUP4 PUSH3 0x392 SWAP2 SWAP1 PUSH3 0xB61 JUMP JUMPDEST DUP2 MLOAD DUP2 LT PUSH3 0x3A6 JUMPI PUSH3 0x3A5 PUSH3 0xB9C JUMP JUMPDEST JUMPDEST PUSH1 0x20 ADD ADD SWAP1 PUSH31 0xFFFFFFFFFFFFFFFFFFFFFFFFFFFFFFFFFFFFFFFFFFFFFFFFFFFFFFFFFFFFFF NOT AND SWAP1 DUP2 PUSH1 0x0 BYTE SWAP1 MSTORE8 POP DUP1 DUP1 PUSH3 0x3E2 SWAP1 PUSH3 0xBCB JUMP JUMPDEST SWAP2 POP POP PUSH3 0x359 JUMP JUMPDEST POP DUP1 SWAP3 POP POP POP SWAP4 SWAP3 POP POP POP JUMP JUMPDEST PUSH1 0x60 PUSH1 0x0 PUSH1 0x2 DUP4 PUSH1 0x2 PUSH3 0x40D SWAP2 SWAP1 PUSH3 0xC18 JUMP JUMPDEST PUSH3 0x419 SWAP2 SWAP1 PUSH3 0xC79 JUMP JUMPDEST PUSH8 0xFFFFFFFFFFFFFFFF DUP2 GT ISZERO PUSH3 0x435 JUMPI PUSH3 0x434 PUSH3 0x66C JUMP JUMPDEST JUMPDEST PUSH1 0x40 MLOAD SWAP1 DUP1 DUP3 MSTORE DUP1 PUSH1 0x1F ADD PUSH1 0x1F NOT AND PUSH1 0x20 ADD DUP3 ADD PUSH1 0x40 MSTORE DUP1 ISZERO PUSH3 0x468 JUMPI DUP2 PUSH1 0x20 ADD PUSH1 0x1 DUP3 MUL DUP1 CALLDATASIZE DUP4 CALLDATACOPY DUP1 DUP3 ADD SWAP2 POP POP SWAP1 POP JUMPDEST POP SWAP1 POP PUSH32 0x3000000000000000000000000000000000000000000000000000000000000000 DUP2 PUSH1 0x0 DUP2 MLOAD DUP2 LT PUSH3 0x4A3 JUMPI PUSH3 0x4A2 PUSH3 0xB9C JUMP JUMPDEST JUMPDEST PUSH1 0x20 ADD ADD SWAP1 PUSH31 0xFFFFFFFFFFFFFFFFFFFFFFFFFFFFFFFFFFFFFFFFFFFFFFFFFFFFFFFFFFFFFF NOT AND SWAP1 DUP2 PUSH1 0x0 BYTE SWAP1 MSTORE8 POP PUSH32 0x7800000000000000000000000000000000000000000000000000000000000000 DUP2 PUSH1 0x1 DUP2 MLOAD DUP2 LT PUSH3 0x50A JUMPI PUSH3 0x509 PUSH3 0xB9C JUMP JUMPDEST JUMPDEST PUSH1 0x20 ADD ADD SWAP1 PUSH31 0xFFFFFFFFFFFFFFFFFFFFFFFFFFFFFFFFFFFFFFFFFFFFFFFFFFFFFFFFFFFFFF NOT AND SWAP1 DUP2 PUSH1 0x0 BYTE SWAP1 MSTORE8 POP PUSH1 0x0 PUSH1 0x1 DUP5 PUSH1 0x2 PUSH3 0x54C SWAP2 SWAP1 PUSH3 0xC18 JUMP JUMPDEST PUSH3 0x558 SWAP2 SWAP1 PUSH3 0xC79 JUMP JUMPDEST SWAP1 POP JUMPDEST PUSH1 0x1 DUP2 GT ISZERO PUSH3 0x602 JUMPI PUSH32 0x3031323334353637383961626364656600000000000000000000000000000000 PUSH1 0xF DUP7 AND PUSH1 0x10 DUP2 LT PUSH3 0x59E JUMPI PUSH3 0x59D PUSH3 0xB9C JUMP JUMPDEST JUMPDEST BYTE PUSH1 0xF8 SHL DUP3 DUP3 DUP2 MLOAD DUP2 LT PUSH3 0x5B8 JUMPI PUSH3 0x5B7 PUSH3 0xB9C JUMP JUMPDEST JUMPDEST PUSH1 0x20 ADD ADD SWAP1 PUSH31 0xFFFFFFFFFFFFFFFFFFFFFFFFFFFFFFFFFFFFFFFFFFFFFFFFFFFFFFFFFFFFFF NOT AND SWAP1 DUP2 PUSH1 0x0 BYTE SWAP1 MSTORE8 POP PUSH1 0x4 DUP6 SWAP1 SHR SWAP5 POP DUP1 PUSH3 0x5FA SWAP1 PUSH3 0xCB4 JUMP JUMPDEST SWAP1 POP PUSH3 0x55B JUMP JUMPDEST POP PUSH1 0x0 DUP5 EQ PUSH3 0x649 JUMPI PUSH1 0x40 MLOAD PUSH32 0x8C379A000000000000000000000000000000000000000000000000000000000 DUP2 MSTORE PUSH1 0x4 ADD PUSH3 0x640 SWAP1 PUSH3 0xD32 JUMP JUMPDEST PUSH1 0x40 MLOAD DUP1 SWAP2 SUB SWAP1 REVERT JUMPDEST DUP1 SWAP2 POP POP SWAP3 SWAP2 POP POP JUMP JUMPDEST PUSH2 0x3195 DUP1 PUSH3 0x346E DUP4 CODECOPY ADD SWAP1 JUMP JUMPDEST PUSH1 0x0 DUP2 MLOAD SWAP1 POP SWAP2 SWAP1 POP JUMP JUMPDEST PUSH32 0x4E487B7100000000000000000000000000000000000000000000000000000000 PUSH1 0x0 MSTORE PUSH1 0x41 PUSH1 0x4 MSTORE PUSH1 0x24 PUSH1 0x0 REVERT JUMPDEST PUSH32 0x4E487B7100000000000000000000000000000000000000000000000000000000 PUSH1 0x0 MSTORE PUSH1 0x22 PUSH1 0x4 MSTORE PUSH1 0x24 PUSH1 0x0 REVERT JUMPDEST PUSH1 0x0 PUSH1 0x2 DUP3 DIV SWAP1 POP PUSH1 0x1 DUP3 AND DUP1 PUSH3 0x6E3 JUMPI PUSH1 0x7F DUP3 AND SWAP2 POP JUMPDEST PUSH1 0x20 DUP3 LT DUP2 SUB PUSH3 0x6F9 JUMPI PUSH3 0x6F8 PUSH3 0x69B JUMP JUMPDEST JUMPDEST POP SWAP2 SWAP1 POP JUMP JUMPDEST PUSH1 0x0 DUP2 SWAP1 POP DUP2 PUSH1 0x0 MSTORE PUSH1 0x20 PUSH1 0x0 KECCAK256 SWAP1 POP SWAP2 SWAP1 POP JUMP JUMPDEST PUSH1 0x0 PUSH1 0x20 PUSH1 0x1F DUP4 ADD DIV SWAP1 POP SWAP2 SWAP1 POP JUMP JUMPDEST PUSH1 0x0 DUP3 DUP3 SHL SWAP1 POP SWAP3 SWAP2 POP POP JUMP JUMPDEST PUSH1 0x0 PUSH1 0x8 DUP4 MUL PUSH3 0x763 PUSH32 0xFFFFFFFFFFFFFFFFFFFFFFFFFFFFFFFFFFFFFFFFFFFFFFFFFFFFFFFFFFFFFFFF DUP3 PUSH3 0x724 JUMP JUMPDEST PUSH3 0x76F DUP7 DUP4 PUSH3 0x724 JUMP JUMPDEST SWAP6 POP DUP1 NOT DUP5 AND SWAP4 POP DUP1 DUP7 AND DUP5 OR SWAP3 POP POP POP SWAP4 SWAP3 POP POP POP JUMP JUMPDEST PUSH1 0x0 DUP2 SWAP1 POP SWAP2 SWAP1 POP JUMP JUMPDEST PUSH1 0x0 DUP2 SWAP1 POP SWAP2 SWAP1 POP JUMP JUMPDEST PUSH1 0x0 PUSH3 0x7BC PUSH3 0x7B6 PUSH3 0x7B0 DUP5 PUSH3 0x787 JUMP JUMPDEST PUSH3 0x791 JUMP JUMPDEST PUSH3 0x787 JUMP JUMPDEST SWAP1 POP SWAP2 SWAP1 POP JUMP JUMPDEST PUSH1 0x0 DUP2 SWAP1 POP SWAP2 SWAP1 POP JUMP JUMPDEST PUSH3 0x7D8 DUP4 PUSH3 0x79B JUMP JUMPDEST PUSH3 0x7F0 PUSH3 0x7E7 DUP3 PUSH3 0x7C3 JUMP JUMPDEST DUP5 DUP5 SLOAD PUSH3 0x731 JUMP JUMPDEST DUP3 SSTORE POP POP POP POP JUMP JUMPDEST PUSH1 0x0 SWAP1 JUMP JUMPDEST PUSH3 0x807 PUSH3 0x7F8 JUMP JUMPDEST PUSH3 0x814 DUP2 DUP5 DUP5 PUSH3 0x7CD JUMP JUMPDEST POP POP POP JUMP JUMPDEST JUMPDEST DUP2 DUP2 LT ISZERO PUSH3 0x83C JUMPI PUSH3 0x830 PUSH1 0x0 DUP3 PUSH3 0x7FD JUMP JUMPDEST PUSH1 0x1 DUP2 ADD SWAP1 POP PUSH3 0x81A JUMP JUMPDEST POP POP JUMP JUMPDEST PUSH1 0x1F DUP3 GT ISZERO PUSH3 0x88B JUMPI PUSH3 0x855 DUP2 PUSH3 0x6FF JUMP JUMPDEST PUSH3 0x860 DUP5 PUSH3 0x714 JUMP JUMPDEST DUP2 ADD PUSH1 0x20 DUP6 LT ISZERO PUSH3 0x870 JUMPI DUP2 SWAP1 POP JUMPDEST PUSH3 0x888 PUSH3 0x87F DUP6 PUSH3 0x714 JUMP JUMPDEST DUP4 ADD DUP3 PUSH3 0x819 JUMP JUMPDEST POP POP JUMPDEST POP POP POP JUMP JUMPDEST PUSH1 0x0 DUP3 DUP3 SHR SWAP1 POP SWAP3 SWAP2 POP POP JUMP JUMPDEST PUSH1 0x0 PUSH3 0x8B0 PUSH1 0x0 NOT DUP5 PUSH1 0x8 MUL PUSH3 0x890 JUMP JUMPDEST NOT DUP1 DUP4 AND SWAP2 POP POP SWAP3 SWAP2 POP POP JUMP JUMPDEST PUSH1 0x0 PUSH3 0x8CB DUP4 DUP4 PUSH3 0x89D JUMP JUMPDEST SWAP2 POP DUP3 PUSH1 0x2 MUL DUP3 OR SWAP1 POP SWAP3 SWAP2 POP POP JUMP JUMPDEST PUSH3 0x8E6 DUP3 PUSH3 0x661 JUMP JUMPDEST PUSH8 0xFFFFFFFFFFFFFFFF DUP2 GT ISZERO PUSH3 0x902 JUMPI PUSH3 0x901 PUSH3 0x66C JUMP JUMPDEST JUMPDEST PUSH3 0x90E DUP3 SLOAD PUSH3 0x6CA JUMP JUMPDEST PUSH3 0x91B DUP3 DUP3 DUP6 PUSH3 0x840 JUMP JUMPDEST PUSH1 0x0 PUSH1 0x20 SWAP1 POP PUSH1 0x1F DUP4 GT PUSH1 0x1 DUP2 EQ PUSH3 0x953 JUMPI PUSH1 0x0 DUP5 ISZERO PUSH3 0x93E JUMPI DUP3 DUP8 ADD MLOAD SWAP1 POP JUMPDEST PUSH3 0x94A DUP6 DUP3 PUSH3 0x8BD JUMP JUMPDEST DUP7 SSTORE POP PUSH3 0x9BA JUMP JUMPDEST PUSH1 0x1F NOT DUP5 AND PUSH3 0x963 DUP7 PUSH3 0x6FF JUMP JUMPDEST PUSH1 0x0 JUMPDEST DUP3 DUP2 LT ISZERO PUSH3 0x98D JUMPI DUP5 DUP10 ADD MLOAD DUP3 SSTORE PUSH1 0x1 DUP3 ADD SWAP2 POP PUSH1 0x20 DUP6 ADD SWAP5 POP PUSH1 0x20 DUP2 ADD SWAP1 POP PUSH3 0x966 JUMP JUMPDEST DUP7 DUP4 LT ISZERO PUSH3 0x9AD JUMPI DUP5 DUP10 ADD MLOAD PUSH3 0x9A9 PUSH1 0x1F DUP10 AND DUP3 PUSH3 0x89D JUMP JUMPDEST DUP4 SSTORE POP JUMPDEST PUSH1 0x1 PUSH1 0x2 DUP9 MUL ADD DUP9 SSTORE POP POP POP JUMPDEST POP POP POP POP POP POP JUMP JUMPDEST PUSH1 0x0 PUSH20 0xFFFFFFFFFFFFFFFFFFFFFFFFFFFFFFFFFFFFFFFF DUP3 AND SWAP1 POP SWAP2 SWAP1 POP JUMP JUMPDEST PUSH1 0x0 PUSH3 0x9EF DUP3 PUSH3 0x9C2 JUMP JUMPDEST SWAP1 POP SWAP2 SWAP1 POP JUMP JUMPDEST PUSH3 0xA01 DUP2 PUSH3 0x9E2 JUMP JUMPDEST DUP3 MSTORE POP POP JUMP JUMPDEST PUSH1 0x0 DUP3 DUP3 MSTORE PUSH1 0x20 DUP3 ADD SWAP1 POP SWAP3 SWAP2 POP POP JUMP JUMPDEST PUSH1 0x0 JUMPDEST DUP4 DUP2 LT ISZERO PUSH3 0xA38 JUMPI DUP1 DUP3 ADD MLOAD DUP2 DUP5 ADD MSTORE PUSH1 0x20 DUP2 ADD SWAP1 POP PUSH3 0xA1B JUMP JUMPDEST PUSH1 0x0 DUP5 DUP5 ADD MSTORE POP POP POP POP JUMP JUMPDEST PUSH1 0x0 PUSH1 0x1F NOT PUSH1 0x1F DUP4 ADD AND SWAP1 POP SWAP2 SWAP1 POP JUMP JUMPDEST PUSH1 0x0 PUSH3 0xA62 DUP3 PUSH3 0x661 JUMP JUMPDEST PUSH3 0xA6E DUP2 DUP6 PUSH3 0xA07 JUMP JUMPDEST SWAP4 POP PUSH3 0xA80 DUP2 DUP6 PUSH1 0x20 DUP7 ADD PUSH3 0xA18 JUMP JUMPDEST PUSH3 0xA8B DUP2 PUSH3 0xA44 JUMP JUMPDEST DUP5 ADD SWAP2 POP POP SWAP3 SWAP2 POP POP JUMP JUMPDEST PUSH1 0x0 PUSH1 0x40 DUP3 ADD SWAP1 POP PUSH3 0xAAD PUSH1 0x0 DUP4 ADD DUP6 PUSH3 0x9F6 JUMP JUMPDEST DUP2 DUP2 SUB PUSH1 0x20 DUP4 ADD MSTORE PUSH3 0xAC1 DUP2 DUP5 PUSH3 0xA55 JUMP JUMPDEST SWAP1 POP SWAP4 SWAP3 POP POP POP JUMP JUMPDEST PUSH1 0x0 DUP1 REVERT JUMPDEST PUSH3 0xADA DUP2 PUSH3 0x787 JUMP JUMPDEST DUP2 EQ PUSH3 0xAE6 JUMPI PUSH1 0x0 DUP1 REVERT JUMPDEST POP JUMP JUMPDEST PUSH1 0x0 DUP2 MLOAD SWAP1 POP PUSH3 0xAFA DUP2 PUSH3 0xACF JUMP JUMPDEST SWAP3 SWAP2 POP POP JUMP JUMPDEST PUSH1 0x0 PUSH1 0x20 DUP3 DUP5 SUB SLT ISZERO PUSH3 0xB19 JUMPI PUSH3 0xB18 PUSH3 0xACA JUMP JUMPDEST JUMPDEST PUSH1 0x0 PUSH3 0xB29 DUP5 DUP3 DUP6 ADD PUSH3 0xAE9 JUMP JUMPDEST SWAP2 POP POP SWAP3 SWAP2 POP POP JUMP JUMPDEST PUSH32 0x4E487B7100000000000000000000000000000000000000000000000000000000 PUSH1 0x0 MSTORE PUSH1 0x11 PUSH1 0x4 MSTORE PUSH1 0x24 PUSH1 0x0 REVERT JUMPDEST PUSH1 0x0 PUSH3 0xB6E DUP3 PUSH3 0x787 JUMP JUMPDEST SWAP2 POP PUSH3 0xB7B DUP4 PUSH3 0x787 JUMP JUMPDEST SWAP3 POP DUP3 DUP3 SUB SWAP1 POP DUP2 DUP2 GT ISZERO PUSH3 0xB96 JUMPI PUSH3 0xB95 PUSH3 0xB32 JUMP JUMPDEST JUMPDEST SWAP3 SWAP2 POP POP JUMP JUMPDEST PUSH32 0x4E487B7100000000000000000000000000000000000000000000000000000000 PUSH1 0x0 MSTORE PUSH1 0x32 PUSH1 0x4 MSTORE PUSH1 0x24 PUSH1 0x0 REVERT JUMPDEST PUSH1 0x0 PUSH3 0xBD8 DUP3 PUSH3 0x787 JUMP JUMPDEST SWAP2 POP PUSH32 0xFFFFFFFFFFFFFFFFFFFFFFFFFFFFFFFFFFFFFFFFFFFFFFFFFFFFFFFFFFFFFFFF DUP3 SUB PUSH3 0xC0D JUMPI PUSH3 0xC0C PUSH3 0xB32 JUMP JUMPDEST JUMPDEST PUSH1 0x1 DUP3 ADD SWAP1 POP SWAP2 SWAP1 POP JUMP JUMPDEST PUSH1 0x0 PUSH3 0xC25 DUP3 PUSH3 0x787 JUMP JUMPDEST SWAP2 POP PUSH3 0xC32 DUP4 PUSH3 0x787 JUMP JUMPDEST SWAP3 POP DUP2 PUSH32 0xFFFFFFFFFFFFFFFFFFFFFFFFFFFFFFFFFFFFFFFFFFFFFFFFFFFFFFFFFFFFFFFF DIV DUP4 GT DUP3 ISZERO ISZERO AND ISZERO PUSH3 0xC6E JUMPI PUSH3 0xC6D PUSH3 0xB32 JUMP JUMPDEST JUMPDEST DUP3 DUP3 MUL SWAP1 POP SWAP3 SWAP2 POP POP JUMP JUMPDEST PUSH1 0x0 PUSH3 0xC86 DUP3 PUSH3 0x787 JUMP JUMPDEST SWAP2 POP PUSH3 0xC93 DUP4 PUSH3 0x787 JUMP JUMPDEST SWAP3 POP DUP3 DUP3 ADD SWAP1 POP DUP1 DUP3 GT ISZERO PUSH3 0xCAE JUMPI PUSH3 0xCAD PUSH3 0xB32 JUMP JUMPDEST JUMPDEST SWAP3 SWAP2 POP POP JUMP JUMPDEST PUSH1 0x0 PUSH3 0xCC1 DUP3 PUSH3 0x787 JUMP JUMPDEST SWAP2 POP PUSH1 0x0 DUP3 SUB PUSH3 0xCD7 JUMPI PUSH3 0xCD6 PUSH3 0xB32 JUMP JUMPDEST JUMPDEST PUSH1 0x1 DUP3 SUB SWAP1 POP SWAP2 SWAP1 POP JUMP JUMPDEST PUSH32 0x537472696E67733A20686578206C656E67746820696E73756666696369656E74 PUSH1 0x0 DUP3 ADD MSTORE POP JUMP JUMPDEST PUSH1 0x0 PUSH3 0xD1A PUSH1 0x20 DUP4 PUSH3 0xA07 JUMP JUMPDEST SWAP2 POP PUSH3 0xD27 DUP3 PUSH3 0xCE2 JUMP JUMPDEST PUSH1 0x20 DUP3 ADD SWAP1 POP SWAP2 SWAP1 POP JUMP JUMPDEST PUSH1 0x0 PUSH1 0x20 DUP3 ADD SWAP1 POP DUP2 DUP2 SUB PUSH1 0x0 DUP4 ADD MSTORE PUSH3 0xD4D DUP2 PUSH3 0xD0B JUMP JUMPDEST SWAP1 POP SWAP2 SWAP1 POP JUMP JUMPDEST PUSH2 0x270A DUP1 PUSH3 0xD64 PUSH1 0x0 CODECOPY PUSH1 0x0 RETURN INVALID PUSH1 0x80 PUSH1 0x40 MSTORE PUSH1 0x4 CALLDATASIZE LT PUSH2 0x10D JUMPI PUSH1 0x0 CALLDATALOAD PUSH1 0xE0 SHR DUP1 PUSH4 0x8D7AF473 GT PUSH2 0x95 JUMPI DUP1 PUSH4 0xC9D27AFE GT PUSH2 0x64 JUMPI DUP1 PUSH4 0xC9D27AFE EQ PUSH2 0x387 JUMPI DUP1 PUSH4 0xCA6D56DC EQ PUSH2 0x3B0 JUMPI DUP1 PUSH4 0xD6B78768 EQ PUSH2 0x3D9 JUMPI DUP1 PUSH4 0xE66F53B7 EQ PUSH2 0x404 JUMPI DUP1 PUSH4 0xEA3FAD66 EQ PUSH2 0x42F JUMPI PUSH2 0x114 JUMP JUMPDEST DUP1 PUSH4 0x8D7AF473 EQ PUSH2 0x2C9 JUMPI DUP1 PUSH4 0x9D63848A EQ PUSH2 0x2F4 JUMPI DUP1 PUSH4 0xA230C524 EQ PUSH2 0x31F JUMPI DUP1 PUSH4 0xC65C90CC EQ PUSH2 0x35C JUMPI PUSH2 0x114 JUMP JUMPDEST DUP1 PUSH4 0x1A384287 GT PUSH2 0xDC JUMPI DUP1 PUSH4 0x1A384287 EQ PUSH2 0x1EF JUMPI DUP1 PUSH4 0x237B2197 EQ PUSH2 0x22C JUMPI DUP1 PUSH4 0x2E6FB097 EQ PUSH2 0x257 JUMPI DUP1 PUSH4 0x70740AAB EQ PUSH2 0x287 JUMPI DUP1 PUSH4 0x7B10B293 EQ PUSH2 0x2B2 JUMPI PUSH2 0x114 JUMP JUMPDEST DUP1 PUSH4 0x13CF08B EQ PUSH2 0x119 JUMPI DUP1 PUSH4 0x1FFC9A7 EQ PUSH2 0x15E JUMPI DUP1 PUSH4 0x386A016 EQ PUSH2 0x19B JUMPI DUP1 PUSH4 0x1714F2E0 EQ PUSH2 0x1C4 JUMPI PUSH2 0x114 JUMP JUMPDEST CALLDATASIZE PUSH2 0x114 JUMPI STOP JUMPDEST PUSH1 0x0 DUP1 REVERT JUMPDEST CALLVALUE DUP1 ISZERO PUSH2 0x125 JUMPI PUSH1 0x0 DUP1 REVERT JUMPDEST POP PUSH2 0x140 PUSH1 0x4 DUP1 CALLDATASIZE SUB DUP2 ADD SWAP1 PUSH2 0x13B SWAP2 SWAP1 PUSH2 0x168A JUMP JUMPDEST PUSH2 0x46C JUMP JUMPDEST PUSH1 0x40 MLOAD PUSH2 0x155 SWAP10 SWAP9 SWAP8 SWAP7 SWAP6 SWAP5 SWAP4 SWAP3 SWAP2 SWAP1 PUSH2 0x17B2 JUMP JUMPDEST PUSH1 0x40 MLOAD DUP1 SWAP2 SUB SWAP1 RETURN JUMPDEST CALLVALUE DUP1 ISZERO PUSH2 0x16A JUMPI PUSH1 0x0 DUP1 REVERT JUMPDEST POP PUSH2 0x185 PUSH1 0x4 DUP1 CALLDATASIZE SUB DUP2 ADD SWAP1 PUSH2 0x180 SWAP2 SWAP1 PUSH2 0x189E JUMP JUMPDEST PUSH2 0x59C JUMP JUMPDEST PUSH1 0x40 MLOAD PUSH2 0x192 SWAP2 SWAP1 PUSH2 0x18CB JUMP JUMPDEST PUSH1 0x40 MLOAD DUP1 SWAP2 SUB SWAP1 RETURN JUMPDEST CALLVALUE DUP1 ISZERO PUSH2 0x1A7 JUMPI PUSH1 0x0 DUP1 REVERT JUMPDEST POP PUSH2 0x1C2 PUSH1 0x4 DUP1 CALLDATASIZE SUB DUP2 ADD SWAP1 PUSH2 0x1BD SWAP2 SWAP1 PUSH2 0x168A JUMP JUMPDEST PUSH2 0x66E JUMP JUMPDEST STOP JUMPDEST CALLVALUE DUP1 ISZERO PUSH2 0x1D0 JUMPI PUSH1 0x0 DUP1 REVERT JUMPDEST POP PUSH2 0x1D9 PUSH2 0x95B JUMP JUMPDEST PUSH1 0x40 MLOAD PUSH2 0x1E6 SWAP2 SWAP1 PUSH2 0x1945 JUMP JUMPDEST PUSH1 0x40 MLOAD DUP1 SWAP2 SUB SWAP1 RETURN JUMPDEST CALLVALUE DUP1 ISZERO PUSH2 0x1FB JUMPI PUSH1 0x0 DUP1 REVERT JUMPDEST POP PUSH2 0x216 PUSH1 0x4 DUP1 CALLDATASIZE SUB DUP2 ADD SWAP1 PUSH2 0x211 SWAP2 SWAP1 PUSH2 0x198C JUMP JUMPDEST PUSH2 0x981 JUMP JUMPDEST PUSH1 0x40 MLOAD PUSH2 0x223 SWAP2 SWAP1 PUSH2 0x18CB JUMP JUMPDEST PUSH1 0x40 MLOAD DUP1 SWAP2 SUB SWAP1 RETURN JUMPDEST CALLVALUE DUP1 ISZERO PUSH2 0x238 JUMPI PUSH1 0x0 DUP1 REVERT JUMPDEST POP PUSH2 0x241 PUSH2 0x9B0 JUMP JUMPDEST PUSH1 0x40 MLOAD PUSH2 0x24E SWAP2 SWAP1 PUSH2 0x19CC JUMP JUMPDEST PUSH1 0x40 MLOAD DUP1 SWAP2 SUB SWAP1 RETURN JUMPDEST PUSH2 0x271 PUSH1 0x4 DUP1 CALLDATASIZE SUB DUP2 ADD SWAP1 PUSH2 0x26C SWAP2 SWAP1 PUSH2 0x1B1C JUMP JUMPDEST PUSH2 0x9B6 JUMP JUMPDEST PUSH1 0x40 MLOAD PUSH2 0x27E SWAP2 SWAP1 PUSH2 0x19CC JUMP JUMPDEST PUSH1 0x40 MLOAD DUP1 SWAP2 SUB SWAP1 RETURN JUMPDEST CALLVALUE DUP1 ISZERO PUSH2 0x293 JUMPI PUSH1 0x0 DUP1 REVERT JUMPDEST POP PUSH2 0x29C PUSH2 0xD1A JUMP JUMPDEST PUSH1 0x40 MLOAD PUSH2 0x2A9 SWAP2 SWAP1 PUSH2 0x1B9F JUMP JUMPDEST PUSH1 0x40 MLOAD DUP1 SWAP2 SUB SWAP1 RETURN JUMPDEST CALLVALUE DUP1 ISZERO PUSH2 0x2BE JUMPI PUSH1 0x0 DUP1 REVERT JUMPDEST POP PUSH2 0x2C7 PUSH2 0xDA8 JUMP JUMPDEST STOP JUMPDEST CALLVALUE DUP1 ISZERO PUSH2 0x2D5 JUMPI PUSH1 0x0 DUP1 REVERT JUMPDEST POP PUSH2 0x2DE PUSH2 0xDAD JUMP JUMPDEST PUSH1 0x40 MLOAD PUSH2 0x2EB SWAP2 SWAP1 PUSH2 0x19CC JUMP JUMPDEST PUSH1 0x40 MLOAD DUP1 SWAP2 SUB SWAP1 RETURN JUMPDEST CALLVALUE DUP1 ISZERO PUSH2 0x300 JUMPI PUSH1 0x0 DUP1 REVERT JUMPDEST POP PUSH2 0x309 PUSH2 0xDB3 JUMP JUMPDEST PUSH1 0x40 MLOAD PUSH2 0x316 SWAP2 SWAP1 PUSH2 0x1BC1 JUMP JUMPDEST PUSH1 0x40 MLOAD DUP1 SWAP2 SUB SWAP1 RETURN JUMPDEST CALLVALUE DUP1 ISZERO PUSH2 0x32B JUMPI PUSH1 0x0 DUP1 REVERT JUMPDEST POP PUSH2 0x346 PUSH1 0x4 DUP1 CALLDATASIZE SUB DUP2 ADD SWAP1 PUSH2 0x341 SWAP2 SWAP1 PUSH2 0x1BDC JUMP JUMPDEST PUSH2 0xDD9 JUMP JUMPDEST PUSH1 0x40 MLOAD PUSH2 0x353 SWAP2 SWAP1 PUSH2 0x18CB JUMP JUMPDEST PUSH1 0x40 MLOAD DUP1 SWAP2 SUB SWAP1 RETURN JUMPDEST CALLVALUE DUP1 ISZERO PUSH2 0x368 JUMPI PUSH1 0x0 DUP1 REVERT JUMPDEST POP PUSH2 0x371 PUSH2 0xDF9 JUMP JUMPDEST PUSH1 0x40 MLOAD PUSH2 0x37E SWAP2 SWAP1 PUSH2 0x1B9F JUMP JUMPDEST PUSH1 0x40 MLOAD DUP1 SWAP2 SUB SWAP1 RETURN JUMPDEST CALLVALUE DUP1 ISZERO PUSH2 0x393 JUMPI PUSH1 0x0 DUP1 REVERT JUMPDEST POP PUSH2 0x3AE PUSH1 0x4 DUP1 CALLDATASIZE SUB DUP2 ADD SWAP1 PUSH2 0x3A9 SWAP2 SWAP1 PUSH2 0x1C35 JUMP JUMPDEST PUSH2 0xE87 JUMP JUMPDEST STOP JUMPDEST CALLVALUE DUP1 ISZERO PUSH2 0x3BC JUMPI PUSH1 0x0 DUP1 REVERT JUMPDEST POP PUSH2 0x3D7 PUSH1 0x4 DUP1 CALLDATASIZE SUB DUP2 ADD SWAP1 PUSH2 0x3D2 SWAP2 SWAP1 PUSH2 0x1BDC JUMP JUMPDEST PUSH2 0x10DD JUMP JUMPDEST STOP JUMPDEST CALLVALUE DUP1 ISZERO PUSH2 0x3E5 JUMPI PUSH1 0x0 DUP1 REVERT JUMPDEST POP PUSH2 0x3EE PUSH2 0x1280 JUMP JUMPDEST PUSH1 0x40 MLOAD PUSH2 0x3FB SWAP2 SWAP1 PUSH2 0x19CC JUMP JUMPDEST PUSH1 0x40 MLOAD DUP1 SWAP2 SUB SWAP1 RETURN JUMPDEST CALLVALUE DUP1 ISZERO PUSH2 0x410 JUMPI PUSH1 0x0 DUP1 REVERT JUMPDEST POP PUSH2 0x419 PUSH2 0x1286 JUMP JUMPDEST PUSH1 0x40 MLOAD PUSH2 0x426 SWAP2 SWAP1 PUSH2 0x1BC1 JUMP JUMPDEST PUSH1 0x40 MLOAD DUP1 SWAP2 SUB SWAP1 RETURN JUMPDEST CALLVALUE DUP1 ISZERO PUSH2 0x43B JUMPI PUSH1 0x0 DUP1 REVERT JUMPDEST POP PUSH2 0x456 PUSH1 0x4 DUP1 CALLDATASIZE SUB DUP2 ADD SWAP1 PUSH2 0x451 SWAP2 SWAP1 PUSH2 0x198C JUMP JUMPDEST PUSH2 0x12AC JUMP JUMPDEST PUSH1 0x40 MLOAD PUSH2 0x463 SWAP2 SWAP1 PUSH2 0x18CB JUMP JUMPDEST PUSH1 0x40 MLOAD DUP1 SWAP2 SUB SWAP1 RETURN JUMPDEST PUSH1 0x0 PUSH1 0x20 MSTORE DUP1 PUSH1 0x0 MSTORE PUSH1 0x40 PUSH1 0x0 KECCAK256 PUSH1 0x0 SWAP2 POP SWAP1 POP DUP1 PUSH1 0x0 ADD PUSH1 0x0 SWAP1 SLOAD SWAP1 PUSH2 0x100 EXP SWAP1 DIV PUSH20 0xFFFFFFFFFFFFFFFFFFFFFFFFFFFFFFFFFFFFFFFF AND SWAP1 DUP1 PUSH1 0x1 ADD SLOAD SWAP1 DUP1 PUSH1 0x2 ADD DUP1 SLOAD PUSH2 0x4BB SWAP1 PUSH2 0x1CA4 JUMP JUMPDEST DUP1 PUSH1 0x1F ADD PUSH1 0x20 DUP1 SWAP2 DIV MUL PUSH1 0x20 ADD PUSH1 0x40 MLOAD SWAP1 DUP2 ADD PUSH1 0x40 MSTORE DUP1 SWAP3 SWAP2 SWAP1 DUP2 DUP2 MSTORE PUSH1 0x20 ADD DUP3 DUP1 SLOAD PUSH2 0x4E7 SWAP1 PUSH2 0x1CA4 JUMP JUMPDEST DUP1 ISZERO PUSH2 0x534 JUMPI DUP1 PUSH1 0x1F LT PUSH2 0x509 JUMPI PUSH2 0x100 DUP1 DUP4 SLOAD DIV MUL DUP4 MSTORE SWAP2 PUSH1 0x20 ADD SWAP2 PUSH2 0x534 JUMP JUMPDEST DUP3 ADD SWAP2 SWAP1 PUSH1 0x0 MSTORE PUSH1 0x20 PUSH1 0x0 KECCAK256 SWAP1 JUMPDEST DUP2 SLOAD DUP2 MSTORE SWAP1 PUSH1 0x1 ADD SWAP1 PUSH1 0x20 ADD DUP1 DUP4 GT PUSH2 0x517 JUMPI DUP3 SWAP1 SUB PUSH1 0x1F AND DUP3 ADD SWAP2 JUMPDEST POP POP POP POP POP SWAP1 DUP1 PUSH1 0x3 ADD SLOAD SWAP1 DUP1 PUSH1 0x4 ADD PUSH1 0x0 SWAP1 SLOAD SWAP1 PUSH2 0x100 EXP SWAP1 DIV PUSH1 0xFF AND SWAP1 DUP1 PUSH1 0x4 ADD PUSH1 0x1 SWAP1 SLOAD SWAP1 PUSH2 0x100 EXP SWAP1 DIV PUSH1 0xFF AND SWAP1 DUP1 PUSH1 0x5 ADD SLOAD SWAP1 DUP1 PUSH1 0x6 ADD SLOAD SWAP1 DUP1 PUSH1 0x7 ADD PUSH1 0x0 SWAP1 SLOAD SWAP1 PUSH2 0x100 EXP SWAP1 DIV PUSH20 0xFFFFFFFFFFFFFFFFFFFFFFFFFFFFFFFFFFFFFFFF AND SWAP1 POP DUP10 JUMP JUMPDEST PUSH1 0x0 PUSH32 0xB3DF4BA800000000000000000000000000000000000000000000000000000000 PUSH28 0xFFFFFFFFFFFFFFFFFFFFFFFFFFFFFFFFFFFFFFFFFFFFFFFFFFFFFFFF NOT AND DUP3 PUSH28 0xFFFFFFFFFFFFFFFFFFFFFFFFFFFFFFFFFFFFFFFFFFFFFFFFFFFFFFFF NOT AND EQ DUP1 PUSH2 0x667 JUMPI POP PUSH32 0x1FFC9A700000000000000000000000000000000000000000000000000000000 PUSH28 0xFFFFFFFFFFFFFFFFFFFFFFFFFFFFFFFFFFFFFFFFFFFFFFFFFFFFFFFF NOT AND DUP3 PUSH28 0xFFFFFFFFFFFFFFFFFFFFFFFFFFFFFFFFFFFFFFFFFFFFFFFFFFFFFFFF NOT AND EQ JUMPDEST SWAP1 POP SWAP2 SWAP1 POP JUMP JUMPDEST PUSH1 0x6 SLOAD DUP2 LT PUSH2 0x6B2 JUMPI PUSH1 0x40 MLOAD PUSH32 0x8C379A000000000000000000000000000000000000000000000000000000000 DUP2 MSTORE PUSH1 0x4 ADD PUSH2 0x6A9 SWAP1 PUSH2 0x1D21 JUMP JUMPDEST PUSH1 0x40 MLOAD DUP1 SWAP2 SUB SWAP1 REVERT JUMPDEST PUSH1 0x0 DUP1 DUP3 DUP2 MSTORE PUSH1 0x20 ADD SWAP1 DUP2 MSTORE PUSH1 0x20 ADD PUSH1 0x0 KECCAK256 PUSH1 0x3 ADD SLOAD TIMESTAMP GT PUSH2 0x709 JUMPI PUSH1 0x40 MLOAD PUSH32 0x8C379A000000000000000000000000000000000000000000000000000000000 DUP2 MSTORE PUSH1 0x4 ADD PUSH2 0x700 SWAP1 PUSH2 0x1D8D JUMP JUMPDEST PUSH1 0x40 MLOAD DUP1 SWAP2 SUB SWAP1 REVERT JUMPDEST PUSH1 0x1 ISZERO ISZERO PUSH1 0xA PUSH1 0x0 CALLER PUSH20 0xFFFFFFFFFFFFFFFFFFFFFFFFFFFFFFFFFFFFFFFF AND PUSH20 0xFFFFFFFFFFFFFFFFFFFFFFFFFFFFFFFFFFFFFFFF AND DUP2 MSTORE PUSH1 0x20 ADD SWAP1 DUP2 MSTORE PUSH1 0x20 ADD PUSH1 0x0 KECCAK256 PUSH1 0x0 SWAP1 SLOAD SWAP1 PUSH2 0x100 EXP SWAP1 DIV PUSH1 0xFF AND ISZERO ISZERO EQ PUSH2 0x79C JUMPI PUSH1 0x40 MLOAD PUSH32 0x8C379A000000000000000000000000000000000000000000000000000000000 DUP2 MSTORE PUSH1 0x4 ADD PUSH2 0x793 SWAP1 PUSH2 0x1E1F JUMP JUMPDEST PUSH1 0x40 MLOAD DUP1 SWAP2 SUB SWAP1 REVERT JUMPDEST PUSH1 0x0 DUP1 DUP1 PUSH1 0x0 DUP5 DUP2 MSTORE PUSH1 0x20 ADD SWAP1 DUP2 MSTORE PUSH1 0x20 ADD PUSH1 0x0 KECCAK256 PUSH1 0x4 ADD PUSH1 0x0 PUSH2 0x100 EXP DUP2 SLOAD DUP2 PUSH1 0xFF MUL NOT AND SWAP1 DUP4 ISZERO ISZERO MUL OR SWAP1 SSTORE POP PUSH1 0x0 DUP1 DUP4 DUP2 MSTORE PUSH1 0x20 ADD SWAP1 DUP2 MSTORE PUSH1 0x20 ADD PUSH1 0x0 KECCAK256 PUSH1 0x6 ADD SLOAD PUSH1 0x0 DUP1 DUP5 DUP2 MSTORE PUSH1 0x20 ADD SWAP1 DUP2 MSTORE PUSH1 0x20 ADD PUSH1 0x0 KECCAK256 PUSH1 0x5 ADD SLOAD GT ISZERO PUSH2 0x8F9 JUMPI PUSH1 0x1 SWAP1 POP PUSH1 0x0 DUP1 PUSH1 0x0 DUP5 DUP2 MSTORE PUSH1 0x20 ADD SWAP1 DUP2 MSTORE PUSH1 0x20 ADD PUSH1 0x0 KECCAK256 PUSH1 0x0 ADD PUSH1 0x0 SWAP1 SLOAD SWAP1 PUSH2 0x100 EXP SWAP1 DIV PUSH20 0xFFFFFFFFFFFFFFFFFFFFFFFFFFFFFFFFFFFFFFFF AND PUSH20 0xFFFFFFFFFFFFFFFFFFFFFFFFFFFFFFFFFFFFFFFF AND PUSH1 0x0 DUP1 DUP6 DUP2 MSTORE PUSH1 0x20 ADD SWAP1 DUP2 MSTORE PUSH1 0x20 ADD PUSH1 0x0 KECCAK256 PUSH1 0x1 ADD SLOAD PUSH1 0x40 MLOAD PUSH2 0x871 SWAP1 PUSH2 0x1E70 JUMP JUMPDEST PUSH1 0x0 PUSH1 0x40 MLOAD DUP1 DUP4 SUB DUP2 DUP6 DUP8 GAS CALL SWAP3 POP POP POP RETURNDATASIZE DUP1 PUSH1 0x0 DUP2 EQ PUSH2 0x8AE JUMPI PUSH1 0x40 MLOAD SWAP2 POP PUSH1 0x1F NOT PUSH1 0x3F RETURNDATASIZE ADD AND DUP3 ADD PUSH1 0x40 MSTORE RETURNDATASIZE DUP3 MSTORE RETURNDATASIZE PUSH1 0x0 PUSH1 0x20 DUP5 ADD RETURNDATACOPY PUSH2 0x8B3 JUMP JUMPDEST PUSH1 0x60 SWAP2 POP JUMPDEST POP POP SWAP1 POP DUP1 PUSH2 0x8F7 JUMPI PUSH1 0x40 MLOAD PUSH32 0x8C379A000000000000000000000000000000000000000000000000000000000 DUP2 MSTORE PUSH1 0x4 ADD PUSH2 0x8EE SWAP1 PUSH2 0x1EF7 JUMP JUMPDEST PUSH1 0x40 MLOAD DUP1 SWAP2 SUB SWAP1 REVERT JUMPDEST POP JUMPDEST PUSH1 0x0 DUP1 DUP4 DUP2 MSTORE PUSH1 0x20 ADD SWAP1 DUP2 MSTORE PUSH1 0x20 ADD PUSH1 0x0 KECCAK256 PUSH1 0x1 ADD SLOAD PUSH1 0x8 PUSH1 0x0 DUP3 DUP3 SLOAD PUSH2 0x920 SWAP2 SWAP1 PUSH2 0x1F46 JUMP JUMPDEST SWAP3 POP POP DUP2 SWAP1 SSTORE POP DUP1 ISZERO ISZERO DUP3 PUSH32 0xAFFED5D901D9FBE9106721FA52653EDE403C09699F9F810F6D378ACC51FB50FA PUSH1 0x40 MLOAD PUSH1 0x40 MLOAD DUP1 SWAP2 SUB SWAP1 LOG3 POP POP JUMP JUMPDEST PUSH1 0x2 PUSH1 0x0 SWAP1 SLOAD SWAP1 PUSH2 0x100 EXP SWAP1 DIV PUSH20 0xFFFFFFFFFFFFFFFFFFFFFFFFFFFFFFFFFFFFFFFF AND DUP2 JUMP JUMPDEST PUSH1 0x5 PUSH1 0x20 MSTORE DUP2 PUSH1 0x0 MSTORE PUSH1 0x40 PUSH1 0x0 KECCAK256 PUSH1 0x20 MSTORE DUP1 PUSH1 0x0 MSTORE PUSH1 0x40 PUSH1 0x0 KECCAK256 PUSH1 0x0 SWAP2 POP SWAP2 POP SWAP1 SLOAD SWAP1 PUSH2 0x100 EXP SWAP1 DIV PUSH1 0xFF AND DUP2 JUMP JUMPDEST PUSH1 0x8 SLOAD DUP2 JUMP JUMPDEST PUSH1 0x0 PUSH2 0x258 DUP3 LT ISZERO PUSH2 0x9FD JUMPI PUSH1 0x40 MLOAD PUSH32 0x8C379A000000000000000000000000000000000000000000000000000000000 DUP2 MSTORE PUSH1 0x4 ADD PUSH2 0x9F4 SWAP1 PUSH2 0x1FEC JUMP JUMPDEST PUSH1 0x40 MLOAD DUP1 SWAP2 SUB SWAP1 REVERT JUMPDEST PUSH1 0x1 ISZERO ISZERO PUSH1 0xA PUSH1 0x0 CALLER PUSH20 0xFFFFFFFFFFFFFFFFFFFFFFFFFFFFFFFFFFFFFFFF AND PUSH20 0xFFFFFFFFFFFFFFFFFFFFFFFFFFFFFFFFFFFFFFFF AND DUP2 MSTORE PUSH1 0x20 ADD SWAP1 DUP2 MSTORE PUSH1 0x20 ADD PUSH1 0x0 KECCAK256 PUSH1 0x0 SWAP1 SLOAD SWAP1 PUSH2 0x100 EXP SWAP1 DIV PUSH1 0xFF AND ISZERO ISZERO EQ PUSH2 0xA90 JUMPI PUSH1 0x40 MLOAD PUSH32 0x8C379A000000000000000000000000000000000000000000000000000000000 DUP2 MSTORE PUSH1 0x4 ADD PUSH2 0xA87 SWAP1 PUSH2 0x207E JUMP JUMPDEST PUSH1 0x40 MLOAD DUP1 SWAP2 SUB SWAP1 REVERT JUMPDEST DUP4 PUSH1 0x8 SLOAD PUSH2 0xA9E SWAP2 SWAP1 PUSH2 0x209E JUMP JUMPDEST SELFBALANCE GT PUSH2 0xADF JUMPI PUSH1 0x40 MLOAD PUSH32 0x8C379A000000000000000000000000000000000000000000000000000000000 DUP2 MSTORE PUSH1 0x4 ADD PUSH2 0xAD6 SWAP1 PUSH2 0x2144 JUMP JUMPDEST PUSH1 0x40 MLOAD DUP1 SWAP2 SUB SWAP1 REVERT JUMPDEST PUSH1 0x0 PUSH1 0x40 MLOAD DUP1 PUSH2 0x120 ADD PUSH1 0x40 MSTORE DUP1 DUP8 PUSH20 0xFFFFFFFFFFFFFFFFFFFFFFFFFFFFFFFFFFFFFFFF AND DUP2 MSTORE PUSH1 0x20 ADD DUP7 DUP2 MSTORE PUSH1 0x20 ADD DUP6 DUP2 MSTORE PUSH1 0x20 ADD DUP5 TIMESTAMP PUSH2 0xB21 SWAP2 SWAP1 PUSH2 0x209E JUMP JUMPDEST DUP2 MSTORE PUSH1 0x20 ADD PUSH1 0x1 ISZERO ISZERO DUP2 MSTORE PUSH1 0x20 ADD PUSH1 0x0 ISZERO ISZERO DUP2 MSTORE PUSH1 0x20 ADD PUSH1 0x0 DUP2 MSTORE PUSH1 0x20 ADD PUSH1 0x0 DUP2 MSTORE PUSH1 0x20 ADD CALLER PUSH20 0xFFFFFFFFFFFFFFFFFFFFFFFFFFFFFFFFFFFFFFFF AND DUP2 MSTORE POP SWAP1 POP DUP5 PUSH1 0x8 PUSH1 0x0 DUP3 DUP3 SLOAD PUSH2 0xB74 SWAP2 SWAP1 PUSH2 0x209E JUMP JUMPDEST SWAP3 POP POP DUP2 SWAP1 SSTORE POP PUSH1 0x0 PUSH1 0x6 SLOAD SWAP1 POP DUP2 PUSH1 0x0 DUP1 DUP4 DUP2 MSTORE PUSH1 0x20 ADD SWAP1 DUP2 MSTORE PUSH1 0x20 ADD PUSH1 0x0 KECCAK256 PUSH1 0x0 DUP3 ADD MLOAD DUP2 PUSH1 0x0 ADD PUSH1 0x0 PUSH2 0x100 EXP DUP2 SLOAD DUP2 PUSH20 0xFFFFFFFFFFFFFFFFFFFFFFFFFFFFFFFFFFFFFFFF MUL NOT AND SWAP1 DUP4 PUSH20 0xFFFFFFFFFFFFFFFFFFFFFFFFFFFFFFFFFFFFFFFF AND MUL OR SWAP1 SSTORE POP PUSH1 0x20 DUP3 ADD MLOAD DUP2 PUSH1 0x1 ADD SSTORE PUSH1 0x40 DUP3 ADD MLOAD DUP2 PUSH1 0x2 ADD SWAP1 DUP2 PUSH2 0xBFB SWAP2 SWAP1 PUSH2 0x2306 JUMP JUMPDEST POP PUSH1 0x60 DUP3 ADD MLOAD DUP2 PUSH1 0x3 ADD SSTORE PUSH1 0x80 DUP3 ADD MLOAD DUP2 PUSH1 0x4 ADD PUSH1 0x0 PUSH2 0x100 EXP DUP2 SLOAD DUP2 PUSH1 0xFF MUL NOT AND SWAP1 DUP4 ISZERO ISZERO MUL OR SWAP1 SSTORE POP PUSH1 0xA0 DUP3 ADD MLOAD DUP2 PUSH1 0x4 ADD PUSH1 0x1 PUSH2 0x100 EXP DUP2 SLOAD DUP2 PUSH1 0xFF MUL NOT AND SWAP1 DUP4 ISZERO ISZERO MUL OR SWAP1 SSTORE POP PUSH1 0xC0 DUP3 ADD MLOAD DUP2 PUSH1 0x5 ADD SSTORE PUSH1 0xE0 DUP3 ADD MLOAD DUP2 PUSH1 0x6 ADD SSTORE PUSH2 0x100 DUP3 ADD MLOAD DUP2 PUSH1 0x7 ADD PUSH1 0x0 PUSH2 0x100 EXP DUP2 SLOAD DUP2 PUSH20 0xFFFFFFFFFFFFFFFFFFFFFFFFFFFFFFFFFFFFFFFF MUL NOT AND SWAP1 DUP4 PUSH20 0xFFFFFFFFFFFFFFFFFFFFFFFFFFFFFFFFFFFFFFFF AND MUL OR SWAP1 SSTORE POP SWAP1 POP POP PUSH1 0x6 PUSH1 0x0 DUP2 SLOAD DUP1 SWAP3 SWAP2 SWAP1 PUSH2 0xCB8 SWAP1 PUSH2 0x23D8 JUMP JUMPDEST SWAP2 SWAP1 POP SSTORE POP DUP6 DUP8 PUSH20 0xFFFFFFFFFFFFFFFFFFFFFFFFFFFFFFFFFFFFFFFF AND DUP3 PUSH32 0xDE8596BB26A876FD85351415CD7F8EA047829757B6CE0C3E8F6D5AE325C4B21 DUP9 PUSH1 0x40 MLOAD PUSH2 0xD05 SWAP2 SWAP1 PUSH2 0x1B9F JUMP JUMPDEST PUSH1 0x40 MLOAD DUP1 SWAP2 SUB SWAP1 LOG4 DUP1 SWAP3 POP POP POP SWAP5 SWAP4 POP POP POP POP JUMP JUMPDEST PUSH1 0x3 DUP1 SLOAD PUSH2 0xD27 SWAP1 PUSH2 0x1CA4 JUMP JUMPDEST DUP1 PUSH1 0x1F ADD PUSH1 0x20 DUP1 SWAP2 DIV MUL PUSH1 0x20 ADD PUSH1 0x40 MLOAD SWAP1 DUP2 ADD PUSH1 0x40 MSTORE DUP1 SWAP3 SWAP2 SWAP1 DUP2 DUP2 MSTORE PUSH1 0x20 ADD DUP3 DUP1 SLOAD PUSH2 0xD53 SWAP1 PUSH2 0x1CA4 JUMP JUMPDEST DUP1 ISZERO PUSH2 0xDA0 JUMPI DUP1 PUSH1 0x1F LT PUSH2 0xD75 JUMPI PUSH2 0x100 DUP1 DUP4 SLOAD DIV MUL DUP4 MSTORE SWAP2 PUSH1 0x20 ADD SWAP2 PUSH2 0xDA0 JUMP JUMPDEST DUP3 ADD SWAP2 SWAP1 PUSH1 0x0 MSTORE PUSH1 0x20 PUSH1 0x0 KECCAK256 SWAP1 JUMPDEST DUP2 SLOAD DUP2 MSTORE SWAP1 PUSH1 0x1 ADD SWAP1 PUSH1 0x20 ADD DUP1 DUP4 GT PUSH2 0xD83 JUMPI DUP3 SWAP1 SUB PUSH1 0x1F AND DUP3 ADD SWAP2 JUMPDEST POP POP POP POP POP DUP2 JUMP JUMPDEST PUSH1 0x0 DUP1 REVERT JUMPDEST PUSH1 0x6 SLOAD DUP2 JUMP JUMPDEST PUSH1 0x1 PUSH1 0x0 SWAP1 SLOAD SWAP1 PUSH2 0x100 EXP SWAP1 DIV PUSH20 0xFFFFFFFFFFFFFFFFFFFFFFFFFFFFFFFFFFFFFFFF AND DUP2 JUMP JUMPDEST PUSH1 0xA PUSH1 0x20 MSTORE DUP1 PUSH1 0x0 MSTORE PUSH1 0x40 PUSH1 0x0 KECCAK256 PUSH1 0x0 SWAP2 POP SLOAD SWAP1 PUSH2 0x100 EXP SWAP1 DIV PUSH1 0xFF AND DUP2 JUMP JUMPDEST PUSH1 0x7 DUP1 SLOAD PUSH2 0xE06 SWAP1 PUSH2 0x1CA4 JUMP JUMPDEST DUP1 PUSH1 0x1F ADD PUSH1 0x20 DUP1 SWAP2 DIV MUL PUSH1 0x20 ADD PUSH1 0x40 MLOAD SWAP1 DUP2 ADD PUSH1 0x40 MSTORE DUP1 SWAP3 SWAP2 SWAP1 DUP2 DUP2 MSTORE PUSH1 0x20 ADD DUP3 DUP1 SLOAD PUSH2 0xE32 SWAP1 PUSH2 0x1CA4 JUMP JUMPDEST DUP1 ISZERO PUSH2 0xE7F JUMPI DUP1 PUSH1 0x1F LT PUSH2 0xE54 JUMPI PUSH2 0x100 DUP1 DUP4 SLOAD DIV MUL DUP4 MSTORE SWAP2 PUSH1 0x20 ADD SWAP2 PUSH2 0xE7F JUMP JUMPDEST DUP3 ADD SWAP2 SWAP1 PUSH1 0x0 MSTORE PUSH1 0x20 PUSH1 0x0 KECCAK256 SWAP1 JUMPDEST DUP2 SLOAD DUP2 MSTORE SWAP1 PUSH1 0x1 ADD SWAP1 PUSH1 0x20 ADD DUP1 DUP4 GT PUSH2 0xE62 JUMPI DUP3 SWAP1 SUB PUSH1 0x1F AND DUP3 ADD SWAP2 JUMPDEST POP POP POP POP POP DUP2 JUMP JUMPDEST PUSH1 0x6 SLOAD DUP3 LT PUSH2 0xECB JUMPI PUSH1 0x40 MLOAD PUSH32 0x8C379A000000000000000000000000000000000000000000000000000000000 DUP2 MSTORE PUSH1 0x4 ADD PUSH2 0xEC2 SWAP1 PUSH2 0x1D21 JUMP JUMPDEST PUSH1 0x40 MLOAD DUP1 SWAP2 SUB SWAP1 REVERT JUMPDEST PUSH1 0x1 ISZERO ISZERO PUSH1 0xA PUSH1 0x0 CALLER PUSH20 0xFFFFFFFFFFFFFFFFFFFFFFFFFFFFFFFFFFFFFFFF AND PUSH20 0xFFFFFFFFFFFFFFFFFFFFFFFFFFFFFFFFFFFFFFFF AND DUP2 MSTORE PUSH1 0x20 ADD SWAP1 DUP2 MSTORE PUSH1 0x20 ADD PUSH1 0x0 KECCAK256 PUSH1 0x0 SWAP1 SLOAD SWAP1 PUSH2 0x100 EXP SWAP1 DIV PUSH1 0xFF AND ISZERO ISZERO EQ PUSH2 0xF5E JUMPI PUSH1 0x40 MLOAD PUSH32 0x8C379A000000000000000000000000000000000000000000000000000000000 DUP2 MSTORE PUSH1 0x4 ADD PUSH2 0xF55 SWAP1 PUSH2 0x2492 JUMP JUMPDEST PUSH1 0x40 MLOAD DUP1 SWAP2 SUB SWAP1 REVERT JUMPDEST DUP1 ISZERO PUSH2 0xFFD JUMPI PUSH1 0x1 PUSH1 0x4 PUSH1 0x0 CALLER PUSH20 0xFFFFFFFFFFFFFFFFFFFFFFFFFFFFFFFFFFFFFFFF AND PUSH20 0xFFFFFFFFFFFFFFFFFFFFFFFFFFFFFFFFFFFFFFFF AND DUP2 MSTORE PUSH1 0x20 ADD SWAP1 DUP2 MSTORE PUSH1 0x20 ADD PUSH1 0x0 KECCAK256 PUSH1 0x0 DUP5 DUP2 MSTORE PUSH1 0x20 ADD SWAP1 DUP2 MSTORE PUSH1 0x20 ADD PUSH1 0x0 KECCAK256 PUSH1 0x0 PUSH2 0x100 EXP DUP2 SLOAD DUP2 PUSH1 0xFF MUL NOT AND SWAP1 DUP4 ISZERO ISZERO MUL OR SWAP1 SSTORE POP PUSH1 0x0 DUP1 DUP4 DUP2 MSTORE PUSH1 0x20 ADD SWAP1 DUP2 MSTORE PUSH1 0x20 ADD PUSH1 0x0 KECCAK256 PUSH1 0x5 ADD PUSH1 0x0 DUP2 SLOAD DUP1 SWAP3 SWAP2 SWAP1 PUSH2 0xFF3 SWAP1 PUSH2 0x23D8 JUMP JUMPDEST SWAP2 SWAP1 POP SSTORE POP PUSH2 0x1092 JUMP JUMPDEST PUSH1 0x1 PUSH1 0x5 PUSH1 0x0 CALLER PUSH20 0xFFFFFFFFFFFFFFFFFFFFFFFFFFFFFFFFFFFFFFFF AND PUSH20 0xFFFFFFFFFFFFFFFFFFFFFFFFFFFFFFFFFFFFFFFF AND DUP2 MSTORE PUSH1 0x20 ADD SWAP1 DUP2 MSTORE PUSH1 0x20 ADD PUSH1 0x0 KECCAK256 PUSH1 0x0 DUP5 DUP2 MSTORE PUSH1 0x20 ADD SWAP1 DUP2 MSTORE PUSH1 0x20 ADD PUSH1 0x0 KECCAK256 PUSH1 0x0 PUSH2 0x100 EXP DUP2 SLOAD DUP2 PUSH1 0xFF MUL NOT AND SWAP1 DUP4 ISZERO ISZERO MUL OR SWAP1 SSTORE POP PUSH1 0x0 DUP1 DUP4 DUP2 MSTORE PUSH1 0x20 ADD SWAP1 DUP2 MSTORE PUSH1 0x20 ADD PUSH1 0x0 KECCAK256 PUSH1 0x6 ADD PUSH1 0x0 DUP2 SLOAD DUP1 SWAP3 SWAP2 SWAP1 PUSH2 0x108C SWAP1 PUSH2 0x23D8 JUMP JUMPDEST SWAP2 SWAP1 POP SSTORE POP JUMPDEST CALLER PUSH20 0xFFFFFFFFFFFFFFFFFFFFFFFFFFFFFFFFFFFFFFFF AND DUP2 ISZERO ISZERO DUP4 PUSH32 0x86ABFCE99B7DD908BEC0169288797F85049EC73CBE046ED9DE818FAB3A497AE0 PUSH1 0x40 MLOAD PUSH1 0x40 MLOAD DUP1 SWAP2 SUB SWAP1 LOG4 POP POP JUMP JUMPDEST PUSH1 0x1 ISZERO ISZERO PUSH1 0xA PUSH1 0x0 CALLER PUSH20 0xFFFFFFFFFFFFFFFFFFFFFFFFFFFFFFFFFFFFFFFF AND PUSH20 0xFFFFFFFFFFFFFFFFFFFFFFFFFFFFFFFFFFFFFFFF AND DUP2 MSTORE PUSH1 0x20 ADD SWAP1 DUP2 MSTORE PUSH1 0x20 ADD PUSH1 0x0 KECCAK256 PUSH1 0x0 SWAP1 SLOAD SWAP1 PUSH2 0x100 EXP SWAP1 DIV PUSH1 0xFF AND ISZERO ISZERO EQ PUSH2 0x1170 JUMPI PUSH1 0x40 MLOAD PUSH32 0x8C379A000000000000000000000000000000000000000000000000000000000 DUP2 MSTORE PUSH1 0x4 ADD PUSH2 0x1167 SWAP1 PUSH2 0x2524 JUMP JUMPDEST PUSH1 0x40 MLOAD DUP1 SWAP2 SUB SWAP1 REVERT JUMPDEST PUSH1 0x1 PUSH1 0xA PUSH1 0x0 DUP4 PUSH20 0xFFFFFFFFFFFFFFFFFFFFFFFFFFFFFFFFFFFFFFFF AND PUSH20 0xFFFFFFFFFFFFFFFFFFFFFFFFFFFFFFFFFFFFFFFF AND DUP2 MSTORE PUSH1 0x20 ADD SWAP1 DUP2 MSTORE PUSH1 0x20 ADD PUSH1 0x0 KECCAK256 PUSH1 0x0 PUSH2 0x100 EXP DUP2 SLOAD DUP2 PUSH1 0xFF MUL NOT AND SWAP1 DUP4 ISZERO ISZERO MUL OR SWAP1 SSTORE POP PUSH1 0x2 PUSH1 0x0 SWAP1 SLOAD SWAP1 PUSH2 0x100 EXP SWAP1 DIV PUSH20 0xFFFFFFFFFFFFFFFFFFFFFFFFFFFFFFFFFFFFFFFF AND PUSH20 0xFFFFFFFFFFFFFFFFFFFFFFFFFFFFFFFFFFFFFFFF AND PUSH4 0xE980602 DUP3 PUSH2 0x121C PUSH2 0x1213 DUP6 PUSH2 0x12DB JUMP JUMPDEST PUSH1 0x2 PUSH1 0x22 PUSH2 0x1308 JUMP JUMPDEST PUSH1 0x40 MLOAD DUP4 PUSH4 0xFFFFFFFF AND PUSH1 0xE0 SHL DUP2 MSTORE PUSH1 0x4 ADD PUSH2 0x1239 SWAP3 SWAP2 SWAP1 PUSH2 0x2544 JUMP JUMPDEST PUSH1 0x20 PUSH1 0x40 MLOAD DUP1 DUP4 SUB DUP2 PUSH1 0x0 DUP8 GAS CALL ISZERO DUP1 ISZERO PUSH2 0x1258 JUMPI RETURNDATASIZE PUSH1 0x0 DUP1 RETURNDATACOPY RETURNDATASIZE PUSH1 0x0 REVERT JUMPDEST POP POP POP POP PUSH1 0x40 MLOAD RETURNDATASIZE PUSH1 0x1F NOT PUSH1 0x1F DUP3 ADD AND DUP3 ADD DUP1 PUSH1 0x40 MSTORE POP DUP2 ADD SWAP1 PUSH2 0x127C SWAP2 SWAP1 PUSH2 0x2589 JUMP JUMPDEST POP POP JUMP JUMPDEST PUSH2 0x258 DUP2 JUMP JUMPDEST PUSH1 0x9 PUSH1 0x0 SWAP1 SLOAD SWAP1 PUSH2 0x100 EXP SWAP1 DIV PUSH20 0xFFFFFFFFFFFFFFFFFFFFFFFFFFFFFFFFFFFFFFFF AND DUP2 JUMP JUMPDEST PUSH1 0x4 PUSH1 0x20 MSTORE DUP2 PUSH1 0x0 MSTORE PUSH1 0x40 PUSH1 0x0 KECCAK256 PUSH1 0x20 MSTORE DUP1 PUSH1 0x0 MSTORE PUSH1 0x40 PUSH1 0x0 KECCAK256 PUSH1 0x0 SWAP2 POP SWAP2 POP SWAP1 SLOAD SWAP1 PUSH2 0x100 EXP SWAP1 DIV PUSH1 0xFF AND DUP2 JUMP JUMPDEST PUSH1 0x60 PUSH2 0x1301 DUP3 PUSH20 0xFFFFFFFFFFFFFFFFFFFFFFFFFFFFFFFFFFFFFFFF AND PUSH1 0x14 PUSH1 0xFF AND PUSH2 0x1404 JUMP JUMPDEST SWAP1 POP SWAP2 SWAP1 POP JUMP JUMPDEST PUSH1 0x60 PUSH1 0x0 DUP5 SWAP1 POP PUSH1 0x0 DUP5 DUP5 PUSH2 0x131D SWAP2 SWAP1 PUSH2 0x1F46 JUMP JUMPDEST PUSH8 0xFFFFFFFFFFFFFFFF DUP2 GT ISZERO PUSH2 0x1336 JUMPI PUSH2 0x1335 PUSH2 0x19F1 JUMP JUMPDEST JUMPDEST PUSH1 0x40 MLOAD SWAP1 DUP1 DUP3 MSTORE DUP1 PUSH1 0x1F ADD PUSH1 0x1F NOT AND PUSH1 0x20 ADD DUP3 ADD PUSH1 0x40 MSTORE DUP1 ISZERO PUSH2 0x1368 JUMPI DUP2 PUSH1 0x20 ADD PUSH1 0x1 DUP3 MUL DUP1 CALLDATASIZE DUP4 CALLDATACOPY DUP1 DUP3 ADD SWAP2 POP POP SWAP1 POP JUMPDEST POP SWAP1 POP PUSH1 0x0 DUP6 SWAP1 POP JUMPDEST DUP5 DUP2 LT ISZERO PUSH2 0x13F7 JUMPI DUP3 DUP2 DUP2 MLOAD DUP2 LT PUSH2 0x138C JUMPI PUSH2 0x138B PUSH2 0x25B6 JUMP JUMPDEST JUMPDEST PUSH1 0x20 ADD ADD MLOAD PUSH1 0xF8 SHR PUSH1 0xF8 SHL DUP3 DUP8 DUP4 PUSH2 0x13A4 SWAP2 SWAP1 PUSH2 0x1F46 JUMP JUMPDEST DUP2 MLOAD DUP2 LT PUSH2 0x13B5 JUMPI PUSH2 0x13B4 PUSH2 0x25B6 JUMP JUMPDEST JUMPDEST PUSH1 0x20 ADD ADD SWAP1 PUSH31 0xFFFFFFFFFFFFFFFFFFFFFFFFFFFFFFFFFFFFFFFFFFFFFFFFFFFFFFFFFFFFFF NOT AND SWAP1 DUP2 PUSH1 0x0 BYTE SWAP1 MSTORE8 POP DUP1 DUP1 PUSH2 0x13EF SWAP1 PUSH2 0x23D8 JUMP JUMPDEST SWAP2 POP POP PUSH2 0x1371 JUMP JUMPDEST POP DUP1 SWAP3 POP POP POP SWAP4 SWAP3 POP POP POP JUMP JUMPDEST PUSH1 0x60 PUSH1 0x0 PUSH1 0x2 DUP4 PUSH1 0x2 PUSH2 0x1417 SWAP2 SWAP1 PUSH2 0x25E5 JUMP JUMPDEST PUSH2 0x1421 SWAP2 SWAP1 PUSH2 0x209E JUMP JUMPDEST PUSH8 0xFFFFFFFFFFFFFFFF DUP2 GT ISZERO PUSH2 0x143A JUMPI PUSH2 0x1439 PUSH2 0x19F1 JUMP JUMPDEST JUMPDEST PUSH1 0x40 MLOAD SWAP1 DUP1 DUP3 MSTORE DUP1 PUSH1 0x1F ADD PUSH1 0x1F NOT AND PUSH1 0x20 ADD DUP3 ADD PUSH1 0x40 MSTORE DUP1 ISZERO PUSH2 0x146C JUMPI DUP2 PUSH1 0x20 ADD PUSH1 0x1 DUP3 MUL DUP1 CALLDATASIZE DUP4 CALLDATACOPY DUP1 DUP3 ADD SWAP2 POP POP SWAP1 POP JUMPDEST POP SWAP1 POP PUSH32 0x3000000000000000000000000000000000000000000000000000000000000000 DUP2 PUSH1 0x0 DUP2 MLOAD DUP2 LT PUSH2 0x14A4 JUMPI PUSH2 0x14A3 PUSH2 0x25B6 JUMP JUMPDEST JUMPDEST PUSH1 0x20 ADD ADD SWAP1 PUSH31 0xFFFFFFFFFFFFFFFFFFFFFFFFFFFFFFFFFFFFFFFFFFFFFFFFFFFFFFFFFFFFFF NOT AND SWAP1 DUP2 PUSH1 0x0 BYTE SWAP1 MSTORE8 POP PUSH32 0x7800000000000000000000000000000000000000000000000000000000000000 DUP2 PUSH1 0x1 DUP2 MLOAD DUP2 LT PUSH2 0x1508 JUMPI PUSH2 0x1507 PUSH2 0x25B6 JUMP JUMPDEST JUMPDEST PUSH1 0x20 ADD ADD SWAP1 PUSH31 0xFFFFFFFFFFFFFFFFFFFFFFFFFFFFFFFFFFFFFFFFFFFFFFFFFFFFFFFFFFFFFF NOT AND SWAP1 DUP2 PUSH1 0x0 BYTE SWAP1 MSTORE8 POP PUSH1 0x0 PUSH1 0x1 DUP5 PUSH1 0x2 PUSH2 0x1548 SWAP2 SWAP1 PUSH2 0x25E5 JUMP JUMPDEST PUSH2 0x1552 SWAP2 SWAP1 PUSH2 0x209E JUMP JUMPDEST SWAP1 POP JUMPDEST PUSH1 0x1 DUP2 GT ISZERO PUSH2 0x15F2 JUMPI PUSH32 0x3031323334353637383961626364656600000000000000000000000000000000 PUSH1 0xF DUP7 AND PUSH1 0x10 DUP2 LT PUSH2 0x1594 JUMPI PUSH2 0x1593 PUSH2 0x25B6 JUMP JUMPDEST JUMPDEST BYTE PUSH1 0xF8 SHL DUP3 DUP3 DUP2 MLOAD DUP2 LT PUSH2 0x15AB JUMPI PUSH2 0x15AA PUSH2 0x25B6 JUMP JUMPDEST JUMPDEST PUSH1 0x20 ADD ADD SWAP1 PUSH31 0xFFFFFFFFFFFFFFFFFFFFFFFFFFFFFFFFFFFFFFFFFFFFFFFFFFFFFFFFFFFFFF NOT AND SWAP1 DUP2 PUSH1 0x0 BYTE SWAP1 MSTORE8 POP PUSH1 0x4 DUP6 SWAP1 SHR SWAP5 POP DUP1 PUSH2 0x15EB SWAP1 PUSH2 0x263F JUMP JUMPDEST SWAP1 POP PUSH2 0x1555 JUMP JUMPDEST POP PUSH1 0x0 DUP5 EQ PUSH2 0x1636 JUMPI PUSH1 0x40 MLOAD PUSH32 0x8C379A000000000000000000000000000000000000000000000000000000000 DUP2 MSTORE PUSH1 0x4 ADD PUSH2 0x162D SWAP1 PUSH2 0x26B4 JUMP JUMPDEST PUSH1 0x40 MLOAD DUP1 SWAP2 SUB SWAP1 REVERT JUMPDEST DUP1 SWAP2 POP POP SWAP3 SWAP2 POP POP JUMP JUMPDEST PUSH1 0x0 PUSH1 0x40 MLOAD SWAP1 POP SWAP1 JUMP JUMPDEST PUSH1 0x0 DUP1 REVERT JUMPDEST PUSH1 0x0 DUP1 REVERT JUMPDEST PUSH1 0x0 DUP2 SWAP1 POP SWAP2 SWAP1 POP JUMP JUMPDEST PUSH2 0x1667 DUP2 PUSH2 0x1654 JUMP JUMPDEST DUP2 EQ PUSH2 0x1672 JUMPI PUSH1 0x0 DUP1 REVERT JUMPDEST POP JUMP JUMPDEST PUSH1 0x0 DUP2 CALLDATALOAD SWAP1 POP PUSH2 0x1684 DUP2 PUSH2 0x165E JUMP JUMPDEST SWAP3 SWAP2 POP POP JUMP JUMPDEST PUSH1 0x0 PUSH1 0x20 DUP3 DUP5 SUB SLT ISZERO PUSH2 0x16A0 JUMPI PUSH2 0x169F PUSH2 0x164A JUMP JUMPDEST JUMPDEST PUSH1 0x0 PUSH2 0x16AE DUP5 DUP3 DUP6 ADD PUSH2 0x1675 JUMP JUMPDEST SWAP2 POP POP SWAP3 SWAP2 POP POP JUMP JUMPDEST PUSH1 0x0 PUSH20 0xFFFFFFFFFFFFFFFFFFFFFFFFFFFFFFFFFFFFFFFF DUP3 AND SWAP1 POP SWAP2 SWAP1 POP JUMP JUMPDEST PUSH1 0x0 PUSH2 0x16E2 DUP3 PUSH2 0x16B7 JUMP JUMPDEST SWAP1 POP SWAP2 SWAP1 POP JUMP JUMPDEST PUSH2 0x16F2 DUP2 PUSH2 0x16D7 JUMP JUMPDEST DUP3 MSTORE POP POP JUMP JUMPDEST PUSH2 0x1701 DUP2 PUSH2 0x1654 JUMP JUMPDEST DUP3 MSTORE POP POP JUMP JUMPDEST PUSH1 0x0 DUP2 MLOAD SWAP1 POP SWAP2 SWAP1 POP JUMP JUMPDEST PUSH1 0x0 DUP3 DUP3 MSTORE PUSH1 0x20 DUP3 ADD SWAP1 POP SWAP3 SWAP2 POP POP JUMP JUMPDEST PUSH1 0x0 JUMPDEST DUP4 DUP2 LT ISZERO PUSH2 0x1741 JUMPI DUP1 DUP3 ADD MLOAD DUP2 DUP5 ADD MSTORE PUSH1 0x20 DUP2 ADD SWAP1 POP PUSH2 0x1726 JUMP JUMPDEST PUSH1 0x0 DUP5 DUP5 ADD MSTORE POP POP POP POP JUMP JUMPDEST PUSH1 0x0 PUSH1 0x1F NOT PUSH1 0x1F DUP4 ADD AND SWAP1 POP SWAP2 SWAP1 POP JUMP JUMPDEST PUSH1 0x0 PUSH2 0x1769 DUP3 PUSH2 0x1707 JUMP JUMPDEST PUSH2 0x1773 DUP2 DUP6 PUSH2 0x1712 JUMP JUMPDEST SWAP4 POP PUSH2 0x1783 DUP2 DUP6 PUSH1 0x20 DUP7 ADD PUSH2 0x1723 JUMP JUMPDEST PUSH2 0x178C DUP2 PUSH2 0x174D JUMP JUMPDEST DUP5 ADD SWAP2 POP POP SWAP3 SWAP2 POP POP JUMP JUMPDEST PUSH1 0x0 DUP2 ISZERO ISZERO SWAP1 POP SWAP2 SWAP1 POP JUMP JUMPDEST PUSH2 0x17AC DUP2 PUSH2 0x1797 JUMP JUMPDEST DUP3 MSTORE POP POP JUMP JUMPDEST PUSH1 0x0 PUSH2 0x120 DUP3 ADD SWAP1 POP PUSH2 0x17C8 PUSH1 0x0 DUP4 ADD DUP13 PUSH2 0x16E9 JUMP JUMPDEST PUSH2 0x17D5 PUSH1 0x20 DUP4 ADD DUP12 PUSH2 0x16F8 JUMP JUMPDEST DUP2 DUP2 SUB PUSH1 0x40 DUP4 ADD MSTORE PUSH2 0x17E7 DUP2 DUP11 PUSH2 0x175E JUMP JUMPDEST SWAP1 POP PUSH2 0x17F6 PUSH1 0x60 DUP4 ADD DUP10 PUSH2 0x16F8 JUMP JUMPDEST PUSH2 0x1803 PUSH1 0x80 DUP4 ADD DUP9 PUSH2 0x17A3 JUMP JUMPDEST PUSH2 0x1810 PUSH1 0xA0 DUP4 ADD DUP8 PUSH2 0x17A3 JUMP JUMPDEST PUSH2 0x181D PUSH1 0xC0 DUP4 ADD DUP7 PUSH2 0x16F8 JUMP JUMPDEST PUSH2 0x182A PUSH1 0xE0 DUP4 ADD DUP6 PUSH2 0x16F8 JUMP JUMPDEST PUSH2 0x1838 PUSH2 0x100 DUP4 ADD DUP5 PUSH2 0x16E9 JUMP JUMPDEST SWAP11 SWAP10 POP POP POP POP POP POP POP POP POP POP JUMP JUMPDEST PUSH1 0x0 PUSH32 0xFFFFFFFF00000000000000000000000000000000000000000000000000000000 DUP3 AND SWAP1 POP SWAP2 SWAP1 POP JUMP JUMPDEST PUSH2 0x187B DUP2 PUSH2 0x1846 JUMP JUMPDEST DUP2 EQ PUSH2 0x1886 JUMPI PUSH1 0x0 DUP1 REVERT JUMPDEST POP JUMP JUMPDEST PUSH1 0x0 DUP2 CALLDATALOAD SWAP1 POP PUSH2 0x1898 DUP2 PUSH2 0x1872 JUMP JUMPDEST SWAP3 SWAP2 POP POP JUMP JUMPDEST PUSH1 0x0 PUSH1 0x20 DUP3 DUP5 SUB SLT ISZERO PUSH2 0x18B4 JUMPI PUSH2 0x18B3 PUSH2 0x164A JUMP JUMPDEST JUMPDEST PUSH1 0x0 PUSH2 0x18C2 DUP5 DUP3 DUP6 ADD PUSH2 0x1889 JUMP JUMPDEST SWAP2 POP POP SWAP3 SWAP2 POP POP JUMP JUMPDEST PUSH1 0x0 PUSH1 0x20 DUP3 ADD SWAP1 POP PUSH2 0x18E0 PUSH1 0x0 DUP4 ADD DUP5 PUSH2 0x17A3 JUMP JUMPDEST SWAP3 SWAP2 POP POP JUMP JUMPDEST PUSH1 0x0 DUP2 SWAP1 POP SWAP2 SWAP1 POP JUMP JUMPDEST PUSH1 0x0 PUSH2 0x190B PUSH2 0x1906 PUSH2 0x1901 DUP5 PUSH2 0x16B7 JUMP JUMPDEST PUSH2 0x18E6 JUMP JUMPDEST PUSH2 0x16B7 JUMP JUMPDEST SWAP1 POP SWAP2 SWAP1 POP JUMP JUMPDEST PUSH1 0x0 PUSH2 0x191D DUP3 PUSH2 0x18F0 JUMP JUMPDEST SWAP1 POP SWAP2 SWAP1 POP JUMP JUMPDEST PUSH1 0x0 PUSH2 0x192F DUP3 PUSH2 0x1912 JUMP JUMPDEST SWAP1 POP SWAP2 SWAP1 POP JUMP JUMPDEST PUSH2 0x193F DUP2 PUSH2 0x1924 JUMP JUMPDEST DUP3 MSTORE POP POP JUMP JUMPDEST PUSH1 0x0 PUSH1 0x20 DUP3 ADD SWAP1 POP PUSH2 0x195A PUSH1 0x0 DUP4 ADD DUP5 PUSH2 0x1936 JUMP JUMPDEST SWAP3 SWAP2 POP POP JUMP JUMPDEST PUSH2 0x1969 DUP2 PUSH2 0x16D7 JUMP JUMPDEST DUP2 EQ PUSH2 0x1974 JUMPI PUSH1 0x0 DUP1 REVERT JUMPDEST POP JUMP JUMPDEST PUSH1 0x0 DUP2 CALLDATALOAD SWAP1 POP PUSH2 0x1986 DUP2 PUSH2 0x1960 JUMP JUMPDEST SWAP3 SWAP2 POP POP JUMP JUMPDEST PUSH1 0x0 DUP1 PUSH1 0x40 DUP4 DUP6 SUB SLT ISZERO PUSH2 0x19A3 JUMPI PUSH2 0x19A2 PUSH2 0x164A JUMP JUMPDEST JUMPDEST PUSH1 0x0 PUSH2 0x19B1 DUP6 DUP3 DUP7 ADD PUSH2 0x1977 JUMP JUMPDEST SWAP3 POP POP PUSH1 0x20 PUSH2 0x19C2 DUP6 DUP3 DUP7 ADD PUSH2 0x1675 JUMP JUMPDEST SWAP2 POP POP SWAP3 POP SWAP3 SWAP1 POP JUMP JUMPDEST PUSH1 0x0 PUSH1 0x20 DUP3 ADD SWAP1 POP PUSH2 0x19E1 PUSH1 0x0 DUP4 ADD DUP5 PUSH2 0x16F8 JUMP JUMPDEST SWAP3 SWAP2 POP POP JUMP JUMPDEST PUSH1 0x0 DUP1 REVERT JUMPDEST PUSH1 0x0 DUP1 REVERT JUMPDEST PUSH32 0x4E487B7100000000000000000000000000000000000000000000000000000000 PUSH1 0x0 MSTORE PUSH1 0x41 PUSH1 0x4 MSTORE PUSH1 0x24 PUSH1 0x0 REVERT JUMPDEST PUSH2 0x1A29 DUP3 PUSH2 0x174D JUMP JUMPDEST DUP2 ADD DUP2 DUP2 LT PUSH8 0xFFFFFFFFFFFFFFFF DUP3 GT OR ISZERO PUSH2 0x1A48 JUMPI PUSH2 0x1A47 PUSH2 0x19F1 JUMP JUMPDEST JUMPDEST DUP1 PUSH1 0x40 MSTORE POP POP POP JUMP JUMPDEST PUSH1 0x0 PUSH2 0x1A5B PUSH2 0x1640 JUMP JUMPDEST SWAP1 POP PUSH2 0x1A67 DUP3 DUP3 PUSH2 0x1A20 JUMP JUMPDEST SWAP2 SWAP1 POP JUMP JUMPDEST PUSH1 0x0 PUSH8 0xFFFFFFFFFFFFFFFF DUP3 GT ISZERO PUSH2 0x1A87 JUMPI PUSH2 0x1A86 PUSH2 0x19F1 JUMP JUMPDEST JUMPDEST PUSH2 0x1A90 DUP3 PUSH2 0x174D JUMP JUMPDEST SWAP1 POP PUSH1 0x20 DUP2 ADD SWAP1 POP SWAP2 SWAP1 POP JUMP JUMPDEST DUP3 DUP2 DUP4 CALLDATACOPY PUSH1 0x0 DUP4 DUP4 ADD MSTORE POP POP POP JUMP JUMPDEST PUSH1 0x0 PUSH2 0x1ABF PUSH2 0x1ABA DUP5 PUSH2 0x1A6C JUMP JUMPDEST PUSH2 0x1A51 JUMP JUMPDEST SWAP1 POP DUP3 DUP2 MSTORE PUSH1 0x20 DUP2 ADD DUP5 DUP5 DUP5 ADD GT ISZERO PUSH2 0x1ADB JUMPI PUSH2 0x1ADA PUSH2 0x19EC JUMP JUMPDEST JUMPDEST PUSH2 0x1AE6 DUP5 DUP3 DUP6 PUSH2 0x1A9D JUMP JUMPDEST POP SWAP4 SWAP3 POP POP POP JUMP JUMPDEST PUSH1 0x0 DUP3 PUSH1 0x1F DUP4 ADD SLT PUSH2 0x1B03 JUMPI PUSH2 0x1B02 PUSH2 0x19E7 JUMP JUMPDEST JUMPDEST DUP2 CALLDATALOAD PUSH2 0x1B13 DUP5 DUP3 PUSH1 0x20 DUP7 ADD PUSH2 0x1AAC JUMP JUMPDEST SWAP2 POP POP SWAP3 SWAP2 POP POP JUMP JUMPDEST PUSH1 0x0 DUP1 PUSH1 0x0 DUP1 PUSH1 0x80 DUP6 DUP8 SUB SLT ISZERO PUSH2 0x1B36 JUMPI PUSH2 0x1B35 PUSH2 0x164A JUMP JUMPDEST JUMPDEST PUSH1 0x0 PUSH2 0x1B44 DUP8 DUP3 DUP9 ADD PUSH2 0x1977 JUMP JUMPDEST SWAP5 POP POP PUSH1 0x20 PUSH2 0x1B55 DUP8 DUP3 DUP9 ADD PUSH2 0x1675 JUMP JUMPDEST SWAP4 POP POP PUSH1 0x40 DUP6 ADD CALLDATALOAD PUSH8 0xFFFFFFFFFFFFFFFF DUP2 GT ISZERO PUSH2 0x1B76 JUMPI PUSH2 0x1B75 PUSH2 0x164F JUMP JUMPDEST JUMPDEST PUSH2 0x1B82 DUP8 DUP3 DUP9 ADD PUSH2 0x1AEE JUMP JUMPDEST SWAP3 POP POP PUSH1 0x60 PUSH2 0x1B93 DUP8 DUP3 DUP9 ADD PUSH2 0x1675 JUMP JUMPDEST SWAP2 POP POP SWAP3 SWAP6 SWAP2 SWAP5 POP SWAP3 POP JUMP JUMPDEST PUSH1 0x0 PUSH1 0x20 DUP3 ADD SWAP1 POP DUP2 DUP2 SUB PUSH1 0x0 DUP4 ADD MSTORE PUSH2 0x1BB9 DUP2 DUP5 PUSH2 0x175E JUMP JUMPDEST SWAP1 POP SWAP3 SWAP2 POP POP JUMP JUMPDEST PUSH1 0x0 PUSH1 0x20 DUP3 ADD SWAP1 POP PUSH2 0x1BD6 PUSH1 0x0 DUP4 ADD DUP5 PUSH2 0x16E9 JUMP JUMPDEST SWAP3 SWAP2 POP POP JUMP JUMPDEST PUSH1 0x0 PUSH1 0x20 DUP3 DUP5 SUB SLT ISZERO PUSH2 0x1BF2 JUMPI PUSH2 0x1BF1 PUSH2 0x164A JUMP JUMPDEST JUMPDEST PUSH1 0x0 PUSH2 0x1C00 DUP5 DUP3 DUP6 ADD PUSH2 0x1977 JUMP JUMPDEST SWAP2 POP POP SWAP3 SWAP2 POP POP JUMP JUMPDEST PUSH2 0x1C12 DUP2 PUSH2 0x1797 JUMP JUMPDEST DUP2 EQ PUSH2 0x1C1D JUMPI PUSH1 0x0 DUP1 REVERT JUMPDEST POP JUMP JUMPDEST PUSH1 0x0 DUP2 CALLDATALOAD SWAP1 POP PUSH2 0x1C2F DUP2 PUSH2 0x1C09 JUMP JUMPDEST SWAP3 SWAP2 POP POP JUMP JUMPDEST PUSH1 0x0 DUP1 PUSH1 0x40 DUP4 DUP6 SUB SLT ISZERO PUSH2 0x1C4C JUMPI PUSH2 0x1C4B PUSH2 0x164A JUMP JUMPDEST JUMPDEST PUSH1 0x0 PUSH2 0x1C5A DUP6 DUP3 DUP7 ADD PUSH2 0x1675 JUMP JUMPDEST SWAP3 POP POP PUSH1 0x20 PUSH2 0x1C6B DUP6 DUP3 DUP7 ADD PUSH2 0x1C20 JUMP JUMPDEST SWAP2 POP POP SWAP3 POP SWAP3 SWAP1 POP JUMP JUMPDEST PUSH32 0x4E487B7100000000000000000000000000000000000000000000000000000000 PUSH1 0x0 MSTORE PUSH1 0x22 PUSH1 0x4 MSTORE PUSH1 0x24 PUSH1 0x0 REVERT JUMPDEST PUSH1 0x0 PUSH1 0x2 DUP3 DIV SWAP1 POP PUSH1 0x1 DUP3 AND DUP1 PUSH2 0x1CBC JUMPI PUSH1 0x7F DUP3 AND SWAP2 POP JUMPDEST PUSH1 0x20 DUP3 LT DUP2 SUB PUSH2 0x1CCF JUMPI PUSH2 0x1CCE PUSH2 0x1C75 JUMP JUMPDEST JUMPDEST POP SWAP2 SWAP1 POP JUMP JUMPDEST PUSH32 0x4E6F7420612076616C69642070726F706F73616C204944000000000000000000 PUSH1 0x0 DUP3 ADD MSTORE POP JUMP JUMPDEST PUSH1 0x0 PUSH2 0x1D0B PUSH1 0x17 DUP4 PUSH2 0x1712 JUMP JUMPDEST SWAP2 POP PUSH2 0x1D16 DUP3 PUSH2 0x1CD5 JUMP JUMPDEST PUSH1 0x20 DUP3 ADD SWAP1 POP SWAP2 SWAP1 POP JUMP JUMPDEST PUSH1 0x0 PUSH1 0x20 DUP3 ADD SWAP1 POP DUP2 DUP2 SUB PUSH1 0x0 DUP4 ADD MSTORE PUSH2 0x1D3A DUP2 PUSH2 0x1CFE JUMP JUMPDEST SWAP1 POP SWAP2 SWAP1 POP JUMP JUMPDEST PUSH32 0x566F74657320617265207374696C20746162756C6174696E672E2E2E00000000 PUSH1 0x0 DUP3 ADD MSTORE POP JUMP JUMPDEST PUSH1 0x0 PUSH2 0x1D77 PUSH1 0x1C DUP4 PUSH2 0x1712 JUMP JUMPDEST SWAP2 POP PUSH2 0x1D82 DUP3 PUSH2 0x1D41 JUMP JUMPDEST PUSH1 0x20 DUP3 ADD SWAP1 POP SWAP2 SWAP1 POP JUMP JUMPDEST PUSH1 0x0 PUSH1 0x20 DUP3 ADD SWAP1 POP DUP2 DUP2 SUB PUSH1 0x0 DUP4 ADD MSTORE PUSH2 0x1DA6 DUP2 PUSH2 0x1D6A JUMP JUMPDEST SWAP1 POP SWAP2 SWAP1 POP JUMP JUMPDEST PUSH32 0x5468652073656E646572206973206E6F742061206D656D626572206F66207468 PUSH1 0x0 DUP3 ADD MSTORE PUSH32 0x652044414F000000000000000000000000000000000000000000000000000000 PUSH1 0x20 DUP3 ADD MSTORE POP JUMP JUMPDEST PUSH1 0x0 PUSH2 0x1E09 PUSH1 0x25 DUP4 PUSH2 0x1712 JUMP JUMPDEST SWAP2 POP PUSH2 0x1E14 DUP3 PUSH2 0x1DAD JUMP JUMPDEST PUSH1 0x40 DUP3 ADD SWAP1 POP SWAP2 SWAP1 POP JUMP JUMPDEST PUSH1 0x0 PUSH1 0x20 DUP3 ADD SWAP1 POP DUP2 DUP2 SUB PUSH1 0x0 DUP4 ADD MSTORE PUSH2 0x1E38 DUP2 PUSH2 0x1DFC JUMP JUMPDEST SWAP1 POP SWAP2 SWAP1 POP JUMP JUMPDEST PUSH1 0x0 DUP2 SWAP1 POP SWAP3 SWAP2 POP POP JUMP JUMPDEST POP JUMP JUMPDEST PUSH1 0x0 PUSH2 0x1E5A PUSH1 0x0 DUP4 PUSH2 0x1E3F JUMP JUMPDEST SWAP2 POP PUSH2 0x1E65 DUP3 PUSH2 0x1E4A JUMP JUMPDEST PUSH1 0x0 DUP3 ADD SWAP1 POP SWAP2 SWAP1 POP JUMP JUMPDEST PUSH1 0x0 PUSH2 0x1E7B DUP3 PUSH2 0x1E4D JUMP JUMPDEST SWAP2 POP DUP2 SWAP1 POP SWAP2 SWAP1 POP JUMP JUMPDEST PUSH32 0x4661696C656420746F207061792074686520696E74656E646564206164647265 PUSH1 0x0 DUP3 ADD MSTORE PUSH32 0x7373000000000000000000000000000000000000000000000000000000000000 PUSH1 0x20 DUP3 ADD MSTORE POP JUMP JUMPDEST PUSH1 0x0 PUSH2 0x1EE1 PUSH1 0x22 DUP4 PUSH2 0x1712 JUMP JUMPDEST SWAP2 POP PUSH2 0x1EEC DUP3 PUSH2 0x1E85 JUMP JUMPDEST PUSH1 0x40 DUP3 ADD SWAP1 POP SWAP2 SWAP1 POP JUMP JUMPDEST PUSH1 0x0 PUSH1 0x20 DUP3 ADD SWAP1 POP DUP2 DUP2 SUB PUSH1 0x0 DUP4 ADD MSTORE PUSH2 0x1F10 DUP2 PUSH2 0x1ED4 JUMP JUMPDEST SWAP1 POP SWAP2 SWAP1 POP JUMP JUMPDEST PUSH32 0x4E487B7100000000000000000000000000000000000000000000000000000000 PUSH1 0x0 MSTORE PUSH1 0x11 PUSH1 0x4 MSTORE PUSH1 0x24 PUSH1 0x0 REVERT JUMPDEST PUSH1 0x0 PUSH2 0x1F51 DUP3 PUSH2 0x1654 JUMP JUMPDEST SWAP2 POP PUSH2 0x1F5C DUP4 PUSH2 0x1654 JUMP JUMPDEST SWAP3 POP DUP3 DUP3 SUB SWAP1 POP DUP2 DUP2 GT ISZERO PUSH2 0x1F74 JUMPI PUSH2 0x1F73 PUSH2 0x1F17 JUMP JUMPDEST JUMPDEST SWAP3 SWAP2 POP POP JUMP JUMPDEST PUSH32 0x50726F706F736564204465626174652074696D6520697320746F6F2073686F72 PUSH1 0x0 DUP3 ADD MSTORE PUSH32 0x7421000000000000000000000000000000000000000000000000000000000000 PUSH1 0x20 DUP3 ADD MSTORE POP JUMP JUMPDEST PUSH1 0x0 PUSH2 0x1FD6 PUSH1 0x22 DUP4 PUSH2 0x1712 JUMP JUMPDEST SWAP2 POP PUSH2 0x1FE1 DUP3 PUSH2 0x1F7A JUMP JUMPDEST PUSH1 0x40 DUP3 ADD SWAP1 POP SWAP2 SWAP1 POP JUMP JUMPDEST PUSH1 0x0 PUSH1 0x20 DUP3 ADD SWAP1 POP DUP2 DUP2 SUB PUSH1 0x0 DUP4 ADD MSTORE PUSH2 0x2005 DUP2 PUSH2 0x1FC9 JUMP JUMPDEST SWAP1 POP SWAP2 SWAP1 POP JUMP JUMPDEST PUSH32 0x5468652070726F706F73616C207375626D6974746572206973206E6F74206120 PUSH1 0x0 DUP3 ADD MSTORE PUSH32 0x6D656D626572206F66207468652044414F000000000000000000000000000000 PUSH1 0x20 DUP3 ADD MSTORE POP JUMP JUMPDEST PUSH1 0x0 PUSH2 0x2068 PUSH1 0x31 DUP4 PUSH2 0x1712 JUMP JUMPDEST SWAP2 POP PUSH2 0x2073 DUP3 PUSH2 0x200C JUMP JUMPDEST PUSH1 0x40 DUP3 ADD SWAP1 POP SWAP2 SWAP1 POP JUMP JUMPDEST PUSH1 0x0 PUSH1 0x20 DUP3 ADD SWAP1 POP DUP2 DUP2 SUB PUSH1 0x0 DUP4 ADD MSTORE PUSH2 0x2097 DUP2 PUSH2 0x205B JUMP JUMPDEST SWAP1 POP SWAP2 SWAP1 POP JUMP JUMPDEST PUSH1 0x0 PUSH2 0x20A9 DUP3 PUSH2 0x1654 JUMP JUMPDEST SWAP2 POP PUSH2 0x20B4 DUP4 PUSH2 0x1654 JUMP JUMPDEST SWAP3 POP DUP3 DUP3 ADD SWAP1 POP DUP1 DUP3 GT ISZERO PUSH2 0x20CC JUMPI PUSH2 0x20CB PUSH2 0x1F17 JUMP JUMPDEST JUMPDEST SWAP3 SWAP2 POP POP JUMP JUMPDEST PUSH32 0x4E6F7420656E6F7567682066756E647320746F2072756E20746869732070726F PUSH1 0x0 DUP3 ADD MSTORE PUSH32 0x706F73616C000000000000000000000000000000000000000000000000000000 PUSH1 0x20 DUP3 ADD MSTORE POP JUMP JUMPDEST PUSH1 0x0 PUSH2 0x212E PUSH1 0x25 DUP4 PUSH2 0x1712 JUMP JUMPDEST SWAP2 POP PUSH2 0x2139 DUP3 PUSH2 0x20D2 JUMP JUMPDEST PUSH1 0x40 DUP3 ADD SWAP1 POP SWAP2 SWAP1 POP JUMP JUMPDEST PUSH1 0x0 PUSH1 0x20 DUP3 ADD SWAP1 POP DUP2 DUP2 SUB PUSH1 0x0 DUP4 ADD MSTORE PUSH2 0x215D DUP2 PUSH2 0x2121 JUMP JUMPDEST SWAP1 POP SWAP2 SWAP1 POP JUMP JUMPDEST PUSH1 0x0 DUP2 SWAP1 POP DUP2 PUSH1 0x0 MSTORE PUSH1 0x20 PUSH1 0x0 KECCAK256 SWAP1 POP SWAP2 SWAP1 POP JUMP JUMPDEST PUSH1 0x0 PUSH1 0x20 PUSH1 0x1F DUP4 ADD DIV SWAP1 POP SWAP2 SWAP1 POP JUMP JUMPDEST PUSH1 0x0 DUP3 DUP3 SHL SWAP1 POP SWAP3 SWAP2 POP POP JUMP JUMPDEST PUSH1 0x0 PUSH1 0x8 DUP4 MUL PUSH2 0x21C6 PUSH32 0xFFFFFFFFFFFFFFFFFFFFFFFFFFFFFFFFFFFFFFFFFFFFFFFFFFFFFFFFFFFFFFFF DUP3 PUSH2 0x2189 JUMP JUMPDEST PUSH2 0x21D0 DUP7 DUP4 PUSH2 0x2189 JUMP JUMPDEST SWAP6 POP DUP1 NOT DUP5 AND SWAP4 POP DUP1 DUP7 AND DUP5 OR SWAP3 POP POP POP SWAP4 SWAP3 POP POP POP JUMP JUMPDEST PUSH1 0x0 PUSH2 0x2203 PUSH2 0x21FE PUSH2 0x21F9 DUP5 PUSH2 0x1654 JUMP JUMPDEST PUSH2 0x18E6 JUMP JUMPDEST PUSH2 0x1654 JUMP JUMPDEST SWAP1 POP SWAP2 SWAP1 POP JUMP JUMPDEST PUSH1 0x0 DUP2 SWAP1 POP SWAP2 SWAP1 POP JUMP JUMPDEST PUSH2 0x221D DUP4 PUSH2 0x21E8 JUMP JUMPDEST PUSH2 0x2231 PUSH2 0x2229 DUP3 PUSH2 0x220A JUMP JUMPDEST DUP5 DUP5 SLOAD PUSH2 0x2196 JUMP JUMPDEST DUP3 SSTORE POP POP POP POP JUMP JUMPDEST PUSH1 0x0 SWAP1 JUMP JUMPDEST PUSH2 0x2246 PUSH2 0x2239 JUMP JUMPDEST PUSH2 0x2251 DUP2 DUP5 DUP5 PUSH2 0x2214 JUMP JUMPDEST POP POP POP JUMP JUMPDEST JUMPDEST DUP2 DUP2 LT ISZERO PUSH2 0x2275 JUMPI PUSH2 0x226A PUSH1 0x0 DUP3 PUSH2 0x223E JUMP JUMPDEST PUSH1 0x1 DUP2 ADD SWAP1 POP PUSH2 0x2257 JUMP JUMPDEST POP POP JUMP JUMPDEST PUSH1 0x1F DUP3 GT ISZERO PUSH2 0x22BA JUMPI PUSH2 0x228B DUP2 PUSH2 0x2164 JUMP JUMPDEST PUSH2 0x2294 DUP5 PUSH2 0x2179 JUMP JUMPDEST DUP2 ADD PUSH1 0x20 DUP6 LT ISZERO PUSH2 0x22A3 JUMPI DUP2 SWAP1 POP JUMPDEST PUSH2 0x22B7 PUSH2 0x22AF DUP6 PUSH2 0x2179 JUMP JUMPDEST DUP4 ADD DUP3 PUSH2 0x2256 JUMP JUMPDEST POP POP JUMPDEST POP POP POP JUMP JUMPDEST PUSH1 0x0 DUP3 DUP3 SHR SWAP1 POP SWAP3 SWAP2 POP POP JUMP JUMPDEST PUSH1 0x0 PUSH2 0x22DD PUSH1 0x0 NOT DUP5 PUSH1 0x8 MUL PUSH2 0x22BF JUMP JUMPDEST NOT DUP1 DUP4 AND SWAP2 POP POP SWAP3 SWAP2 POP POP JUMP JUMPDEST PUSH1 0x0 PUSH2 0x22F6 DUP4 DUP4 PUSH2 0x22CC JUMP JUMPDEST SWAP2 POP DUP3 PUSH1 0x2 MUL DUP3 OR SWAP1 POP SWAP3 SWAP2 POP POP JUMP JUMPDEST PUSH2 0x230F DUP3 PUSH2 0x1707 JUMP JUMPDEST PUSH8 0xFFFFFFFFFFFFFFFF DUP2 GT ISZERO PUSH2 0x2328 JUMPI PUSH2 0x2327 PUSH2 0x19F1 JUMP JUMPDEST JUMPDEST PUSH2 0x2332 DUP3 SLOAD PUSH2 0x1CA4 JUMP JUMPDEST PUSH2 0x233D DUP3 DUP3 DUP6 PUSH2 0x2279 JUMP JUMPDEST PUSH1 0x0 PUSH1 0x20 SWAP1 POP PUSH1 0x1F DUP4 GT PUSH1 0x1 DUP2 EQ PUSH2 0x2370 JUMPI PUSH1 0x0 DUP5 ISZERO PUSH2 0x235E JUMPI DUP3 DUP8 ADD MLOAD SWAP1 POP JUMPDEST PUSH2 0x2368 DUP6 DUP3 PUSH2 0x22EA JUMP JUMPDEST DUP7 SSTORE POP PUSH2 0x23D0 JUMP JUMPDEST PUSH1 0x1F NOT DUP5 AND PUSH2 0x237E DUP7 PUSH2 0x2164 JUMP JUMPDEST PUSH1 0x0 JUMPDEST DUP3 DUP2 LT ISZERO PUSH2 0x23A6 JUMPI DUP5 DUP10 ADD MLOAD DUP3 SSTORE PUSH1 0x1 DUP3 ADD SWAP2 POP PUSH1 0x20 DUP6 ADD SWAP5 POP PUSH1 0x20 DUP2 ADD SWAP1 POP PUSH2 0x2381 JUMP JUMPDEST DUP7 DUP4 LT ISZERO PUSH2 0x23C3 JUMPI DUP5 DUP10 ADD MLOAD PUSH2 0x23BF PUSH1 0x1F DUP10 AND DUP3 PUSH2 0x22CC JUMP JUMPDEST DUP4 SSTORE POP JUMPDEST PUSH1 0x1 PUSH1 0x2 DUP9 MUL ADD DUP9 SSTORE POP POP POP JUMPDEST POP POP POP POP POP POP JUMP JUMPDEST PUSH1 0x0 PUSH2 0x23E3 DUP3 PUSH2 0x1654 JUMP JUMPDEST SWAP2 POP PUSH32 0xFFFFFFFFFFFFFFFFFFFFFFFFFFFFFFFFFFFFFFFFFFFFFFFFFFFFFFFFFFFFFFFF DUP3 SUB PUSH2 0x2415 JUMPI PUSH2 0x2414 PUSH2 0x1F17 JUMP JUMPDEST JUMPDEST PUSH1 0x1 DUP3 ADD SWAP1 POP SWAP2 SWAP1 POP JUMP JUMPDEST PUSH32 0x54686520766F746572206973206E6F742061206D656D626572206F6620746865 PUSH1 0x0 DUP3 ADD MSTORE PUSH32 0x2044414F00000000000000000000000000000000000000000000000000000000 PUSH1 0x20 DUP3 ADD MSTORE POP JUMP JUMPDEST PUSH1 0x0 PUSH2 0x247C PUSH1 0x24 DUP4 PUSH2 0x1712 JUMP JUMPDEST SWAP2 POP PUSH2 0x2487 DUP3 PUSH2 0x2420 JUMP JUMPDEST PUSH1 0x40 DUP3 ADD SWAP1 POP SWAP2 SWAP1 POP JUMP JUMPDEST PUSH1 0x0 PUSH1 0x20 DUP3 ADD SWAP1 POP DUP2 DUP2 SUB PUSH1 0x0 DUP4 ADD MSTORE PUSH2 0x24AB DUP2 PUSH2 0x246F JUMP JUMPDEST SWAP1 POP SWAP2 SWAP1 POP JUMP JUMPDEST PUSH32 0x4F6E6C79206578697374696E67206D656D626572732063616E20616464206D65 PUSH1 0x0 DUP3 ADD MSTORE PUSH32 0x6D6265727320746F207468652044414F00000000000000000000000000000000 PUSH1 0x20 DUP3 ADD MSTORE POP JUMP JUMPDEST PUSH1 0x0 PUSH2 0x250E PUSH1 0x30 DUP4 PUSH2 0x1712 JUMP JUMPDEST SWAP2 POP PUSH2 0x2519 DUP3 PUSH2 0x24B2 JUMP JUMPDEST PUSH1 0x40 DUP3 ADD SWAP1 POP SWAP2 SWAP1 POP JUMP JUMPDEST PUSH1 0x0 PUSH1 0x20 DUP3 ADD SWAP1 POP DUP2 DUP2 SUB PUSH1 0x0 DUP4 ADD MSTORE PUSH2 0x253D DUP2 PUSH2 0x2501 JUMP JUMPDEST SWAP1 POP SWAP2 SWAP1 POP JUMP JUMPDEST PUSH1 0x0 PUSH1 0x40 DUP3 ADD SWAP1 POP PUSH2 0x2559 PUSH1 0x0 DUP4 ADD DUP6 PUSH2 0x16E9 JUMP JUMPDEST DUP2 DUP2 SUB PUSH1 0x20 DUP4 ADD MSTORE PUSH2 0x256B DUP2 DUP5 PUSH2 0x175E JUMP JUMPDEST SWAP1 POP SWAP4 SWAP3 POP POP POP JUMP JUMPDEST PUSH1 0x0 DUP2 MLOAD SWAP1 POP PUSH2 0x2583 DUP2 PUSH2 0x165E JUMP JUMPDEST SWAP3 SWAP2 POP POP JUMP JUMPDEST PUSH1 0x0 PUSH1 0x20 DUP3 DUP5 SUB SLT ISZERO PUSH2 0x259F JUMPI PUSH2 0x259E PUSH2 0x164A JUMP JUMPDEST JUMPDEST PUSH1 0x0 PUSH2 0x25AD DUP5 DUP3 DUP6 ADD PUSH2 0x2574 JUMP JUMPDEST SWAP2 POP POP SWAP3 SWAP2 POP POP JUMP JUMPDEST PUSH32 0x4E487B7100000000000000000000000000000000000000000000000000000000 PUSH1 0x0 MSTORE PUSH1 0x32 PUSH1 0x4 MSTORE PUSH1 0x24 PUSH1 0x0 REVERT JUMPDEST PUSH1 0x0 PUSH2 0x25F0 DUP3 PUSH2 0x1654 JUMP JUMPDEST SWAP2 POP PUSH2 0x25FB DUP4 PUSH2 0x1654 JUMP JUMPDEST SWAP3 POP DUP2 PUSH32 0xFFFFFFFFFFFFFFFFFFFFFFFFFFFFFFFFFFFFFFFFFFFFFFFFFFFFFFFFFFFFFFFF DIV DUP4 GT DUP3 ISZERO ISZERO AND ISZERO PUSH2 0x2634 JUMPI PUSH2 0x2633 PUSH2 0x1F17 JUMP JUMPDEST JUMPDEST DUP3 DUP3 MUL SWAP1 POP SWAP3 SWAP2 POP POP JUMP JUMPDEST PUSH1 0x0 PUSH2 0x264A DUP3 PUSH2 0x1654 JUMP JUMPDEST SWAP2 POP PUSH1 0x0 DUP3 SUB PUSH2 0x265D JUMPI PUSH2 0x265C PUSH2 0x1F17 JUMP JUMPDEST JUMPDEST PUSH1 0x1 DUP3 SUB SWAP1 POP SWAP2 SWAP1 POP JUMP JUMPDEST PUSH32 0x537472696E67733A20686578206C656E67746820696E73756666696369656E74 PUSH1 0x0 DUP3 ADD MSTORE POP JUMP JUMPDEST PUSH1 0x0 PUSH2 0x269E PUSH1 0x20 DUP4 PUSH2 0x1712 JUMP JUMPDEST SWAP2 POP PUSH2 0x26A9 DUP3 PUSH2 0x2668 JUMP JUMPDEST PUSH1 0x20 DUP3 ADD SWAP1 POP SWAP2 SWAP1 POP JUMP JUMPDEST PUSH1 0x0 PUSH1 0x20 DUP3 ADD SWAP1 POP DUP2 DUP2 SUB PUSH1 0x0 DUP4 ADD MSTORE PUSH2 0x26CD DUP2 PUSH2 0x2691 JUMP JUMPDEST SWAP1 POP SWAP2 SWAP1 POP JUMP INVALID LOG2 PUSH5 0x6970667358 0x22 SLT KECCAK256 SWAP8 0xEB 0xAE 0xC2 0xC6 LOG3 RETURN SWAP7 0xE4 0x4D 0xCE SWAP4 0xA8 SHR PUSH26 0x29BD92EF21E9416FC1A0BD699191539CB864736F6C6343000810 STOP CALLER PUSH1 0x80 PUSH1 0x40 MSTORE CALLVALUE DUP1 ISZERO PUSH3 0x11 JUMPI PUSH1 0x0 DUP1 REVERT JUMPDEST POP PUSH1 0x40 MLOAD DUP1 PUSH1 0x20 ADD PUSH1 0x40 MSTORE DUP1 PUSH1 0x0 DUP2 MSTORE POP PUSH1 0x40 MLOAD DUP1 PUSH1 0x40 ADD PUSH1 0x40 MSTORE DUP1 PUSH1 0x11 DUP2 MSTORE PUSH1 0x20 ADD PUSH32 0x526F622773204E4654204D616E61676572000000000000000000000000000000 DUP2 MSTORE POP DUP2 PUSH1 0x0 SWAP1 DUP2 PUSH3 0x69 SWAP2 SWAP1 PUSH3 0x2FE JUMP JUMPDEST POP DUP1 PUSH1 0x1 SWAP1 DUP2 PUSH3 0x7B SWAP2 SWAP1 PUSH3 0x2FE JUMP JUMPDEST POP POP POP PUSH3 0x3E5 JUMP JUMPDEST PUSH1 0x0 DUP2 MLOAD SWAP1 POP SWAP2 SWAP1 POP JUMP JUMPDEST PUSH32 0x4E487B7100000000000000000000000000000000000000000000000000000000 PUSH1 0x0 MSTORE PUSH1 0x41 PUSH1 0x4 MSTORE PUSH1 0x24 PUSH1 0x0 REVERT JUMPDEST PUSH32 0x4E487B7100000000000000000000000000000000000000000000000000000000 PUSH1 0x0 MSTORE PUSH1 0x22 PUSH1 0x4 MSTORE PUSH1 0x24 PUSH1 0x0 REVERT JUMPDEST PUSH1 0x0 PUSH1 0x2 DUP3 DIV SWAP1 POP PUSH1 0x1 DUP3 AND DUP1 PUSH3 0x106 JUMPI PUSH1 0x7F DUP3 AND SWAP2 POP JUMPDEST PUSH1 0x20 DUP3 LT DUP2 SUB PUSH3 0x11C JUMPI PUSH3 0x11B PUSH3 0xBE JUMP JUMPDEST JUMPDEST POP SWAP2 SWAP1 POP JUMP JUMPDEST PUSH1 0x0 DUP2 SWAP1 POP DUP2 PUSH1 0x0 MSTORE PUSH1 0x20 PUSH1 0x0 KECCAK256 SWAP1 POP SWAP2 SWAP1 POP JUMP JUMPDEST PUSH1 0x0 PUSH1 0x20 PUSH1 0x1F DUP4 ADD DIV SWAP1 POP SWAP2 SWAP1 POP JUMP JUMPDEST PUSH1 0x0 DUP3 DUP3 SHL SWAP1 POP SWAP3 SWAP2 POP POP JUMP JUMPDEST PUSH1 0x0 PUSH1 0x8 DUP4 MUL PUSH3 0x186 PUSH32 0xFFFFFFFFFFFFFFFFFFFFFFFFFFFFFFFFFFFFFFFFFFFFFFFFFFFFFFFFFFFFFFFF DUP3 PUSH3 0x147 JUMP JUMPDEST PUSH3 0x192 DUP7 DUP4 PUSH3 0x147 JUMP JUMPDEST SWAP6 POP DUP1 NOT DUP5 AND SWAP4 POP DUP1 DUP7 AND DUP5 OR SWAP3 POP POP POP SWAP4 SWAP3 POP POP POP JUMP JUMPDEST PUSH1 0x0 DUP2 SWAP1 POP SWAP2 SWAP1 POP JUMP JUMPDEST PUSH1 0x0 DUP2 SWAP1 POP SWAP2 SWAP1 POP JUMP JUMPDEST PUSH1 0x0 PUSH3 0x1DF PUSH3 0x1D9 PUSH3 0x1D3 DUP5 PUSH3 0x1AA JUMP JUMPDEST PUSH3 0x1B4 JUMP JUMPDEST PUSH3 0x1AA JUMP JUMPDEST SWAP1 POP SWAP2 SWAP1 POP JUMP JUMPDEST PUSH1 0x0 DUP2 SWAP1 POP SWAP2 SWAP1 POP JUMP JUMPDEST PUSH3 0x1FB DUP4 PUSH3 0x1BE JUMP JUMPDEST PUSH3 0x213 PUSH3 0x20A DUP3 PUSH3 0x1E6 JUMP JUMPDEST DUP5 DUP5 SLOAD PUSH3 0x154 JUMP JUMPDEST DUP3 SSTORE POP POP POP POP JUMP JUMPDEST PUSH1 0x0 SWAP1 JUMP JUMPDEST PUSH3 0x22A PUSH3 0x21B JUMP JUMPDEST PUSH3 0x237 DUP2 DUP5 DUP5 PUSH3 0x1F0 JUMP JUMPDEST POP POP POP JUMP JUMPDEST JUMPDEST DUP2 DUP2 LT ISZERO PUSH3 0x25F JUMPI PUSH3 0x253 PUSH1 0x0 DUP3 PUSH3 0x220 JUMP JUMPDEST PUSH1 0x1 DUP2 ADD SWAP1 POP PUSH3 0x23D JUMP JUMPDEST POP POP JUMP JUMPDEST PUSH1 0x1F DUP3 GT ISZERO PUSH3 0x2AE JUMPI PUSH3 0x278 DUP2 PUSH3 0x122 JUMP JUMPDEST PUSH3 0x283 DUP5 PUSH3 0x137 JUMP JUMPDEST DUP2 ADD PUSH1 0x20 DUP6 LT ISZERO PUSH3 0x293 JUMPI DUP2 SWAP1 POP JUMPDEST PUSH3 0x2AB PUSH3 0x2A2 DUP6 PUSH3 0x137 JUMP JUMPDEST DUP4 ADD DUP3 PUSH3 0x23C JUMP JUMPDEST POP POP JUMPDEST POP POP POP JUMP JUMPDEST PUSH1 0x0 DUP3 DUP3 SHR SWAP1 POP SWAP3 SWAP2 POP POP JUMP JUMPDEST PUSH1 0x0 PUSH3 0x2D3 PUSH1 0x0 NOT DUP5 PUSH1 0x8 MUL PUSH3 0x2B3 JUMP JUMPDEST NOT DUP1 DUP4 AND SWAP2 POP POP SWAP3 SWAP2 POP POP JUMP JUMPDEST PUSH1 0x0 PUSH3 0x2EE DUP4 DUP4 PUSH3 0x2C0 JUMP JUMPDEST SWAP2 POP DUP3 PUSH1 0x2 MUL DUP3 OR SWAP1 POP SWAP3 SWAP2 POP POP JUMP JUMPDEST PUSH3 0x309 DUP3 PUSH3 0x84 JUMP JUMPDEST PUSH8 0xFFFFFFFFFFFFFFFF DUP2 GT ISZERO PUSH3 0x325 JUMPI PUSH3 0x324 PUSH3 0x8F JUMP JUMPDEST JUMPDEST PUSH3 0x331 DUP3 SLOAD PUSH3 0xED JUMP JUMPDEST PUSH3 0x33E DUP3 DUP3 DUP6 PUSH3 0x263 JUMP JUMPDEST PUSH1 0x0 PUSH1 0x20 SWAP1 POP PUSH1 0x1F DUP4 GT PUSH1 0x1 DUP2 EQ PUSH3 0x376 JUMPI PUSH1 0x0 DUP5 ISZERO PUSH3 0x361 JUMPI DUP3 DUP8 ADD MLOAD SWAP1 POP JUMPDEST PUSH3 0x36D DUP6 DUP3 PUSH3 0x2E0 JUMP JUMPDEST DUP7 SSTORE POP PUSH3 0x3DD JUMP JUMPDEST PUSH1 0x1F NOT DUP5 AND PUSH3 0x386 DUP7 PUSH3 0x122 JUMP JUMPDEST PUSH1 0x0 JUMPDEST DUP3 DUP2 LT ISZERO PUSH3 0x3B0 JUMPI DUP5 DUP10 ADD MLOAD DUP3 SSTORE PUSH1 0x1 DUP3 ADD SWAP2 POP PUSH1 0x20 DUP6 ADD SWAP5 POP PUSH1 0x20 DUP2 ADD SWAP1 POP PUSH3 0x389 JUMP JUMPDEST DUP7 DUP4 LT ISZERO PUSH3 0x3D0 JUMPI DUP5 DUP10 ADD MLOAD PUSH3 0x3CC PUSH1 0x1F DUP10 AND DUP3 PUSH3 0x2C0 JUMP JUMPDEST DUP4 SSTORE POP JUMPDEST PUSH1 0x1 PUSH1 0x2 DUP9 MUL ADD DUP9 SSTORE POP POP POP JUMPDEST POP POP POP POP POP POP JUMP JUMPDEST PUSH2 0x2DA0 DUP1 PUSH3 0x3F5 PUSH1 0x0 CODECOPY PUSH1 0x0 RETURN INVALID PUSH1 0x80 PUSH1 0x40 MSTORE CALLVALUE DUP1 ISZERO PUSH2 0x10 JUMPI PUSH1 0x0 DUP1 REVERT JUMPDEST POP PUSH1 0x4 CALLDATASIZE LT PUSH2 0x12C JUMPI PUSH1 0x0 CALLDATALOAD PUSH1 0xE0 SHR DUP1 PUSH4 0x73B0745F GT PUSH2 0xAD JUMPI DUP1 PUSH4 0xA95ADF49 GT PUSH2 0x71 JUMPI DUP1 PUSH4 0xA95ADF49 EQ PUSH2 0x369 JUMPI DUP1 PUSH4 0xB88D4FDE EQ PUSH2 0x399 JUMPI DUP1 PUSH4 0xC87B56DD EQ PUSH2 0x3B5 JUMPI DUP1 PUSH4 0xD796D156 EQ PUSH2 0x3E5 JUMPI DUP1 PUSH4 0xE985E9C5 EQ PUSH2 0x415 JUMPI PUSH2 0x12C JUMP JUMPDEST DUP1 PUSH4 0x73B0745F EQ PUSH2 0x2B1 JUMPI DUP1 PUSH4 0x947B59AE EQ PUSH2 0x2CF JUMPI DUP1 PUSH4 0x95D89B41 EQ PUSH2 0x2FF JUMPI DUP1 PUSH4 0x96F97A88 EQ PUSH2 0x31D JUMPI DUP1 PUSH4 0xA22CB465 EQ PUSH2 0x34D JUMPI PUSH2 0x12C JUMP JUMPDEST DUP1 PUSH4 0xE980602 GT PUSH2 0xF4 JUMPI DUP1 PUSH4 0xE980602 EQ PUSH2 0x1E9 JUMPI DUP1 PUSH4 0x23B872DD EQ PUSH2 0x219 JUMPI DUP1 PUSH4 0x42842E0E EQ PUSH2 0x235 JUMPI DUP1 PUSH4 0x6352211E EQ PUSH2 0x251 JUMPI DUP1 PUSH4 0x70A08231 EQ PUSH2 0x281 JUMPI PUSH2 0x12C JUMP JUMPDEST DUP1 PUSH4 0x1FFC9A7 EQ PUSH2 0x131 JUMPI DUP1 PUSH4 0x6661ABD EQ PUSH2 0x161 JUMPI DUP1 PUSH4 0x6FDDE03 EQ PUSH2 0x17F JUMPI DUP1 PUSH4 0x81812FC EQ PUSH2 0x19D JUMPI DUP1 PUSH4 0x95EA7B3 EQ PUSH2 0x1CD JUMPI JUMPDEST PUSH1 0x0 DUP1 REVERT JUMPDEST PUSH2 0x14B PUSH1 0x4 DUP1 CALLDATASIZE SUB DUP2 ADD SWAP1 PUSH2 0x146 SWAP2 SWAP1 PUSH2 0x1B42 JUMP JUMPDEST PUSH2 0x445 JUMP JUMPDEST PUSH1 0x40 MLOAD PUSH2 0x158 SWAP2 SWAP1 PUSH2 0x1B8A JUMP JUMPDEST PUSH1 0x40 MLOAD DUP1 SWAP2 SUB SWAP1 RETURN JUMPDEST PUSH2 0x169 PUSH2 0x5E7 JUMP JUMPDEST PUSH1 0x40 MLOAD PUSH2 0x176 SWAP2 SWAP1 PUSH2 0x1BBE JUMP JUMPDEST PUSH1 0x40 MLOAD DUP1 SWAP2 SUB SWAP1 RETURN JUMPDEST PUSH2 0x187 PUSH2 0x5F1 JUMP JUMPDEST PUSH1 0x40 MLOAD PUSH2 0x194 SWAP2 SWAP1 PUSH2 0x1C69 JUMP JUMPDEST PUSH1 0x40 MLOAD DUP1 SWAP2 SUB SWAP1 RETURN JUMPDEST PUSH2 0x1B7 PUSH1 0x4 DUP1 CALLDATASIZE SUB DUP2 ADD SWAP1 PUSH2 0x1B2 SWAP2 SWAP1 PUSH2 0x1CB7 JUMP JUMPDEST PUSH2 0x683 JUMP JUMPDEST PUSH1 0x40 MLOAD PUSH2 0x1C4 SWAP2 SWAP1 PUSH2 0x1D25 JUMP JUMPDEST PUSH1 0x40 MLOAD DUP1 SWAP2 SUB SWAP1 RETURN JUMPDEST PUSH2 0x1E7 PUSH1 0x4 DUP1 CALLDATASIZE SUB DUP2 ADD SWAP1 PUSH2 0x1E2 SWAP2 SWAP1 PUSH2 0x1D6C JUMP JUMPDEST PUSH2 0x6C9 JUMP JUMPDEST STOP JUMPDEST PUSH2 0x203 PUSH1 0x4 DUP1 CALLDATASIZE SUB DUP2 ADD SWAP1 PUSH2 0x1FE SWAP2 SWAP1 PUSH2 0x1EE1 JUMP JUMPDEST PUSH2 0x7E0 JUMP JUMPDEST PUSH1 0x40 MLOAD PUSH2 0x210 SWAP2 SWAP1 PUSH2 0x1BBE JUMP JUMPDEST PUSH1 0x40 MLOAD DUP1 SWAP2 SUB SWAP1 RETURN JUMPDEST PUSH2 0x233 PUSH1 0x4 DUP1 CALLDATASIZE SUB DUP2 ADD SWAP1 PUSH2 0x22E SWAP2 SWAP1 PUSH2 0x1F3D JUMP JUMPDEST PUSH2 0x931 JUMP JUMPDEST STOP JUMPDEST PUSH2 0x24F PUSH1 0x4 DUP1 CALLDATASIZE SUB DUP2 ADD SWAP1 PUSH2 0x24A SWAP2 SWAP1 PUSH2 0x1F3D JUMP JUMPDEST PUSH2 0x991 JUMP JUMPDEST STOP JUMPDEST PUSH2 0x26B PUSH1 0x4 DUP1 CALLDATASIZE SUB DUP2 ADD SWAP1 PUSH2 0x266 SWAP2 SWAP1 PUSH2 0x1CB7 JUMP JUMPDEST PUSH2 0x9B1 JUMP JUMPDEST PUSH1 0x40 MLOAD PUSH2 0x278 SWAP2 SWAP1 PUSH2 0x1D25 JUMP JUMPDEST PUSH1 0x40 MLOAD DUP1 SWAP2 SUB SWAP1 RETURN JUMPDEST PUSH2 0x29B PUSH1 0x4 DUP1 CALLDATASIZE SUB DUP2 ADD SWAP1 PUSH2 0x296 SWAP2 SWAP1 PUSH2 0x1F90 JUMP JUMPDEST PUSH2 0xA37 JUMP JUMPDEST PUSH1 0x40 MLOAD PUSH2 0x2A8 SWAP2 SWAP1 PUSH2 0x1BBE JUMP JUMPDEST PUSH1 0x40 MLOAD DUP1 SWAP2 SUB SWAP1 RETURN JUMPDEST PUSH2 0x2B9 PUSH2 0xAEE JUMP JUMPDEST PUSH1 0x40 MLOAD PUSH2 0x2C6 SWAP2 SWAP1 PUSH2 0x1BBE JUMP JUMPDEST PUSH1 0x40 MLOAD DUP1 SWAP2 SUB SWAP1 RETURN JUMPDEST PUSH2 0x2E9 PUSH1 0x4 DUP1 CALLDATASIZE SUB DUP2 ADD SWAP1 PUSH2 0x2E4 SWAP2 SWAP1 PUSH2 0x1FBD JUMP JUMPDEST PUSH2 0xAF4 JUMP JUMPDEST PUSH1 0x40 MLOAD PUSH2 0x2F6 SWAP2 SWAP1 PUSH2 0x1BBE JUMP JUMPDEST PUSH1 0x40 MLOAD DUP1 SWAP2 SUB SWAP1 RETURN JUMPDEST PUSH2 0x307 PUSH2 0xC44 JUMP JUMPDEST PUSH1 0x40 MLOAD PUSH2 0x314 SWAP2 SWAP1 PUSH2 0x1C69 JUMP JUMPDEST PUSH1 0x40 MLOAD DUP1 SWAP2 SUB SWAP1 RETURN JUMPDEST PUSH2 0x337 PUSH1 0x4 DUP1 CALLDATASIZE SUB DUP2 ADD SWAP1 PUSH2 0x332 SWAP2 SWAP1 PUSH2 0x1FBD JUMP JUMPDEST PUSH2 0xCD6 JUMP JUMPDEST PUSH1 0x40 MLOAD PUSH2 0x344 SWAP2 SWAP1 PUSH2 0x1B8A JUMP JUMPDEST PUSH1 0x40 MLOAD DUP1 SWAP2 SUB SWAP1 RETURN JUMPDEST PUSH2 0x367 PUSH1 0x4 DUP1 CALLDATASIZE SUB DUP2 ADD SWAP1 PUSH2 0x362 SWAP2 SWAP1 PUSH2 0x2032 JUMP JUMPDEST PUSH2 0xD0C JUMP JUMPDEST STOP JUMPDEST PUSH2 0x383 PUSH1 0x4 DUP1 CALLDATASIZE SUB DUP2 ADD SWAP1 PUSH2 0x37E SWAP2 SWAP1 PUSH2 0x1CB7 JUMP JUMPDEST PUSH2 0xD22 JUMP JUMPDEST PUSH1 0x40 MLOAD PUSH2 0x390 SWAP2 SWAP1 PUSH2 0x1C69 JUMP JUMPDEST PUSH1 0x40 MLOAD DUP1 SWAP2 SUB SWAP1 RETURN JUMPDEST PUSH2 0x3B3 PUSH1 0x4 DUP1 CALLDATASIZE SUB DUP2 ADD SWAP1 PUSH2 0x3AE SWAP2 SWAP1 PUSH2 0x2113 JUMP JUMPDEST PUSH2 0xDC2 JUMP JUMPDEST STOP JUMPDEST PUSH2 0x3CF PUSH1 0x4 DUP1 CALLDATASIZE SUB DUP2 ADD SWAP1 PUSH2 0x3CA SWAP2 SWAP1 PUSH2 0x1CB7 JUMP JUMPDEST PUSH2 0xE24 JUMP JUMPDEST PUSH1 0x40 MLOAD PUSH2 0x3DC SWAP2 SWAP1 PUSH2 0x1C69 JUMP JUMPDEST PUSH1 0x40 MLOAD DUP1 SWAP2 SUB SWAP1 RETURN JUMPDEST PUSH2 0x3FF PUSH1 0x4 DUP1 CALLDATASIZE SUB DUP2 ADD SWAP1 PUSH2 0x3FA SWAP2 SWAP1 PUSH2 0x1CB7 JUMP JUMPDEST PUSH2 0xF66 JUMP JUMPDEST PUSH1 0x40 MLOAD PUSH2 0x40C SWAP2 SWAP1 PUSH2 0x1D25 JUMP JUMPDEST PUSH1 0x40 MLOAD DUP1 SWAP2 SUB SWAP1 RETURN JUMPDEST PUSH2 0x42F PUSH1 0x4 DUP1 CALLDATASIZE SUB DUP2 ADD SWAP1 PUSH2 0x42A SWAP2 SWAP1 PUSH2 0x2196 JUMP JUMPDEST PUSH2 0xF99 JUMP JUMPDEST PUSH1 0x40 MLOAD PUSH2 0x43C SWAP2 SWAP1 PUSH2 0x1B8A JUMP JUMPDEST PUSH1 0x40 MLOAD DUP1 SWAP2 SUB SWAP1 RETURN JUMPDEST PUSH1 0x0 PUSH32 0x9C85451100000000000000000000000000000000000000000000000000000000 PUSH28 0xFFFFFFFFFFFFFFFFFFFFFFFFFFFFFFFFFFFFFFFFFFFFFFFFFFFFFFFF NOT AND DUP3 PUSH28 0xFFFFFFFFFFFFFFFFFFFFFFFFFFFFFFFFFFFFFFFFFFFFFFFFFFFFFFFF NOT AND EQ DUP1 PUSH2 0x510 JUMPI POP PUSH32 0x80AC58CD00000000000000000000000000000000000000000000000000000000 PUSH28 0xFFFFFFFFFFFFFFFFFFFFFFFFFFFFFFFFFFFFFFFFFFFFFFFFFFFFFFFF NOT AND DUP3 PUSH28 0xFFFFFFFFFFFFFFFFFFFFFFFFFFFFFFFFFFFFFFFFFFFFFFFFFFFFFFFF NOT AND EQ JUMPDEST DUP1 PUSH2 0x578 JUMPI POP PUSH32 0x1FFC9A700000000000000000000000000000000000000000000000000000000 PUSH28 0xFFFFFFFFFFFFFFFFFFFFFFFFFFFFFFFFFFFFFFFFFFFFFFFFFFFFFFFF NOT AND DUP3 PUSH28 0xFFFFFFFFFFFFFFFFFFFFFFFFFFFFFFFFFFFFFFFFFFFFFFFFFFFFFFFF NOT AND EQ JUMPDEST DUP1 PUSH2 0x5E0 JUMPI POP PUSH32 0x5B5E139F00000000000000000000000000000000000000000000000000000000 PUSH28 0xFFFFFFFFFFFFFFFFFFFFFFFFFFFFFFFFFFFFFFFFFFFFFFFFFFFFFFFF NOT AND DUP3 PUSH28 0xFFFFFFFFFFFFFFFFFFFFFFFFFFFFFFFFFFFFFFFFFFFFFFFFFFFFFFFF NOT AND EQ JUMPDEST SWAP1 POP SWAP2 SWAP1 POP JUMP JUMPDEST PUSH1 0x0 PUSH1 0x6 SLOAD SWAP1 POP SWAP1 JUMP JUMPDEST PUSH1 0x60 PUSH1 0x0 DUP1 SLOAD PUSH2 0x600 SWAP1 PUSH2 0x2205 JUMP JUMPDEST DUP1 PUSH1 0x1F ADD PUSH1 0x20 DUP1 SWAP2 DIV MUL PUSH1 0x20 ADD PUSH1 0x40 MLOAD SWAP1 DUP2 ADD PUSH1 0x40 MSTORE DUP1 SWAP3 SWAP2 SWAP1 DUP2 DUP2 MSTORE PUSH1 0x20 ADD DUP3 DUP1 SLOAD PUSH2 0x62C SWAP1 PUSH2 0x2205 JUMP JUMPDEST DUP1 ISZERO PUSH2 0x679 JUMPI DUP1 PUSH1 0x1F LT PUSH2 0x64E JUMPI PUSH2 0x100 DUP1 DUP4 SLOAD DIV MUL DUP4 MSTORE SWAP2 PUSH1 0x20 ADD SWAP2 PUSH2 0x679 JUMP JUMPDEST DUP3 ADD SWAP2 SWAP1 PUSH1 0x0 MSTORE PUSH1 0x20 PUSH1 0x0 KECCAK256 SWAP1 JUMPDEST DUP2 SLOAD DUP2 MSTORE SWAP1 PUSH1 0x1 ADD SWAP1 PUSH1 0x20 ADD DUP1 DUP4 GT PUSH2 0x65C JUMPI DUP3 SWAP1 SUB PUSH1 0x1F AND DUP3 ADD SWAP2 JUMPDEST POP POP POP POP POP SWAP1 POP SWAP1 JUMP JUMPDEST PUSH1 0x0 PUSH2 0x68E DUP3 PUSH2 0x102D JUMP JUMPDEST PUSH1 0x4 PUSH1 0x0 DUP4 DUP2 MSTORE PUSH1 0x20 ADD SWAP1 DUP2 MSTORE PUSH1 0x20 ADD PUSH1 0x0 KECCAK256 PUSH1 0x0 SWAP1 SLOAD SWAP1 PUSH2 0x100 EXP SWAP1 DIV PUSH20 0xFFFFFFFFFFFFFFFFFFFFFFFFFFFFFFFFFFFFFFFF AND SWAP1 POP SWAP2 SWAP1 POP JUMP JUMPDEST PUSH1 0x0 PUSH2 0x6D4 DUP3 PUSH2 0x9B1 JUMP JUMPDEST SWAP1 POP DUP1 PUSH20 0xFFFFFFFFFFFFFFFFFFFFFFFFFFFFFFFFFFFFFFFF AND DUP4 PUSH20 0xFFFFFFFFFFFFFFFFFFFFFFFFFFFFFFFFFFFFFFFF AND SUB PUSH2 0x744 JUMPI PUSH1 0x40 MLOAD PUSH32 0x8C379A000000000000000000000000000000000000000000000000000000000 DUP2 MSTORE PUSH1 0x4 ADD PUSH2 0x73B SWAP1 PUSH2 0x22A8 JUMP JUMPDEST PUSH1 0x40 MLOAD DUP1 SWAP2 SUB SWAP1 REVERT JUMPDEST DUP1 PUSH20 0xFFFFFFFFFFFFFFFFFFFFFFFFFFFFFFFFFFFFFFFF AND PUSH2 0x763 PUSH2 0x1078 JUMP JUMPDEST PUSH20 0xFFFFFFFFFFFFFFFFFFFFFFFFFFFFFFFFFFFFFFFF AND EQ DUP1 PUSH2 0x792 JUMPI POP PUSH2 0x791 DUP2 PUSH2 0x78C PUSH2 0x1078 JUMP JUMPDEST PUSH2 0xF99 JUMP JUMPDEST JUMPDEST PUSH2 0x7D1 JUMPI PUSH1 0x40 MLOAD PUSH32 0x8C379A000000000000000000000000000000000000000000000000000000000 DUP2 MSTORE PUSH1 0x4 ADD PUSH2 0x7C8 SWAP1 PUSH2 0x233A JUMP JUMPDEST PUSH1 0x40 MLOAD DUP1 SWAP2 SUB SWAP1 REVERT JUMPDEST PUSH2 0x7DB DUP4 DUP4 PUSH2 0x1080 JUMP JUMPDEST POP POP POP JUMP JUMPDEST PUSH1 0x0 PUSH1 0x6 PUSH1 0x0 DUP2 SLOAD DUP1 SWAP3 SWAP2 SWAP1 PUSH2 0x7F5 SWAP1 PUSH2 0x2389 JUMP JUMPDEST SWAP2 SWAP1 POP SSTORE POP PUSH1 0x0 ISZERO ISZERO PUSH1 0x9 DUP4 PUSH1 0x40 MLOAD PUSH2 0x80E SWAP2 SWAP1 PUSH2 0x240D JUMP JUMPDEST SWAP1 DUP2 MSTORE PUSH1 0x20 ADD PUSH1 0x40 MLOAD DUP1 SWAP2 SUB SWAP1 KECCAK256 PUSH1 0x0 SWAP1 SLOAD SWAP1 PUSH2 0x100 EXP SWAP1 DIV PUSH1 0xFF AND ISZERO ISZERO EQ PUSH2 0x86C JUMPI PUSH1 0x40 MLOAD PUSH32 0x8C379A000000000000000000000000000000000000000000000000000000000 DUP2 MSTORE PUSH1 0x4 ADD PUSH2 0x863 SWAP1 PUSH2 0x2470 JUMP JUMPDEST PUSH1 0x40 MLOAD DUP1 SWAP2 SUB SWAP1 REVERT JUMPDEST DUP3 PUSH1 0x8 PUSH1 0x0 PUSH1 0x6 SLOAD DUP2 MSTORE PUSH1 0x20 ADD SWAP1 DUP2 MSTORE PUSH1 0x20 ADD PUSH1 0x0 KECCAK256 PUSH1 0x0 PUSH2 0x100 EXP DUP2 SLOAD DUP2 PUSH20 0xFFFFFFFFFFFFFFFFFFFFFFFFFFFFFFFFFFFFFFFF MUL NOT AND SWAP1 DUP4 PUSH20 0xFFFFFFFFFFFFFFFFFFFFFFFFFFFFFFFFFFFFFFFF AND MUL OR SWAP1 SSTORE POP DUP2 PUSH1 0x7 PUSH1 0x0 PUSH1 0x6 SLOAD DUP2 MSTORE PUSH1 0x20 ADD SWAP1 DUP2 MSTORE PUSH1 0x20 ADD PUSH1 0x0 KECCAK256 SWAP1 DUP2 PUSH2 0x8E2 SWAP2 SWAP1 PUSH2 0x263C JUMP JUMPDEST POP PUSH1 0x1 PUSH1 0x9 DUP4 PUSH1 0x40 MLOAD PUSH2 0x8F5 SWAP2 SWAP1 PUSH2 0x240D JUMP JUMPDEST SWAP1 DUP2 MSTORE PUSH1 0x20 ADD PUSH1 0x40 MLOAD DUP1 SWAP2 SUB SWAP1 KECCAK256 PUSH1 0x0 PUSH2 0x100 EXP DUP2 SLOAD DUP2 PUSH1 0xFF MUL NOT AND SWAP1 DUP4 ISZERO ISZERO MUL OR SWAP1 SSTORE POP PUSH2 0x926 DUP4 PUSH1 0x6 SLOAD PUSH2 0x1139 JUMP JUMPDEST PUSH1 0x6 SLOAD SWAP1 POP SWAP3 SWAP2 POP POP JUMP JUMPDEST PUSH2 0x942 PUSH2 0x93C PUSH2 0x1078 JUMP JUMPDEST DUP3 PUSH2 0x1352 JUMP JUMPDEST PUSH2 0x981 JUMPI PUSH1 0x40 MLOAD PUSH32 0x8C379A000000000000000000000000000000000000000000000000000000000 DUP2 MSTORE PUSH1 0x4 ADD PUSH2 0x978 SWAP1 PUSH2 0x2780 JUMP JUMPDEST PUSH1 0x40 MLOAD DUP1 SWAP2 SUB SWAP1 REVERT JUMPDEST PUSH2 0x98C DUP4 DUP4 DUP4 PUSH2 0x13E7 JUMP JUMPDEST POP POP POP JUMP JUMPDEST PUSH2 0x9AC DUP4 DUP4 DUP4 PUSH1 0x40 MLOAD DUP1 PUSH1 0x20 ADD PUSH1 0x40 MSTORE DUP1 PUSH1 0x0 DUP2 MSTORE POP PUSH2 0xDC2 JUMP JUMPDEST POP POP POP JUMP JUMPDEST PUSH1 0x0 DUP1 PUSH2 0x9BD DUP4 PUSH2 0x16DC JUMP JUMPDEST SWAP1 POP PUSH1 0x0 PUSH20 0xFFFFFFFFFFFFFFFFFFFFFFFFFFFFFFFFFFFFFFFF AND DUP2 PUSH20 0xFFFFFFFFFFFFFFFFFFFFFFFFFFFFFFFFFFFFFFFF AND SUB PUSH2 0xA2E JUMPI PUSH1 0x40 MLOAD PUSH32 0x8C379A000000000000000000000000000000000000000000000000000000000 DUP2 MSTORE PUSH1 0x4 ADD PUSH2 0xA25 SWAP1 PUSH2 0x27EC JUMP JUMPDEST PUSH1 0x40 MLOAD DUP1 SWAP2 SUB SWAP1 REVERT JUMPDEST DUP1 SWAP2 POP POP SWAP2 SWAP1 POP JUMP JUMPDEST PUSH1 0x0 DUP1 PUSH20 0xFFFFFFFFFFFFFFFFFFFFFFFFFFFFFFFFFFFFFFFF AND DUP3 PUSH20 0xFFFFFFFFFFFFFFFFFFFFFFFFFFFFFFFFFFFFFFFF AND SUB PUSH2 0xAA7 JUMPI PUSH1 0x40 MLOAD PUSH32 0x8C379A000000000000000000000000000000000000000000000000000000000 DUP2 MSTORE PUSH1 0x4 ADD PUSH2 0xA9E SWAP1 PUSH2 0x287E JUMP JUMPDEST PUSH1 0x40 MLOAD DUP1 SWAP2 SUB SWAP1 REVERT JUMPDEST PUSH1 0x3 PUSH1 0x0 DUP4 PUSH20 0xFFFFFFFFFFFFFFFFFFFFFFFFFFFFFFFFFFFFFFFF AND PUSH20 0xFFFFFFFFFFFFFFFFFFFFFFFFFFFFFFFFFFFFFFFF AND DUP2 MSTORE PUSH1 0x20 ADD SWAP1 DUP2 MSTORE PUSH1 0x20 ADD PUSH1 0x0 KECCAK256 SLOAD SWAP1 POP SWAP2 SWAP1 POP JUMP JUMPDEST PUSH1 0x6 SLOAD DUP2 JUMP JUMPDEST PUSH1 0x0 PUSH1 0x6 PUSH1 0x0 DUP2 SLOAD DUP1 SWAP3 SWAP2 SWAP1 PUSH2 0xB09 SWAP1 PUSH2 0x2389 JUMP JUMPDEST SWAP2 SWAP1 POP SSTORE POP PUSH1 0x0 ISZERO ISZERO PUSH1 0x9 DUP4 PUSH1 0x40 MLOAD PUSH2 0xB22 SWAP2 SWAP1 PUSH2 0x240D JUMP JUMPDEST SWAP1 DUP2 MSTORE PUSH1 0x20 ADD PUSH1 0x40 MLOAD DUP1 SWAP2 SUB SWAP1 KECCAK256 PUSH1 0x0 SWAP1 SLOAD SWAP1 PUSH2 0x100 EXP SWAP1 DIV PUSH1 0xFF AND ISZERO ISZERO EQ PUSH2 0xB80 JUMPI PUSH1 0x40 MLOAD PUSH32 0x8C379A000000000000000000000000000000000000000000000000000000000 DUP2 MSTORE PUSH1 0x4 ADD PUSH2 0xB77 SWAP1 PUSH2 0x2470 JUMP JUMPDEST PUSH1 0x40 MLOAD DUP1 SWAP2 SUB SWAP1 REVERT JUMPDEST CALLER PUSH1 0x8 PUSH1 0x0 PUSH1 0x6 SLOAD DUP2 MSTORE PUSH1 0x20 ADD SWAP1 DUP2 MSTORE PUSH1 0x20 ADD PUSH1 0x0 KECCAK256 PUSH1 0x0 PUSH2 0x100 EXP DUP2 SLOAD DUP2 PUSH20 0xFFFFFFFFFFFFFFFFFFFFFFFFFFFFFFFFFFFFFFFF MUL NOT AND SWAP1 DUP4 PUSH20 0xFFFFFFFFFFFFFFFFFFFFFFFFFFFFFFFFFFFFFFFF AND MUL OR SWAP1 SSTORE POP DUP2 PUSH1 0x7 PUSH1 0x0 PUSH1 0x6 SLOAD DUP2 MSTORE PUSH1 0x20 ADD SWAP1 DUP2 MSTORE PUSH1 0x20 ADD PUSH1 0x0 KECCAK256 SWAP1 DUP2 PUSH2 0xBF6 SWAP2 SWAP1 PUSH2 0x263C JUMP JUMPDEST POP PUSH1 0x1 PUSH1 0x9 DUP4 PUSH1 0x40 MLOAD PUSH2 0xC09 SWAP2 SWAP1 PUSH2 0x240D JUMP JUMPDEST SWAP1 DUP2 MSTORE PUSH1 0x20 ADD PUSH1 0x40 MLOAD DUP1 SWAP2 SUB SWAP1 KECCAK256 PUSH1 0x0 PUSH2 0x100 EXP DUP2 SLOAD DUP2 PUSH1 0xFF MUL NOT AND SWAP1 DUP4 ISZERO ISZERO MUL OR SWAP1 SSTORE POP PUSH2 0xC3A CALLER PUSH1 0x6 SLOAD PUSH2 0x1139 JUMP JUMPDEST PUSH1 0x6 SLOAD SWAP1 POP SWAP2 SWAP1 POP JUMP JUMPDEST PUSH1 0x60 PUSH1 0x1 DUP1 SLOAD PUSH2 0xC53 SWAP1 PUSH2 0x2205 JUMP JUMPDEST DUP1 PUSH1 0x1F ADD PUSH1 0x20 DUP1 SWAP2 DIV MUL PUSH1 0x20 ADD PUSH1 0x40 MLOAD SWAP1 DUP2 ADD PUSH1 0x40 MSTORE DUP1 SWAP3 SWAP2 SWAP1 DUP2 DUP2 MSTORE PUSH1 0x20 ADD DUP3 DUP1 SLOAD PUSH2 0xC7F SWAP1 PUSH2 0x2205 JUMP JUMPDEST DUP1 ISZERO PUSH2 0xCCC JUMPI DUP1 PUSH1 0x1F LT PUSH2 0xCA1 JUMPI PUSH2 0x100 DUP1 DUP4 SLOAD DIV MUL DUP4 MSTORE SWAP2 PUSH1 0x20 ADD SWAP2 PUSH2 0xCCC JUMP JUMPDEST DUP3 ADD SWAP2 SWAP1 PUSH1 0x0 MSTORE PUSH1 0x20 PUSH1 0x0 KECCAK256 SWAP1 JUMPDEST DUP2 SLOAD DUP2 MSTORE SWAP1 PUSH1 0x1 ADD SWAP1 PUSH1 0x20 ADD DUP1 DUP4 GT PUSH2 0xCAF JUMPI DUP3 SWAP1 SUB PUSH1 0x1F AND DUP3 ADD SWAP2 JUMPDEST POP POP POP POP POP SWAP1 POP SWAP1 JUMP JUMPDEST PUSH1 0x9 DUP2 DUP1 MLOAD PUSH1 0x20 DUP2 ADD DUP3 ADD DUP1 MLOAD DUP5 DUP3 MSTORE PUSH1 0x20 DUP4 ADD PUSH1 0x20 DUP6 ADD KECCAK256 DUP2 DUP4 MSTORE DUP1 SWAP6 POP POP POP POP POP POP PUSH1 0x0 SWAP2 POP SLOAD SWAP1 PUSH2 0x100 EXP SWAP1 DIV PUSH1 0xFF AND DUP2 JUMP JUMPDEST PUSH2 0xD1E PUSH2 0xD17 PUSH2 0x1078 JUMP JUMPDEST DUP4 DUP4 PUSH2 0x1719 JUMP JUMPDEST POP POP JUMP JUMPDEST PUSH1 0x7 PUSH1 0x20 MSTORE DUP1 PUSH1 0x0 MSTORE PUSH1 0x40 PUSH1 0x0 KECCAK256 PUSH1 0x0 SWAP2 POP SWAP1 POP DUP1 SLOAD PUSH2 0xD41 SWAP1 PUSH2 0x2205 JUMP JUMPDEST DUP1 PUSH1 0x1F ADD PUSH1 0x20 DUP1 SWAP2 DIV MUL PUSH1 0x20 ADD PUSH1 0x40 MLOAD SWAP1 DUP2 ADD PUSH1 0x40 MSTORE DUP1 SWAP3 SWAP2 SWAP1 DUP2 DUP2 MSTORE PUSH1 0x20 ADD DUP3 DUP1 SLOAD PUSH2 0xD6D SWAP1 PUSH2 0x2205 JUMP JUMPDEST DUP1 ISZERO PUSH2 0xDBA JUMPI DUP1 PUSH1 0x1F LT PUSH2 0xD8F JUMPI PUSH2 0x100 DUP1 DUP4 SLOAD DIV MUL DUP4 MSTORE SWAP2 PUSH1 0x20 ADD SWAP2 PUSH2 0xDBA JUMP JUMPDEST DUP3 ADD SWAP2 SWAP1 PUSH1 0x0 MSTORE PUSH1 0x20 PUSH1 0x0 KECCAK256 SWAP1 JUMPDEST DUP2 SLOAD DUP2 MSTORE SWAP1 PUSH1 0x1 ADD SWAP1 PUSH1 0x20 ADD DUP1 DUP4 GT PUSH2 0xD9D JUMPI DUP3 SWAP1 SUB PUSH1 0x1F AND DUP3 ADD SWAP2 JUMPDEST POP POP POP POP POP DUP2 JUMP JUMPDEST PUSH2 0xDD3 PUSH2 0xDCD PUSH2 0x1078 JUMP JUMPDEST DUP4 PUSH2 0x1352 JUMP JUMPDEST PUSH2 0xE12 JUMPI PUSH1 0x40 MLOAD PUSH32 0x8C379A000000000000000000000000000000000000000000000000000000000 DUP2 MSTORE PUSH1 0x4 ADD PUSH2 0xE09 SWAP1 PUSH2 0x2780 JUMP JUMPDEST PUSH1 0x40 MLOAD DUP1 SWAP2 SUB SWAP1 REVERT JUMPDEST PUSH2 0xE1E DUP5 DUP5 DUP5 DUP5 PUSH2 0x1885 JUMP JUMPDEST POP POP POP POP JUMP JUMPDEST PUSH1 0x60 PUSH1 0x0 DUP3 EQ ISZERO DUP1 ISZERO PUSH2 0xE39 JUMPI POP PUSH1 0x6 SLOAD DUP3 GT ISZERO JUMPDEST PUSH2 0xE78 JUMPI PUSH1 0x40 MLOAD PUSH32 0x8C379A000000000000000000000000000000000000000000000000000000000 DUP2 MSTORE PUSH1 0x4 ADD PUSH2 0xE6F SWAP1 PUSH2 0x28EA JUMP JUMPDEST PUSH1 0x40 MLOAD DUP1 SWAP2 SUB SWAP1 REVERT JUMPDEST PUSH1 0x0 PUSH1 0x40 MLOAD DUP1 PUSH1 0x80 ADD PUSH1 0x40 MSTORE DUP1 PUSH1 0x5F DUP2 MSTORE PUSH1 0x20 ADD PUSH2 0x2D0C PUSH1 0x5F SWAP2 CODECOPY SWAP1 POP PUSH1 0x0 PUSH1 0x7 PUSH1 0x0 DUP6 DUP2 MSTORE PUSH1 0x20 ADD SWAP1 DUP2 MSTORE PUSH1 0x20 ADD PUSH1 0x0 KECCAK256 DUP1 SLOAD PUSH2 0xEB5 SWAP1 PUSH2 0x2205 JUMP JUMPDEST DUP1 PUSH1 0x1F ADD PUSH1 0x20 DUP1 SWAP2 DIV MUL PUSH1 0x20 ADD PUSH1 0x40 MLOAD SWAP1 DUP2 ADD PUSH1 0x40 MSTORE DUP1 SWAP3 SWAP2 SWAP1 DUP2 DUP2 MSTORE PUSH1 0x20 ADD DUP3 DUP1 SLOAD PUSH2 0xEE1 SWAP1 PUSH2 0x2205 JUMP JUMPDEST DUP1 ISZERO PUSH2 0xF2E JUMPI DUP1 PUSH1 0x1F LT PUSH2 0xF03 JUMPI PUSH2 0x100 DUP1 DUP4 SLOAD DIV MUL DUP4 MSTORE SWAP2 PUSH1 0x20 ADD SWAP2 PUSH2 0xF2E JUMP JUMPDEST DUP3 ADD SWAP2 SWAP1 PUSH1 0x0 MSTORE PUSH1 0x20 PUSH1 0x0 KECCAK256 SWAP1 JUMPDEST DUP2 SLOAD DUP2 MSTORE SWAP1 PUSH1 0x1 ADD SWAP1 PUSH1 0x20 ADD DUP1 DUP4 GT PUSH2 0xF11 JUMPI DUP3 SWAP1 SUB PUSH1 0x1F AND DUP3 ADD SWAP2 JUMPDEST POP POP POP POP POP SWAP1 POP PUSH1 0x0 DUP3 DUP3 PUSH1 0x40 MLOAD PUSH1 0x20 ADD PUSH2 0xF4A SWAP3 SWAP2 SWAP1 PUSH2 0x290A JUMP JUMPDEST PUSH1 0x40 MLOAD PUSH1 0x20 DUP2 DUP4 SUB SUB DUP2 MSTORE SWAP1 PUSH1 0x40 MSTORE SWAP1 POP DUP1 SWAP4 POP POP POP POP SWAP2 SWAP1 POP JUMP JUMPDEST PUSH1 0x8 PUSH1 0x20 MSTORE DUP1 PUSH1 0x0 MSTORE PUSH1 0x40 PUSH1 0x0 KECCAK256 PUSH1 0x0 SWAP2 POP SLOAD SWAP1 PUSH2 0x100 EXP SWAP1 DIV PUSH20 0xFFFFFFFFFFFFFFFFFFFFFFFFFFFFFFFFFFFFFFFF AND DUP2 JUMP JUMPDEST PUSH1 0x0 PUSH1 0x5 PUSH1 0x0 DUP5 PUSH20 0xFFFFFFFFFFFFFFFFFFFFFFFFFFFFFFFFFFFFFFFF AND PUSH20 0xFFFFFFFFFFFFFFFFFFFFFFFFFFFFFFFFFFFFFFFF AND DUP2 MSTORE PUSH1 0x20 ADD SWAP1 DUP2 MSTORE PUSH1 0x20 ADD PUSH1 0x0 KECCAK256 PUSH1 0x0 DUP4 PUSH20 0xFFFFFFFFFFFFFFFFFFFFFFFFFFFFFFFFFFFFFFFF AND PUSH20 0xFFFFFFFFFFFFFFFFFFFFFFFFFFFFFFFFFFFFFFFF AND DUP2 MSTORE PUSH1 0x20 ADD SWAP1 DUP2 MSTORE PUSH1 0x20 ADD PUSH1 0x0 KECCAK256 PUSH1 0x0 SWAP1 SLOAD SWAP1 PUSH2 0x100 EXP SWAP1 DIV PUSH1 0xFF AND SWAP1 POP SWAP3 SWAP2 POP POP JUMP JUMPDEST PUSH2 0x1036 DUP2 PUSH2 0x18E1 JUMP JUMPDEST PUSH2 0x1075 JUMPI PUSH1 0x40 MLOAD PUSH32 0x8C379A000000000000000000000000000000000000000000000000000000000 DUP2 MSTORE PUSH1 0x4 ADD PUSH2 0x106C SWAP1 PUSH2 0x27EC JUMP JUMPDEST PUSH1 0x40 MLOAD DUP1 SWAP2 SUB SWAP1 REVERT JUMPDEST POP JUMP JUMPDEST PUSH1 0x0 CALLER SWAP1 POP SWAP1 JUMP JUMPDEST DUP2 PUSH1 0x4 PUSH1 0x0 DUP4 DUP2 MSTORE PUSH1 0x20 ADD SWAP1 DUP2 MSTORE PUSH1 0x20 ADD PUSH1 0x0 KECCAK256 PUSH1 0x0 PUSH2 0x100 EXP DUP2 SLOAD DUP2 PUSH20 0xFFFFFFFFFFFFFFFFFFFFFFFFFFFFFFFFFFFFFFFF MUL NOT AND SWAP1 DUP4 PUSH20 0xFFFFFFFFFFFFFFFFFFFFFFFFFFFFFFFFFFFFFFFF AND MUL OR SWAP1 SSTORE POP DUP1 DUP3 PUSH20 0xFFFFFFFFFFFFFFFFFFFFFFFFFFFFFFFFFFFFFFFF AND PUSH2 0x10F3 DUP4 PUSH2 0x9B1 JUMP JUMPDEST PUSH20 0xFFFFFFFFFFFFFFFFFFFFFFFFFFFFFFFFFFFFFFFF AND PUSH32 0x8C5BE1E5EBEC7D5BD14F71427D1E84F3DD0314C0F7B2291E5B200AC8C7C3B925 PUSH1 0x40 MLOAD PUSH1 0x40 MLOAD DUP1 SWAP2 SUB SWAP1 LOG4 POP POP JUMP JUMPDEST PUSH1 0x0 PUSH20 0xFFFFFFFFFFFFFFFFFFFFFFFFFFFFFFFFFFFFFFFF AND DUP3 PUSH20 0xFFFFFFFFFFFFFFFFFFFFFFFFFFFFFFFFFFFFFFFF AND SUB PUSH2 0x11A8 JUMPI PUSH1 0x40 MLOAD PUSH32 0x8C379A000000000000000000000000000000000000000000000000000000000 DUP2 MSTORE PUSH1 0x4 ADD PUSH2 0x119F SWAP1 PUSH2 0x297A JUMP JUMPDEST PUSH1 0x40 MLOAD DUP1 SWAP2 SUB SWAP1 REVERT JUMPDEST PUSH2 0x11B1 DUP2 PUSH2 0x18E1 JUMP JUMPDEST ISZERO PUSH2 0x11F1 JUMPI PUSH1 0x40 MLOAD PUSH32 0x8C379A000000000000000000000000000000000000000000000000000000000 DUP2 MSTORE PUSH1 0x4 ADD PUSH2 0x11E8 SWAP1 PUSH2 0x29E6 JUMP JUMPDEST PUSH1 0x40 MLOAD DUP1 SWAP2 SUB SWAP1 REVERT JUMPDEST PUSH2 0x11FD PUSH1 0x0 DUP4 DUP4 PUSH2 0x1922 JUMP JUMPDEST PUSH2 0x1206 DUP2 PUSH2 0x18E1 JUMP JUMPDEST ISZERO PUSH2 0x1246 JUMPI PUSH1 0x40 MLOAD PUSH32 0x8C379A000000000000000000000000000000000000000000000000000000000 DUP2 MSTORE PUSH1 0x4 ADD PUSH2 0x123D SWAP1 PUSH2 0x29E6 JUMP JUMPDEST PUSH1 0x40 MLOAD DUP1 SWAP2 SUB SWAP1 REVERT JUMPDEST PUSH1 0x1 PUSH1 0x3 PUSH1 0x0 DUP5 PUSH20 0xFFFFFFFFFFFFFFFFFFFFFFFFFFFFFFFFFFFFFFFF AND PUSH20 0xFFFFFFFFFFFFFFFFFFFFFFFFFFFFFFFFFFFFFFFF AND DUP2 MSTORE PUSH1 0x20 ADD SWAP1 DUP2 MSTORE PUSH1 0x20 ADD PUSH1 0x0 KECCAK256 PUSH1 0x0 DUP3 DUP3 SLOAD ADD SWAP3 POP POP DUP2 SWAP1 SSTORE POP DUP2 PUSH1 0x2 PUSH1 0x0 DUP4 DUP2 MSTORE PUSH1 0x20 ADD SWAP1 DUP2 MSTORE PUSH1 0x20 ADD PUSH1 0x0 KECCAK256 PUSH1 0x0 PUSH2 0x100 EXP DUP2 SLOAD DUP2 PUSH20 0xFFFFFFFFFFFFFFFFFFFFFFFFFFFFFFFFFFFFFFFF MUL NOT AND SWAP1 DUP4 PUSH20 0xFFFFFFFFFFFFFFFFFFFFFFFFFFFFFFFFFFFFFFFF AND MUL OR SWAP1 SSTORE POP DUP1 DUP3 PUSH20 0xFFFFFFFFFFFFFFFFFFFFFFFFFFFFFFFFFFFFFFFF AND PUSH1 0x0 PUSH20 0xFFFFFFFFFFFFFFFFFFFFFFFFFFFFFFFFFFFFFFFF AND PUSH32 0xDDF252AD1BE2C89B69C2B068FC378DAA952BA7F163C4A11628F55A4DF523B3EF PUSH1 0x40 MLOAD PUSH1 0x40 MLOAD DUP1 SWAP2 SUB SWAP1 LOG4 PUSH2 0x134E PUSH1 0x0 DUP4 DUP4 PUSH2 0x1927 JUMP JUMPDEST POP POP JUMP JUMPDEST PUSH1 0x0 DUP1 PUSH2 0x135E DUP4 PUSH2 0x9B1 JUMP JUMPDEST SWAP1 POP DUP1 PUSH20 0xFFFFFFFFFFFFFFFFFFFFFFFFFFFFFFFFFFFFFFFF AND DUP5 PUSH20 0xFFFFFFFFFFFFFFFFFFFFFFFFFFFFFFFFFFFFFFFF AND EQ DUP1 PUSH2 0x13A0 JUMPI POP PUSH2 0x139F DUP2 DUP6 PUSH2 0xF99 JUMP JUMPDEST JUMPDEST DUP1 PUSH2 0x13DE JUMPI POP DUP4 PUSH20 0xFFFFFFFFFFFFFFFFFFFFFFFFFFFFFFFFFFFFFFFF AND PUSH2 0x13C6 DUP5 PUSH2 0x683 JUMP JUMPDEST PUSH20 0xFFFFFFFFFFFFFFFFFFFFFFFFFFFFFFFFFFFFFFFF AND EQ JUMPDEST SWAP2 POP POP SWAP3 SWAP2 POP POP JUMP JUMPDEST DUP3 PUSH20 0xFFFFFFFFFFFFFFFFFFFFFFFFFFFFFFFFFFFFFFFF AND PUSH2 0x1407 DUP3 PUSH2 0x9B1 JUMP JUMPDEST PUSH20 0xFFFFFFFFFFFFFFFFFFFFFFFFFFFFFFFFFFFFFFFF AND EQ PUSH2 0x145D JUMPI PUSH1 0x40 MLOAD PUSH32 0x8C379A000000000000000000000000000000000000000000000000000000000 DUP2 MSTORE PUSH1 0x4 ADD PUSH2 0x1454 SWAP1 PUSH2 0x2A78 JUMP JUMPDEST PUSH1 0x40 MLOAD DUP1 SWAP2 SUB SWAP1 REVERT JUMPDEST PUSH1 0x0 PUSH20 0xFFFFFFFFFFFFFFFFFFFFFFFFFFFFFFFFFFFFFFFF AND DUP3 PUSH20 0xFFFFFFFFFFFFFFFFFFFFFFFFFFFFFFFFFFFFFFFF AND SUB PUSH2 0x14CC JUMPI PUSH1 0x40 MLOAD PUSH32 0x8C379A000000000000000000000000000000000000000000000000000000000 DUP2 MSTORE PUSH1 0x4 ADD PUSH2 0x14C3 SWAP1 PUSH2 0x2B0A JUMP JUMPDEST PUSH1 0x40 MLOAD DUP1 SWAP2 SUB SWAP1 REVERT JUMPDEST PUSH2 0x14D7 DUP4 DUP4 DUP4 PUSH2 0x1922 JUMP JUMPDEST DUP3 PUSH20 0xFFFFFFFFFFFFFFFFFFFFFFFFFFFFFFFFFFFFFFFF AND PUSH2 0x14F7 DUP3 PUSH2 0x9B1 JUMP JUMPDEST PUSH20 0xFFFFFFFFFFFFFFFFFFFFFFFFFFFFFFFFFFFFFFFF AND EQ PUSH2 0x154D JUMPI PUSH1 0x40 MLOAD PUSH32 0x8C379A000000000000000000000000000000000000000000000000000000000 DUP2 MSTORE PUSH1 0x4 ADD PUSH2 0x1544 SWAP1 PUSH2 0x2A78 JUMP JUMPDEST PUSH1 0x40 MLOAD DUP1 SWAP2 SUB SWAP1 REVERT JUMPDEST PUSH1 0x4 PUSH1 0x0 DUP3 DUP2 MSTORE PUSH1 0x20 ADD SWAP1 DUP2 MSTORE PUSH1 0x20 ADD PUSH1 0x0 KECCAK256 PUSH1 0x0 PUSH2 0x100 EXP DUP2 SLOAD SWAP1 PUSH20 0xFFFFFFFFFFFFFFFFFFFFFFFFFFFFFFFFFFFFFFFF MUL NOT AND SWAP1 SSTORE PUSH1 0x1 PUSH1 0x3 PUSH1 0x0 DUP6 PUSH20 0xFFFFFFFFFFFFFFFFFFFFFFFFFFFFFFFFFFFFFFFF AND PUSH20 0xFFFFFFFFFFFFFFFFFFFFFFFFFFFFFFFFFFFFFFFF AND DUP2 MSTORE PUSH1 0x20 ADD SWAP1 DUP2 MSTORE PUSH1 0x20 ADD PUSH1 0x0 KECCAK256 PUSH1 0x0 DUP3 DUP3 SLOAD SUB SWAP3 POP POP DUP2 SWAP1 SSTORE POP PUSH1 0x1 PUSH1 0x3 PUSH1 0x0 DUP5 PUSH20 0xFFFFFFFFFFFFFFFFFFFFFFFFFFFFFFFFFFFFFFFF AND PUSH20 0xFFFFFFFFFFFFFFFFFFFFFFFFFFFFFFFFFFFFFFFF AND DUP2 MSTORE PUSH1 0x20 ADD SWAP1 DUP2 MSTORE PUSH1 0x20 ADD PUSH1 0x0 KECCAK256 PUSH1 0x0 DUP3 DUP3 SLOAD ADD SWAP3 POP POP DUP2 SWAP1 SSTORE POP DUP2 PUSH1 0x2 PUSH1 0x0 DUP4 DUP2 MSTORE PUSH1 0x20 ADD SWAP1 DUP2 MSTORE PUSH1 0x20 ADD PUSH1 0x0 KECCAK256 PUSH1 0x0 PUSH2 0x100 EXP DUP2 SLOAD DUP2 PUSH20 0xFFFFFFFFFFFFFFFFFFFFFFFFFFFFFFFFFFFFFFFF MUL NOT AND SWAP1 DUP4 PUSH20 0xFFFFFFFFFFFFFFFFFFFFFFFFFFFFFFFFFFFFFFFF AND MUL OR SWAP1 SSTORE POP DUP1 DUP3 PUSH20 0xFFFFFFFFFFFFFFFFFFFFFFFFFFFFFFFFFFFFFFFF AND DUP5 PUSH20 0xFFFFFFFFFFFFFFFFFFFFFFFFFFFFFFFFFFFFFFFF AND PUSH32 0xDDF252AD1BE2C89B69C2B068FC378DAA952BA7F163C4A11628F55A4DF523B3EF PUSH1 0x40 MLOAD PUSH1 0x40 MLOAD DUP1 SWAP2 SUB SWAP1 LOG4 PUSH2 0x16D7 DUP4 DUP4 DUP4 PUSH2 0x1927 JUMP JUMPDEST POP POP POP JUMP JUMPDEST PUSH1 0x0 PUSH1 0x2 PUSH1 0x0 DUP4 DUP2 MSTORE PUSH1 0x20 ADD SWAP1 DUP2 MSTORE PUSH1 0x20 ADD PUSH1 0x0 KECCAK256 PUSH1 0x0 SWAP1 SLOAD SWAP1 PUSH2 0x100 EXP SWAP1 DIV PUSH20 0xFFFFFFFFFFFFFFFFFFFFFFFFFFFFFFFFFFFFFFFF AND SWAP1 POP SWAP2 SWAP1 POP JUMP JUMPDEST DUP2 PUSH20 0xFFFFFFFFFFFFFFFFFFFFFFFFFFFFFFFFFFFFFFFF AND DUP4 PUSH20 0xFFFFFFFFFFFFFFFFFFFFFFFFFFFFFFFFFFFFFFFF AND SUB PUSH2 0x1787 JUMPI PUSH1 0x40 MLOAD PUSH32 0x8C379A000000000000000000000000000000000000000000000000000000000 DUP2 MSTORE PUSH1 0x4 ADD PUSH2 0x177E SWAP1 PUSH2 0x2B76 JUMP JUMPDEST PUSH1 0x40 MLOAD DUP1 SWAP2 SUB SWAP1 REVERT JUMPDEST DUP1 PUSH1 0x5 PUSH1 0x0 DUP6 PUSH20 0xFFFFFFFFFFFFFFFFFFFFFFFFFFFFFFFFFFFFFFFF AND PUSH20 0xFFFFFFFFFFFFFFFFFFFFFFFFFFFFFFFFFFFFFFFF AND DUP2 MSTORE PUSH1 0x20 ADD SWAP1 DUP2 MSTORE PUSH1 0x20 ADD PUSH1 0x0 KECCAK256 PUSH1 0x0 DUP5 PUSH20 0xFFFFFFFFFFFFFFFFFFFFFFFFFFFFFFFFFFFFFFFF AND PUSH20 0xFFFFFFFFFFFFFFFFFFFFFFFFFFFFFFFFFFFFFFFF AND DUP2 MSTORE PUSH1 0x20 ADD SWAP1 DUP2 MSTORE PUSH1 0x20 ADD PUSH1 0x0 KECCAK256 PUSH1 0x0 PUSH2 0x100 EXP DUP2 SLOAD DUP2 PUSH1 0xFF MUL NOT AND SWAP1 DUP4 ISZERO ISZERO MUL OR SWAP1 SSTORE POP DUP2 PUSH20 0xFFFFFFFFFFFFFFFFFFFFFFFFFFFFFFFFFFFFFFFF AND DUP4 PUSH20 0xFFFFFFFFFFFFFFFFFFFFFFFFFFFFFFFFFFFFFFFF AND PUSH32 0x17307EAB39AB6107E8899845AD3D59BD9653F200F220920489CA2B5937696C31 DUP4 PUSH1 0x40 MLOAD PUSH2 0x1878 SWAP2 SWAP1 PUSH2 0x1B8A JUMP JUMPDEST PUSH1 0x40 MLOAD DUP1 SWAP2 SUB SWAP1 LOG3 POP POP POP JUMP JUMPDEST PUSH2 0x1890 DUP5 DUP5 DUP5 PUSH2 0x13E7 JUMP JUMPDEST PUSH2 0x189C DUP5 DUP5 DUP5 DUP5 PUSH2 0x192C JUMP JUMPDEST PUSH2 0x18DB JUMPI PUSH1 0x40 MLOAD PUSH32 0x8C379A000000000000000000000000000000000000000000000000000000000 DUP2 MSTORE PUSH1 0x4 ADD PUSH2 0x18D2 SWAP1 PUSH2 0x2C08 JUMP JUMPDEST PUSH1 0x40 MLOAD DUP1 SWAP2 SUB SWAP1 REVERT JUMPDEST POP POP POP POP JUMP JUMPDEST PUSH1 0x0 DUP1 PUSH20 0xFFFFFFFFFFFFFFFFFFFFFFFFFFFFFFFFFFFFFFFF AND PUSH2 0x1903 DUP4 PUSH2 0x16DC JUMP JUMPDEST PUSH20 0xFFFFFFFFFFFFFFFFFFFFFFFFFFFFFFFFFFFFFFFF AND EQ ISZERO SWAP1 POP SWAP2 SWAP1 POP JUMP JUMPDEST POP POP POP JUMP JUMPDEST POP POP POP JUMP JUMPDEST PUSH1 0x0 PUSH2 0x194D DUP5 PUSH20 0xFFFFFFFFFFFFFFFFFFFFFFFFFFFFFFFFFFFFFFFF AND PUSH2 0x1AB3 JUMP JUMPDEST ISZERO PUSH2 0x1AA6 JUMPI DUP4 PUSH20 0xFFFFFFFFFFFFFFFFFFFFFFFFFFFFFFFFFFFFFFFF AND PUSH4 0x150B7A02 PUSH2 0x1976 PUSH2 0x1078 JUMP JUMPDEST DUP8 DUP7 DUP7 PUSH1 0x40 MLOAD DUP6 PUSH4 0xFFFFFFFF AND PUSH1 0xE0 SHL DUP2 MSTORE PUSH1 0x4 ADD PUSH2 0x1998 SWAP5 SWAP4 SWAP3 SWAP2 SWAP1 PUSH2 0x2C7D JUMP JUMPDEST PUSH1 0x20 PUSH1 0x40 MLOAD DUP1 DUP4 SUB DUP2 PUSH1 0x0 DUP8 GAS CALL SWAP3 POP POP POP DUP1 ISZERO PUSH2 0x19D4 JUMPI POP PUSH1 0x40 MLOAD RETURNDATASIZE PUSH1 0x1F NOT PUSH1 0x1F DUP3 ADD AND DUP3 ADD DUP1 PUSH1 0x40 MSTORE POP DUP2 ADD SWAP1 PUSH2 0x19D1 SWAP2 SWAP1 PUSH2 0x2CDE JUMP JUMPDEST PUSH1 0x1 JUMPDEST PUSH2 0x1A56 JUMPI RETURNDATASIZE DUP1 PUSH1 0x0 DUP2 EQ PUSH2 0x1A04 JUMPI PUSH1 0x40 MLOAD SWAP2 POP PUSH1 0x1F NOT PUSH1 0x3F RETURNDATASIZE ADD AND DUP3 ADD PUSH1 0x40 MSTORE RETURNDATASIZE DUP3 MSTORE RETURNDATASIZE PUSH1 0x0 PUSH1 0x20 DUP5 ADD RETURNDATACOPY PUSH2 0x1A09 JUMP JUMPDEST PUSH1 0x60 SWAP2 POP JUMPDEST POP PUSH1 0x0 DUP2 MLOAD SUB PUSH2 0x1A4E JUMPI PUSH1 0x40 MLOAD PUSH32 0x8C379A000000000000000000000000000000000000000000000000000000000 DUP2 MSTORE PUSH1 0x4 ADD PUSH2 0x1A45 SWAP1 PUSH2 0x2C08 JUMP JUMPDEST PUSH1 0x40 MLOAD DUP1 SWAP2 SUB SWAP1 REVERT JUMPDEST DUP1 MLOAD DUP2 PUSH1 0x20 ADD REVERT JUMPDEST PUSH4 0x150B7A02 PUSH1 0xE0 SHL PUSH28 0xFFFFFFFFFFFFFFFFFFFFFFFFFFFFFFFFFFFFFFFFFFFFFFFFFFFFFFFF NOT AND DUP2 PUSH28 0xFFFFFFFFFFFFFFFFFFFFFFFFFFFFFFFFFFFFFFFFFFFFFFFFFFFFFFFF NOT AND EQ SWAP2 POP POP PUSH2 0x1AAB JUMP JUMPDEST PUSH1 0x1 SWAP1 POP JUMPDEST SWAP5 SWAP4 POP POP POP POP JUMP JUMPDEST PUSH1 0x0 DUP1 DUP3 PUSH20 0xFFFFFFFFFFFFFFFFFFFFFFFFFFFFFFFFFFFFFFFF AND EXTCODESIZE GT SWAP1 POP SWAP2 SWAP1 POP JUMP JUMPDEST PUSH1 0x0 PUSH1 0x40 MLOAD SWAP1 POP SWAP1 JUMP JUMPDEST PUSH1 0x0 DUP1 REVERT JUMPDEST PUSH1 0x0 DUP1 REVERT JUMPDEST PUSH1 0x0 PUSH32 0xFFFFFFFF00000000000000000000000000000000000000000000000000000000 DUP3 AND SWAP1 POP SWAP2 SWAP1 POP JUMP JUMPDEST PUSH2 0x1B1F DUP2 PUSH2 0x1AEA JUMP JUMPDEST DUP2 EQ PUSH2 0x1B2A JUMPI PUSH1 0x0 DUP1 REVERT JUMPDEST POP JUMP JUMPDEST PUSH1 0x0 DUP2 CALLDATALOAD SWAP1 POP PUSH2 0x1B3C DUP2 PUSH2 0x1B16 JUMP JUMPDEST SWAP3 SWAP2 POP POP JUMP JUMPDEST PUSH1 0x0 PUSH1 0x20 DUP3 DUP5 SUB SLT ISZERO PUSH2 0x1B58 JUMPI PUSH2 0x1B57 PUSH2 0x1AE0 JUMP JUMPDEST JUMPDEST PUSH1 0x0 PUSH2 0x1B66 DUP5 DUP3 DUP6 ADD PUSH2 0x1B2D JUMP JUMPDEST SWAP2 POP POP SWAP3 SWAP2 POP POP JUMP JUMPDEST PUSH1 0x0 DUP2 ISZERO ISZERO SWAP1 POP SWAP2 SWAP1 POP JUMP JUMPDEST PUSH2 0x1B84 DUP2 PUSH2 0x1B6F JUMP JUMPDEST DUP3 MSTORE POP POP JUMP JUMPDEST PUSH1 0x0 PUSH1 0x20 DUP3 ADD SWAP1 POP PUSH2 0x1B9F PUSH1 0x0 DUP4 ADD DUP5 PUSH2 0x1B7B JUMP JUMPDEST SWAP3 SWAP2 POP POP JUMP JUMPDEST PUSH1 0x0 DUP2 SWAP1 POP SWAP2 SWAP1 POP JUMP JUMPDEST PUSH2 0x1BB8 DUP2 PUSH2 0x1BA5 JUMP JUMPDEST DUP3 MSTORE POP POP JUMP JUMPDEST PUSH1 0x0 PUSH1 0x20 DUP3 ADD SWAP1 POP PUSH2 0x1BD3 PUSH1 0x0 DUP4 ADD DUP5 PUSH2 0x1BAF JUMP JUMPDEST SWAP3 SWAP2 POP POP JUMP JUMPDEST PUSH1 0x0 DUP2 MLOAD SWAP1 POP SWAP2 SWAP1 POP JUMP JUMPDEST PUSH1 0x0 DUP3 DUP3 MSTORE PUSH1 0x20 DUP3 ADD SWAP1 POP SWAP3 SWAP2 POP POP JUMP JUMPDEST PUSH1 0x0 JUMPDEST DUP4 DUP2 LT ISZERO PUSH2 0x1C13 JUMPI DUP1 DUP3 ADD MLOAD DUP2 DUP5 ADD MSTORE PUSH1 0x20 DUP2 ADD SWAP1 POP PUSH2 0x1BF8 JUMP JUMPDEST PUSH1 0x0 DUP5 DUP5 ADD MSTORE POP POP POP POP JUMP JUMPDEST PUSH1 0x0 PUSH1 0x1F NOT PUSH1 0x1F DUP4 ADD AND SWAP1 POP SWAP2 SWAP1 POP JUMP JUMPDEST PUSH1 0x0 PUSH2 0x1C3B DUP3 PUSH2 0x1BD9 JUMP JUMPDEST PUSH2 0x1C45 DUP2 DUP6 PUSH2 0x1BE4 JUMP JUMPDEST SWAP4 POP PUSH2 0x1C55 DUP2 DUP6 PUSH1 0x20 DUP7 ADD PUSH2 0x1BF5 JUMP JUMPDEST PUSH2 0x1C5E DUP2 PUSH2 0x1C1F JUMP JUMPDEST DUP5 ADD SWAP2 POP POP SWAP3 SWAP2 POP POP JUMP JUMPDEST PUSH1 0x0 PUSH1 0x20 DUP3 ADD SWAP1 POP DUP2 DUP2 SUB PUSH1 0x0 DUP4 ADD MSTORE PUSH2 0x1C83 DUP2 DUP5 PUSH2 0x1C30 JUMP JUMPDEST SWAP1 POP SWAP3 SWAP2 POP POP JUMP JUMPDEST PUSH2 0x1C94 DUP2 PUSH2 0x1BA5 JUMP JUMPDEST DUP2 EQ PUSH2 0x1C9F JUMPI PUSH1 0x0 DUP1 REVERT JUMPDEST POP JUMP JUMPDEST PUSH1 0x0 DUP2 CALLDATALOAD SWAP1 POP PUSH2 0x1CB1 DUP2 PUSH2 0x1C8B JUMP JUMPDEST SWAP3 SWAP2 POP POP JUMP JUMPDEST PUSH1 0x0 PUSH1 0x20 DUP3 DUP5 SUB SLT ISZERO PUSH2 0x1CCD JUMPI PUSH2 0x1CCC PUSH2 0x1AE0 JUMP JUMPDEST JUMPDEST PUSH1 0x0 PUSH2 0x1CDB DUP5 DUP3 DUP6 ADD PUSH2 0x1CA2 JUMP JUMPDEST SWAP2 POP POP SWAP3 SWAP2 POP POP JUMP JUMPDEST PUSH1 0x0 PUSH20 0xFFFFFFFFFFFFFFFFFFFFFFFFFFFFFFFFFFFFFFFF DUP3 AND SWAP1 POP SWAP2 SWAP1 POP JUMP JUMPDEST PUSH1 0x0 PUSH2 0x1D0F DUP3 PUSH2 0x1CE4 JUMP JUMPDEST SWAP1 POP SWAP2 SWAP1 POP JUMP JUMPDEST PUSH2 0x1D1F DUP2 PUSH2 0x1D04 JUMP JUMPDEST DUP3 MSTORE POP POP JUMP JUMPDEST PUSH1 0x0 PUSH1 0x20 DUP3 ADD SWAP1 POP PUSH2 0x1D3A PUSH1 0x0 DUP4 ADD DUP5 PUSH2 0x1D16 JUMP JUMPDEST SWAP3 SWAP2 POP POP JUMP JUMPDEST PUSH2 0x1D49 DUP2 PUSH2 0x1D04 JUMP JUMPDEST DUP2 EQ PUSH2 0x1D54 JUMPI PUSH1 0x0 DUP1 REVERT JUMPDEST POP JUMP JUMPDEST PUSH1 0x0 DUP2 CALLDATALOAD SWAP1 POP PUSH2 0x1D66 DUP2 PUSH2 0x1D40 JUMP JUMPDEST SWAP3 SWAP2 POP POP JUMP JUMPDEST PUSH1 0x0 DUP1 PUSH1 0x40 DUP4 DUP6 SUB SLT ISZERO PUSH2 0x1D83 JUMPI PUSH2 0x1D82 PUSH2 0x1AE0 JUMP JUMPDEST JUMPDEST PUSH1 0x0 PUSH2 0x1D91 DUP6 DUP3 DUP7 ADD PUSH2 0x1D57 JUMP JUMPDEST SWAP3 POP POP PUSH1 0x20 PUSH2 0x1DA2 DUP6 DUP3 DUP7 ADD PUSH2 0x1CA2 JUMP JUMPDEST SWAP2 POP POP SWAP3 POP SWAP3 SWAP1 POP JUMP JUMPDEST PUSH1 0x0 DUP1 REVERT JUMPDEST PUSH1 0x0 DUP1 REVERT JUMPDEST PUSH32 0x4E487B7100000000000000000000000000000000000000000000000000000000 PUSH1 0x0 MSTORE PUSH1 0x41 PUSH1 0x4 MSTORE PUSH1 0x24 PUSH1 0x0 REVERT JUMPDEST PUSH2 0x1DEE DUP3 PUSH2 0x1C1F JUMP JUMPDEST DUP2 ADD DUP2 DUP2 LT PUSH8 0xFFFFFFFFFFFFFFFF DUP3 GT OR ISZERO PUSH2 0x1E0D JUMPI PUSH2 0x1E0C PUSH2 0x1DB6 JUMP JUMPDEST JUMPDEST DUP1 PUSH1 0x40 MSTORE POP POP POP JUMP JUMPDEST PUSH1 0x0 PUSH2 0x1E20 PUSH2 0x1AD6 JUMP JUMPDEST SWAP1 POP PUSH2 0x1E2C DUP3 DUP3 PUSH2 0x1DE5 JUMP JUMPDEST SWAP2 SWAP1 POP JUMP JUMPDEST PUSH1 0x0 PUSH8 0xFFFFFFFFFFFFFFFF DUP3 GT ISZERO PUSH2 0x1E4C JUMPI PUSH2 0x1E4B PUSH2 0x1DB6 JUMP JUMPDEST JUMPDEST PUSH2 0x1E55 DUP3 PUSH2 0x1C1F JUMP JUMPDEST SWAP1 POP PUSH1 0x20 DUP2 ADD SWAP1 POP SWAP2 SWAP1 POP JUMP JUMPDEST DUP3 DUP2 DUP4 CALLDATACOPY PUSH1 0x0 DUP4 DUP4 ADD MSTORE POP POP POP JUMP JUMPDEST PUSH1 0x0 PUSH2 0x1E84 PUSH2 0x1E7F DUP5 PUSH2 0x1E31 JUMP JUMPDEST PUSH2 0x1E16 JUMP JUMPDEST SWAP1 POP DUP3 DUP2 MSTORE PUSH1 0x20 DUP2 ADD DUP5 DUP5 DUP5 ADD GT ISZERO PUSH2 0x1EA0 JUMPI PUSH2 0x1E9F PUSH2 0x1DB1 JUMP JUMPDEST JUMPDEST PUSH2 0x1EAB DUP5 DUP3 DUP6 PUSH2 0x1E62 JUMP JUMPDEST POP SWAP4 SWAP3 POP POP POP JUMP JUMPDEST PUSH1 0x0 DUP3 PUSH1 0x1F DUP4 ADD SLT PUSH2 0x1EC8 JUMPI PUSH2 0x1EC7 PUSH2 0x1DAC JUMP JUMPDEST JUMPDEST DUP2 CALLDATALOAD PUSH2 0x1ED8 DUP5 DUP3 PUSH1 0x20 DUP7 ADD PUSH2 0x1E71 JUMP JUMPDEST SWAP2 POP POP SWAP3 SWAP2 POP POP JUMP JUMPDEST PUSH1 0x0 DUP1 PUSH1 0x40 DUP4 DUP6 SUB SLT ISZERO PUSH2 0x1EF8 JUMPI PUSH2 0x1EF7 PUSH2 0x1AE0 JUMP JUMPDEST JUMPDEST PUSH1 0x0 PUSH2 0x1F06 DUP6 DUP3 DUP7 ADD PUSH2 0x1D57 JUMP JUMPDEST SWAP3 POP POP PUSH1 0x20 DUP4 ADD CALLDATALOAD PUSH8 0xFFFFFFFFFFFFFFFF DUP2 GT ISZERO PUSH2 0x1F27 JUMPI PUSH2 0x1F26 PUSH2 0x1AE5 JUMP JUMPDEST JUMPDEST PUSH2 0x1F33 DUP6 DUP3 DUP7 ADD PUSH2 0x1EB3 JUMP JUMPDEST SWAP2 POP POP SWAP3 POP SWAP3 SWAP1 POP JUMP JUMPDEST PUSH1 0x0 DUP1 PUSH1 0x0 PUSH1 0x60 DUP5 DUP7 SUB SLT ISZERO PUSH2 0x1F56 JUMPI PUSH2 0x1F55 PUSH2 0x1AE0 JUMP JUMPDEST JUMPDEST PUSH1 0x0 PUSH2 0x1F64 DUP7 DUP3 DUP8 ADD PUSH2 0x1D57 JUMP JUMPDEST SWAP4 POP POP PUSH1 0x20 PUSH2 0x1F75 DUP7 DUP3 DUP8 ADD PUSH2 0x1D57 JUMP JUMPDEST SWAP3 POP POP PUSH1 0x40 PUSH2 0x1F86 DUP7 DUP3 DUP8 ADD PUSH2 0x1CA2 JUMP JUMPDEST SWAP2 POP POP SWAP3 POP SWAP3 POP SWAP3 JUMP JUMPDEST PUSH1 0x0 PUSH1 0x20 DUP3 DUP5 SUB SLT ISZERO PUSH2 0x1FA6 JUMPI PUSH2 0x1FA5 PUSH2 0x1AE0 JUMP JUMPDEST JUMPDEST PUSH1 0x0 PUSH2 0x1FB4 DUP5 DUP3 DUP6 ADD PUSH2 0x1D57 JUMP JUMPDEST SWAP2 POP POP SWAP3 SWAP2 POP POP JUMP JUMPDEST PUSH1 0x0 PUSH1 0x20 DUP3 DUP5 SUB SLT ISZERO PUSH2 0x1FD3 JUMPI PUSH2 0x1FD2 PUSH2 0x1AE0 JUMP JUMPDEST JUMPDEST PUSH1 0x0 DUP3 ADD CALLDATALOAD PUSH8 0xFFFFFFFFFFFFFFFF DUP2 GT ISZERO PUSH2 0x1FF1 JUMPI PUSH2 0x1FF0 PUSH2 0x1AE5 JUMP JUMPDEST JUMPDEST PUSH2 0x1FFD DUP5 DUP3 DUP6 ADD PUSH2 0x1EB3 JUMP JUMPDEST SWAP2 POP POP SWAP3 SWAP2 POP POP JUMP JUMPDEST PUSH2 0x200F DUP2 PUSH2 0x1B6F JUMP JUMPDEST DUP2 EQ PUSH2 0x201A JUMPI PUSH1 0x0 DUP1 REVERT JUMPDEST POP JUMP JUMPDEST PUSH1 0x0 DUP2 CALLDATALOAD SWAP1 POP PUSH2 0x202C DUP2 PUSH2 0x2006 JUMP JUMPDEST SWAP3 SWAP2 POP POP JUMP JUMPDEST PUSH1 0x0 DUP1 PUSH1 0x40 DUP4 DUP6 SUB SLT ISZERO PUSH2 0x2049 JUMPI PUSH2 0x2048 PUSH2 0x1AE0 JUMP JUMPDEST JUMPDEST PUSH1 0x0 PUSH2 0x2057 DUP6 DUP3 DUP7 ADD PUSH2 0x1D57 JUMP JUMPDEST SWAP3 POP POP PUSH1 0x20 PUSH2 0x2068 DUP6 DUP3 DUP7 ADD PUSH2 0x201D JUMP JUMPDEST SWAP2 POP POP SWAP3 POP SWAP3 SWAP1 POP JUMP JUMPDEST PUSH1 0x0 PUSH8 0xFFFFFFFFFFFFFFFF DUP3 GT ISZERO PUSH2 0x208D JUMPI PUSH2 0x208C PUSH2 0x1DB6 JUMP JUMPDEST JUMPDEST PUSH2 0x2096 DUP3 PUSH2 0x1C1F JUMP JUMPDEST SWAP1 POP PUSH1 0x20 DUP2 ADD SWAP1 POP SWAP2 SWAP1 POP JUMP JUMPDEST PUSH1 0x0 PUSH2 0x20B6 PUSH2 0x20B1 DUP5 PUSH2 0x2072 JUMP JUMPDEST PUSH2 0x1E16 JUMP JUMPDEST SWAP1 POP DUP3 DUP2 MSTORE PUSH1 0x20 DUP2 ADD DUP5 DUP5 DUP5 ADD GT ISZERO PUSH2 0x20D2 JUMPI PUSH2 0x20D1 PUSH2 0x1DB1 JUMP JUMPDEST JUMPDEST PUSH2 0x20DD DUP5 DUP3 DUP6 PUSH2 0x1E62 JUMP JUMPDEST POP SWAP4 SWAP3 POP POP POP JUMP JUMPDEST PUSH1 0x0 DUP3 PUSH1 0x1F DUP4 ADD SLT PUSH2 0x20FA JUMPI PUSH2 0x20F9 PUSH2 0x1DAC JUMP JUMPDEST JUMPDEST DUP2 CALLDATALOAD PUSH2 0x210A DUP5 DUP3 PUSH1 0x20 DUP7 ADD PUSH2 0x20A3 JUMP JUMPDEST SWAP2 POP POP SWAP3 SWAP2 POP POP JUMP JUMPDEST PUSH1 0x0 DUP1 PUSH1 0x0 DUP1 PUSH1 0x80 DUP6 DUP8 SUB SLT ISZERO PUSH2 0x212D JUMPI PUSH2 0x212C PUSH2 0x1AE0 JUMP JUMPDEST JUMPDEST PUSH1 0x0 PUSH2 0x213B DUP8 DUP3 DUP9 ADD PUSH2 0x1D57 JUMP JUMPDEST SWAP5 POP POP PUSH1 0x20 PUSH2 0x214C DUP8 DUP3 DUP9 ADD PUSH2 0x1D57 JUMP JUMPDEST SWAP4 POP POP PUSH1 0x40 PUSH2 0x215D DUP8 DUP3 DUP9 ADD PUSH2 0x1CA2 JUMP JUMPDEST SWAP3 POP POP PUSH1 0x60 DUP6 ADD CALLDATALOAD PUSH8 0xFFFFFFFFFFFFFFFF DUP2 GT ISZERO PUSH2 0x217E JUMPI PUSH2 0x217D PUSH2 0x1AE5 JUMP JUMPDEST JUMPDEST PUSH2 0x218A DUP8 DUP3 DUP9 ADD PUSH2 0x20E5 JUMP JUMPDEST SWAP2 POP POP SWAP3 SWAP6 SWAP2 SWAP5 POP SWAP3 POP JUMP JUMPDEST PUSH1 0x0 DUP1 PUSH1 0x40 DUP4 DUP6 SUB SLT ISZERO PUSH2 0x21AD JUMPI PUSH2 0x21AC PUSH2 0x1AE0 JUMP JUMPDEST JUMPDEST PUSH1 0x0 PUSH2 0x21BB DUP6 DUP3 DUP7 ADD PUSH2 0x1D57 JUMP JUMPDEST SWAP3 POP POP PUSH1 0x20 PUSH2 0x21CC DUP6 DUP3 DUP7 ADD PUSH2 0x1D57 JUMP JUMPDEST SWAP2 POP POP SWAP3 POP SWAP3 SWAP1 POP JUMP JUMPDEST PUSH32 0x4E487B7100000000000000000000000000000000000000000000000000000000 PUSH1 0x0 MSTORE PUSH1 0x22 PUSH1 0x4 MSTORE PUSH1 0x24 PUSH1 0x0 REVERT JUMPDEST PUSH1 0x0 PUSH1 0x2 DUP3 DIV SWAP1 POP PUSH1 0x1 DUP3 AND DUP1 PUSH2 0x221D JUMPI PUSH1 0x7F DUP3 AND SWAP2 POP JUMPDEST PUSH1 0x20 DUP3 LT DUP2 SUB PUSH2 0x2230 JUMPI PUSH2 0x222F PUSH2 0x21D6 JUMP JUMPDEST JUMPDEST POP SWAP2 SWAP1 POP JUMP JUMPDEST PUSH32 0x4552433732313A20617070726F76616C20746F2063757272656E74206F776E65 PUSH1 0x0 DUP3 ADD MSTORE PUSH32 0x7200000000000000000000000000000000000000000000000000000000000000 PUSH1 0x20 DUP3 ADD MSTORE POP JUMP JUMPDEST PUSH1 0x0 PUSH2 0x2292 PUSH1 0x21 DUP4 PUSH2 0x1BE4 JUMP JUMPDEST SWAP2 POP PUSH2 0x229D DUP3 PUSH2 0x2236 JUMP JUMPDEST PUSH1 0x40 DUP3 ADD SWAP1 POP SWAP2 SWAP1 POP JUMP JUMPDEST PUSH1 0x0 PUSH1 0x20 DUP3 ADD SWAP1 POP DUP2 DUP2 SUB PUSH1 0x0 DUP4 ADD MSTORE PUSH2 0x22C1 DUP2 PUSH2 0x2285 JUMP JUMPDEST SWAP1 POP SWAP2 SWAP1 POP JUMP JUMPDEST PUSH32 0x4552433732313A20617070726F76652063616C6C6572206973206E6F7420746F PUSH1 0x0 DUP3 ADD MSTORE PUSH32 0x6B656E206F776E6572206F7220617070726F76656420666F7220616C6C000000 PUSH1 0x20 DUP3 ADD MSTORE POP JUMP JUMPDEST PUSH1 0x0 PUSH2 0x2324 PUSH1 0x3D DUP4 PUSH2 0x1BE4 JUMP JUMPDEST SWAP2 POP PUSH2 0x232F DUP3 PUSH2 0x22C8 JUMP JUMPDEST PUSH1 0x40 DUP3 ADD SWAP1 POP SWAP2 SWAP1 POP JUMP JUMPDEST PUSH1 0x0 PUSH1 0x20 DUP3 ADD SWAP1 POP DUP2 DUP2 SUB PUSH1 0x0 DUP4 ADD MSTORE PUSH2 0x2353 DUP2 PUSH2 0x2317 JUMP JUMPDEST SWAP1 POP SWAP2 SWAP1 POP JUMP JUMPDEST PUSH32 0x4E487B7100000000000000000000000000000000000000000000000000000000 PUSH1 0x0 MSTORE PUSH1 0x11 PUSH1 0x4 MSTORE PUSH1 0x24 PUSH1 0x0 REVERT JUMPDEST PUSH1 0x0 PUSH2 0x2394 DUP3 PUSH2 0x1BA5 JUMP JUMPDEST SWAP2 POP PUSH32 0xFFFFFFFFFFFFFFFFFFFFFFFFFFFFFFFFFFFFFFFFFFFFFFFFFFFFFFFFFFFFFFFF DUP3 SUB PUSH2 0x23C6 JUMPI PUSH2 0x23C5 PUSH2 0x235A JUMP JUMPDEST JUMPDEST PUSH1 0x1 DUP3 ADD SWAP1 POP SWAP2 SWAP1 POP JUMP JUMPDEST PUSH1 0x0 DUP2 SWAP1 POP SWAP3 SWAP2 POP POP JUMP JUMPDEST PUSH1 0x0 PUSH2 0x23E7 DUP3 PUSH2 0x1BD9 JUMP JUMPDEST PUSH2 0x23F1 DUP2 DUP6 PUSH2 0x23D1 JUMP JUMPDEST SWAP4 POP PUSH2 0x2401 DUP2 DUP6 PUSH1 0x20 DUP7 ADD PUSH2 0x1BF5 JUMP JUMPDEST DUP1 DUP5 ADD SWAP2 POP POP SWAP3 SWAP2 POP POP JUMP JUMPDEST PUSH1 0x0 PUSH2 0x2419 DUP3 DUP5 PUSH2 0x23DC JUMP JUMPDEST SWAP2 POP DUP2 SWAP1 POP SWAP3 SWAP2 POP POP JUMP JUMPDEST PUSH32 0x526561737369676E6D6E6574206F662075726920746F206E6577206964210000 PUSH1 0x0 DUP3 ADD MSTORE POP JUMP JUMPDEST PUSH1 0x0 PUSH2 0x245A PUSH1 0x1E DUP4 PUSH2 0x1BE4 JUMP JUMPDEST SWAP2 POP PUSH2 0x2465 DUP3 PUSH2 0x2424 JUMP JUMPDEST PUSH1 0x20 DUP3 ADD SWAP1 POP SWAP2 SWAP1 POP JUMP JUMPDEST PUSH1 0x0 PUSH1 0x20 DUP3 ADD SWAP1 POP DUP2 DUP2 SUB PUSH1 0x0 DUP4 ADD MSTORE PUSH2 0x2489 DUP2 PUSH2 0x244D JUMP JUMPDEST SWAP1 POP SWAP2 SWAP1 POP JUMP JUMPDEST PUSH1 0x0 DUP2 SWAP1 POP DUP2 PUSH1 0x0 MSTORE PUSH1 0x20 PUSH1 0x0 KECCAK256 SWAP1 POP SWAP2 SWAP1 POP JUMP JUMPDEST PUSH1 0x0 PUSH1 0x20 PUSH1 0x1F DUP4 ADD DIV SWAP1 POP SWAP2 SWAP1 POP JUMP JUMPDEST PUSH1 0x0 DUP3 DUP3 SHL SWAP1 POP SWAP3 SWAP2 POP POP JUMP JUMPDEST PUSH1 0x0 PUSH1 0x8 DUP4 MUL PUSH2 0x24F2 PUSH32 0xFFFFFFFFFFFFFFFFFFFFFFFFFFFFFFFFFFFFFFFFFFFFFFFFFFFFFFFFFFFFFFFF DUP3 PUSH2 0x24B5 JUMP JUMPDEST PUSH2 0x24FC DUP7 DUP4 PUSH2 0x24B5 JUMP JUMPDEST SWAP6 POP DUP1 NOT DUP5 AND SWAP4 POP DUP1 DUP7 AND DUP5 OR SWAP3 POP POP POP SWAP4 SWAP3 POP POP POP JUMP JUMPDEST PUSH1 0x0 DUP2 SWAP1 POP SWAP2 SWAP1 POP JUMP JUMPDEST PUSH1 0x0 PUSH2 0x2539 PUSH2 0x2534 PUSH2 0x252F DUP5 PUSH2 0x1BA5 JUMP JUMPDEST PUSH2 0x2514 JUMP JUMPDEST PUSH2 0x1BA5 JUMP JUMPDEST SWAP1 POP SWAP2 SWAP1 POP JUMP JUMPDEST PUSH1 0x0 DUP2 SWAP1 POP SWAP2 SWAP1 POP JUMP JUMPDEST PUSH2 0x2553 DUP4 PUSH2 0x251E JUMP JUMPDEST PUSH2 0x2567 PUSH2 0x255F DUP3 PUSH2 0x2540 JUMP JUMPDEST DUP5 DUP5 SLOAD PUSH2 0x24C2 JUMP JUMPDEST DUP3 SSTORE POP POP POP POP JUMP JUMPDEST PUSH1 0x0 SWAP1 JUMP JUMPDEST PUSH2 0x257C PUSH2 0x256F JUMP JUMPDEST PUSH2 0x2587 DUP2 DUP5 DUP5 PUSH2 0x254A JUMP JUMPDEST POP POP POP JUMP JUMPDEST JUMPDEST DUP2 DUP2 LT ISZERO PUSH2 0x25AB JUMPI PUSH2 0x25A0 PUSH1 0x0 DUP3 PUSH2 0x2574 JUMP JUMPDEST PUSH1 0x1 DUP2 ADD SWAP1 POP PUSH2 0x258D JUMP JUMPDEST POP POP JUMP JUMPDEST PUSH1 0x1F DUP3 GT ISZERO PUSH2 0x25F0 JUMPI PUSH2 0x25C1 DUP2 PUSH2 0x2490 JUMP JUMPDEST PUSH2 0x25CA DUP5 PUSH2 0x24A5 JUMP JUMPDEST DUP2 ADD PUSH1 0x20 DUP6 LT ISZERO PUSH2 0x25D9 JUMPI DUP2 SWAP1 POP JUMPDEST PUSH2 0x25ED PUSH2 0x25E5 DUP6 PUSH2 0x24A5 JUMP JUMPDEST DUP4 ADD DUP3 PUSH2 0x258C JUMP JUMPDEST POP POP JUMPDEST POP POP POP JUMP JUMPDEST PUSH1 0x0 DUP3 DUP3 SHR SWAP1 POP SWAP3 SWAP2 POP POP JUMP JUMPDEST PUSH1 0x0 PUSH2 0x2613 PUSH1 0x0 NOT DUP5 PUSH1 0x8 MUL PUSH2 0x25F5 JUMP JUMPDEST NOT DUP1 DUP4 AND SWAP2 POP POP SWAP3 SWAP2 POP POP JUMP JUMPDEST PUSH1 0x0 PUSH2 0x262C DUP4 DUP4 PUSH2 0x2602 JUMP JUMPDEST SWAP2 POP DUP3 PUSH1 0x2 MUL DUP3 OR SWAP1 POP SWAP3 SWAP2 POP POP JUMP JUMPDEST PUSH2 0x2645 DUP3 PUSH2 0x1BD9 JUMP JUMPDEST PUSH8 0xFFFFFFFFFFFFFFFF DUP2 GT ISZERO PUSH2 0x265E JUMPI PUSH2 0x265D PUSH2 0x1DB6 JUMP JUMPDEST JUMPDEST PUSH2 0x2668 DUP3 SLOAD PUSH2 0x2205 JUMP JUMPDEST PUSH2 0x2673 DUP3 DUP3 DUP6 PUSH2 0x25AF JUMP JUMPDEST PUSH1 0x0 PUSH1 0x20 SWAP1 POP PUSH1 0x1F DUP4 GT PUSH1 0x1 DUP2 EQ PUSH2 0x26A6 JUMPI PUSH1 0x0 DUP5 ISZERO PUSH2 0x2694 JUMPI DUP3 DUP8 ADD MLOAD SWAP1 POP JUMPDEST PUSH2 0x269E DUP6 DUP3 PUSH2 0x2620 JUMP JUMPDEST DUP7 SSTORE POP PUSH2 0x2706 JUMP JUMPDEST PUSH1 0x1F NOT DUP5 AND PUSH2 0x26B4 DUP7 PUSH2 0x2490 JUMP JUMPDEST PUSH1 0x0 JUMPDEST DUP3 DUP2 LT ISZERO PUSH2 0x26DC JUMPI DUP5 DUP10 ADD MLOAD DUP3 SSTORE PUSH1 0x1 DUP3 ADD SWAP2 POP PUSH1 0x20 DUP6 ADD SWAP5 POP PUSH1 0x20 DUP2 ADD SWAP1 POP PUSH2 0x26B7 JUMP JUMPDEST DUP7 DUP4 LT ISZERO PUSH2 0x26F9 JUMPI DUP5 DUP10 ADD MLOAD PUSH2 0x26F5 PUSH1 0x1F DUP10 AND DUP3 PUSH2 0x2602 JUMP JUMPDEST DUP4 SSTORE POP JUMPDEST PUSH1 0x1 PUSH1 0x2 DUP9 MUL ADD DUP9 SSTORE POP POP POP JUMPDEST POP POP POP POP POP POP JUMP JUMPDEST PUSH32 0x4552433732313A2063616C6C6572206973206E6F7420746F6B656E206F776E65 PUSH1 0x0 DUP3 ADD MSTORE PUSH32 0x72206F7220617070726F76656400000000000000000000000000000000000000 PUSH1 0x20 DUP3 ADD MSTORE POP JUMP JUMPDEST PUSH1 0x0 PUSH2 0x276A PUSH1 0x2D DUP4 PUSH2 0x1BE4 JUMP JUMPDEST SWAP2 POP PUSH2 0x2775 DUP3 PUSH2 0x270E JUMP JUMPDEST PUSH1 0x40 DUP3 ADD SWAP1 POP SWAP2 SWAP1 POP JUMP JUMPDEST PUSH1 0x0 PUSH1 0x20 DUP3 ADD SWAP1 POP DUP2 DUP2 SUB PUSH1 0x0 DUP4 ADD MSTORE PUSH2 0x2799 DUP2 PUSH2 0x275D JUMP JUMPDEST SWAP1 POP SWAP2 SWAP1 POP JUMP JUMPDEST PUSH32 0x4552433732313A20696E76616C696420746F6B656E2049440000000000000000 PUSH1 0x0 DUP3 ADD MSTORE POP JUMP JUMPDEST PUSH1 0x0 PUSH2 0x27D6 PUSH1 0x18 DUP4 PUSH2 0x1BE4 JUMP JUMPDEST SWAP2 POP PUSH2 0x27E1 DUP3 PUSH2 0x27A0 JUMP JUMPDEST PUSH1 0x20 DUP3 ADD SWAP1 POP SWAP2 SWAP1 POP JUMP JUMPDEST PUSH1 0x0 PUSH1 0x20 DUP3 ADD SWAP1 POP DUP2 DUP2 SUB PUSH1 0x0 DUP4 ADD MSTORE PUSH2 0x2805 DUP2 PUSH2 0x27C9 JUMP JUMPDEST SWAP1 POP SWAP2 SWAP1 POP JUMP JUMPDEST PUSH32 0x4552433732313A2061646472657373207A65726F206973206E6F742061207661 PUSH1 0x0 DUP3 ADD MSTORE PUSH32 0x6C6964206F776E65720000000000000000000000000000000000000000000000 PUSH1 0x20 DUP3 ADD MSTORE POP JUMP JUMPDEST PUSH1 0x0 PUSH2 0x2868 PUSH1 0x29 DUP4 PUSH2 0x1BE4 JUMP JUMPDEST SWAP2 POP PUSH2 0x2873 DUP3 PUSH2 0x280C JUMP JUMPDEST PUSH1 0x40 DUP3 ADD SWAP1 POP SWAP2 SWAP1 POP JUMP JUMPDEST PUSH1 0x0 PUSH1 0x20 DUP3 ADD SWAP1 POP DUP2 DUP2 SUB PUSH1 0x0 DUP4 ADD MSTORE PUSH2 0x2897 DUP2 PUSH2 0x285B JUMP JUMPDEST SWAP1 POP SWAP2 SWAP1 POP JUMP JUMPDEST PUSH32 0x496E76616C696420746F6B656E49642100000000000000000000000000000000 PUSH1 0x0 DUP3 ADD MSTORE POP JUMP JUMPDEST PUSH1 0x0 PUSH2 0x28D4 PUSH1 0x10 DUP4 PUSH2 0x1BE4 JUMP JUMPDEST SWAP2 POP PUSH2 0x28DF DUP3 PUSH2 0x289E JUMP JUMPDEST PUSH1 0x20 DUP3 ADD SWAP1 POP SWAP2 SWAP1 POP JUMP JUMPDEST PUSH1 0x0 PUSH1 0x20 DUP3 ADD SWAP1 POP DUP2 DUP2 SUB PUSH1 0x0 DUP4 ADD MSTORE PUSH2 0x2903 DUP2 PUSH2 0x28C7 JUMP JUMPDEST SWAP1 POP SWAP2 SWAP1 POP JUMP JUMPDEST PUSH1 0x0 PUSH2 0x2916 DUP3 DUP6 PUSH2 0x23DC JUMP JUMPDEST SWAP2 POP PUSH2 0x2922 DUP3 DUP5 PUSH2 0x23DC JUMP JUMPDEST SWAP2 POP DUP2 SWAP1 POP SWAP4 SWAP3 POP POP POP JUMP JUMPDEST PUSH32 0x4552433732313A206D696E7420746F20746865207A65726F2061646472657373 PUSH1 0x0 DUP3 ADD MSTORE POP JUMP JUMPDEST PUSH1 0x0 PUSH2 0x2964 PUSH1 0x20 DUP4 PUSH2 0x1BE4 JUMP JUMPDEST SWAP2 POP PUSH2 0x296F DUP3 PUSH2 0x292E JUMP JUMPDEST PUSH1 0x20 DUP3 ADD SWAP1 POP SWAP2 SWAP1 POP JUMP JUMPDEST PUSH1 0x0 PUSH1 0x20 DUP3 ADD SWAP1 POP DUP2 DUP2 SUB PUSH1 0x0 DUP4 ADD MSTORE PUSH2 0x2993 DUP2 PUSH2 0x2957 JUMP JUMPDEST SWAP1 POP SWAP2 SWAP1 POP JUMP JUMPDEST PUSH32 0x4552433732313A20746F6B656E20616C7265616479206D696E74656400000000 PUSH1 0x0 DUP3 ADD MSTORE POP JUMP JUMPDEST PUSH1 0x0 PUSH2 0x29D0 PUSH1 0x1C DUP4 PUSH2 0x1BE4 JUMP JUMPDEST SWAP2 POP PUSH2 0x29DB DUP3 PUSH2 0x299A JUMP JUMPDEST PUSH1 0x20 DUP3 ADD SWAP1 POP SWAP2 SWAP1 POP JUMP JUMPDEST PUSH1 0x0 PUSH1 0x20 DUP3 ADD SWAP1 POP DUP2 DUP2 SUB PUSH1 0x0 DUP4 ADD MSTORE PUSH2 0x29FF DUP2 PUSH2 0x29C3 JUMP JUMPDEST SWAP1 POP SWAP2 SWAP1 POP JUMP JUMPDEST PUSH32 0x4552433732313A207472616E736665722066726F6D20696E636F727265637420 PUSH1 0x0 DUP3 ADD MSTORE PUSH32 0x6F776E6572000000000000000000000000000000000000000000000000000000 PUSH1 0x20 DUP3 ADD MSTORE POP JUMP JUMPDEST PUSH1 0x0 PUSH2 0x2A62 PUSH1 0x25 DUP4 PUSH2 0x1BE4 JUMP JUMPDEST SWAP2 POP PUSH2 0x2A6D DUP3 PUSH2 0x2A06 JUMP JUMPDEST PUSH1 0x40 DUP3 ADD SWAP1 POP SWAP2 SWAP1 POP JUMP JUMPDEST PUSH1 0x0 PUSH1 0x20 DUP3 ADD SWAP1 POP DUP2 DUP2 SUB PUSH1 0x0 DUP4 ADD MSTORE PUSH2 0x2A91 DUP2 PUSH2 0x2A55 JUMP JUMPDEST SWAP1 POP SWAP2 SWAP1 POP JUMP JUMPDEST PUSH32 0x4552433732313A207472616E7366657220746F20746865207A65726F20616464 PUSH1 0x0 DUP3 ADD MSTORE PUSH32 0x7265737300000000000000000000000000000000000000000000000000000000 PUSH1 0x20 DUP3 ADD MSTORE POP JUMP JUMPDEST PUSH1 0x0 PUSH2 0x2AF4 PUSH1 0x24 DUP4 PUSH2 0x1BE4 JUMP JUMPDEST SWAP2 POP PUSH2 0x2AFF DUP3 PUSH2 0x2A98 JUMP JUMPDEST PUSH1 0x40 DUP3 ADD SWAP1 POP SWAP2 SWAP1 POP JUMP JUMPDEST PUSH1 0x0 PUSH1 0x20 DUP3 ADD SWAP1 POP DUP2 DUP2 SUB PUSH1 0x0 DUP4 ADD MSTORE PUSH2 0x2B23 DUP2 PUSH2 0x2AE7 JUMP JUMPDEST SWAP1 POP SWAP2 SWAP1 POP JUMP JUMPDEST PUSH32 0x4552433732313A20617070726F766520746F2063616C6C657200000000000000 PUSH1 0x0 DUP3 ADD MSTORE POP JUMP JUMPDEST PUSH1 0x0 PUSH2 0x2B60 PUSH1 0x19 DUP4 PUSH2 0x1BE4 JUMP JUMPDEST SWAP2 POP PUSH2 0x2B6B DUP3 PUSH2 0x2B2A JUMP JUMPDEST PUSH1 0x20 DUP3 ADD SWAP1 POP SWAP2 SWAP1 POP JUMP JUMPDEST PUSH1 0x0 PUSH1 0x20 DUP3 ADD SWAP1 POP DUP2 DUP2 SUB PUSH1 0x0 DUP4 ADD MSTORE PUSH2 0x2B8F DUP2 PUSH2 0x2B53 JUMP JUMPDEST SWAP1 POP SWAP2 SWAP1 POP JUMP JUMPDEST PUSH32 0x4552433732313A207472616E7366657220746F206E6F6E204552433732315265 PUSH1 0x0 DUP3 ADD MSTORE PUSH32 0x63656976657220696D706C656D656E7465720000000000000000000000000000 PUSH1 0x20 DUP3 ADD MSTORE POP JUMP JUMPDEST PUSH1 0x0 PUSH2 0x2BF2 PUSH1 0x32 DUP4 PUSH2 0x1BE4 JUMP JUMPDEST SWAP2 POP PUSH2 0x2BFD DUP3 PUSH2 0x2B96 JUMP JUMPDEST PUSH1 0x40 DUP3 ADD SWAP1 POP SWAP2 SWAP1 POP JUMP JUMPDEST PUSH1 0x0 PUSH1 0x20 DUP3 ADD SWAP1 POP DUP2 DUP2 SUB PUSH1 0x0 DUP4 ADD MSTORE PUSH2 0x2C21 DUP2 PUSH2 0x2BE5 JUMP JUMPDEST SWAP1 POP SWAP2 SWAP1 POP JUMP JUMPDEST PUSH1 0x0 DUP2 MLOAD SWAP1 POP SWAP2 SWAP1 POP JUMP JUMPDEST PUSH1 0x0 DUP3 DUP3 MSTORE PUSH1 0x20 DUP3 ADD SWAP1 POP SWAP3 SWAP2 POP POP JUMP JUMPDEST PUSH1 0x0 PUSH2 0x2C4F DUP3 PUSH2 0x2C28 JUMP JUMPDEST PUSH2 0x2C59 DUP2 DUP6 PUSH2 0x2C33 JUMP JUMPDEST SWAP4 POP PUSH2 0x2C69 DUP2 DUP6 PUSH1 0x20 DUP7 ADD PUSH2 0x1BF5 JUMP JUMPDEST PUSH2 0x2C72 DUP2 PUSH2 0x1C1F JUMP JUMPDEST DUP5 ADD SWAP2 POP POP SWAP3 SWAP2 POP POP JUMP JUMPDEST PUSH1 0x0 PUSH1 0x80 DUP3 ADD SWAP1 POP PUSH2 0x2C92 PUSH1 0x0 DUP4 ADD DUP8 PUSH2 0x1D16 JUMP JUMPDEST PUSH2 0x2C9F PUSH1 0x20 DUP4 ADD DUP7 PUSH2 0x1D16 JUMP JUMPDEST PUSH2 0x2CAC PUSH1 0x40 DUP4 ADD DUP6 PUSH2 0x1BAF JUMP JUMPDEST DUP2 DUP2 SUB PUSH1 0x60 DUP4 ADD MSTORE PUSH2 0x2CBE DUP2 DUP5 PUSH2 0x2C44 JUMP JUMPDEST SWAP1 POP SWAP6 SWAP5 POP POP POP POP POP JUMP JUMPDEST PUSH1 0x0 DUP2 MLOAD SWAP1 POP PUSH2 0x2CD8 DUP2 PUSH2 0x1B16 JUMP JUMPDEST SWAP3 SWAP2 POP POP JUMP JUMPDEST PUSH1 0x0 PUSH1 0x20 DUP3 DUP5 SUB SLT ISZERO PUSH2 0x2CF4 JUMPI PUSH2 0x2CF3 PUSH2 0x1AE0 JUMP JUMPDEST JUMPDEST PUSH1 0x0 PUSH2 0x2D02 DUP5 DUP3 DUP6 ADD PUSH2 0x2CC9 JUMP JUMPDEST SWAP2 POP POP SWAP3 SWAP2 POP POP JUMP INVALID PUSH9 0x747470733A2F2F636F PUSH13 0x6C61622E6974732E7669726769 PUSH15 0x69612E6564752F6163636573732F63 PUSH16 0x6E74656E742F67726F75702F65396164 ORIGIN PUSH7 0x62622D66616361 0x2D CALLVALUE BALANCE CALLVALUE PUSH3 0x2D3964 PUSH7 0x312D3666393031 CODECOPY PUSH6 0x37363565392F PUSH10 0x7066732FA26469706673 PC 0x22 SLT KECCAK256 DUP7 0xEA 0xDB 0xE1 STATICCALL 0xC5 CHAINID CALLER DUP4 OR 0xD7 PUSH29 0xE0231B306915B0D284701261A963CE32BACCA44864736F6C6343000810 STOP CALLER MSTORE8 PUSH6 0x6E6420746865 KECCAK256 PUSH3 0x6C6F6F PUSH5 0x206F662079 PUSH16 0x757220666972737420626F726E206368 PUSH10 0x6C6420746F2052756D70 PUSH13 0x657374696C736B656E202D2061 PUSH13 0x736F203120457468492077616E PUSH21 0x20796F7572206D6F6E65792E2047697665206D6520 PUSH26 0x6F7572206D6F6E65792100000000000000000000000000000000 "
		},
		"gasEstimates": {
			"creation": {
				"codeDepositCost": "1998800",
				"executionCost": "infinite",
				"totalCost": "infinite"
			},
			"external": {
				"addMember(address)": "infinite",
				"closeProposal(uint256)": "infinite",
				"curator()": "2602",
				"howToJoin()": "infinite",
				"isMember(address)": "2912",
				"minProposalDebatePeriod()": "395",
				"newProposal(address,uint256,string,uint256)": "infinite",
				"nfts()": "infinite",
				"numberOfProposals()": "2452",
				"proposals(uint256)": "infinite",
				"purpose()": "infinite",
				"requestMembership()": "252",
				"reservedEther()": "2474",
				"supportsInterface(bytes4)": "730",
				"tokens()": "2559",
				"vote(uint256,bool)": "infinite",
				"votedNo(address,uint256)": "3110",
				"votedYes(address,uint256)": "3197"
			},
			"internal": {
				"substring(string memory,uint256,uint256)": "infinite"
			}
		},
		"methodIdentifiers": {
			"addMember(address)": "ca6d56dc",
			"closeProposal(uint256)": "0386a016",
			"curator()": "e66f53b7",
			"howToJoin()": "c65c90cc",
			"isMember(address)": "a230c524",
			"minProposalDebatePeriod()": "d6b78768",
			"newProposal(address,uint256,string,uint256)": "2e6fb097",
			"nfts()": "1714f2e0",
			"numberOfProposals()": "8d7af473",
			"proposals(uint256)": "013cf08b",
			"purpose()": "70740aab",
			"requestMembership()": "7b10b293",
			"reservedEther()": "237b2197",
			"supportsInterface(bytes4)": "01ffc9a7",
			"tokens()": "9d63848a",
			"vote(uint256,bool)": "c9d27afe",
			"votedNo(address,uint256)": "1a384287",
			"votedYes(address,uint256)": "ea3fad66"
		}
	},
	"abi": [
		{
			"inputs": [],
			"stateMutability": "nonpayable",
			"type": "constructor"
		},
		{
			"anonymous": false,
			"inputs": [
				{
					"indexed": true,
					"internalType": "uint256",
					"name": "proposalID",
					"type": "uint256"
				},
				{
					"indexed": true,
					"internalType": "address",
					"name": "recipient",
					"type": "address"
				},
				{
					"indexed": true,
					"internalType": "uint256",
					"name": "amount",
					"type": "uint256"
				},
				{
					"indexed": false,
					"internalType": "string",
					"name": "description",
					"type": "string"
				}
			],
			"name": "NewProposal",
			"type": "event"
		},
		{
			"anonymous": false,
			"inputs": [
				{
					"indexed": true,
					"internalType": "uint256",
					"name": "proposalID",
					"type": "uint256"
				},
				{
					"indexed": true,
					"internalType": "bool",
					"name": "result",
					"type": "bool"
				}
			],
			"name": "ProposalClosed",
			"type": "event"
		},
		{
			"anonymous": false,
			"inputs": [
				{
					"indexed": true,
					"internalType": "uint256",
					"name": "proposalID",
					"type": "uint256"
				},
				{
					"indexed": true,
					"internalType": "bool",
					"name": "position",
					"type": "bool"
				},
				{
					"indexed": true,
					"internalType": "address",
					"name": "voter",
					"type": "address"
				}
			],
			"name": "Voted",
			"type": "event"
		},
		{
			"inputs": [
				{
					"internalType": "address",
					"name": "who",
					"type": "address"
				}
			],
			"name": "addMember",
			"outputs": [],
			"stateMutability": "nonpayable",
			"type": "function"
		},
		{
			"inputs": [
				{
					"internalType": "uint256",
					"name": "proposalID",
					"type": "uint256"
				}
			],
			"name": "closeProposal",
			"outputs": [],
			"stateMutability": "nonpayable",
			"type": "function"
		},
		{
			"inputs": [],
			"name": "curator",
			"outputs": [
				{
					"internalType": "address",
					"name": "",
					"type": "address"
				}
			],
			"stateMutability": "view",
			"type": "function"
		},
		{
			"inputs": [],
			"name": "howToJoin",
			"outputs": [
				{
					"internalType": "string",
					"name": "",
					"type": "string"
				}
			],
			"stateMutability": "view",
			"type": "function"
		},
		{
			"inputs": [
				{
					"internalType": "address",
					"name": "",
					"type": "address"
				}
			],
			"name": "isMember",
			"outputs": [
				{
					"internalType": "bool",
					"name": "",
					"type": "bool"
				}
			],
			"stateMutability": "view",
			"type": "function"
		},
		{
			"inputs": [],
			"name": "minProposalDebatePeriod",
			"outputs": [
				{
					"internalType": "uint256",
					"name": "",
					"type": "uint256"
				}
			],
			"stateMutability": "view",
			"type": "function"
		},
		{
			"inputs": [
				{
					"internalType": "address",
					"name": "recipient",
					"type": "address"
				},
				{
					"internalType": "uint256",
					"name": "amount",
					"type": "uint256"
				},
				{
					"internalType": "string",
					"name": "description",
					"type": "string"
				},
				{
					"internalType": "uint256",
					"name": "debatingPeriod",
					"type": "uint256"
				}
			],
			"name": "newProposal",
			"outputs": [
				{
					"internalType": "uint256",
					"name": "",
					"type": "uint256"
				}
			],
			"stateMutability": "payable",
			"type": "function"
		},
		{
			"inputs": [],
			"name": "nfts",
			"outputs": [
				{
					"internalType": "contract NFTManager",
					"name": "",
					"type": "address"
				}
			],
			"stateMutability": "view",
			"type": "function"
		},
		{
			"inputs": [],
			"name": "numberOfProposals",
			"outputs": [
				{
					"internalType": "uint256",
					"name": "",
					"type": "uint256"
				}
			],
			"stateMutability": "view",
			"type": "function"
		},
		{
			"inputs": [
				{
					"internalType": "uint256",
					"name": "",
					"type": "uint256"
				}
			],
			"name": "proposals",
			"outputs": [
				{
					"internalType": "address",
					"name": "recipient",
					"type": "address"
				},
				{
					"internalType": "uint256",
					"name": "amount",
					"type": "uint256"
				},
				{
					"internalType": "string",
					"name": "description",
					"type": "string"
				},
				{
					"internalType": "uint256",
					"name": "votingDeadline",
					"type": "uint256"
				},
				{
					"internalType": "bool",
					"name": "open",
					"type": "bool"
				},
				{
					"internalType": "bool",
					"name": "proposalPassed",
					"type": "bool"
				},
				{
					"internalType": "uint256",
					"name": "yea",
					"type": "uint256"
				},
				{
					"internalType": "uint256",
					"name": "nay",
					"type": "uint256"
				},
				{
					"internalType": "address",
					"name": "creator",
					"type": "address"
				}
			],
			"stateMutability": "view",
			"type": "function"
		},
		{
			"inputs": [],
			"name": "purpose",
			"outputs": [
				{
					"internalType": "string",
					"name": "",
					"type": "string"
				}
			],
			"stateMutability": "view",
			"type": "function"
		},
		{
			"inputs": [],
			"name": "requestMembership",
			"outputs": [],
			"stateMutability": "pure",
			"type": "function"
		},
		{
			"inputs": [],
			"name": "reservedEther",
			"outputs": [
				{
					"internalType": "uint256",
					"name": "",
					"type": "uint256"
				}
			],
			"stateMutability": "view",
			"type": "function"
		},
		{
			"inputs": [
				{
					"internalType": "bytes4",
					"name": "interfaceId",
					"type": "bytes4"
				}
			],
			"name": "supportsInterface",
			"outputs": [
				{
					"internalType": "bool",
					"name": "",
					"type": "bool"
				}
			],
			"stateMutability": "pure",
			"type": "function"
		},
		{
			"inputs": [],
			"name": "tokens",
			"outputs": [
				{
					"internalType": "address",
					"name": "",
					"type": "address"
				}
			],
			"stateMutability": "view",
			"type": "function"
		},
		{
			"inputs": [
				{
					"internalType": "uint256",
					"name": "proposalID",
					"type": "uint256"
				},
				{
					"internalType": "bool",
					"name": "supportsProposal",
					"type": "bool"
				}
			],
			"name": "vote",
			"outputs": [],
			"stateMutability": "nonpayable",
			"type": "function"
		},
		{
			"inputs": [
				{
					"internalType": "address",
					"name": "",
					"type": "address"
				},
				{
					"internalType": "uint256",
					"name": "",
					"type": "uint256"
				}
			],
			"name": "votedNo",
			"outputs": [
				{
					"internalType": "bool",
					"name": "",
					"type": "bool"
				}
			],
			"stateMutability": "view",
			"type": "function"
		},
		{
			"inputs": [
				{
					"internalType": "address",
					"name": "",
					"type": "address"
				},
				{
					"internalType": "uint256",
					"name": "",
					"type": "uint256"
				}
			],
			"name": "votedYes",
			"outputs": [
				{
					"internalType": "bool",
					"name": "",
					"type": "bool"
				}
			],
			"stateMutability": "view",
			"type": "function"
		},
		{
			"stateMutability": "payable",
			"type": "receive"
		}
	]
}