{
	"data": {
		"bytecode": {
			"linkReferences": {},
			"object": "608060405260016000806101000a81548160ff02191690831515021790555060008060016101000a81548160ff02191690831515021790555034801561004457600080fd5b5033600060026101000a81548173ffffffffffffffffffffffffffffffffffffffff021916908373ffffffffffffffffffffffffffffffffffffffff16021790555061319a806100956000396000f3fe6080604052600436106101445760003560e01c80639c8f9f23116100b6578063bc04f0af1161006f578063bc04f0af1461061c578063ca7c4dba14610659578063d3c51d9114610684578063e8078d94146106c1578063e86dea4a146106cb578063feffe7e4146106f65761031e565b80639c8f9f23146105205780639fed4ad814610549578063a56dfe4a1461057f578063add010a5146105aa578063b4f40c61146105c6578063b7c56525146105f15761031e565b8063313ce56711610108578063313ce5671461040c5780634b94f50e146104375780634f54a081146104625780635dfd87731461048d5780638d729abb146104b857806395d89b41146104f55761031e565b806301ffc9a7146103235780630c55699c14610360578063180b0d7e1461038b578063276184ae146103b65780632bfdf307146103e15761031e565b3661031e5760003490506000600254600354836101619190611da8565b61016b9190611e31565b9050816002600082825461017f9190611e62565b9250508190555080600360008282546101989190611e96565b925050819055506001546003546002546101b29190611da8565b146101f2576040517f08c379a00000000000000000000000000000000000000000000000000000000081526004016101e990611f4d565b60405180910390fd5b6000600754600654836102059190611da8565b61020f9190611e31565b9050808261021d9190611e96565b915080600960008282546102319190611e62565b925050819055506000600b60009054906101000a900473ffffffffffffffffffffffffffffffffffffffff1690508073ffffffffffffffffffffffffffffffffffffffff1663095ea7b333856040518363ffffffff1660e01b815260040161029a929190611fbd565b6020604051808303816000875af11580156102b9573d6000803e3d6000fd5b505050506040513d601f19601f820116820180604052508101906102dd9190612032565b61031c576040517f08c379a0000000000000000000000000000000000000000000000000000000008152600401610313906120d1565b60405180910390fd5b005b600080fd5b34801561032f57600080fd5b5061034a60048036038101906103459190612149565b61071f565b6040516103579190612185565b60405180910390f35b34801561036c57600080fd5b50610375610859565b60405161038291906121a0565b60405180910390f35b34801561039757600080fd5b506103a061085f565b6040516103ad91906121a0565b60405180910390f35b3480156103c257600080fd5b506103cb610865565b6040516103d891906121bb565b60405180910390f35b3480156103ed57600080fd5b506103f661088b565b60405161040391906121a0565b60405180910390f35b34801561041857600080fd5b50610421610891565b60405161042e91906121a0565b60405180910390f35b34801561044357600080fd5b5061044c610931565b60405161045991906121a0565b60405180910390f35b34801561046e57600080fd5b506104776109f4565b60405161048491906121bb565b60405180910390f35b34801561049957600080fd5b506104a2610a1a565b6040516104af91906121a0565b60405180910390f35b3480156104c457600080fd5b506104df60048036038101906104da9190612202565b610a20565b6040516104ec91906121a0565b60405180910390f35b34801561050157600080fd5b5061050a610a38565b60405161051791906122ae565b60405180910390f35b34801561052c57600080fd5b50610547600480360381019061054291906122fc565b610adb565b005b34801561055557600080fd5b5061055e610f70565b6040516105769c9b9a99989796959493929190612329565b60405180910390f35b34801561058b57600080fd5b50610594611166565b6040516105a191906121a0565b60405180910390f35b6105c460048036038101906105bf91906123f1565b61116c565b005b3480156105d257600080fd5b506105db6115cd565b6040516105e891906121a0565b60405180910390f35b3480156105fd57600080fd5b506106066115d3565b60405161061391906121a0565b60405180910390f35b34801561062857600080fd5b50610643600480360381019061063e919061246c565b611690565b6040516106509190612185565b60405180910390f35b34801561066557600080fd5b5061066e611987565b60405161067b91906121a0565b60405180910390f35b34801561069057600080fd5b506106ab60048036038101906106a69190612202565b611a24565b6040516106b891906121a0565b60405180910390f35b6106c9611a3c565b005b3480156106d757600080fd5b506106e0611d25565b6040516106ed91906121a0565b60405180910390f35b34801561070257600080fd5b5061071d60048036038101906107189190612202565b611d2b565b005b60007f87aba76b000000000000000000000000000000000000000000000000000000007bffffffffffffffffffffffffffffffffffffffffffffffffffffffff1916827bffffffffffffffffffffffffffffffffffffffffffffffffffffffff191614806107ea57507f01ffc9a7000000000000000000000000000000000000000000000000000000007bffffffffffffffffffffffffffffffffffffffffffffffffffffffff1916827bffffffffffffffffffffffffffffffffffffffffffffffffffffffff1916145b8061085257507fbc04f0af000000000000000000000000000000000000000000000000000000007bffffffffffffffffffffffffffffffffffffffffffffffffffffffff1916827bffffffffffffffffffffffffffffffffffffffffffffffffffffffff1916145b9050919050565b60025481565b60075481565b600b60009054906101000a900473ffffffffffffffffffffffffffffffffffffffff1681565b60095481565b600080600b60009054906101000a900473ffffffffffffffffffffffffffffffffffffffff1690508073ffffffffffffffffffffffffffffffffffffffff1663313ce5676040518163ffffffff1660e01b8152600401602060405180830381865afa158015610904573d6000803e3d6000fd5b505050506040513d601f19601f8201168201806040525081019061092891906124e5565b60ff1691505090565b600080600a60009054906101000a900473ffffffffffffffffffffffffffffffffffffffff16905060008173ffffffffffffffffffffffffffffffffffffffff1663a035b1fe6040518163ffffffff1660e01b8152600401602060405180830381865afa1580156109a6573d6000803e3d6000fd5b505050506040513d601f19601f820116820180604052508101906109ca9190612527565b905060006003546002546109de9190611e31565b905080826109ec9190611da8565b935050505090565b600a60009054906101000a900473ffffffffffffffffffffffffffffffffffffffff1681565b60085481565b60056020528060005260406000206000915090505481565b60606000600b60009054906101000a900473ffffffffffffffffffffffffffffffffffffffff1690508073ffffffffffffffffffffffffffffffffffffffff166395d89b416040518163ffffffff1660e01b8152600401600060405180830381865afa158015610aac573d6000803e3d6000fd5b505050506040513d6000823e3d601f19601f82011682018060405250810190610ad5919061267a565b91505090565b60008060006101000a81548160ff021916908315150217905550600060025460035483610b089190611da8565b610b129190611e31565b905081600460003373ffffffffffffffffffffffffffffffffffffffff1673ffffffffffffffffffffffffffffffffffffffff168152602001908152602001600020541115610b96576040517f08c379a0000000000000000000000000000000000000000000000000000000008152600401610b8d9061275b565b60405180910390fd5b8160025411610bda576040517f08c379a0000000000000000000000000000000000000000000000000000000008152600401610bd1906127ed565b60405180910390fd5b80600560003373ffffffffffffffffffffffffffffffffffffffff1673ffffffffffffffffffffffffffffffffffffffff168152602001908152602001600020541115610c5c576040517f08c379a0000000000000000000000000000000000000000000000000000000008152600401610c53906128a5565b60405180910390fd5b8060035411610ca0576040517f08c379a0000000000000000000000000000000000000000000000000000000008152600401610c9790612937565b60405180910390fd5b60003373ffffffffffffffffffffffffffffffffffffffff1683604051610cc690612988565b60006040518083038185875af1925050503d8060008114610d03576040519150601f19603f3d011682016040523d82523d6000602084013e610d08565b606091505b5050905080610d4c576040517f08c379a0000000000000000000000000000000000000000000000000000000008152600401610d4390612a0f565b60405180910390fd5b6000600b60009054906101000a900473ffffffffffffffffffffffffffffffffffffffff1690508073ffffffffffffffffffffffffffffffffffffffff1663095ea7b333856040518363ffffffff1660e01b8152600401610dae929190611fbd565b6020604051808303816000875af1158015610dcd573d6000803e3d6000fd5b505050506040513d601f19601f82011682018060405250810190610df19190612032565b610e30576040517f08c379a0000000000000000000000000000000000000000000000000000000008152600401610e27906120d1565b60405180910390fd5b82600560003373ffffffffffffffffffffffffffffffffffffffff1673ffffffffffffffffffffffffffffffffffffffff1681526020019081526020016000206000828254610e7f9190611e96565b9250508190555083600460003373ffffffffffffffffffffffffffffffffffffffff1673ffffffffffffffffffffffffffffffffffffffff1681526020019081526020016000206000828254610ed59190611e96565b925050819055508260026000828254610eee9190611e96565b925050819055508360036000828254610f079190611e96565b92505081905550600354600254610f1e9190611da8565b60018190555060016000806101000a81548160ff0219169083151502179055507f8866993f7c029be4215942b34c1545282b8f28836579f2687fe96a5a6bf7770460405160405180910390a150505050565b6000606080600080600080600080600080600080600b60009054906101000a900473ffffffffffffffffffffffffffffffffffffffff169050308173ffffffffffffffffffffffffffffffffffffffff166395d89b416040518163ffffffff1660e01b8152600401600060405180830381865afa158015610ff5573d6000803e3d6000fd5b505050506040513d6000823e3d601f19601f8201168201806040525081019061101e919061267a565b8273ffffffffffffffffffffffffffffffffffffffff166306fdde036040518163ffffffff1660e01b8152600401600060405180830381865afa158015611069573d6000803e3d6000fd5b505050506040513d6000823e3d601f19601f82011682018060405250810190611092919061267a565b600b60009054906101000a900473ffffffffffffffffffffffffffffffffffffffff166001546002546003546006546007548973ffffffffffffffffffffffffffffffffffffffff1663313ce5676040518163ffffffff1660e01b8152600401602060405180830381865afa15801561110f573d6000803e3d6000fd5b505050506040513d601f19601f8201168201806040525081019061113391906124e5565b6008546009548260ff1692509c509c509c509c509c509c509c509c509c509c509c509c5050909192939495969798999a9b565b60035481565b60008060006101000a81548160ff02191690831515021790555060001515600060019054906101000a900460ff161515146111dc576040517f08c379a00000000000000000000000000000000000000000000000000000000081526004016111d390612a7b565b60405180910390fd5b600060029054906101000a900473ffffffffffffffffffffffffffffffffffffffff1673ffffffffffffffffffffffffffffffffffffffff163373ffffffffffffffffffffffffffffffffffffffff161461126c576040517f08c379a000000000000000000000000000000000000000000000000000000000815260040161126390612b0d565b60405180910390fd5b600754600654106112b2576040517f08c379a00000000000000000000000000000000000000000000000000000000081526004016112a990612b9f565b60405180910390fd5b836006819055508260078190555081600b60006101000a81548173ffffffffffffffffffffffffffffffffffffffff021916908373ffffffffffffffffffffffffffffffffffffffff16021790555080600a60006101000a81548173ffffffffffffffffffffffffffffffffffffffff021916908373ffffffffffffffffffffffffffffffffffffffff1602179055503460028190555084600381905550600060025411611395576040517f08c379a000000000000000000000000000000000000000000000000000000000815260040161138c90612c31565b60405180910390fd5b6000600354116113da576040517f08c379a00000000000000000000000000000000000000000000000000000000081526004016113d190612cc3565b60405180910390fd5b6003546002546113ea9190611da8565b6001819055506000600b60009054906101000a900473ffffffffffffffffffffffffffffffffffffffff1690508073ffffffffffffffffffffffffffffffffffffffff166323b872dd33306003546040518463ffffffff1660e01b815260040161145693929190612ce3565b6020604051808303816000875af1158015611475573d6000803e3d6000fd5b505050506040513d601f19601f820116820180604052508101906114999190612032565b6114d8576040517f08c379a00000000000000000000000000000000000000000000000000000000081526004016114cf90612d8c565b60405180910390fd5b600254600460003373ffffffffffffffffffffffffffffffffffffffff1673ffffffffffffffffffffffffffffffffffffffff16815260200190815260200160002081905550600354600560003373ffffffffffffffffffffffffffffffffffffffff1673ffffffffffffffffffffffffffffffffffffffff168152602001908152602001600020819055506001600060016101000a81548160ff02191690831515021790555060016000806101000a81548160ff0219169083151502179055507f8866993f7c029be4215942b34c1545282b8f28836579f2687fe96a5a6bf7770460405160405180910390a1505050505050565b60015481565b600080600a60009054906101000a900473ffffffffffffffffffffffffffffffffffffffff16905060008173ffffffffffffffffffffffffffffffffffffffff1663a035b1fe6040518163ffffffff1660e01b8152600401602060405180830381865afa158015611648573d6000803e3d6000fd5b505050506040513d601f19601f8201168201806040525081019061166c9190612527565b90508060035460025461167f9190611e62565b6116899190611da8565b9250505090565b600080151560008054906101000a900460ff161515036116b35760019050611981565b60008290506000600b60009054906101000a900473ffffffffffffffffffffffffffffffffffffffff16905060008411611722576040517f08c379a000000000000000000000000000000000000000000000000000000000815260040161171990612c31565b60405180910390fd5b8073ffffffffffffffffffffffffffffffffffffffff166323b872dd8630876040518463ffffffff1660e01b815260040161175f93929190612ce3565b6020604051808303816000875af115801561177e573d6000803e3d6000fd5b505050506040513d601f19601f820116820180604052508101906117a29190612032565b6117e1576040517f08c379a00000000000000000000000000000000000000000000000000000000081526004016117d890612e44565b60405180910390fd5b6000600354600254846117f49190611da8565b6117fe9190611e31565b905080600260008282546118129190611e62565b92505081905550826003600082825461182b9190611e96565b925050819055506001546003546002546118459190611da8565b14611885576040517f08c379a000000000000000000000000000000000000000000000000000000000815260040161187c90612ed6565b60405180910390fd5b6000600754600654836118989190611da8565b6118a29190611e31565b905080826118b09190611e96565b915080600860008282546118c49190611e62565b9250508190555060008773ffffffffffffffffffffffffffffffffffffffff16836040516118f190612988565b60006040518083038185875af1925050503d806000811461192e576040519150601f19603f3d011682016040523d82523d6000602084013e611933565b606091505b5050905080611977576040517f08c379a000000000000000000000000000000000000000000000000000000000815260040161196e90612f68565b60405180910390fd5b6001955050505050505b92915050565b600080600a60009054906101000a900473ffffffffffffffffffffffffffffffffffffffff1690508073ffffffffffffffffffffffffffffffffffffffff1663a035b1fe6040518163ffffffff1660e01b8152600401602060405180830381865afa1580156119fa573d6000803e3d6000fd5b505050506040513d601f19601f82011682018060405250810190611a1e9190612527565b91505090565b60046020528060005260406000206000915090505481565b60008060006101000a81548160ff021916908315150217905550600034905060008111611a9e576040517f08c379a0000000000000000000000000000000000000000000000000000000008152600401611a9590612ffa565b60405180910390fd5b600060025460035483611ab19190611da8565b611abb9190611e31565b905060008111611b00576040517f08c379a0000000000000000000000000000000000000000000000000000000008152600401611af79061308c565b60405180910390fd5b6000600b60009054906101000a900473ffffffffffffffffffffffffffffffffffffffff1690508073ffffffffffffffffffffffffffffffffffffffff166323b872dd3330856040518463ffffffff1660e01b8152600401611b6493929190612ce3565b6020604051808303816000875af1158015611b83573d6000803e3d6000fd5b505050506040513d601f19601f82011682018060405250810190611ba79190612032565b611be6576040517f08c379a0000000000000000000000000000000000000000000000000000000008152600401611bdd90613144565b60405180910390fd5b8260026000828254611bf89190611e62565b925050819055508160036000828254611c119190611e62565b92505081905550600354600254611c289190611da8565b60018190555082600460003373ffffffffffffffffffffffffffffffffffffffff1673ffffffffffffffffffffffffffffffffffffffff1681526020019081526020016000206000828254611c7d9190611e62565b9250508190555081600560003373ffffffffffffffffffffffffffffffffffffffff1673ffffffffffffffffffffffffffffffffffffffff1681526020019081526020016000206000828254611cd39190611e62565b9250508190555060016000806101000a81548160ff0219169083151502179055507f8866993f7c029be4215942b34c1545282b8f28836579f2687fe96a5a6bf7770460405160405180910390a1505050565b60065481565b80600a60006101000a81548173ffffffffffffffffffffffffffffffffffffffff021916908373ffffffffffffffffffffffffffffffffffffffff16021790555050565b6000819050919050565b7f4e487b7100000000000000000000000000000000000000000000000000000000600052601160045260246000fd5b6000611db382611d6f565b9150611dbe83611d6f565b9250817fffffffffffffffffffffffffffffffffffffffffffffffffffffffffffffffff0483118215151615611df757611df6611d79565b5b828202905092915050565b7f4e487b7100000000000000000000000000000000000000000000000000000000600052601260045260246000fd5b6000611e3c82611d6f565b9150611e4783611d6f565b925082611e5757611e56611e02565b5b828204905092915050565b6000611e6d82611d6f565b9150611e7883611d6f565b9250828201905080821115611e9057611e8f611d79565b5b92915050565b6000611ea182611d6f565b9150611eac83611d6f565b9250828203905081811115611ec457611ec3611d79565b5b92915050565b600082825260208201905092915050565b7f496e646966666572656e636520637572766520776173206e6f74206d61696e7460008201527f61696e656421202d207265636569766528290000000000000000000000000000602082015250565b6000611f37603283611eca565b9150611f4282611edb565b604082019050919050565b60006020820190508181036000830152611f6681611f2a565b9050919050565b600073ffffffffffffffffffffffffffffffffffffffff82169050919050565b6000611f9882611f6d565b9050919050565b611fa881611f8d565b82525050565b611fb781611d6f565b82525050565b6000604082019050611fd26000830185611f9f565b611fdf6020830184611fae565b9392505050565b6000604051905090565b600080fd5b600080fd5b60008115159050919050565b61200f81611ffa565b811461201a57600080fd5b50565b60008151905061202c81612006565b92915050565b60006020828403121561204857612047611ff0565b5b60006120568482850161201d565b91505092915050565b7f547279696e6720746f20617070726f76652072657475726e206f6620746f6b6560008201527f6e202d2062757420726576657274656400000000000000000000000000000000602082015250565b60006120bb603083611eca565b91506120c68261205f565b604082019050919050565b600060208201905081810360008301526120ea816120ae565b9050919050565b60007fffffffff0000000000000000000000000000000000000000000000000000000082169050919050565b612126816120f1565b811461213157600080fd5b50565b6000813590506121438161211d565b92915050565b60006020828403121561215f5761215e611ff0565b5b600061216d84828501612134565b91505092915050565b61217f81611ffa565b82525050565b600060208201905061219a6000830184612176565b92915050565b60006020820190506121b56000830184611fae565b92915050565b60006020820190506121d06000830184611f9f565b92915050565b6121df81611f8d565b81146121ea57600080fd5b50565b6000813590506121fc816121d6565b92915050565b60006020828403121561221857612217611ff0565b5b6000612226848285016121ed565b91505092915050565b600081519050919050565b60005b8381101561225857808201518184015260208101905061223d565b60008484015250505050565b6000601f19601f8301169050919050565b60006122808261222f565b61228a8185611eca565b935061229a81856020860161223a565b6122a381612264565b840191505092915050565b600060208201905081810360008301526122c88184612275565b905092915050565b6122d981611d6f565b81146122e457600080fd5b50565b6000813590506122f6816122d0565b92915050565b60006020828403121561231257612311611ff0565b5b6000612320848285016122e7565b91505092915050565b60006101808201905061233f600083018f611f9f565b8181036020830152612351818e612275565b90508181036040830152612365818d612275565b9050612374606083018c611f9f565b612381608083018b611fae565b61238e60a083018a611fae565b61239b60c0830189611fae565b6123a860e0830188611fae565b6123b6610100830187611fae565b6123c4610120830186611fae565b6123d2610140830185611fae565b6123e0610160830184611fae565b9d9c50505050505050505050505050565b600080600080600060a0868803121561240d5761240c611ff0565b5b600061241b888289016122e7565b955050602061242c888289016122e7565b945050604061243d888289016122e7565b935050606061244e888289016121ed565b925050608061245f888289016121ed565b9150509295509295909350565b6000806040838503121561248357612482611ff0565b5b6000612491858286016121ed565b92505060206124a2858286016122e7565b9150509250929050565b600060ff82169050919050565b6124c2816124ac565b81146124cd57600080fd5b50565b6000815190506124df816124b9565b92915050565b6000602082840312156124fb576124fa611ff0565b5b6000612509848285016124d0565b91505092915050565b600081519050612521816122d0565b92915050565b60006020828403121561253d5761253c611ff0565b5b600061254b84828501612512565b91505092915050565b600080fd5b600080fd5b7f4e487b7100000000000000000000000000000000000000000000000000000000600052604160045260246000fd5b61259682612264565b810181811067ffffffffffffffff821117156125b5576125b461255e565b5b80604052505050565b60006125c8611fe6565b90506125d4828261258d565b919050565b600067ffffffffffffffff8211156125f4576125f361255e565b5b6125fd82612264565b9050602081019050919050565b600061261d612618846125d9565b6125be565b90508281526020810184848401111561263957612638612559565b5b61264484828561223a565b509392505050565b600082601f83011261266157612660612554565b5b815161267184826020860161260a565b91505092915050565b6000602082840312156126905761268f611ff0565b5b600082015167ffffffffffffffff8111156126ae576126ad611ff5565b5b6126ba8482850161264c565b91505092915050565b7f73656e64657220617474656d7074696e6720746f207769746864726177206d6f60008201527f7265206c6971756964697479207468616e20746865792068617665202845746860208201527f2900000000000000000000000000000000000000000000000000000000000000604082015250565b6000612745604183611eca565b9150612750826126c3565b606082019050919050565b6000602082019050818103600083015261277481612738565b9050919050565b7f63616e6e6f7420776974686472617720616c6c206c697175696469747920284560008201527f7468290000000000000000000000000000000000000000000000000000000000602082015250565b60006127d7602383611eca565b91506127e28261277b565b604082019050919050565b60006020820190508181036000830152612806816127ca565b9050919050565b7f73656e64657220617474656d7074696e6720746f207769746864726177206d6f60008201527f7265206c6971756964697479207468616e207468657920686176652028546f6b60208201527f656e290000000000000000000000000000000000000000000000000000000000604082015250565b600061288f604383611eca565b915061289a8261280d565b606082019050919050565b600060208201905081810360008301526128be81612882565b9050919050565b7f63616e6e6f7420776974686472617720616c6c206c697175696469747920285460008201527f6f6b656e29000000000000000000000000000000000000000000000000000000602082015250565b6000612921602583611eca565b915061292c826128c5565b604082019050919050565b6000602082019050818103600083015261295081612914565b9050919050565b600081905092915050565b50565b6000612972600083612957565b915061297d82612962565b600082019050919050565b600061299382612965565b9150819050919050565b7f72656d6f7665206c6971756964697479202d20657468207061796d656e74206460008201527f69646e277420776f726b00000000000000000000000000000000000000000000602082015250565b60006129f9602a83611eca565b9150612a048261299d565b604082019050919050565b60006020820190508181036000830152612a28816129ec565b9050919050565b7f43616e206f6e6c792063616c6c2063726561746520706f6f6c206f6e63652100600082015250565b6000612a65601f83611eca565b9150612a7082612a2f565b602082019050919050565b60006020820190508181036000830152612a9481612a58565b9050919050565b7f4f6e6c792074686520636f6e7472616374206465706c6f7965722063616e206360008201527f616c6c20746869732066756e6374696f6e2e0000000000000000000000000000602082015250565b6000612af7603283611eca565b9150612b0282612a9b565b604082019050919050565b60006020820190508181036000830152612b2681612aea565b9050919050565b7f43616e6e6f74206368617267652066656573206f662031303025206f7220686960008201527f6768657200000000000000000000000000000000000000000000000000000000602082015250565b6000612b89602483611eca565b9150612b9482612b2d565b604082019050919050565b60006020820190508181036000830152612bb881612b7c565b9050919050565b7f4d757374206465706f73697420706f73746976652065746820666f72206c697160008201527f7569646974790000000000000000000000000000000000000000000000000000602082015250565b6000612c1b602683611eca565b9150612c2682612bbf565b604082019050919050565b60006020820190508181036000830152612c4a81612c0e565b9050919050565b7f4d757374206465706f73697420706f736974766520746f6b656e20666f72206c60008201527f6971756964697479000000000000000000000000000000000000000000000000602082015250565b6000612cad602883611eca565b9150612cb882612c51565b604082019050919050565b60006020820190508181036000830152612cdc81612ca0565b9050919050565b6000606082019050612cf86000830186611f9f565b612d056020830185611f9f565b612d126040830184611fae565b949350505050565b7f7472616e7366657246726f6d207265766572746564202d206469642073656e6460008201527f65722063616c6c20617070726f766528293f0000000000000000000000000000602082015250565b6000612d76603283611eca565b9150612d8182612d1a565b604082019050919050565b60006020820190508181036000830152612da581612d69565b9050919050565b7f7472616e7366657246726f6d207265766572746564202d206469642073656e6460008201527f65722063616c6c20617070726f766528293f20466f7220636f7272656374206160208201527f6d6f756e743f0000000000000000000000000000000000000000000000000000604082015250565b6000612e2e604683611eca565b9150612e3982612dac565b606082019050919050565b60006020820190508181036000830152612e5d81612e21565b9050919050565b7f496e646966666572656e636520637572766520776173206e6f74206d61696e7460008201527f61696e656421202d206f6e455243323052656365697665642829000000000000602082015250565b6000612ec0603a83611eca565b9150612ecb82612e64565b604082019050919050565b60006020820190508181036000830152612eef81612eb3565b9050919050565b7f6f6e45524332305265636569766564202d20657468207061796d656e7420646960008201527f646e277420776f726b0000000000000000000000000000000000000000000000602082015250565b6000612f52602983611eca565b9150612f5d82612ef6565b604082019050919050565b60006020820190508181036000830152612f8181612f45565b9050919050565b7f4d7573742068617665206164646564206120706f73697469766520616d6f756e60008201527f74206f6620657468206c69717569646974790000000000000000000000000000602082015250565b6000612fe4603283611eca565b9150612fef82612f88565b604082019050919050565b6000602082019050818103600083015261301381612fd7565b9050919050565b7f6c69717569746964792062616c656e63696e6720636f6d7075746174696f6e2060008201527f697320696e636f72726563740000000000000000000000000000000000000000602082015250565b6000613076602c83611eca565b91506130818261301a565b604082019050919050565b600060208201905081810360008301526130a581613069565b9050919050565b7f7472616e7366657246726f6d207265766572746564202d206469642073656e6460008201527f65722063616c6c20617070726f766528293f207769746820617070726f70726960208201527f61746520616d6f756e743f000000000000000000000000000000000000000000604082015250565b600061312e604b83611eca565b9150613139826130ac565b606082019050919050565b6000602082019050818103600083015261315d81613121565b905091905056fea26469706673582212205041227bf2ecad9f3db5670493d31eb48f2cedac2111e34761a09342e53e727264736f6c63430008100033",
			"opcodes": "PUSH1 0x80 PUSH1 0x40 MSTORE PUSH1 0x1 PUSH1 0x0 DUP1 PUSH2 0x100 EXP DUP2 SLOAD DUP2 PUSH1 0xFF MUL NOT AND SWAP1 DUP4 ISZERO ISZERO MUL OR SWAP1 SSTORE POP PUSH1 0x0 DUP1 PUSH1 0x1 PUSH2 0x100 EXP DUP2 SLOAD DUP2 PUSH1 0xFF MUL NOT AND SWAP1 DUP4 ISZERO ISZERO MUL OR SWAP1 SSTORE POP CALLVALUE DUP1 ISZERO PUSH2 0x44 JUMPI PUSH1 0x0 DUP1 REVERT JUMPDEST POP CALLER PUSH1 0x0 PUSH1 0x2 PUSH2 0x100 EXP DUP2 SLOAD DUP2 PUSH20 0xFFFFFFFFFFFFFFFFFFFFFFFFFFFFFFFFFFFFFFFF MUL NOT AND SWAP1 DUP4 PUSH20 0xFFFFFFFFFFFFFFFFFFFFFFFFFFFFFFFFFFFFFFFF AND MUL OR SWAP1 SSTORE POP PUSH2 0x319A DUP1 PUSH2 0x95 PUSH1 0x0 CODECOPY PUSH1 0x0 RETURN INVALID PUSH1 0x80 PUSH1 0x40 MSTORE PUSH1 0x4 CALLDATASIZE LT PUSH2 0x144 JUMPI PUSH1 0x0 CALLDATALOAD PUSH1 0xE0 SHR DUP1 PUSH4 0x9C8F9F23 GT PUSH2 0xB6 JUMPI DUP1 PUSH4 0xBC04F0AF GT PUSH2 0x6F JUMPI DUP1 PUSH4 0xBC04F0AF EQ PUSH2 0x61C JUMPI DUP1 PUSH4 0xCA7C4DBA EQ PUSH2 0x659 JUMPI DUP1 PUSH4 0xD3C51D91 EQ PUSH2 0x684 JUMPI DUP1 PUSH4 0xE8078D94 EQ PUSH2 0x6C1 JUMPI DUP1 PUSH4 0xE86DEA4A EQ PUSH2 0x6CB JUMPI DUP1 PUSH4 0xFEFFE7E4 EQ PUSH2 0x6F6 JUMPI PUSH2 0x31E JUMP JUMPDEST DUP1 PUSH4 0x9C8F9F23 EQ PUSH2 0x520 JUMPI DUP1 PUSH4 0x9FED4AD8 EQ PUSH2 0x549 JUMPI DUP1 PUSH4 0xA56DFE4A EQ PUSH2 0x57F JUMPI DUP1 PUSH4 0xADD010A5 EQ PUSH2 0x5AA JUMPI DUP1 PUSH4 0xB4F40C61 EQ PUSH2 0x5C6 JUMPI DUP1 PUSH4 0xB7C56525 EQ PUSH2 0x5F1 JUMPI PUSH2 0x31E JUMP JUMPDEST DUP1 PUSH4 0x313CE567 GT PUSH2 0x108 JUMPI DUP1 PUSH4 0x313CE567 EQ PUSH2 0x40C JUMPI DUP1 PUSH4 0x4B94F50E EQ PUSH2 0x437 JUMPI DUP1 PUSH4 0x4F54A081 EQ PUSH2 0x462 JUMPI DUP1 PUSH4 0x5DFD8773 EQ PUSH2 0x48D JUMPI DUP1 PUSH4 0x8D729ABB EQ PUSH2 0x4B8 JUMPI DUP1 PUSH4 0x95D89B41 EQ PUSH2 0x4F5 JUMPI PUSH2 0x31E JUMP JUMPDEST DUP1 PUSH4 0x1FFC9A7 EQ PUSH2 0x323 JUMPI DUP1 PUSH4 0xC55699C EQ PUSH2 0x360 JUMPI DUP1 PUSH4 0x180B0D7E EQ PUSH2 0x38B JUMPI DUP1 PUSH4 0x276184AE EQ PUSH2 0x3B6 JUMPI DUP1 PUSH4 0x2BFDF307 EQ PUSH2 0x3E1 JUMPI PUSH2 0x31E JUMP JUMPDEST CALLDATASIZE PUSH2 0x31E JUMPI PUSH1 0x0 CALLVALUE SWAP1 POP PUSH1 0x0 PUSH1 0x2 SLOAD PUSH1 0x3 SLOAD DUP4 PUSH2 0x161 SWAP2 SWAP1 PUSH2 0x1DA8 JUMP JUMPDEST PUSH2 0x16B SWAP2 SWAP1 PUSH2 0x1E31 JUMP JUMPDEST SWAP1 POP DUP2 PUSH1 0x2 PUSH1 0x0 DUP3 DUP3 SLOAD PUSH2 0x17F SWAP2 SWAP1 PUSH2 0x1E62 JUMP JUMPDEST SWAP3 POP POP DUP2 SWAP1 SSTORE POP DUP1 PUSH1 0x3 PUSH1 0x0 DUP3 DUP3 SLOAD PUSH2 0x198 SWAP2 SWAP1 PUSH2 0x1E96 JUMP JUMPDEST SWAP3 POP POP DUP2 SWAP1 SSTORE POP PUSH1 0x1 SLOAD PUSH1 0x3 SLOAD PUSH1 0x2 SLOAD PUSH2 0x1B2 SWAP2 SWAP1 PUSH2 0x1DA8 JUMP JUMPDEST EQ PUSH2 0x1F2 JUMPI PUSH1 0x40 MLOAD PUSH32 0x8C379A000000000000000000000000000000000000000000000000000000000 DUP2 MSTORE PUSH1 0x4 ADD PUSH2 0x1E9 SWAP1 PUSH2 0x1F4D JUMP JUMPDEST PUSH1 0x40 MLOAD DUP1 SWAP2 SUB SWAP1 REVERT JUMPDEST PUSH1 0x0 PUSH1 0x7 SLOAD PUSH1 0x6 SLOAD DUP4 PUSH2 0x205 SWAP2 SWAP1 PUSH2 0x1DA8 JUMP JUMPDEST PUSH2 0x20F SWAP2 SWAP1 PUSH2 0x1E31 JUMP JUMPDEST SWAP1 POP DUP1 DUP3 PUSH2 0x21D SWAP2 SWAP1 PUSH2 0x1E96 JUMP JUMPDEST SWAP2 POP DUP1 PUSH1 0x9 PUSH1 0x0 DUP3 DUP3 SLOAD PUSH2 0x231 SWAP2 SWAP1 PUSH2 0x1E62 JUMP JUMPDEST SWAP3 POP POP DUP2 SWAP1 SSTORE POP PUSH1 0x0 PUSH1 0xB PUSH1 0x0 SWAP1 SLOAD SWAP1 PUSH2 0x100 EXP SWAP1 DIV PUSH20 0xFFFFFFFFFFFFFFFFFFFFFFFFFFFFFFFFFFFFFFFF AND SWAP1 POP DUP1 PUSH20 0xFFFFFFFFFFFFFFFFFFFFFFFFFFFFFFFFFFFFFFFF AND PUSH4 0x95EA7B3 CALLER DUP6 PUSH1 0x40 MLOAD DUP4 PUSH4 0xFFFFFFFF AND PUSH1 0xE0 SHL DUP2 MSTORE PUSH1 0x4 ADD PUSH2 0x29A SWAP3 SWAP2 SWAP1 PUSH2 0x1FBD JUMP JUMPDEST PUSH1 0x20 PUSH1 0x40 MLOAD DUP1 DUP4 SUB DUP2 PUSH1 0x0 DUP8 GAS CALL ISZERO DUP1 ISZERO PUSH2 0x2B9 JUMPI RETURNDATASIZE PUSH1 0x0 DUP1 RETURNDATACOPY RETURNDATASIZE PUSH1 0x0 REVERT JUMPDEST POP POP POP POP PUSH1 0x40 MLOAD RETURNDATASIZE PUSH1 0x1F NOT PUSH1 0x1F DUP3 ADD AND DUP3 ADD DUP1 PUSH1 0x40 MSTORE POP DUP2 ADD SWAP1 PUSH2 0x2DD SWAP2 SWAP1 PUSH2 0x2032 JUMP JUMPDEST PUSH2 0x31C JUMPI PUSH1 0x40 MLOAD PUSH32 0x8C379A000000000000000000000000000000000000000000000000000000000 DUP2 MSTORE PUSH1 0x4 ADD PUSH2 0x313 SWAP1 PUSH2 0x20D1 JUMP JUMPDEST PUSH1 0x40 MLOAD DUP1 SWAP2 SUB SWAP1 REVERT JUMPDEST STOP JUMPDEST PUSH1 0x0 DUP1 REVERT JUMPDEST CALLVALUE DUP1 ISZERO PUSH2 0x32F JUMPI PUSH1 0x0 DUP1 REVERT JUMPDEST POP PUSH2 0x34A PUSH1 0x4 DUP1 CALLDATASIZE SUB DUP2 ADD SWAP1 PUSH2 0x345 SWAP2 SWAP1 PUSH2 0x2149 JUMP JUMPDEST PUSH2 0x71F JUMP JUMPDEST PUSH1 0x40 MLOAD PUSH2 0x357 SWAP2 SWAP1 PUSH2 0x2185 JUMP JUMPDEST PUSH1 0x40 MLOAD DUP1 SWAP2 SUB SWAP1 RETURN JUMPDEST CALLVALUE DUP1 ISZERO PUSH2 0x36C JUMPI PUSH1 0x0 DUP1 REVERT JUMPDEST POP PUSH2 0x375 PUSH2 0x859 JUMP JUMPDEST PUSH1 0x40 MLOAD PUSH2 0x382 SWAP2 SWAP1 PUSH2 0x21A0 JUMP JUMPDEST PUSH1 0x40 MLOAD DUP1 SWAP2 SUB SWAP1 RETURN JUMPDEST CALLVALUE DUP1 ISZERO PUSH2 0x397 JUMPI PUSH1 0x0 DUP1 REVERT JUMPDEST POP PUSH2 0x3A0 PUSH2 0x85F JUMP JUMPDEST PUSH1 0x40 MLOAD PUSH2 0x3AD SWAP2 SWAP1 PUSH2 0x21A0 JUMP JUMPDEST PUSH1 0x40 MLOAD DUP1 SWAP2 SUB SWAP1 RETURN JUMPDEST CALLVALUE DUP1 ISZERO PUSH2 0x3C2 JUMPI PUSH1 0x0 DUP1 REVERT JUMPDEST POP PUSH2 0x3CB PUSH2 0x865 JUMP JUMPDEST PUSH1 0x40 MLOAD PUSH2 0x3D8 SWAP2 SWAP1 PUSH2 0x21BB JUMP JUMPDEST PUSH1 0x40 MLOAD DUP1 SWAP2 SUB SWAP1 RETURN JUMPDEST CALLVALUE DUP1 ISZERO PUSH2 0x3ED JUMPI PUSH1 0x0 DUP1 REVERT JUMPDEST POP PUSH2 0x3F6 PUSH2 0x88B JUMP JUMPDEST PUSH1 0x40 MLOAD PUSH2 0x403 SWAP2 SWAP1 PUSH2 0x21A0 JUMP JUMPDEST PUSH1 0x40 MLOAD DUP1 SWAP2 SUB SWAP1 RETURN JUMPDEST CALLVALUE DUP1 ISZERO PUSH2 0x418 JUMPI PUSH1 0x0 DUP1 REVERT JUMPDEST POP PUSH2 0x421 PUSH2 0x891 JUMP JUMPDEST PUSH1 0x40 MLOAD PUSH2 0x42E SWAP2 SWAP1 PUSH2 0x21A0 JUMP JUMPDEST PUSH1 0x40 MLOAD DUP1 SWAP2 SUB SWAP1 RETURN JUMPDEST CALLVALUE DUP1 ISZERO PUSH2 0x443 JUMPI PUSH1 0x0 DUP1 REVERT JUMPDEST POP PUSH2 0x44C PUSH2 0x931 JUMP JUMPDEST PUSH1 0x40 MLOAD PUSH2 0x459 SWAP2 SWAP1 PUSH2 0x21A0 JUMP JUMPDEST PUSH1 0x40 MLOAD DUP1 SWAP2 SUB SWAP1 RETURN JUMPDEST CALLVALUE DUP1 ISZERO PUSH2 0x46E JUMPI PUSH1 0x0 DUP1 REVERT JUMPDEST POP PUSH2 0x477 PUSH2 0x9F4 JUMP JUMPDEST PUSH1 0x40 MLOAD PUSH2 0x484 SWAP2 SWAP1 PUSH2 0x21BB JUMP JUMPDEST PUSH1 0x40 MLOAD DUP1 SWAP2 SUB SWAP1 RETURN JUMPDEST CALLVALUE DUP1 ISZERO PUSH2 0x499 JUMPI PUSH1 0x0 DUP1 REVERT JUMPDEST POP PUSH2 0x4A2 PUSH2 0xA1A JUMP JUMPDEST PUSH1 0x40 MLOAD PUSH2 0x4AF SWAP2 SWAP1 PUSH2 0x21A0 JUMP JUMPDEST PUSH1 0x40 MLOAD DUP1 SWAP2 SUB SWAP1 RETURN JUMPDEST CALLVALUE DUP1 ISZERO PUSH2 0x4C4 JUMPI PUSH1 0x0 DUP1 REVERT JUMPDEST POP PUSH2 0x4DF PUSH1 0x4 DUP1 CALLDATASIZE SUB DUP2 ADD SWAP1 PUSH2 0x4DA SWAP2 SWAP1 PUSH2 0x2202 JUMP JUMPDEST PUSH2 0xA20 JUMP JUMPDEST PUSH1 0x40 MLOAD PUSH2 0x4EC SWAP2 SWAP1 PUSH2 0x21A0 JUMP JUMPDEST PUSH1 0x40 MLOAD DUP1 SWAP2 SUB SWAP1 RETURN JUMPDEST CALLVALUE DUP1 ISZERO PUSH2 0x501 JUMPI PUSH1 0x0 DUP1 REVERT JUMPDEST POP PUSH2 0x50A PUSH2 0xA38 JUMP JUMPDEST PUSH1 0x40 MLOAD PUSH2 0x517 SWAP2 SWAP1 PUSH2 0x22AE JUMP JUMPDEST PUSH1 0x40 MLOAD DUP1 SWAP2 SUB SWAP1 RETURN JUMPDEST CALLVALUE DUP1 ISZERO PUSH2 0x52C JUMPI PUSH1 0x0 DUP1 REVERT JUMPDEST POP PUSH2 0x547 PUSH1 0x4 DUP1 CALLDATASIZE SUB DUP2 ADD SWAP1 PUSH2 0x542 SWAP2 SWAP1 PUSH2 0x22FC JUMP JUMPDEST PUSH2 0xADB JUMP JUMPDEST STOP JUMPDEST CALLVALUE DUP1 ISZERO PUSH2 0x555 JUMPI PUSH1 0x0 DUP1 REVERT JUMPDEST POP PUSH2 0x55E PUSH2 0xF70 JUMP JUMPDEST PUSH1 0x40 MLOAD PUSH2 0x576 SWAP13 SWAP12 SWAP11 SWAP10 SWAP9 SWAP8 SWAP7 SWAP6 SWAP5 SWAP4 SWAP3 SWAP2 SWAP1 PUSH2 0x2329 JUMP JUMPDEST PUSH1 0x40 MLOAD DUP1 SWAP2 SUB SWAP1 RETURN JUMPDEST CALLVALUE DUP1 ISZERO PUSH2 0x58B JUMPI PUSH1 0x0 DUP1 REVERT JUMPDEST POP PUSH2 0x594 PUSH2 0x1166 JUMP JUMPDEST PUSH1 0x40 MLOAD PUSH2 0x5A1 SWAP2 SWAP1 PUSH2 0x21A0 JUMP JUMPDEST PUSH1 0x40 MLOAD DUP1 SWAP2 SUB SWAP1 RETURN JUMPDEST PUSH2 0x5C4 PUSH1 0x4 DUP1 CALLDATASIZE SUB DUP2 ADD SWAP1 PUSH2 0x5BF SWAP2 SWAP1 PUSH2 0x23F1 JUMP JUMPDEST PUSH2 0x116C JUMP JUMPDEST STOP JUMPDEST CALLVALUE DUP1 ISZERO PUSH2 0x5D2 JUMPI PUSH1 0x0 DUP1 REVERT JUMPDEST POP PUSH2 0x5DB PUSH2 0x15CD JUMP JUMPDEST PUSH1 0x40 MLOAD PUSH2 0x5E8 SWAP2 SWAP1 PUSH2 0x21A0 JUMP JUMPDEST PUSH1 0x40 MLOAD DUP1 SWAP2 SUB SWAP1 RETURN JUMPDEST CALLVALUE DUP1 ISZERO PUSH2 0x5FD JUMPI PUSH1 0x0 DUP1 REVERT JUMPDEST POP PUSH2 0x606 PUSH2 0x15D3 JUMP JUMPDEST PUSH1 0x40 MLOAD PUSH2 0x613 SWAP2 SWAP1 PUSH2 0x21A0 JUMP JUMPDEST PUSH1 0x40 MLOAD DUP1 SWAP2 SUB SWAP1 RETURN JUMPDEST CALLVALUE DUP1 ISZERO PUSH2 0x628 JUMPI PUSH1 0x0 DUP1 REVERT JUMPDEST POP PUSH2 0x643 PUSH1 0x4 DUP1 CALLDATASIZE SUB DUP2 ADD SWAP1 PUSH2 0x63E SWAP2 SWAP1 PUSH2 0x246C JUMP JUMPDEST PUSH2 0x1690 JUMP JUMPDEST PUSH1 0x40 MLOAD PUSH2 0x650 SWAP2 SWAP1 PUSH2 0x2185 JUMP JUMPDEST PUSH1 0x40 MLOAD DUP1 SWAP2 SUB SWAP1 RETURN JUMPDEST CALLVALUE DUP1 ISZERO PUSH2 0x665 JUMPI PUSH1 0x0 DUP1 REVERT JUMPDEST POP PUSH2 0x66E PUSH2 0x1987 JUMP JUMPDEST PUSH1 0x40 MLOAD PUSH2 0x67B SWAP2 SWAP1 PUSH2 0x21A0 JUMP JUMPDEST PUSH1 0x40 MLOAD DUP1 SWAP2 SUB SWAP1 RETURN JUMPDEST CALLVALUE DUP1 ISZERO PUSH2 0x690 JUMPI PUSH1 0x0 DUP1 REVERT JUMPDEST POP PUSH2 0x6AB PUSH1 0x4 DUP1 CALLDATASIZE SUB DUP2 ADD SWAP1 PUSH2 0x6A6 SWAP2 SWAP1 PUSH2 0x2202 JUMP JUMPDEST PUSH2 0x1A24 JUMP JUMPDEST PUSH1 0x40 MLOAD PUSH2 0x6B8 SWAP2 SWAP1 PUSH2 0x21A0 JUMP JUMPDEST PUSH1 0x40 MLOAD DUP1 SWAP2 SUB SWAP1 RETURN JUMPDEST PUSH2 0x6C9 PUSH2 0x1A3C JUMP JUMPDEST STOP JUMPDEST CALLVALUE DUP1 ISZERO PUSH2 0x6D7 JUMPI PUSH1 0x0 DUP1 REVERT JUMPDEST POP PUSH2 0x6E0 PUSH2 0x1D25 JUMP JUMPDEST PUSH1 0x40 MLOAD PUSH2 0x6ED SWAP2 SWAP1 PUSH2 0x21A0 JUMP JUMPDEST PUSH1 0x40 MLOAD DUP1 SWAP2 SUB SWAP1 RETURN JUMPDEST CALLVALUE DUP1 ISZERO PUSH2 0x702 JUMPI PUSH1 0x0 DUP1 REVERT JUMPDEST POP PUSH2 0x71D PUSH1 0x4 DUP1 CALLDATASIZE SUB DUP2 ADD SWAP1 PUSH2 0x718 SWAP2 SWAP1 PUSH2 0x2202 JUMP JUMPDEST PUSH2 0x1D2B JUMP JUMPDEST STOP JUMPDEST PUSH1 0x0 PUSH32 0x87ABA76B00000000000000000000000000000000000000000000000000000000 PUSH28 0xFFFFFFFFFFFFFFFFFFFFFFFFFFFFFFFFFFFFFFFFFFFFFFFFFFFFFFFF NOT AND DUP3 PUSH28 0xFFFFFFFFFFFFFFFFFFFFFFFFFFFFFFFFFFFFFFFFFFFFFFFFFFFFFFFF NOT AND EQ DUP1 PUSH2 0x7EA JUMPI POP PUSH32 0x1FFC9A700000000000000000000000000000000000000000000000000000000 PUSH28 0xFFFFFFFFFFFFFFFFFFFFFFFFFFFFFFFFFFFFFFFFFFFFFFFFFFFFFFFF NOT AND DUP3 PUSH28 0xFFFFFFFFFFFFFFFFFFFFFFFFFFFFFFFFFFFFFFFFFFFFFFFFFFFFFFFF NOT AND EQ JUMPDEST DUP1 PUSH2 0x852 JUMPI POP PUSH32 0xBC04F0AF00000000000000000000000000000000000000000000000000000000 PUSH28 0xFFFFFFFFFFFFFFFFFFFFFFFFFFFFFFFFFFFFFFFFFFFFFFFFFFFFFFFF NOT AND DUP3 PUSH28 0xFFFFFFFFFFFFFFFFFFFFFFFFFFFFFFFFFFFFFFFFFFFFFFFFFFFFFFFF NOT AND EQ JUMPDEST SWAP1 POP SWAP2 SWAP1 POP JUMP JUMPDEST PUSH1 0x2 SLOAD DUP2 JUMP JUMPDEST PUSH1 0x7 SLOAD DUP2 JUMP JUMPDEST PUSH1 0xB PUSH1 0x0 SWAP1 SLOAD SWAP1 PUSH2 0x100 EXP SWAP1 DIV PUSH20 0xFFFFFFFFFFFFFFFFFFFFFFFFFFFFFFFFFFFFFFFF AND DUP2 JUMP JUMPDEST PUSH1 0x9 SLOAD DUP2 JUMP JUMPDEST PUSH1 0x0 DUP1 PUSH1 0xB PUSH1 0x0 SWAP1 SLOAD SWAP1 PUSH2 0x100 EXP SWAP1 DIV PUSH20 0xFFFFFFFFFFFFFFFFFFFFFFFFFFFFFFFFFFFFFFFF AND SWAP1 POP DUP1 PUSH20 0xFFFFFFFFFFFFFFFFFFFFFFFFFFFFFFFFFFFFFFFF AND PUSH4 0x313CE567 PUSH1 0x40 MLOAD DUP2 PUSH4 0xFFFFFFFF AND PUSH1 0xE0 SHL DUP2 MSTORE PUSH1 0x4 ADD PUSH1 0x20 PUSH1 0x40 MLOAD DUP1 DUP4 SUB DUP2 DUP7 GAS STATICCALL ISZERO DUP1 ISZERO PUSH2 0x904 JUMPI RETURNDATASIZE PUSH1 0x0 DUP1 RETURNDATACOPY RETURNDATASIZE PUSH1 0x0 REVERT JUMPDEST POP POP POP POP PUSH1 0x40 MLOAD RETURNDATASIZE PUSH1 0x1F NOT PUSH1 0x1F DUP3 ADD AND DUP3 ADD DUP1 PUSH1 0x40 MSTORE POP DUP2 ADD SWAP1 PUSH2 0x928 SWAP2 SWAP1 PUSH2 0x24E5 JUMP JUMPDEST PUSH1 0xFF AND SWAP2 POP POP SWAP1 JUMP JUMPDEST PUSH1 0x0 DUP1 PUSH1 0xA PUSH1 0x0 SWAP1 SLOAD SWAP1 PUSH2 0x100 EXP SWAP1 DIV PUSH20 0xFFFFFFFFFFFFFFFFFFFFFFFFFFFFFFFFFFFFFFFF AND SWAP1 POP PUSH1 0x0 DUP2 PUSH20 0xFFFFFFFFFFFFFFFFFFFFFFFFFFFFFFFFFFFFFFFF AND PUSH4 0xA035B1FE PUSH1 0x40 MLOAD DUP2 PUSH4 0xFFFFFFFF AND PUSH1 0xE0 SHL DUP2 MSTORE PUSH1 0x4 ADD PUSH1 0x20 PUSH1 0x40 MLOAD DUP1 DUP4 SUB DUP2 DUP7 GAS STATICCALL ISZERO DUP1 ISZERO PUSH2 0x9A6 JUMPI RETURNDATASIZE PUSH1 0x0 DUP1 RETURNDATACOPY RETURNDATASIZE PUSH1 0x0 REVERT JUMPDEST POP POP POP POP PUSH1 0x40 MLOAD RETURNDATASIZE PUSH1 0x1F NOT PUSH1 0x1F DUP3 ADD AND DUP3 ADD DUP1 PUSH1 0x40 MSTORE POP DUP2 ADD SWAP1 PUSH2 0x9CA SWAP2 SWAP1 PUSH2 0x2527 JUMP JUMPDEST SWAP1 POP PUSH1 0x0 PUSH1 0x3 SLOAD PUSH1 0x2 SLOAD PUSH2 0x9DE SWAP2 SWAP1 PUSH2 0x1E31 JUMP JUMPDEST SWAP1 POP DUP1 DUP3 PUSH2 0x9EC SWAP2 SWAP1 PUSH2 0x1DA8 JUMP JUMPDEST SWAP4 POP POP POP POP SWAP1 JUMP JUMPDEST PUSH1 0xA PUSH1 0x0 SWAP1 SLOAD SWAP1 PUSH2 0x100 EXP SWAP1 DIV PUSH20 0xFFFFFFFFFFFFFFFFFFFFFFFFFFFFFFFFFFFFFFFF AND DUP2 JUMP JUMPDEST PUSH1 0x8 SLOAD DUP2 JUMP JUMPDEST PUSH1 0x5 PUSH1 0x20 MSTORE DUP1 PUSH1 0x0 MSTORE PUSH1 0x40 PUSH1 0x0 KECCAK256 PUSH1 0x0 SWAP2 POP SWAP1 POP SLOAD DUP2 JUMP JUMPDEST PUSH1 0x60 PUSH1 0x0 PUSH1 0xB PUSH1 0x0 SWAP1 SLOAD SWAP1 PUSH2 0x100 EXP SWAP1 DIV PUSH20 0xFFFFFFFFFFFFFFFFFFFFFFFFFFFFFFFFFFFFFFFF AND SWAP1 POP DUP1 PUSH20 0xFFFFFFFFFFFFFFFFFFFFFFFFFFFFFFFFFFFFFFFF AND PUSH4 0x95D89B41 PUSH1 0x40 MLOAD DUP2 PUSH4 0xFFFFFFFF AND PUSH1 0xE0 SHL DUP2 MSTORE PUSH1 0x4 ADD PUSH1 0x0 PUSH1 0x40 MLOAD DUP1 DUP4 SUB DUP2 DUP7 GAS STATICCALL ISZERO DUP1 ISZERO PUSH2 0xAAC JUMPI RETURNDATASIZE PUSH1 0x0 DUP1 RETURNDATACOPY RETURNDATASIZE PUSH1 0x0 REVERT JUMPDEST POP POP POP POP PUSH1 0x40 MLOAD RETURNDATASIZE PUSH1 0x0 DUP3 RETURNDATACOPY RETURNDATASIZE PUSH1 0x1F NOT PUSH1 0x1F DUP3 ADD AND DUP3 ADD DUP1 PUSH1 0x40 MSTORE POP DUP2 ADD SWAP1 PUSH2 0xAD5 SWAP2 SWAP1 PUSH2 0x267A JUMP JUMPDEST SWAP2 POP POP SWAP1 JUMP JUMPDEST PUSH1 0x0 DUP1 PUSH1 0x0 PUSH2 0x100 EXP DUP2 SLOAD DUP2 PUSH1 0xFF MUL NOT AND SWAP1 DUP4 ISZERO ISZERO MUL OR SWAP1 SSTORE POP PUSH1 0x0 PUSH1 0x2 SLOAD PUSH1 0x3 SLOAD DUP4 PUSH2 0xB08 SWAP2 SWAP1 PUSH2 0x1DA8 JUMP JUMPDEST PUSH2 0xB12 SWAP2 SWAP1 PUSH2 0x1E31 JUMP JUMPDEST SWAP1 POP DUP2 PUSH1 0x4 PUSH1 0x0 CALLER PUSH20 0xFFFFFFFFFFFFFFFFFFFFFFFFFFFFFFFFFFFFFFFF AND PUSH20 0xFFFFFFFFFFFFFFFFFFFFFFFFFFFFFFFFFFFFFFFF AND DUP2 MSTORE PUSH1 0x20 ADD SWAP1 DUP2 MSTORE PUSH1 0x20 ADD PUSH1 0x0 KECCAK256 SLOAD GT ISZERO PUSH2 0xB96 JUMPI PUSH1 0x40 MLOAD PUSH32 0x8C379A000000000000000000000000000000000000000000000000000000000 DUP2 MSTORE PUSH1 0x4 ADD PUSH2 0xB8D SWAP1 PUSH2 0x275B JUMP JUMPDEST PUSH1 0x40 MLOAD DUP1 SWAP2 SUB SWAP1 REVERT JUMPDEST DUP2 PUSH1 0x2 SLOAD GT PUSH2 0xBDA JUMPI PUSH1 0x40 MLOAD PUSH32 0x8C379A000000000000000000000000000000000000000000000000000000000 DUP2 MSTORE PUSH1 0x4 ADD PUSH2 0xBD1 SWAP1 PUSH2 0x27ED JUMP JUMPDEST PUSH1 0x40 MLOAD DUP1 SWAP2 SUB SWAP1 REVERT JUMPDEST DUP1 PUSH1 0x5 PUSH1 0x0 CALLER PUSH20 0xFFFFFFFFFFFFFFFFFFFFFFFFFFFFFFFFFFFFFFFF AND PUSH20 0xFFFFFFFFFFFFFFFFFFFFFFFFFFFFFFFFFFFFFFFF AND DUP2 MSTORE PUSH1 0x20 ADD SWAP1 DUP2 MSTORE PUSH1 0x20 ADD PUSH1 0x0 KECCAK256 SLOAD GT ISZERO PUSH2 0xC5C JUMPI PUSH1 0x40 MLOAD PUSH32 0x8C379A000000000000000000000000000000000000000000000000000000000 DUP2 MSTORE PUSH1 0x4 ADD PUSH2 0xC53 SWAP1 PUSH2 0x28A5 JUMP JUMPDEST PUSH1 0x40 MLOAD DUP1 SWAP2 SUB SWAP1 REVERT JUMPDEST DUP1 PUSH1 0x3 SLOAD GT PUSH2 0xCA0 JUMPI PUSH1 0x40 MLOAD PUSH32 0x8C379A000000000000000000000000000000000000000000000000000000000 DUP2 MSTORE PUSH1 0x4 ADD PUSH2 0xC97 SWAP1 PUSH2 0x2937 JUMP JUMPDEST PUSH1 0x40 MLOAD DUP1 SWAP2 SUB SWAP1 REVERT JUMPDEST PUSH1 0x0 CALLER PUSH20 0xFFFFFFFFFFFFFFFFFFFFFFFFFFFFFFFFFFFFFFFF AND DUP4 PUSH1 0x40 MLOAD PUSH2 0xCC6 SWAP1 PUSH2 0x2988 JUMP JUMPDEST PUSH1 0x0 PUSH1 0x40 MLOAD DUP1 DUP4 SUB DUP2 DUP6 DUP8 GAS CALL SWAP3 POP POP POP RETURNDATASIZE DUP1 PUSH1 0x0 DUP2 EQ PUSH2 0xD03 JUMPI PUSH1 0x40 MLOAD SWAP2 POP PUSH1 0x1F NOT PUSH1 0x3F RETURNDATASIZE ADD AND DUP3 ADD PUSH1 0x40 MSTORE RETURNDATASIZE DUP3 MSTORE RETURNDATASIZE PUSH1 0x0 PUSH1 0x20 DUP5 ADD RETURNDATACOPY PUSH2 0xD08 JUMP JUMPDEST PUSH1 0x60 SWAP2 POP JUMPDEST POP POP SWAP1 POP DUP1 PUSH2 0xD4C JUMPI PUSH1 0x40 MLOAD PUSH32 0x8C379A000000000000000000000000000000000000000000000000000000000 DUP2 MSTORE PUSH1 0x4 ADD PUSH2 0xD43 SWAP1 PUSH2 0x2A0F JUMP JUMPDEST PUSH1 0x40 MLOAD DUP1 SWAP2 SUB SWAP1 REVERT JUMPDEST PUSH1 0x0 PUSH1 0xB PUSH1 0x0 SWAP1 SLOAD SWAP1 PUSH2 0x100 EXP SWAP1 DIV PUSH20 0xFFFFFFFFFFFFFFFFFFFFFFFFFFFFFFFFFFFFFFFF AND SWAP1 POP DUP1 PUSH20 0xFFFFFFFFFFFFFFFFFFFFFFFFFFFFFFFFFFFFFFFF AND PUSH4 0x95EA7B3 CALLER DUP6 PUSH1 0x40 MLOAD DUP4 PUSH4 0xFFFFFFFF AND PUSH1 0xE0 SHL DUP2 MSTORE PUSH1 0x4 ADD PUSH2 0xDAE SWAP3 SWAP2 SWAP1 PUSH2 0x1FBD JUMP JUMPDEST PUSH1 0x20 PUSH1 0x40 MLOAD DUP1 DUP4 SUB DUP2 PUSH1 0x0 DUP8 GAS CALL ISZERO DUP1 ISZERO PUSH2 0xDCD JUMPI RETURNDATASIZE PUSH1 0x0 DUP1 RETURNDATACOPY RETURNDATASIZE PUSH1 0x0 REVERT JUMPDEST POP POP POP POP PUSH1 0x40 MLOAD RETURNDATASIZE PUSH1 0x1F NOT PUSH1 0x1F DUP3 ADD AND DUP3 ADD DUP1 PUSH1 0x40 MSTORE POP DUP2 ADD SWAP1 PUSH2 0xDF1 SWAP2 SWAP1 PUSH2 0x2032 JUMP JUMPDEST PUSH2 0xE30 JUMPI PUSH1 0x40 MLOAD PUSH32 0x8C379A000000000000000000000000000000000000000000000000000000000 DUP2 MSTORE PUSH1 0x4 ADD PUSH2 0xE27 SWAP1 PUSH2 0x20D1 JUMP JUMPDEST PUSH1 0x40 MLOAD DUP1 SWAP2 SUB SWAP1 REVERT JUMPDEST DUP3 PUSH1 0x5 PUSH1 0x0 CALLER PUSH20 0xFFFFFFFFFFFFFFFFFFFFFFFFFFFFFFFFFFFFFFFF AND PUSH20 0xFFFFFFFFFFFFFFFFFFFFFFFFFFFFFFFFFFFFFFFF AND DUP2 MSTORE PUSH1 0x20 ADD SWAP1 DUP2 MSTORE PUSH1 0x20 ADD PUSH1 0x0 KECCAK256 PUSH1 0x0 DUP3 DUP3 SLOAD PUSH2 0xE7F SWAP2 SWAP1 PUSH2 0x1E96 JUMP JUMPDEST SWAP3 POP POP DUP2 SWAP1 SSTORE POP DUP4 PUSH1 0x4 PUSH1 0x0 CALLER PUSH20 0xFFFFFFFFFFFFFFFFFFFFFFFFFFFFFFFFFFFFFFFF AND PUSH20 0xFFFFFFFFFFFFFFFFFFFFFFFFFFFFFFFFFFFFFFFF AND DUP2 MSTORE PUSH1 0x20 ADD SWAP1 DUP2 MSTORE PUSH1 0x20 ADD PUSH1 0x0 KECCAK256 PUSH1 0x0 DUP3 DUP3 SLOAD PUSH2 0xED5 SWAP2 SWAP1 PUSH2 0x1E96 JUMP JUMPDEST SWAP3 POP POP DUP2 SWAP1 SSTORE POP DUP3 PUSH1 0x2 PUSH1 0x0 DUP3 DUP3 SLOAD PUSH2 0xEEE SWAP2 SWAP1 PUSH2 0x1E96 JUMP JUMPDEST SWAP3 POP POP DUP2 SWAP1 SSTORE POP DUP4 PUSH1 0x3 PUSH1 0x0 DUP3 DUP3 SLOAD PUSH2 0xF07 SWAP2 SWAP1 PUSH2 0x1E96 JUMP JUMPDEST SWAP3 POP POP DUP2 SWAP1 SSTORE POP PUSH1 0x3 SLOAD PUSH1 0x2 SLOAD PUSH2 0xF1E SWAP2 SWAP1 PUSH2 0x1DA8 JUMP JUMPDEST PUSH1 0x1 DUP2 SWAP1 SSTORE POP PUSH1 0x1 PUSH1 0x0 DUP1 PUSH2 0x100 EXP DUP2 SLOAD DUP2 PUSH1 0xFF MUL NOT AND SWAP1 DUP4 ISZERO ISZERO MUL OR SWAP1 SSTORE POP PUSH32 0x8866993F7C029BE4215942B34C1545282B8F28836579F2687FE96A5A6BF77704 PUSH1 0x40 MLOAD PUSH1 0x40 MLOAD DUP1 SWAP2 SUB SWAP1 LOG1 POP POP POP POP JUMP JUMPDEST PUSH1 0x0 PUSH1 0x60 DUP1 PUSH1 0x0 DUP1 PUSH1 0x0 DUP1 PUSH1 0x0 DUP1 PUSH1 0x0 DUP1 PUSH1 0x0 DUP1 PUSH1 0xB PUSH1 0x0 SWAP1 SLOAD SWAP1 PUSH2 0x100 EXP SWAP1 DIV PUSH20 0xFFFFFFFFFFFFFFFFFFFFFFFFFFFFFFFFFFFFFFFF AND SWAP1 POP ADDRESS DUP2 PUSH20 0xFFFFFFFFFFFFFFFFFFFFFFFFFFFFFFFFFFFFFFFF AND PUSH4 0x95D89B41 PUSH1 0x40 MLOAD DUP2 PUSH4 0xFFFFFFFF AND PUSH1 0xE0 SHL DUP2 MSTORE PUSH1 0x4 ADD PUSH1 0x0 PUSH1 0x40 MLOAD DUP1 DUP4 SUB DUP2 DUP7 GAS STATICCALL ISZERO DUP1 ISZERO PUSH2 0xFF5 JUMPI RETURNDATASIZE PUSH1 0x0 DUP1 RETURNDATACOPY RETURNDATASIZE PUSH1 0x0 REVERT JUMPDEST POP POP POP POP PUSH1 0x40 MLOAD RETURNDATASIZE PUSH1 0x0 DUP3 RETURNDATACOPY RETURNDATASIZE PUSH1 0x1F NOT PUSH1 0x1F DUP3 ADD AND DUP3 ADD DUP1 PUSH1 0x40 MSTORE POP DUP2 ADD SWAP1 PUSH2 0x101E SWAP2 SWAP1 PUSH2 0x267A JUMP JUMPDEST DUP3 PUSH20 0xFFFFFFFFFFFFFFFFFFFFFFFFFFFFFFFFFFFFFFFF AND PUSH4 0x6FDDE03 PUSH1 0x40 MLOAD DUP2 PUSH4 0xFFFFFFFF AND PUSH1 0xE0 SHL DUP2 MSTORE PUSH1 0x4 ADD PUSH1 0x0 PUSH1 0x40 MLOAD DUP1 DUP4 SUB DUP2 DUP7 GAS STATICCALL ISZERO DUP1 ISZERO PUSH2 0x1069 JUMPI RETURNDATASIZE PUSH1 0x0 DUP1 RETURNDATACOPY RETURNDATASIZE PUSH1 0x0 REVERT JUMPDEST POP POP POP POP PUSH1 0x40 MLOAD RETURNDATASIZE PUSH1 0x0 DUP3 RETURNDATACOPY RETURNDATASIZE PUSH1 0x1F NOT PUSH1 0x1F DUP3 ADD AND DUP3 ADD DUP1 PUSH1 0x40 MSTORE POP DUP2 ADD SWAP1 PUSH2 0x1092 SWAP2 SWAP1 PUSH2 0x267A JUMP JUMPDEST PUSH1 0xB PUSH1 0x0 SWAP1 SLOAD SWAP1 PUSH2 0x100 EXP SWAP1 DIV PUSH20 0xFFFFFFFFFFFFFFFFFFFFFFFFFFFFFFFFFFFFFFFF AND PUSH1 0x1 SLOAD PUSH1 0x2 SLOAD PUSH1 0x3 SLOAD PUSH1 0x6 SLOAD PUSH1 0x7 SLOAD DUP10 PUSH20 0xFFFFFFFFFFFFFFFFFFFFFFFFFFFFFFFFFFFFFFFF AND PUSH4 0x313CE567 PUSH1 0x40 MLOAD DUP2 PUSH4 0xFFFFFFFF AND PUSH1 0xE0 SHL DUP2 MSTORE PUSH1 0x4 ADD PUSH1 0x20 PUSH1 0x40 MLOAD DUP1 DUP4 SUB DUP2 DUP7 GAS STATICCALL ISZERO DUP1 ISZERO PUSH2 0x110F JUMPI RETURNDATASIZE PUSH1 0x0 DUP1 RETURNDATACOPY RETURNDATASIZE PUSH1 0x0 REVERT JUMPDEST POP POP POP POP PUSH1 0x40 MLOAD RETURNDATASIZE PUSH1 0x1F NOT PUSH1 0x1F DUP3 ADD AND DUP3 ADD DUP1 PUSH1 0x40 MSTORE POP DUP2 ADD SWAP1 PUSH2 0x1133 SWAP2 SWAP1 PUSH2 0x24E5 JUMP JUMPDEST PUSH1 0x8 SLOAD PUSH1 0x9 SLOAD DUP3 PUSH1 0xFF AND SWAP3 POP SWAP13 POP SWAP13 POP SWAP13 POP SWAP13 POP SWAP13 POP SWAP13 POP SWAP13 POP SWAP13 POP SWAP13 POP SWAP13 POP SWAP13 POP SWAP13 POP POP SWAP1 SWAP2 SWAP3 SWAP4 SWAP5 SWAP6 SWAP7 SWAP8 SWAP9 SWAP10 SWAP11 SWAP12 JUMP JUMPDEST PUSH1 0x3 SLOAD DUP2 JUMP JUMPDEST PUSH1 0x0 DUP1 PUSH1 0x0 PUSH2 0x100 EXP DUP2 SLOAD DUP2 PUSH1 0xFF MUL NOT AND SWAP1 DUP4 ISZERO ISZERO MUL OR SWAP1 SSTORE POP PUSH1 0x0 ISZERO ISZERO PUSH1 0x0 PUSH1 0x1 SWAP1 SLOAD SWAP1 PUSH2 0x100 EXP SWAP1 DIV PUSH1 0xFF AND ISZERO ISZERO EQ PUSH2 0x11DC JUMPI PUSH1 0x40 MLOAD PUSH32 0x8C379A000000000000000000000000000000000000000000000000000000000 DUP2 MSTORE PUSH1 0x4 ADD PUSH2 0x11D3 SWAP1 PUSH2 0x2A7B JUMP JUMPDEST PUSH1 0x40 MLOAD DUP1 SWAP2 SUB SWAP1 REVERT JUMPDEST PUSH1 0x0 PUSH1 0x2 SWAP1 SLOAD SWAP1 PUSH2 0x100 EXP SWAP1 DIV PUSH20 0xFFFFFFFFFFFFFFFFFFFFFFFFFFFFFFFFFFFFFFFF AND PUSH20 0xFFFFFFFFFFFFFFFFFFFFFFFFFFFFFFFFFFFFFFFF AND CALLER PUSH20 0xFFFFFFFFFFFFFFFFFFFFFFFFFFFFFFFFFFFFFFFF AND EQ PUSH2 0x126C JUMPI PUSH1 0x40 MLOAD PUSH32 0x8C379A000000000000000000000000000000000000000000000000000000000 DUP2 MSTORE PUSH1 0x4 ADD PUSH2 0x1263 SWAP1 PUSH2 0x2B0D JUMP JUMPDEST PUSH1 0x40 MLOAD DUP1 SWAP2 SUB SWAP1 REVERT JUMPDEST PUSH1 0x7 SLOAD PUSH1 0x6 SLOAD LT PUSH2 0x12B2 JUMPI PUSH1 0x40 MLOAD PUSH32 0x8C379A000000000000000000000000000000000000000000000000000000000 DUP2 MSTORE PUSH1 0x4 ADD PUSH2 0x12A9 SWAP1 PUSH2 0x2B9F JUMP JUMPDEST PUSH1 0x40 MLOAD DUP1 SWAP2 SUB SWAP1 REVERT JUMPDEST DUP4 PUSH1 0x6 DUP2 SWAP1 SSTORE POP DUP3 PUSH1 0x7 DUP2 SWAP1 SSTORE POP DUP2 PUSH1 0xB PUSH1 0x0 PUSH2 0x100 EXP DUP2 SLOAD DUP2 PUSH20 0xFFFFFFFFFFFFFFFFFFFFFFFFFFFFFFFFFFFFFFFF MUL NOT AND SWAP1 DUP4 PUSH20 0xFFFFFFFFFFFFFFFFFFFFFFFFFFFFFFFFFFFFFFFF AND MUL OR SWAP1 SSTORE POP DUP1 PUSH1 0xA PUSH1 0x0 PUSH2 0x100 EXP DUP2 SLOAD DUP2 PUSH20 0xFFFFFFFFFFFFFFFFFFFFFFFFFFFFFFFFFFFFFFFF MUL NOT AND SWAP1 DUP4 PUSH20 0xFFFFFFFFFFFFFFFFFFFFFFFFFFFFFFFFFFFFFFFF AND MUL OR SWAP1 SSTORE POP CALLVALUE PUSH1 0x2 DUP2 SWAP1 SSTORE POP DUP5 PUSH1 0x3 DUP2 SWAP1 SSTORE POP PUSH1 0x0 PUSH1 0x2 SLOAD GT PUSH2 0x1395 JUMPI PUSH1 0x40 MLOAD PUSH32 0x8C379A000000000000000000000000000000000000000000000000000000000 DUP2 MSTORE PUSH1 0x4 ADD PUSH2 0x138C SWAP1 PUSH2 0x2C31 JUMP JUMPDEST PUSH1 0x40 MLOAD DUP1 SWAP2 SUB SWAP1 REVERT JUMPDEST PUSH1 0x0 PUSH1 0x3 SLOAD GT PUSH2 0x13DA JUMPI PUSH1 0x40 MLOAD PUSH32 0x8C379A000000000000000000000000000000000000000000000000000000000 DUP2 MSTORE PUSH1 0x4 ADD PUSH2 0x13D1 SWAP1 PUSH2 0x2CC3 JUMP JUMPDEST PUSH1 0x40 MLOAD DUP1 SWAP2 SUB SWAP1 REVERT JUMPDEST PUSH1 0x3 SLOAD PUSH1 0x2 SLOAD PUSH2 0x13EA SWAP2 SWAP1 PUSH2 0x1DA8 JUMP JUMPDEST PUSH1 0x1 DUP2 SWAP1 SSTORE POP PUSH1 0x0 PUSH1 0xB PUSH1 0x0 SWAP1 SLOAD SWAP1 PUSH2 0x100 EXP SWAP1 DIV PUSH20 0xFFFFFFFFFFFFFFFFFFFFFFFFFFFFFFFFFFFFFFFF AND SWAP1 POP DUP1 PUSH20 0xFFFFFFFFFFFFFFFFFFFFFFFFFFFFFFFFFFFFFFFF AND PUSH4 0x23B872DD CALLER ADDRESS PUSH1 0x3 SLOAD PUSH1 0x40 MLOAD DUP5 PUSH4 0xFFFFFFFF AND PUSH1 0xE0 SHL DUP2 MSTORE PUSH1 0x4 ADD PUSH2 0x1456 SWAP4 SWAP3 SWAP2 SWAP1 PUSH2 0x2CE3 JUMP JUMPDEST PUSH1 0x20 PUSH1 0x40 MLOAD DUP1 DUP4 SUB DUP2 PUSH1 0x0 DUP8 GAS CALL ISZERO DUP1 ISZERO PUSH2 0x1475 JUMPI RETURNDATASIZE PUSH1 0x0 DUP1 RETURNDATACOPY RETURNDATASIZE PUSH1 0x0 REVERT JUMPDEST POP POP POP POP PUSH1 0x40 MLOAD RETURNDATASIZE PUSH1 0x1F NOT PUSH1 0x1F DUP3 ADD AND DUP3 ADD DUP1 PUSH1 0x40 MSTORE POP DUP2 ADD SWAP1 PUSH2 0x1499 SWAP2 SWAP1 PUSH2 0x2032 JUMP JUMPDEST PUSH2 0x14D8 JUMPI PUSH1 0x40 MLOAD PUSH32 0x8C379A000000000000000000000000000000000000000000000000000000000 DUP2 MSTORE PUSH1 0x4 ADD PUSH2 0x14CF SWAP1 PUSH2 0x2D8C JUMP JUMPDEST PUSH1 0x40 MLOAD DUP1 SWAP2 SUB SWAP1 REVERT JUMPDEST PUSH1 0x2 SLOAD PUSH1 0x4 PUSH1 0x0 CALLER PUSH20 0xFFFFFFFFFFFFFFFFFFFFFFFFFFFFFFFFFFFFFFFF AND PUSH20 0xFFFFFFFFFFFFFFFFFFFFFFFFFFFFFFFFFFFFFFFF AND DUP2 MSTORE PUSH1 0x20 ADD SWAP1 DUP2 MSTORE PUSH1 0x20 ADD PUSH1 0x0 KECCAK256 DUP2 SWAP1 SSTORE POP PUSH1 0x3 SLOAD PUSH1 0x5 PUSH1 0x0 CALLER PUSH20 0xFFFFFFFFFFFFFFFFFFFFFFFFFFFFFFFFFFFFFFFF AND PUSH20 0xFFFFFFFFFFFFFFFFFFFFFFFFFFFFFFFFFFFFFFFF AND DUP2 MSTORE PUSH1 0x20 ADD SWAP1 DUP2 MSTORE PUSH1 0x20 ADD PUSH1 0x0 KECCAK256 DUP2 SWAP1 SSTORE POP PUSH1 0x1 PUSH1 0x0 PUSH1 0x1 PUSH2 0x100 EXP DUP2 SLOAD DUP2 PUSH1 0xFF MUL NOT AND SWAP1 DUP4 ISZERO ISZERO MUL OR SWAP1 SSTORE POP PUSH1 0x1 PUSH1 0x0 DUP1 PUSH2 0x100 EXP DUP2 SLOAD DUP2 PUSH1 0xFF MUL NOT AND SWAP1 DUP4 ISZERO ISZERO MUL OR SWAP1 SSTORE POP PUSH32 0x8866993F7C029BE4215942B34C1545282B8F28836579F2687FE96A5A6BF77704 PUSH1 0x40 MLOAD PUSH1 0x40 MLOAD DUP1 SWAP2 SUB SWAP1 LOG1 POP POP POP POP POP POP JUMP JUMPDEST PUSH1 0x1 SLOAD DUP2 JUMP JUMPDEST PUSH1 0x0 DUP1 PUSH1 0xA PUSH1 0x0 SWAP1 SLOAD SWAP1 PUSH2 0x100 EXP SWAP1 DIV PUSH20 0xFFFFFFFFFFFFFFFFFFFFFFFFFFFFFFFFFFFFFFFF AND SWAP1 POP PUSH1 0x0 DUP2 PUSH20 0xFFFFFFFFFFFFFFFFFFFFFFFFFFFFFFFFFFFFFFFF AND PUSH4 0xA035B1FE PUSH1 0x40 MLOAD DUP2 PUSH4 0xFFFFFFFF AND PUSH1 0xE0 SHL DUP2 MSTORE PUSH1 0x4 ADD PUSH1 0x20 PUSH1 0x40 MLOAD DUP1 DUP4 SUB DUP2 DUP7 GAS STATICCALL ISZERO DUP1 ISZERO PUSH2 0x1648 JUMPI RETURNDATASIZE PUSH1 0x0 DUP1 RETURNDATACOPY RETURNDATASIZE PUSH1 0x0 REVERT JUMPDEST POP POP POP POP PUSH1 0x40 MLOAD RETURNDATASIZE PUSH1 0x1F NOT PUSH1 0x1F DUP3 ADD AND DUP3 ADD DUP1 PUSH1 0x40 MSTORE POP DUP2 ADD SWAP1 PUSH2 0x166C SWAP2 SWAP1 PUSH2 0x2527 JUMP JUMPDEST SWAP1 POP DUP1 PUSH1 0x3 SLOAD PUSH1 0x2 SLOAD PUSH2 0x167F SWAP2 SWAP1 PUSH2 0x1E62 JUMP JUMPDEST PUSH2 0x1689 SWAP2 SWAP1 PUSH2 0x1DA8 JUMP JUMPDEST SWAP3 POP POP POP SWAP1 JUMP JUMPDEST PUSH1 0x0 DUP1 ISZERO ISZERO PUSH1 0x0 DUP1 SLOAD SWAP1 PUSH2 0x100 EXP SWAP1 DIV PUSH1 0xFF AND ISZERO ISZERO SUB PUSH2 0x16B3 JUMPI PUSH1 0x1 SWAP1 POP PUSH2 0x1981 JUMP JUMPDEST PUSH1 0x0 DUP3 SWAP1 POP PUSH1 0x0 PUSH1 0xB PUSH1 0x0 SWAP1 SLOAD SWAP1 PUSH2 0x100 EXP SWAP1 DIV PUSH20 0xFFFFFFFFFFFFFFFFFFFFFFFFFFFFFFFFFFFFFFFF AND SWAP1 POP PUSH1 0x0 DUP5 GT PUSH2 0x1722 JUMPI PUSH1 0x40 MLOAD PUSH32 0x8C379A000000000000000000000000000000000000000000000000000000000 DUP2 MSTORE PUSH1 0x4 ADD PUSH2 0x1719 SWAP1 PUSH2 0x2C31 JUMP JUMPDEST PUSH1 0x40 MLOAD DUP1 SWAP2 SUB SWAP1 REVERT JUMPDEST DUP1 PUSH20 0xFFFFFFFFFFFFFFFFFFFFFFFFFFFFFFFFFFFFFFFF AND PUSH4 0x23B872DD DUP7 ADDRESS DUP8 PUSH1 0x40 MLOAD DUP5 PUSH4 0xFFFFFFFF AND PUSH1 0xE0 SHL DUP2 MSTORE PUSH1 0x4 ADD PUSH2 0x175F SWAP4 SWAP3 SWAP2 SWAP1 PUSH2 0x2CE3 JUMP JUMPDEST PUSH1 0x20 PUSH1 0x40 MLOAD DUP1 DUP4 SUB DUP2 PUSH1 0x0 DUP8 GAS CALL ISZERO DUP1 ISZERO PUSH2 0x177E JUMPI RETURNDATASIZE PUSH1 0x0 DUP1 RETURNDATACOPY RETURNDATASIZE PUSH1 0x0 REVERT JUMPDEST POP POP POP POP PUSH1 0x40 MLOAD RETURNDATASIZE PUSH1 0x1F NOT PUSH1 0x1F DUP3 ADD AND DUP3 ADD DUP1 PUSH1 0x40 MSTORE POP DUP2 ADD SWAP1 PUSH2 0x17A2 SWAP2 SWAP1 PUSH2 0x2032 JUMP JUMPDEST PUSH2 0x17E1 JUMPI PUSH1 0x40 MLOAD PUSH32 0x8C379A000000000000000000000000000000000000000000000000000000000 DUP2 MSTORE PUSH1 0x4 ADD PUSH2 0x17D8 SWAP1 PUSH2 0x2E44 JUMP JUMPDEST PUSH1 0x40 MLOAD DUP1 SWAP2 SUB SWAP1 REVERT JUMPDEST PUSH1 0x0 PUSH1 0x3 SLOAD PUSH1 0x2 SLOAD DUP5 PUSH2 0x17F4 SWAP2 SWAP1 PUSH2 0x1DA8 JUMP JUMPDEST PUSH2 0x17FE SWAP2 SWAP1 PUSH2 0x1E31 JUMP JUMPDEST SWAP1 POP DUP1 PUSH1 0x2 PUSH1 0x0 DUP3 DUP3 SLOAD PUSH2 0x1812 SWAP2 SWAP1 PUSH2 0x1E62 JUMP JUMPDEST SWAP3 POP POP DUP2 SWAP1 SSTORE POP DUP3 PUSH1 0x3 PUSH1 0x0 DUP3 DUP3 SLOAD PUSH2 0x182B SWAP2 SWAP1 PUSH2 0x1E96 JUMP JUMPDEST SWAP3 POP POP DUP2 SWAP1 SSTORE POP PUSH1 0x1 SLOAD PUSH1 0x3 SLOAD PUSH1 0x2 SLOAD PUSH2 0x1845 SWAP2 SWAP1 PUSH2 0x1DA8 JUMP JUMPDEST EQ PUSH2 0x1885 JUMPI PUSH1 0x40 MLOAD PUSH32 0x8C379A000000000000000000000000000000000000000000000000000000000 DUP2 MSTORE PUSH1 0x4 ADD PUSH2 0x187C SWAP1 PUSH2 0x2ED6 JUMP JUMPDEST PUSH1 0x40 MLOAD DUP1 SWAP2 SUB SWAP1 REVERT JUMPDEST PUSH1 0x0 PUSH1 0x7 SLOAD PUSH1 0x6 SLOAD DUP4 PUSH2 0x1898 SWAP2 SWAP1 PUSH2 0x1DA8 JUMP JUMPDEST PUSH2 0x18A2 SWAP2 SWAP1 PUSH2 0x1E31 JUMP JUMPDEST SWAP1 POP DUP1 DUP3 PUSH2 0x18B0 SWAP2 SWAP1 PUSH2 0x1E96 JUMP JUMPDEST SWAP2 POP DUP1 PUSH1 0x8 PUSH1 0x0 DUP3 DUP3 SLOAD PUSH2 0x18C4 SWAP2 SWAP1 PUSH2 0x1E62 JUMP JUMPDEST SWAP3 POP POP DUP2 SWAP1 SSTORE POP PUSH1 0x0 DUP8 PUSH20 0xFFFFFFFFFFFFFFFFFFFFFFFFFFFFFFFFFFFFFFFF AND DUP4 PUSH1 0x40 MLOAD PUSH2 0x18F1 SWAP1 PUSH2 0x2988 JUMP JUMPDEST PUSH1 0x0 PUSH1 0x40 MLOAD DUP1 DUP4 SUB DUP2 DUP6 DUP8 GAS CALL SWAP3 POP POP POP RETURNDATASIZE DUP1 PUSH1 0x0 DUP2 EQ PUSH2 0x192E JUMPI PUSH1 0x40 MLOAD SWAP2 POP PUSH1 0x1F NOT PUSH1 0x3F RETURNDATASIZE ADD AND DUP3 ADD PUSH1 0x40 MSTORE RETURNDATASIZE DUP3 MSTORE RETURNDATASIZE PUSH1 0x0 PUSH1 0x20 DUP5 ADD RETURNDATACOPY PUSH2 0x1933 JUMP JUMPDEST PUSH1 0x60 SWAP2 POP JUMPDEST POP POP SWAP1 POP DUP1 PUSH2 0x1977 JUMPI PUSH1 0x40 MLOAD PUSH32 0x8C379A000000000000000000000000000000000000000000000000000000000 DUP2 MSTORE PUSH1 0x4 ADD PUSH2 0x196E SWAP1 PUSH2 0x2F68 JUMP JUMPDEST PUSH1 0x40 MLOAD DUP1 SWAP2 SUB SWAP1 REVERT JUMPDEST PUSH1 0x1 SWAP6 POP POP POP POP POP POP JUMPDEST SWAP3 SWAP2 POP POP JUMP JUMPDEST PUSH1 0x0 DUP1 PUSH1 0xA PUSH1 0x0 SWAP1 SLOAD SWAP1 PUSH2 0x100 EXP SWAP1 DIV PUSH20 0xFFFFFFFFFFFFFFFFFFFFFFFFFFFFFFFFFFFFFFFF AND SWAP1 POP DUP1 PUSH20 0xFFFFFFFFFFFFFFFFFFFFFFFFFFFFFFFFFFFFFFFF AND PUSH4 0xA035B1FE PUSH1 0x40 MLOAD DUP2 PUSH4 0xFFFFFFFF AND PUSH1 0xE0 SHL DUP2 MSTORE PUSH1 0x4 ADD PUSH1 0x20 PUSH1 0x40 MLOAD DUP1 DUP4 SUB DUP2 DUP7 GAS STATICCALL ISZERO DUP1 ISZERO PUSH2 0x19FA JUMPI RETURNDATASIZE PUSH1 0x0 DUP1 RETURNDATACOPY RETURNDATASIZE PUSH1 0x0 REVERT JUMPDEST POP POP POP POP PUSH1 0x40 MLOAD RETURNDATASIZE PUSH1 0x1F NOT PUSH1 0x1F DUP3 ADD AND DUP3 ADD DUP1 PUSH1 0x40 MSTORE POP DUP2 ADD SWAP1 PUSH2 0x1A1E SWAP2 SWAP1 PUSH2 0x2527 JUMP JUMPDEST SWAP2 POP POP SWAP1 JUMP JUMPDEST PUSH1 0x4 PUSH1 0x20 MSTORE DUP1 PUSH1 0x0 MSTORE PUSH1 0x40 PUSH1 0x0 KECCAK256 PUSH1 0x0 SWAP2 POP SWAP1 POP SLOAD DUP2 JUMP JUMPDEST PUSH1 0x0 DUP1 PUSH1 0x0 PUSH2 0x100 EXP DUP2 SLOAD DUP2 PUSH1 0xFF MUL NOT AND SWAP1 DUP4 ISZERO ISZERO MUL OR SWAP1 SSTORE POP PUSH1 0x0 CALLVALUE SWAP1 POP PUSH1 0x0 DUP2 GT PUSH2 0x1A9E JUMPI PUSH1 0x40 MLOAD PUSH32 0x8C379A000000000000000000000000000000000000000000000000000000000 DUP2 MSTORE PUSH1 0x4 ADD PUSH2 0x1A95 SWAP1 PUSH2 0x2FFA JUMP JUMPDEST PUSH1 0x40 MLOAD DUP1 SWAP2 SUB SWAP1 REVERT JUMPDEST PUSH1 0x0 PUSH1 0x2 SLOAD PUSH1 0x3 SLOAD DUP4 PUSH2 0x1AB1 SWAP2 SWAP1 PUSH2 0x1DA8 JUMP JUMPDEST PUSH2 0x1ABB SWAP2 SWAP1 PUSH2 0x1E31 JUMP JUMPDEST SWAP1 POP PUSH1 0x0 DUP2 GT PUSH2 0x1B00 JUMPI PUSH1 0x40 MLOAD PUSH32 0x8C379A000000000000000000000000000000000000000000000000000000000 DUP2 MSTORE PUSH1 0x4 ADD PUSH2 0x1AF7 SWAP1 PUSH2 0x308C JUMP JUMPDEST PUSH1 0x40 MLOAD DUP1 SWAP2 SUB SWAP1 REVERT JUMPDEST PUSH1 0x0 PUSH1 0xB PUSH1 0x0 SWAP1 SLOAD SWAP1 PUSH2 0x100 EXP SWAP1 DIV PUSH20 0xFFFFFFFFFFFFFFFFFFFFFFFFFFFFFFFFFFFFFFFF AND SWAP1 POP DUP1 PUSH20 0xFFFFFFFFFFFFFFFFFFFFFFFFFFFFFFFFFFFFFFFF AND PUSH4 0x23B872DD CALLER ADDRESS DUP6 PUSH1 0x40 MLOAD DUP5 PUSH4 0xFFFFFFFF AND PUSH1 0xE0 SHL DUP2 MSTORE PUSH1 0x4 ADD PUSH2 0x1B64 SWAP4 SWAP3 SWAP2 SWAP1 PUSH2 0x2CE3 JUMP JUMPDEST PUSH1 0x20 PUSH1 0x40 MLOAD DUP1 DUP4 SUB DUP2 PUSH1 0x0 DUP8 GAS CALL ISZERO DUP1 ISZERO PUSH2 0x1B83 JUMPI RETURNDATASIZE PUSH1 0x0 DUP1 RETURNDATACOPY RETURNDATASIZE PUSH1 0x0 REVERT JUMPDEST POP POP POP POP PUSH1 0x40 MLOAD RETURNDATASIZE PUSH1 0x1F NOT PUSH1 0x1F DUP3 ADD AND DUP3 ADD DUP1 PUSH1 0x40 MSTORE POP DUP2 ADD SWAP1 PUSH2 0x1BA7 SWAP2 SWAP1 PUSH2 0x2032 JUMP JUMPDEST PUSH2 0x1BE6 JUMPI PUSH1 0x40 MLOAD PUSH32 0x8C379A000000000000000000000000000000000000000000000000000000000 DUP2 MSTORE PUSH1 0x4 ADD PUSH2 0x1BDD SWAP1 PUSH2 0x3144 JUMP JUMPDEST PUSH1 0x40 MLOAD DUP1 SWAP2 SUB SWAP1 REVERT JUMPDEST DUP3 PUSH1 0x2 PUSH1 0x0 DUP3 DUP3 SLOAD PUSH2 0x1BF8 SWAP2 SWAP1 PUSH2 0x1E62 JUMP JUMPDEST SWAP3 POP POP DUP2 SWAP1 SSTORE POP DUP2 PUSH1 0x3 PUSH1 0x0 DUP3 DUP3 SLOAD PUSH2 0x1C11 SWAP2 SWAP1 PUSH2 0x1E62 JUMP JUMPDEST SWAP3 POP POP DUP2 SWAP1 SSTORE POP PUSH1 0x3 SLOAD PUSH1 0x2 SLOAD PUSH2 0x1C28 SWAP2 SWAP1 PUSH2 0x1DA8 JUMP JUMPDEST PUSH1 0x1 DUP2 SWAP1 SSTORE POP DUP3 PUSH1 0x4 PUSH1 0x0 CALLER PUSH20 0xFFFFFFFFFFFFFFFFFFFFFFFFFFFFFFFFFFFFFFFF AND PUSH20 0xFFFFFFFFFFFFFFFFFFFFFFFFFFFFFFFFFFFFFFFF AND DUP2 MSTORE PUSH1 0x20 ADD SWAP1 DUP2 MSTORE PUSH1 0x20 ADD PUSH1 0x0 KECCAK256 PUSH1 0x0 DUP3 DUP3 SLOAD PUSH2 0x1C7D SWAP2 SWAP1 PUSH2 0x1E62 JUMP JUMPDEST SWAP3 POP POP DUP2 SWAP1 SSTORE POP DUP2 PUSH1 0x5 PUSH1 0x0 CALLER PUSH20 0xFFFFFFFFFFFFFFFFFFFFFFFFFFFFFFFFFFFFFFFF AND PUSH20 0xFFFFFFFFFFFFFFFFFFFFFFFFFFFFFFFFFFFFFFFF AND DUP2 MSTORE PUSH1 0x20 ADD SWAP1 DUP2 MSTORE PUSH1 0x20 ADD PUSH1 0x0 KECCAK256 PUSH1 0x0 DUP3 DUP3 SLOAD PUSH2 0x1CD3 SWAP2 SWAP1 PUSH2 0x1E62 JUMP JUMPDEST SWAP3 POP POP DUP2 SWAP1 SSTORE POP PUSH1 0x1 PUSH1 0x0 DUP1 PUSH2 0x100 EXP DUP2 SLOAD DUP2 PUSH1 0xFF MUL NOT AND SWAP1 DUP4 ISZERO ISZERO MUL OR SWAP1 SSTORE POP PUSH32 0x8866993F7C029BE4215942B34C1545282B8F28836579F2687FE96A5A6BF77704 PUSH1 0x40 MLOAD PUSH1 0x40 MLOAD DUP1 SWAP2 SUB SWAP1 LOG1 POP POP POP JUMP JUMPDEST PUSH1 0x6 SLOAD DUP2 JUMP JUMPDEST DUP1 PUSH1 0xA PUSH1 0x0 PUSH2 0x100 EXP DUP2 SLOAD DUP2 PUSH20 0xFFFFFFFFFFFFFFFFFFFFFFFFFFFFFFFFFFFFFFFF MUL NOT AND SWAP1 DUP4 PUSH20 0xFFFFFFFFFFFFFFFFFFFFFFFFFFFFFFFFFFFFFFFF AND MUL OR SWAP1 SSTORE POP POP JUMP JUMPDEST PUSH1 0x0 DUP2 SWAP1 POP SWAP2 SWAP1 POP JUMP JUMPDEST PUSH32 0x4E487B7100000000000000000000000000000000000000000000000000000000 PUSH1 0x0 MSTORE PUSH1 0x11 PUSH1 0x4 MSTORE PUSH1 0x24 PUSH1 0x0 REVERT JUMPDEST PUSH1 0x0 PUSH2 0x1DB3 DUP3 PUSH2 0x1D6F JUMP JUMPDEST SWAP2 POP PUSH2 0x1DBE DUP4 PUSH2 0x1D6F JUMP JUMPDEST SWAP3 POP DUP2 PUSH32 0xFFFFFFFFFFFFFFFFFFFFFFFFFFFFFFFFFFFFFFFFFFFFFFFFFFFFFFFFFFFFFFFF DIV DUP4 GT DUP3 ISZERO ISZERO AND ISZERO PUSH2 0x1DF7 JUMPI PUSH2 0x1DF6 PUSH2 0x1D79 JUMP JUMPDEST JUMPDEST DUP3 DUP3 MUL SWAP1 POP SWAP3 SWAP2 POP POP JUMP JUMPDEST PUSH32 0x4E487B7100000000000000000000000000000000000000000000000000000000 PUSH1 0x0 MSTORE PUSH1 0x12 PUSH1 0x4 MSTORE PUSH1 0x24 PUSH1 0x0 REVERT JUMPDEST PUSH1 0x0 PUSH2 0x1E3C DUP3 PUSH2 0x1D6F JUMP JUMPDEST SWAP2 POP PUSH2 0x1E47 DUP4 PUSH2 0x1D6F JUMP JUMPDEST SWAP3 POP DUP3 PUSH2 0x1E57 JUMPI PUSH2 0x1E56 PUSH2 0x1E02 JUMP JUMPDEST JUMPDEST DUP3 DUP3 DIV SWAP1 POP SWAP3 SWAP2 POP POP JUMP JUMPDEST PUSH1 0x0 PUSH2 0x1E6D DUP3 PUSH2 0x1D6F JUMP JUMPDEST SWAP2 POP PUSH2 0x1E78 DUP4 PUSH2 0x1D6F JUMP JUMPDEST SWAP3 POP DUP3 DUP3 ADD SWAP1 POP DUP1 DUP3 GT ISZERO PUSH2 0x1E90 JUMPI PUSH2 0x1E8F PUSH2 0x1D79 JUMP JUMPDEST JUMPDEST SWAP3 SWAP2 POP POP JUMP JUMPDEST PUSH1 0x0 PUSH2 0x1EA1 DUP3 PUSH2 0x1D6F JUMP JUMPDEST SWAP2 POP PUSH2 0x1EAC DUP4 PUSH2 0x1D6F JUMP JUMPDEST SWAP3 POP DUP3 DUP3 SUB SWAP1 POP DUP2 DUP2 GT ISZERO PUSH2 0x1EC4 JUMPI PUSH2 0x1EC3 PUSH2 0x1D79 JUMP JUMPDEST JUMPDEST SWAP3 SWAP2 POP POP JUMP JUMPDEST PUSH1 0x0 DUP3 DUP3 MSTORE PUSH1 0x20 DUP3 ADD SWAP1 POP SWAP3 SWAP2 POP POP JUMP JUMPDEST PUSH32 0x496E646966666572656E636520637572766520776173206E6F74206D61696E74 PUSH1 0x0 DUP3 ADD MSTORE PUSH32 0x61696E656421202D207265636569766528290000000000000000000000000000 PUSH1 0x20 DUP3 ADD MSTORE POP JUMP JUMPDEST PUSH1 0x0 PUSH2 0x1F37 PUSH1 0x32 DUP4 PUSH2 0x1ECA JUMP JUMPDEST SWAP2 POP PUSH2 0x1F42 DUP3 PUSH2 0x1EDB JUMP JUMPDEST PUSH1 0x40 DUP3 ADD SWAP1 POP SWAP2 SWAP1 POP JUMP JUMPDEST PUSH1 0x0 PUSH1 0x20 DUP3 ADD SWAP1 POP DUP2 DUP2 SUB PUSH1 0x0 DUP4 ADD MSTORE PUSH2 0x1F66 DUP2 PUSH2 0x1F2A JUMP JUMPDEST SWAP1 POP SWAP2 SWAP1 POP JUMP JUMPDEST PUSH1 0x0 PUSH20 0xFFFFFFFFFFFFFFFFFFFFFFFFFFFFFFFFFFFFFFFF DUP3 AND SWAP1 POP SWAP2 SWAP1 POP JUMP JUMPDEST PUSH1 0x0 PUSH2 0x1F98 DUP3 PUSH2 0x1F6D JUMP JUMPDEST SWAP1 POP SWAP2 SWAP1 POP JUMP JUMPDEST PUSH2 0x1FA8 DUP2 PUSH2 0x1F8D JUMP JUMPDEST DUP3 MSTORE POP POP JUMP JUMPDEST PUSH2 0x1FB7 DUP2 PUSH2 0x1D6F JUMP JUMPDEST DUP3 MSTORE POP POP JUMP JUMPDEST PUSH1 0x0 PUSH1 0x40 DUP3 ADD SWAP1 POP PUSH2 0x1FD2 PUSH1 0x0 DUP4 ADD DUP6 PUSH2 0x1F9F JUMP JUMPDEST PUSH2 0x1FDF PUSH1 0x20 DUP4 ADD DUP5 PUSH2 0x1FAE JUMP JUMPDEST SWAP4 SWAP3 POP POP POP JUMP JUMPDEST PUSH1 0x0 PUSH1 0x40 MLOAD SWAP1 POP SWAP1 JUMP JUMPDEST PUSH1 0x0 DUP1 REVERT JUMPDEST PUSH1 0x0 DUP1 REVERT JUMPDEST PUSH1 0x0 DUP2 ISZERO ISZERO SWAP1 POP SWAP2 SWAP1 POP JUMP JUMPDEST PUSH2 0x200F DUP2 PUSH2 0x1FFA JUMP JUMPDEST DUP2 EQ PUSH2 0x201A JUMPI PUSH1 0x0 DUP1 REVERT JUMPDEST POP JUMP JUMPDEST PUSH1 0x0 DUP2 MLOAD SWAP1 POP PUSH2 0x202C DUP2 PUSH2 0x2006 JUMP JUMPDEST SWAP3 SWAP2 POP POP JUMP JUMPDEST PUSH1 0x0 PUSH1 0x20 DUP3 DUP5 SUB SLT ISZERO PUSH2 0x2048 JUMPI PUSH2 0x2047 PUSH2 0x1FF0 JUMP JUMPDEST JUMPDEST PUSH1 0x0 PUSH2 0x2056 DUP5 DUP3 DUP6 ADD PUSH2 0x201D JUMP JUMPDEST SWAP2 POP POP SWAP3 SWAP2 POP POP JUMP JUMPDEST PUSH32 0x547279696E6720746F20617070726F76652072657475726E206F6620746F6B65 PUSH1 0x0 DUP3 ADD MSTORE PUSH32 0x6E202D2062757420726576657274656400000000000000000000000000000000 PUSH1 0x20 DUP3 ADD MSTORE POP JUMP JUMPDEST PUSH1 0x0 PUSH2 0x20BB PUSH1 0x30 DUP4 PUSH2 0x1ECA JUMP JUMPDEST SWAP2 POP PUSH2 0x20C6 DUP3 PUSH2 0x205F JUMP JUMPDEST PUSH1 0x40 DUP3 ADD SWAP1 POP SWAP2 SWAP1 POP JUMP JUMPDEST PUSH1 0x0 PUSH1 0x20 DUP3 ADD SWAP1 POP DUP2 DUP2 SUB PUSH1 0x0 DUP4 ADD MSTORE PUSH2 0x20EA DUP2 PUSH2 0x20AE JUMP JUMPDEST SWAP1 POP SWAP2 SWAP1 POP JUMP JUMPDEST PUSH1 0x0 PUSH32 0xFFFFFFFF00000000000000000000000000000000000000000000000000000000 DUP3 AND SWAP1 POP SWAP2 SWAP1 POP JUMP JUMPDEST PUSH2 0x2126 DUP2 PUSH2 0x20F1 JUMP JUMPDEST DUP2 EQ PUSH2 0x2131 JUMPI PUSH1 0x0 DUP1 REVERT JUMPDEST POP JUMP JUMPDEST PUSH1 0x0 DUP2 CALLDATALOAD SWAP1 POP PUSH2 0x2143 DUP2 PUSH2 0x211D JUMP JUMPDEST SWAP3 SWAP2 POP POP JUMP JUMPDEST PUSH1 0x0 PUSH1 0x20 DUP3 DUP5 SUB SLT ISZERO PUSH2 0x215F JUMPI PUSH2 0x215E PUSH2 0x1FF0 JUMP JUMPDEST JUMPDEST PUSH1 0x0 PUSH2 0x216D DUP5 DUP3 DUP6 ADD PUSH2 0x2134 JUMP JUMPDEST SWAP2 POP POP SWAP3 SWAP2 POP POP JUMP JUMPDEST PUSH2 0x217F DUP2 PUSH2 0x1FFA JUMP JUMPDEST DUP3 MSTORE POP POP JUMP JUMPDEST PUSH1 0x0 PUSH1 0x20 DUP3 ADD SWAP1 POP PUSH2 0x219A PUSH1 0x0 DUP4 ADD DUP5 PUSH2 0x2176 JUMP JUMPDEST SWAP3 SWAP2 POP POP JUMP JUMPDEST PUSH1 0x0 PUSH1 0x20 DUP3 ADD SWAP1 POP PUSH2 0x21B5 PUSH1 0x0 DUP4 ADD DUP5 PUSH2 0x1FAE JUMP JUMPDEST SWAP3 SWAP2 POP POP JUMP JUMPDEST PUSH1 0x0 PUSH1 0x20 DUP3 ADD SWAP1 POP PUSH2 0x21D0 PUSH1 0x0 DUP4 ADD DUP5 PUSH2 0x1F9F JUMP JUMPDEST SWAP3 SWAP2 POP POP JUMP JUMPDEST PUSH2 0x21DF DUP2 PUSH2 0x1F8D JUMP JUMPDEST DUP2 EQ PUSH2 0x21EA JUMPI PUSH1 0x0 DUP1 REVERT JUMPDEST POP JUMP JUMPDEST PUSH1 0x0 DUP2 CALLDATALOAD SWAP1 POP PUSH2 0x21FC DUP2 PUSH2 0x21D6 JUMP JUMPDEST SWAP3 SWAP2 POP POP JUMP JUMPDEST PUSH1 0x0 PUSH1 0x20 DUP3 DUP5 SUB SLT ISZERO PUSH2 0x2218 JUMPI PUSH2 0x2217 PUSH2 0x1FF0 JUMP JUMPDEST JUMPDEST PUSH1 0x0 PUSH2 0x2226 DUP5 DUP3 DUP6 ADD PUSH2 0x21ED JUMP JUMPDEST SWAP2 POP POP SWAP3 SWAP2 POP POP JUMP JUMPDEST PUSH1 0x0 DUP2 MLOAD SWAP1 POP SWAP2 SWAP1 POP JUMP JUMPDEST PUSH1 0x0 JUMPDEST DUP4 DUP2 LT ISZERO PUSH2 0x2258 JUMPI DUP1 DUP3 ADD MLOAD DUP2 DUP5 ADD MSTORE PUSH1 0x20 DUP2 ADD SWAP1 POP PUSH2 0x223D JUMP JUMPDEST PUSH1 0x0 DUP5 DUP5 ADD MSTORE POP POP POP POP JUMP JUMPDEST PUSH1 0x0 PUSH1 0x1F NOT PUSH1 0x1F DUP4 ADD AND SWAP1 POP SWAP2 SWAP1 POP JUMP JUMPDEST PUSH1 0x0 PUSH2 0x2280 DUP3 PUSH2 0x222F JUMP JUMPDEST PUSH2 0x228A DUP2 DUP6 PUSH2 0x1ECA JUMP JUMPDEST SWAP4 POP PUSH2 0x229A DUP2 DUP6 PUSH1 0x20 DUP7 ADD PUSH2 0x223A JUMP JUMPDEST PUSH2 0x22A3 DUP2 PUSH2 0x2264 JUMP JUMPDEST DUP5 ADD SWAP2 POP POP SWAP3 SWAP2 POP POP JUMP JUMPDEST PUSH1 0x0 PUSH1 0x20 DUP3 ADD SWAP1 POP DUP2 DUP2 SUB PUSH1 0x0 DUP4 ADD MSTORE PUSH2 0x22C8 DUP2 DUP5 PUSH2 0x2275 JUMP JUMPDEST SWAP1 POP SWAP3 SWAP2 POP POP JUMP JUMPDEST PUSH2 0x22D9 DUP2 PUSH2 0x1D6F JUMP JUMPDEST DUP2 EQ PUSH2 0x22E4 JUMPI PUSH1 0x0 DUP1 REVERT JUMPDEST POP JUMP JUMPDEST PUSH1 0x0 DUP2 CALLDATALOAD SWAP1 POP PUSH2 0x22F6 DUP2 PUSH2 0x22D0 JUMP JUMPDEST SWAP3 SWAP2 POP POP JUMP JUMPDEST PUSH1 0x0 PUSH1 0x20 DUP3 DUP5 SUB SLT ISZERO PUSH2 0x2312 JUMPI PUSH2 0x2311 PUSH2 0x1FF0 JUMP JUMPDEST JUMPDEST PUSH1 0x0 PUSH2 0x2320 DUP5 DUP3 DUP6 ADD PUSH2 0x22E7 JUMP JUMPDEST SWAP2 POP POP SWAP3 SWAP2 POP POP JUMP JUMPDEST PUSH1 0x0 PUSH2 0x180 DUP3 ADD SWAP1 POP PUSH2 0x233F PUSH1 0x0 DUP4 ADD DUP16 PUSH2 0x1F9F JUMP JUMPDEST DUP2 DUP2 SUB PUSH1 0x20 DUP4 ADD MSTORE PUSH2 0x2351 DUP2 DUP15 PUSH2 0x2275 JUMP JUMPDEST SWAP1 POP DUP2 DUP2 SUB PUSH1 0x40 DUP4 ADD MSTORE PUSH2 0x2365 DUP2 DUP14 PUSH2 0x2275 JUMP JUMPDEST SWAP1 POP PUSH2 0x2374 PUSH1 0x60 DUP4 ADD DUP13 PUSH2 0x1F9F JUMP JUMPDEST PUSH2 0x2381 PUSH1 0x80 DUP4 ADD DUP12 PUSH2 0x1FAE JUMP JUMPDEST PUSH2 0x238E PUSH1 0xA0 DUP4 ADD DUP11 PUSH2 0x1FAE JUMP JUMPDEST PUSH2 0x239B PUSH1 0xC0 DUP4 ADD DUP10 PUSH2 0x1FAE JUMP JUMPDEST PUSH2 0x23A8 PUSH1 0xE0 DUP4 ADD DUP9 PUSH2 0x1FAE JUMP JUMPDEST PUSH2 0x23B6 PUSH2 0x100 DUP4 ADD DUP8 PUSH2 0x1FAE JUMP JUMPDEST PUSH2 0x23C4 PUSH2 0x120 DUP4 ADD DUP7 PUSH2 0x1FAE JUMP JUMPDEST PUSH2 0x23D2 PUSH2 0x140 DUP4 ADD DUP6 PUSH2 0x1FAE JUMP JUMPDEST PUSH2 0x23E0 PUSH2 0x160 DUP4 ADD DUP5 PUSH2 0x1FAE JUMP JUMPDEST SWAP14 SWAP13 POP POP POP POP POP POP POP POP POP POP POP POP POP JUMP JUMPDEST PUSH1 0x0 DUP1 PUSH1 0x0 DUP1 PUSH1 0x0 PUSH1 0xA0 DUP7 DUP9 SUB SLT ISZERO PUSH2 0x240D JUMPI PUSH2 0x240C PUSH2 0x1FF0 JUMP JUMPDEST JUMPDEST PUSH1 0x0 PUSH2 0x241B DUP9 DUP3 DUP10 ADD PUSH2 0x22E7 JUMP JUMPDEST SWAP6 POP POP PUSH1 0x20 PUSH2 0x242C DUP9 DUP3 DUP10 ADD PUSH2 0x22E7 JUMP JUMPDEST SWAP5 POP POP PUSH1 0x40 PUSH2 0x243D DUP9 DUP3 DUP10 ADD PUSH2 0x22E7 JUMP JUMPDEST SWAP4 POP POP PUSH1 0x60 PUSH2 0x244E DUP9 DUP3 DUP10 ADD PUSH2 0x21ED JUMP JUMPDEST SWAP3 POP POP PUSH1 0x80 PUSH2 0x245F DUP9 DUP3 DUP10 ADD PUSH2 0x21ED JUMP JUMPDEST SWAP2 POP POP SWAP3 SWAP6 POP SWAP3 SWAP6 SWAP1 SWAP4 POP JUMP JUMPDEST PUSH1 0x0 DUP1 PUSH1 0x40 DUP4 DUP6 SUB SLT ISZERO PUSH2 0x2483 JUMPI PUSH2 0x2482 PUSH2 0x1FF0 JUMP JUMPDEST JUMPDEST PUSH1 0x0 PUSH2 0x2491 DUP6 DUP3 DUP7 ADD PUSH2 0x21ED JUMP JUMPDEST SWAP3 POP POP PUSH1 0x20 PUSH2 0x24A2 DUP6 DUP3 DUP7 ADD PUSH2 0x22E7 JUMP JUMPDEST SWAP2 POP POP SWAP3 POP SWAP3 SWAP1 POP JUMP JUMPDEST PUSH1 0x0 PUSH1 0xFF DUP3 AND SWAP1 POP SWAP2 SWAP1 POP JUMP JUMPDEST PUSH2 0x24C2 DUP2 PUSH2 0x24AC JUMP JUMPDEST DUP2 EQ PUSH2 0x24CD JUMPI PUSH1 0x0 DUP1 REVERT JUMPDEST POP JUMP JUMPDEST PUSH1 0x0 DUP2 MLOAD SWAP1 POP PUSH2 0x24DF DUP2 PUSH2 0x24B9 JUMP JUMPDEST SWAP3 SWAP2 POP POP JUMP JUMPDEST PUSH1 0x0 PUSH1 0x20 DUP3 DUP5 SUB SLT ISZERO PUSH2 0x24FB JUMPI PUSH2 0x24FA PUSH2 0x1FF0 JUMP JUMPDEST JUMPDEST PUSH1 0x0 PUSH2 0x2509 DUP5 DUP3 DUP6 ADD PUSH2 0x24D0 JUMP JUMPDEST SWAP2 POP POP SWAP3 SWAP2 POP POP JUMP JUMPDEST PUSH1 0x0 DUP2 MLOAD SWAP1 POP PUSH2 0x2521 DUP2 PUSH2 0x22D0 JUMP JUMPDEST SWAP3 SWAP2 POP POP JUMP JUMPDEST PUSH1 0x0 PUSH1 0x20 DUP3 DUP5 SUB SLT ISZERO PUSH2 0x253D JUMPI PUSH2 0x253C PUSH2 0x1FF0 JUMP JUMPDEST JUMPDEST PUSH1 0x0 PUSH2 0x254B DUP5 DUP3 DUP6 ADD PUSH2 0x2512 JUMP JUMPDEST SWAP2 POP POP SWAP3 SWAP2 POP POP JUMP JUMPDEST PUSH1 0x0 DUP1 REVERT JUMPDEST PUSH1 0x0 DUP1 REVERT JUMPDEST PUSH32 0x4E487B7100000000000000000000000000000000000000000000000000000000 PUSH1 0x0 MSTORE PUSH1 0x41 PUSH1 0x4 MSTORE PUSH1 0x24 PUSH1 0x0 REVERT JUMPDEST PUSH2 0x2596 DUP3 PUSH2 0x2264 JUMP JUMPDEST DUP2 ADD DUP2 DUP2 LT PUSH8 0xFFFFFFFFFFFFFFFF DUP3 GT OR ISZERO PUSH2 0x25B5 JUMPI PUSH2 0x25B4 PUSH2 0x255E JUMP JUMPDEST JUMPDEST DUP1 PUSH1 0x40 MSTORE POP POP POP JUMP JUMPDEST PUSH1 0x0 PUSH2 0x25C8 PUSH2 0x1FE6 JUMP JUMPDEST SWAP1 POP PUSH2 0x25D4 DUP3 DUP3 PUSH2 0x258D JUMP JUMPDEST SWAP2 SWAP1 POP JUMP JUMPDEST PUSH1 0x0 PUSH8 0xFFFFFFFFFFFFFFFF DUP3 GT ISZERO PUSH2 0x25F4 JUMPI PUSH2 0x25F3 PUSH2 0x255E JUMP JUMPDEST JUMPDEST PUSH2 0x25FD DUP3 PUSH2 0x2264 JUMP JUMPDEST SWAP1 POP PUSH1 0x20 DUP2 ADD SWAP1 POP SWAP2 SWAP1 POP JUMP JUMPDEST PUSH1 0x0 PUSH2 0x261D PUSH2 0x2618 DUP5 PUSH2 0x25D9 JUMP JUMPDEST PUSH2 0x25BE JUMP JUMPDEST SWAP1 POP DUP3 DUP2 MSTORE PUSH1 0x20 DUP2 ADD DUP5 DUP5 DUP5 ADD GT ISZERO PUSH2 0x2639 JUMPI PUSH2 0x2638 PUSH2 0x2559 JUMP JUMPDEST JUMPDEST PUSH2 0x2644 DUP5 DUP3 DUP6 PUSH2 0x223A JUMP JUMPDEST POP SWAP4 SWAP3 POP POP POP JUMP JUMPDEST PUSH1 0x0 DUP3 PUSH1 0x1F DUP4 ADD SLT PUSH2 0x2661 JUMPI PUSH2 0x2660 PUSH2 0x2554 JUMP JUMPDEST JUMPDEST DUP2 MLOAD PUSH2 0x2671 DUP5 DUP3 PUSH1 0x20 DUP7 ADD PUSH2 0x260A JUMP JUMPDEST SWAP2 POP POP SWAP3 SWAP2 POP POP JUMP JUMPDEST PUSH1 0x0 PUSH1 0x20 DUP3 DUP5 SUB SLT ISZERO PUSH2 0x2690 JUMPI PUSH2 0x268F PUSH2 0x1FF0 JUMP JUMPDEST JUMPDEST PUSH1 0x0 DUP3 ADD MLOAD PUSH8 0xFFFFFFFFFFFFFFFF DUP2 GT ISZERO PUSH2 0x26AE JUMPI PUSH2 0x26AD PUSH2 0x1FF5 JUMP JUMPDEST JUMPDEST PUSH2 0x26BA DUP5 DUP3 DUP6 ADD PUSH2 0x264C JUMP JUMPDEST SWAP2 POP POP SWAP3 SWAP2 POP POP JUMP JUMPDEST PUSH32 0x73656E64657220617474656D7074696E6720746F207769746864726177206D6F PUSH1 0x0 DUP3 ADD MSTORE PUSH32 0x7265206C6971756964697479207468616E207468657920686176652028457468 PUSH1 0x20 DUP3 ADD MSTORE PUSH32 0x2900000000000000000000000000000000000000000000000000000000000000 PUSH1 0x40 DUP3 ADD MSTORE POP JUMP JUMPDEST PUSH1 0x0 PUSH2 0x2745 PUSH1 0x41 DUP4 PUSH2 0x1ECA JUMP JUMPDEST SWAP2 POP PUSH2 0x2750 DUP3 PUSH2 0x26C3 JUMP JUMPDEST PUSH1 0x60 DUP3 ADD SWAP1 POP SWAP2 SWAP1 POP JUMP JUMPDEST PUSH1 0x0 PUSH1 0x20 DUP3 ADD SWAP1 POP DUP2 DUP2 SUB PUSH1 0x0 DUP4 ADD MSTORE PUSH2 0x2774 DUP2 PUSH2 0x2738 JUMP JUMPDEST SWAP1 POP SWAP2 SWAP1 POP JUMP JUMPDEST PUSH32 0x63616E6E6F7420776974686472617720616C6C206C6971756964697479202845 PUSH1 0x0 DUP3 ADD MSTORE PUSH32 0x7468290000000000000000000000000000000000000000000000000000000000 PUSH1 0x20 DUP3 ADD MSTORE POP JUMP JUMPDEST PUSH1 0x0 PUSH2 0x27D7 PUSH1 0x23 DUP4 PUSH2 0x1ECA JUMP JUMPDEST SWAP2 POP PUSH2 0x27E2 DUP3 PUSH2 0x277B JUMP JUMPDEST PUSH1 0x40 DUP3 ADD SWAP1 POP SWAP2 SWAP1 POP JUMP JUMPDEST PUSH1 0x0 PUSH1 0x20 DUP3 ADD SWAP1 POP DUP2 DUP2 SUB PUSH1 0x0 DUP4 ADD MSTORE PUSH2 0x2806 DUP2 PUSH2 0x27CA JUMP JUMPDEST SWAP1 POP SWAP2 SWAP1 POP JUMP JUMPDEST PUSH32 0x73656E64657220617474656D7074696E6720746F207769746864726177206D6F PUSH1 0x0 DUP3 ADD MSTORE PUSH32 0x7265206C6971756964697479207468616E207468657920686176652028546F6B PUSH1 0x20 DUP3 ADD MSTORE PUSH32 0x656E290000000000000000000000000000000000000000000000000000000000 PUSH1 0x40 DUP3 ADD MSTORE POP JUMP JUMPDEST PUSH1 0x0 PUSH2 0x288F PUSH1 0x43 DUP4 PUSH2 0x1ECA JUMP JUMPDEST SWAP2 POP PUSH2 0x289A DUP3 PUSH2 0x280D JUMP JUMPDEST PUSH1 0x60 DUP3 ADD SWAP1 POP SWAP2 SWAP1 POP JUMP JUMPDEST PUSH1 0x0 PUSH1 0x20 DUP3 ADD SWAP1 POP DUP2 DUP2 SUB PUSH1 0x0 DUP4 ADD MSTORE PUSH2 0x28BE DUP2 PUSH2 0x2882 JUMP JUMPDEST SWAP1 POP SWAP2 SWAP1 POP JUMP JUMPDEST PUSH32 0x63616E6E6F7420776974686472617720616C6C206C6971756964697479202854 PUSH1 0x0 DUP3 ADD MSTORE PUSH32 0x6F6B656E29000000000000000000000000000000000000000000000000000000 PUSH1 0x20 DUP3 ADD MSTORE POP JUMP JUMPDEST PUSH1 0x0 PUSH2 0x2921 PUSH1 0x25 DUP4 PUSH2 0x1ECA JUMP JUMPDEST SWAP2 POP PUSH2 0x292C DUP3 PUSH2 0x28C5 JUMP JUMPDEST PUSH1 0x40 DUP3 ADD SWAP1 POP SWAP2 SWAP1 POP JUMP JUMPDEST PUSH1 0x0 PUSH1 0x20 DUP3 ADD SWAP1 POP DUP2 DUP2 SUB PUSH1 0x0 DUP4 ADD MSTORE PUSH2 0x2950 DUP2 PUSH2 0x2914 JUMP JUMPDEST SWAP1 POP SWAP2 SWAP1 POP JUMP JUMPDEST PUSH1 0x0 DUP2 SWAP1 POP SWAP3 SWAP2 POP POP JUMP JUMPDEST POP JUMP JUMPDEST PUSH1 0x0 PUSH2 0x2972 PUSH1 0x0 DUP4 PUSH2 0x2957 JUMP JUMPDEST SWAP2 POP PUSH2 0x297D DUP3 PUSH2 0x2962 JUMP JUMPDEST PUSH1 0x0 DUP3 ADD SWAP1 POP SWAP2 SWAP1 POP JUMP JUMPDEST PUSH1 0x0 PUSH2 0x2993 DUP3 PUSH2 0x2965 JUMP JUMPDEST SWAP2 POP DUP2 SWAP1 POP SWAP2 SWAP1 POP JUMP JUMPDEST PUSH32 0x72656D6F7665206C6971756964697479202D20657468207061796D656E742064 PUSH1 0x0 DUP3 ADD MSTORE PUSH32 0x69646E277420776F726B00000000000000000000000000000000000000000000 PUSH1 0x20 DUP3 ADD MSTORE POP JUMP JUMPDEST PUSH1 0x0 PUSH2 0x29F9 PUSH1 0x2A DUP4 PUSH2 0x1ECA JUMP JUMPDEST SWAP2 POP PUSH2 0x2A04 DUP3 PUSH2 0x299D JUMP JUMPDEST PUSH1 0x40 DUP3 ADD SWAP1 POP SWAP2 SWAP1 POP JUMP JUMPDEST PUSH1 0x0 PUSH1 0x20 DUP3 ADD SWAP1 POP DUP2 DUP2 SUB PUSH1 0x0 DUP4 ADD MSTORE PUSH2 0x2A28 DUP2 PUSH2 0x29EC JUMP JUMPDEST SWAP1 POP SWAP2 SWAP1 POP JUMP JUMPDEST PUSH32 0x43616E206F6E6C792063616C6C2063726561746520706F6F6C206F6E63652100 PUSH1 0x0 DUP3 ADD MSTORE POP JUMP JUMPDEST PUSH1 0x0 PUSH2 0x2A65 PUSH1 0x1F DUP4 PUSH2 0x1ECA JUMP JUMPDEST SWAP2 POP PUSH2 0x2A70 DUP3 PUSH2 0x2A2F JUMP JUMPDEST PUSH1 0x20 DUP3 ADD SWAP1 POP SWAP2 SWAP1 POP JUMP JUMPDEST PUSH1 0x0 PUSH1 0x20 DUP3 ADD SWAP1 POP DUP2 DUP2 SUB PUSH1 0x0 DUP4 ADD MSTORE PUSH2 0x2A94 DUP2 PUSH2 0x2A58 JUMP JUMPDEST SWAP1 POP SWAP2 SWAP1 POP JUMP JUMPDEST PUSH32 0x4F6E6C792074686520636F6E7472616374206465706C6F7965722063616E2063 PUSH1 0x0 DUP3 ADD MSTORE PUSH32 0x616C6C20746869732066756E6374696F6E2E0000000000000000000000000000 PUSH1 0x20 DUP3 ADD MSTORE POP JUMP JUMPDEST PUSH1 0x0 PUSH2 0x2AF7 PUSH1 0x32 DUP4 PUSH2 0x1ECA JUMP JUMPDEST SWAP2 POP PUSH2 0x2B02 DUP3 PUSH2 0x2A9B JUMP JUMPDEST PUSH1 0x40 DUP3 ADD SWAP1 POP SWAP2 SWAP1 POP JUMP JUMPDEST PUSH1 0x0 PUSH1 0x20 DUP3 ADD SWAP1 POP DUP2 DUP2 SUB PUSH1 0x0 DUP4 ADD MSTORE PUSH2 0x2B26 DUP2 PUSH2 0x2AEA JUMP JUMPDEST SWAP1 POP SWAP2 SWAP1 POP JUMP JUMPDEST PUSH32 0x43616E6E6F74206368617267652066656573206F662031303025206F72206869 PUSH1 0x0 DUP3 ADD MSTORE PUSH32 0x6768657200000000000000000000000000000000000000000000000000000000 PUSH1 0x20 DUP3 ADD MSTORE POP JUMP JUMPDEST PUSH1 0x0 PUSH2 0x2B89 PUSH1 0x24 DUP4 PUSH2 0x1ECA JUMP JUMPDEST SWAP2 POP PUSH2 0x2B94 DUP3 PUSH2 0x2B2D JUMP JUMPDEST PUSH1 0x40 DUP3 ADD SWAP1 POP SWAP2 SWAP1 POP JUMP JUMPDEST PUSH1 0x0 PUSH1 0x20 DUP3 ADD SWAP1 POP DUP2 DUP2 SUB PUSH1 0x0 DUP4 ADD MSTORE PUSH2 0x2BB8 DUP2 PUSH2 0x2B7C JUMP JUMPDEST SWAP1 POP SWAP2 SWAP1 POP JUMP JUMPDEST PUSH32 0x4D757374206465706F73697420706F73746976652065746820666F72206C6971 PUSH1 0x0 DUP3 ADD MSTORE PUSH32 0x7569646974790000000000000000000000000000000000000000000000000000 PUSH1 0x20 DUP3 ADD MSTORE POP JUMP JUMPDEST PUSH1 0x0 PUSH2 0x2C1B PUSH1 0x26 DUP4 PUSH2 0x1ECA JUMP JUMPDEST SWAP2 POP PUSH2 0x2C26 DUP3 PUSH2 0x2BBF JUMP JUMPDEST PUSH1 0x40 DUP3 ADD SWAP1 POP SWAP2 SWAP1 POP JUMP JUMPDEST PUSH1 0x0 PUSH1 0x20 DUP3 ADD SWAP1 POP DUP2 DUP2 SUB PUSH1 0x0 DUP4 ADD MSTORE PUSH2 0x2C4A DUP2 PUSH2 0x2C0E JUMP JUMPDEST SWAP1 POP SWAP2 SWAP1 POP JUMP JUMPDEST PUSH32 0x4D757374206465706F73697420706F736974766520746F6B656E20666F72206C PUSH1 0x0 DUP3 ADD MSTORE PUSH32 0x6971756964697479000000000000000000000000000000000000000000000000 PUSH1 0x20 DUP3 ADD MSTORE POP JUMP JUMPDEST PUSH1 0x0 PUSH2 0x2CAD PUSH1 0x28 DUP4 PUSH2 0x1ECA JUMP JUMPDEST SWAP2 POP PUSH2 0x2CB8 DUP3 PUSH2 0x2C51 JUMP JUMPDEST PUSH1 0x40 DUP3 ADD SWAP1 POP SWAP2 SWAP1 POP JUMP JUMPDEST PUSH1 0x0 PUSH1 0x20 DUP3 ADD SWAP1 POP DUP2 DUP2 SUB PUSH1 0x0 DUP4 ADD MSTORE PUSH2 0x2CDC DUP2 PUSH2 0x2CA0 JUMP JUMPDEST SWAP1 POP SWAP2 SWAP1 POP JUMP JUMPDEST PUSH1 0x0 PUSH1 0x60 DUP3 ADD SWAP1 POP PUSH2 0x2CF8 PUSH1 0x0 DUP4 ADD DUP7 PUSH2 0x1F9F JUMP JUMPDEST PUSH2 0x2D05 PUSH1 0x20 DUP4 ADD DUP6 PUSH2 0x1F9F JUMP JUMPDEST PUSH2 0x2D12 PUSH1 0x40 DUP4 ADD DUP5 PUSH2 0x1FAE JUMP JUMPDEST SWAP5 SWAP4 POP POP POP POP JUMP JUMPDEST PUSH32 0x7472616E7366657246726F6D207265766572746564202D206469642073656E64 PUSH1 0x0 DUP3 ADD MSTORE PUSH32 0x65722063616C6C20617070726F766528293F0000000000000000000000000000 PUSH1 0x20 DUP3 ADD MSTORE POP JUMP JUMPDEST PUSH1 0x0 PUSH2 0x2D76 PUSH1 0x32 DUP4 PUSH2 0x1ECA JUMP JUMPDEST SWAP2 POP PUSH2 0x2D81 DUP3 PUSH2 0x2D1A JUMP JUMPDEST PUSH1 0x40 DUP3 ADD SWAP1 POP SWAP2 SWAP1 POP JUMP JUMPDEST PUSH1 0x0 PUSH1 0x20 DUP3 ADD SWAP1 POP DUP2 DUP2 SUB PUSH1 0x0 DUP4 ADD MSTORE PUSH2 0x2DA5 DUP2 PUSH2 0x2D69 JUMP JUMPDEST SWAP1 POP SWAP2 SWAP1 POP JUMP JUMPDEST PUSH32 0x7472616E7366657246726F6D207265766572746564202D206469642073656E64 PUSH1 0x0 DUP3 ADD MSTORE PUSH32 0x65722063616C6C20617070726F766528293F20466F7220636F72726563742061 PUSH1 0x20 DUP3 ADD MSTORE PUSH32 0x6D6F756E743F0000000000000000000000000000000000000000000000000000 PUSH1 0x40 DUP3 ADD MSTORE POP JUMP JUMPDEST PUSH1 0x0 PUSH2 0x2E2E PUSH1 0x46 DUP4 PUSH2 0x1ECA JUMP JUMPDEST SWAP2 POP PUSH2 0x2E39 DUP3 PUSH2 0x2DAC JUMP JUMPDEST PUSH1 0x60 DUP3 ADD SWAP1 POP SWAP2 SWAP1 POP JUMP JUMPDEST PUSH1 0x0 PUSH1 0x20 DUP3 ADD SWAP1 POP DUP2 DUP2 SUB PUSH1 0x0 DUP4 ADD MSTORE PUSH2 0x2E5D DUP2 PUSH2 0x2E21 JUMP JUMPDEST SWAP1 POP SWAP2 SWAP1 POP JUMP JUMPDEST PUSH32 0x496E646966666572656E636520637572766520776173206E6F74206D61696E74 PUSH1 0x0 DUP3 ADD MSTORE PUSH32 0x61696E656421202D206F6E455243323052656365697665642829000000000000 PUSH1 0x20 DUP3 ADD MSTORE POP JUMP JUMPDEST PUSH1 0x0 PUSH2 0x2EC0 PUSH1 0x3A DUP4 PUSH2 0x1ECA JUMP JUMPDEST SWAP2 POP PUSH2 0x2ECB DUP3 PUSH2 0x2E64 JUMP JUMPDEST PUSH1 0x40 DUP3 ADD SWAP1 POP SWAP2 SWAP1 POP JUMP JUMPDEST PUSH1 0x0 PUSH1 0x20 DUP3 ADD SWAP1 POP DUP2 DUP2 SUB PUSH1 0x0 DUP4 ADD MSTORE PUSH2 0x2EEF DUP2 PUSH2 0x2EB3 JUMP JUMPDEST SWAP1 POP SWAP2 SWAP1 POP JUMP JUMPDEST PUSH32 0x6F6E45524332305265636569766564202D20657468207061796D656E74206469 PUSH1 0x0 DUP3 ADD MSTORE PUSH32 0x646E277420776F726B0000000000000000000000000000000000000000000000 PUSH1 0x20 DUP3 ADD MSTORE POP JUMP JUMPDEST PUSH1 0x0 PUSH2 0x2F52 PUSH1 0x29 DUP4 PUSH2 0x1ECA JUMP JUMPDEST SWAP2 POP PUSH2 0x2F5D DUP3 PUSH2 0x2EF6 JUMP JUMPDEST PUSH1 0x40 DUP3 ADD SWAP1 POP SWAP2 SWAP1 POP JUMP JUMPDEST PUSH1 0x0 PUSH1 0x20 DUP3 ADD SWAP1 POP DUP2 DUP2 SUB PUSH1 0x0 DUP4 ADD MSTORE PUSH2 0x2F81 DUP2 PUSH2 0x2F45 JUMP JUMPDEST SWAP1 POP SWAP2 SWAP1 POP JUMP JUMPDEST PUSH32 0x4D7573742068617665206164646564206120706F73697469766520616D6F756E PUSH1 0x0 DUP3 ADD MSTORE PUSH32 0x74206F6620657468206C69717569646974790000000000000000000000000000 PUSH1 0x20 DUP3 ADD MSTORE POP JUMP JUMPDEST PUSH1 0x0 PUSH2 0x2FE4 PUSH1 0x32 DUP4 PUSH2 0x1ECA JUMP JUMPDEST SWAP2 POP PUSH2 0x2FEF DUP3 PUSH2 0x2F88 JUMP JUMPDEST PUSH1 0x40 DUP3 ADD SWAP1 POP SWAP2 SWAP1 POP JUMP JUMPDEST PUSH1 0x0 PUSH1 0x20 DUP3 ADD SWAP1 POP DUP2 DUP2 SUB PUSH1 0x0 DUP4 ADD MSTORE PUSH2 0x3013 DUP2 PUSH2 0x2FD7 JUMP JUMPDEST SWAP1 POP SWAP2 SWAP1 POP JUMP JUMPDEST PUSH32 0x6C69717569746964792062616C656E63696E6720636F6D7075746174696F6E20 PUSH1 0x0 DUP3 ADD MSTORE PUSH32 0x697320696E636F72726563740000000000000000000000000000000000000000 PUSH1 0x20 DUP3 ADD MSTORE POP JUMP JUMPDEST PUSH1 0x0 PUSH2 0x3076 PUSH1 0x2C DUP4 PUSH2 0x1ECA JUMP JUMPDEST SWAP2 POP PUSH2 0x3081 DUP3 PUSH2 0x301A JUMP JUMPDEST PUSH1 0x40 DUP3 ADD SWAP1 POP SWAP2 SWAP1 POP JUMP JUMPDEST PUSH1 0x0 PUSH1 0x20 DUP3 ADD SWAP1 POP DUP2 DUP2 SUB PUSH1 0x0 DUP4 ADD MSTORE PUSH2 0x30A5 DUP2 PUSH2 0x3069 JUMP JUMPDEST SWAP1 POP SWAP2 SWAP1 POP JUMP JUMPDEST PUSH32 0x7472616E7366657246726F6D207265766572746564202D206469642073656E64 PUSH1 0x0 DUP3 ADD MSTORE PUSH32 0x65722063616C6C20617070726F766528293F207769746820617070726F707269 PUSH1 0x20 DUP3 ADD MSTORE PUSH32 0x61746520616D6F756E743F000000000000000000000000000000000000000000 PUSH1 0x40 DUP3 ADD MSTORE POP JUMP JUMPDEST PUSH1 0x0 PUSH2 0x312E PUSH1 0x4B DUP4 PUSH2 0x1ECA JUMP JUMPDEST SWAP2 POP PUSH2 0x3139 DUP3 PUSH2 0x30AC JUMP JUMPDEST PUSH1 0x60 DUP3 ADD SWAP1 POP SWAP2 SWAP1 POP JUMP JUMPDEST PUSH1 0x0 PUSH1 0x20 DUP3 ADD SWAP1 POP DUP2 DUP2 SUB PUSH1 0x0 DUP4 ADD MSTORE PUSH2 0x315D DUP2 PUSH2 0x3121 JUMP JUMPDEST SWAP1 POP SWAP2 SWAP1 POP JUMP INVALID LOG2 PUSH5 0x6970667358 0x22 SLT KECCAK256 POP COINBASE 0x22 PUSH28 0xF2ECAD9F3DB5670493D31EB48F2CEDAC2111E34761A09342E53E7272 PUSH5 0x736F6C6343 STOP ADDMOD LT STOP CALLER "
		},
		"gasEstimates": {
			"creation": {
				"codeDepositCost": "2539600",
				"executionCost": "75640",
				"totalCost": "2615240"
			},
			"external": {
				"addLiquidity()": "infinite",
				"createPool(uint256,uint256,uint256,address,address)": "infinite",
				"decimals()": "infinite",
				"erc20Address()": "2604",
				"etherLiquidityForAddress(address)": "2880",
				"etherPricer()": "2581",
				"feeDenominator()": "2497",
				"feeNumerator()": "2539",
				"feesEther()": "2518",
				"feesToken()": "2541",
				"getDEXinfo()": "infinite",
				"getEtherPrice()": "infinite",
				"getPoolLiquidityInUSDCents()": "infinite",
				"getTokenPrice()": "infinite",
				"k()": "2540",
				"onERC20Received(address,uint256)": "infinite",
				"removeLiquidity(uint256)": "infinite",
				"setEtherPricer(address)": "24854",
				"supportsInterface(bytes4)": "754",
				"symbol()": "infinite",
				"tokenLiquidityForAddress(address)": "2925",
				"x()": "2475",
				"y()": "2496"
			}
		},
		"methodIdentifiers": {
			"addLiquidity()": "e8078d94",
			"createPool(uint256,uint256,uint256,address,address)": "add010a5",
			"decimals()": "313ce567",
			"erc20Address()": "276184ae",
			"etherLiquidityForAddress(address)": "d3c51d91",
			"etherPricer()": "4f54a081",
			"feeDenominator()": "180b0d7e",
			"feeNumerator()": "e86dea4a",
			"feesEther()": "5dfd8773",
			"feesToken()": "2bfdf307",
			"getDEXinfo()": "9fed4ad8",
			"getEtherPrice()": "ca7c4dba",
			"getPoolLiquidityInUSDCents()": "b7c56525",
			"getTokenPrice()": "4b94f50e",
			"k()": "b4f40c61",
			"onERC20Received(address,uint256)": "bc04f0af",
			"removeLiquidity(uint256)": "9c8f9f23",
			"setEtherPricer(address)": "feffe7e4",
			"supportsInterface(bytes4)": "01ffc9a7",
			"symbol()": "95d89b41",
			"tokenLiquidityForAddress(address)": "8d729abb",
			"x()": "0c55699c",
			"y()": "a56dfe4a"
		}
	},
	"abi": [
		{
			"inputs": [],
			"stateMutability": "nonpayable",
			"type": "constructor"
		},
		{
			"anonymous": false,
			"inputs": [],
			"name": "liquidityChangeEvent",
			"type": "event"
		},
		{
			"inputs": [],
			"name": "addLiquidity",
			"outputs": [],
			"stateMutability": "payable",
			"type": "function"
		},
		{
			"inputs": [
				{
					"internalType": "uint256",
					"name": "_tokenAmount",
					"type": "uint256"
				},
				{
					"internalType": "uint256",
					"name": "_feeNumerator",
					"type": "uint256"
				},
				{
					"internalType": "uint256",
					"name": "_feeDenominator",
					"type": "uint256"
				},
				{
					"internalType": "address",
					"name": "_erc20token",
					"type": "address"
				},
				{
					"internalType": "address",
					"name": "_etherPricer",
					"type": "address"
				}
			],
			"name": "createPool",
			"outputs": [],
			"stateMutability": "payable",
			"type": "function"
		},
		{
			"inputs": [],
			"name": "decimals",
			"outputs": [
				{
					"internalType": "uint256",
					"name": "",
					"type": "uint256"
				}
			],
			"stateMutability": "view",
			"type": "function"
		},
		{
			"inputs": [],
			"name": "erc20Address",
			"outputs": [
				{
					"internalType": "address",
					"name": "",
					"type": "address"
				}
			],
			"stateMutability": "view",
			"type": "function"
		},
		{
			"inputs": [
				{
					"internalType": "address",
					"name": "",
					"type": "address"
				}
			],
			"name": "etherLiquidityForAddress",
			"outputs": [
				{
					"internalType": "uint256",
					"name": "",
					"type": "uint256"
				}
			],
			"stateMutability": "view",
			"type": "function"
		},
		{
			"inputs": [],
			"name": "etherPricer",
			"outputs": [
				{
					"internalType": "address",
					"name": "",
					"type": "address"
				}
			],
			"stateMutability": "view",
			"type": "function"
		},
		{
			"inputs": [],
			"name": "feeDenominator",
			"outputs": [
				{
					"internalType": "uint256",
					"name": "",
					"type": "uint256"
				}
			],
			"stateMutability": "view",
			"type": "function"
		},
		{
			"inputs": [],
			"name": "feeNumerator",
			"outputs": [
				{
					"internalType": "uint256",
					"name": "",
					"type": "uint256"
				}
			],
			"stateMutability": "view",
			"type": "function"
		},
		{
			"inputs": [],
			"name": "feesEther",
			"outputs": [
				{
					"internalType": "uint256",
					"name": "",
					"type": "uint256"
				}
			],
			"stateMutability": "view",
			"type": "function"
		},
		{
			"inputs": [],
			"name": "feesToken",
			"outputs": [
				{
					"internalType": "uint256",
					"name": "",
					"type": "uint256"
				}
			],
			"stateMutability": "view",
			"type": "function"
		},
		{
			"inputs": [],
			"name": "getDEXinfo",
			"outputs": [
				{
					"internalType": "address",
					"name": "",
					"type": "address"
				},
				{
					"internalType": "string",
					"name": "",
					"type": "string"
				},
				{
					"internalType": "string",
					"name": "",
					"type": "string"
				},
				{
					"internalType": "address",
					"name": "",
					"type": "address"
				},
				{
					"internalType": "uint256",
					"name": "",
					"type": "uint256"
				},
				{
					"internalType": "uint256",
					"name": "",
					"type": "uint256"
				},
				{
					"internalType": "uint256",
					"name": "",
					"type": "uint256"
				},
				{
					"internalType": "uint256",
					"name": "",
					"type": "uint256"
				},
				{
					"internalType": "uint256",
					"name": "",
					"type": "uint256"
				},
				{
					"internalType": "uint256",
					"name": "",
					"type": "uint256"
				},
				{
					"internalType": "uint256",
					"name": "",
					"type": "uint256"
				},
				{
					"internalType": "uint256",
					"name": "",
					"type": "uint256"
				}
			],
			"stateMutability": "view",
			"type": "function"
		},
		{
			"inputs": [],
			"name": "getEtherPrice",
			"outputs": [
				{
					"internalType": "uint256",
					"name": "",
					"type": "uint256"
				}
			],
			"stateMutability": "view",
			"type": "function"
		},
		{
			"inputs": [],
			"name": "getPoolLiquidityInUSDCents",
			"outputs": [
				{
					"internalType": "uint256",
					"name": "",
					"type": "uint256"
				}
			],
			"stateMutability": "view",
			"type": "function"
		},
		{
			"inputs": [],
			"name": "getTokenPrice",
			"outputs": [
				{
					"internalType": "uint256",
					"name": "",
					"type": "uint256"
				}
			],
			"stateMutability": "view",
			"type": "function"
		},
		{
			"inputs": [],
			"name": "k",
			"outputs": [
				{
					"internalType": "uint256",
					"name": "",
					"type": "uint256"
				}
			],
			"stateMutability": "view",
			"type": "function"
		},
		{
			"inputs": [
				{
					"internalType": "address",
					"name": "from",
					"type": "address"
				},
				{
					"internalType": "uint256",
					"name": "amount",
					"type": "uint256"
				}
			],
			"name": "onERC20Received",
			"outputs": [
				{
					"internalType": "bool",
					"name": "",
					"type": "bool"
				}
			],
			"stateMutability": "nonpayable",
			"type": "function"
		},
		{
			"inputs": [
				{
					"internalType": "uint256",
					"name": "amountEther",
					"type": "uint256"
				}
			],
			"name": "removeLiquidity",
			"outputs": [],
			"stateMutability": "nonpayable",
			"type": "function"
		},
		{
			"inputs": [
				{
					"internalType": "address",
					"name": "p",
					"type": "address"
				}
			],
			"name": "setEtherPricer",
			"outputs": [],
			"stateMutability": "nonpayable",
			"type": "function"
		},
		{
			"inputs": [
				{
					"internalType": "bytes4",
					"name": "interfaceId",
					"type": "bytes4"
				}
			],
			"name": "supportsInterface",
			"outputs": [
				{
					"internalType": "bool",
					"name": "",
					"type": "bool"
				}
			],
			"stateMutability": "pure",
			"type": "function"
		},
		{
			"inputs": [],
			"name": "symbol",
			"outputs": [
				{
					"internalType": "string",
					"name": "",
					"type": "string"
				}
			],
			"stateMutability": "view",
			"type": "function"
		},
		{
			"inputs": [
				{
					"internalType": "address",
					"name": "",
					"type": "address"
				}
			],
			"name": "tokenLiquidityForAddress",
			"outputs": [
				{
					"internalType": "uint256",
					"name": "",
					"type": "uint256"
				}
			],
			"stateMutability": "view",
			"type": "function"
		},
		{
			"inputs": [],
			"name": "x",
			"outputs": [
				{
					"internalType": "uint256",
					"name": "",
					"type": "uint256"
				}
			],
			"stateMutability": "view",
			"type": "function"
		},
		{
			"inputs": [],
			"name": "y",
			"outputs": [
				{
					"internalType": "uint256",
					"name": "",
					"type": "uint256"
				}
			],
			"stateMutability": "view",
			"type": "function"
		},
		{
			"stateMutability": "payable",
			"type": "receive"
		}
	]
}