{
	"data": {
		"bytecode": {
			"linkReferences": {},
			"object": "60806040523480156200001157600080fd5b506040516200002090620000ef565b604051809103906000f0801580156200003d573d6000803e3d6000fd5b506000806101000a81548173ffffffffffffffffffffffffffffffffffffffff021916908373ffffffffffffffffffffffffffffffffffffffff1602179055506040516200008b90620000fd565b604051809103906000f080158015620000a8573d6000803e3d6000fd5b50600160006101000a81548173ffffffffffffffffffffffffffffffffffffffff021916908373ffffffffffffffffffffffffffffffffffffffff1602179055506200010b565b6120d28062001dec83390190565b61322f8062003ebe83390190565b611cd1806200011b6000396000f3fe6080604052600436106100385760003560e01c8063692058c214610044578063f6420e151461006f578063f8a8fd6d1461009a5761003f565b3661003f57005b600080fd5b34801561005057600080fd5b506100596100a4565b6040516100669190610c33565b60405180910390f35b34801561007b57600080fd5b506100846100ca565b6040516100919190610c81565b60405180910390f35b6100a26100ee565b005b600160009054906101000a900473ffffffffffffffffffffffffffffffffffffffff1681565b60008054906101000a900473ffffffffffffffffffffffffffffffffffffffff1681565b67b469471f801400003414610138576040517f08c379a000000000000000000000000000000000000000000000000000000000815260040161012f90610cf9565b60405180910390fd5b600060405161014690610ba7565b604051809103906000f080158015610162573d6000803e3d6000fd5b5090506000600160009054906101000a900473ffffffffffffffffffffffffffffffffffffffff1673ffffffffffffffffffffffffffffffffffffffff1663b4f40c616040518163ffffffff1660e01b8152600401602060405180830381865afa1580156101d4573d6000803e3d6000fd5b505050506040513d601f19601f820116820180604052508101906101f89190610d5e565b14610238576040517f08c379a000000000000000000000000000000000000000000000000000000000815260040161022f90610dfd565b60405180910390fd5b6000600160009054906101000a900473ffffffffffffffffffffffffffffffffffffffff1673ffffffffffffffffffffffffffffffffffffffff16630c55699c6040518163ffffffff1660e01b8152600401602060405180830381865afa1580156102a7573d6000803e3d6000fd5b505050506040513d601f19601f820116820180604052508101906102cb9190610d5e565b1461030b576040517f08c379a000000000000000000000000000000000000000000000000000000000815260040161030290610e8f565b60405180910390fd5b6000600160009054906101000a900473ffffffffffffffffffffffffffffffffffffffff1673ffffffffffffffffffffffffffffffffffffffff1663a56dfe4a6040518163ffffffff1660e01b8152600401602060405180830381865afa15801561037a573d6000803e3d6000fd5b505050506040513d601f19601f8201168201806040525081019061039e9190610d5e565b146103de576040517f08c379a00000000000000000000000000000000000000000000000000000000081526004016103d590610f21565b60405180910390fd5b60008060009054906101000a900473ffffffffffffffffffffffffffffffffffffffff1673ffffffffffffffffffffffffffffffffffffffff1663095ea7b3600160009054906101000a900473ffffffffffffffffffffffffffffffffffffffff1660008054906101000a900473ffffffffffffffffffffffffffffffffffffffff1673ffffffffffffffffffffffffffffffffffffffff1663313ce5676040518163ffffffff1660e01b8152600401602060405180830381865afa1580156104ab573d6000803e3d6000fd5b505050506040513d601f19601f820116820180604052508101906104cf9190610f7a565b600a6104db9190611109565b60646104e79190611154565b6040518363ffffffff1660e01b81526004016105049291906111de565b6020604051808303816000875af1158015610523573d6000803e3d6000fd5b505050506040513d601f19601f82011682018060405250810190610547919061123f565b905080610589576040517f08c379a0000000000000000000000000000000000000000000000000000000008152600401610580906112de565b60405180910390fd5b600160009054906101000a900473ffffffffffffffffffffffffffffffffffffffff1673ffffffffffffffffffffffffffffffffffffffff1663add010a5678ac7230489e8000060008054906101000a900473ffffffffffffffffffffffffffffffffffffffff1673ffffffffffffffffffffffffffffffffffffffff1663313ce5676040518163ffffffff1660e01b8152600401602060405180830381865afa15801561063b573d6000803e3d6000fd5b505050506040513d601f19601f8201168201806040525081019061065f9190610f7a565b600a61066b9190611109565b60646106779190611154565b60006103e860008054906101000a900473ffffffffffffffffffffffffffffffffffffffff16886040518763ffffffff1660e01b81526004016106be959493929190611374565b6000604051808303818588803b1580156106d757600080fd5b505af1935050505080156106e9575060015b61078f576106f56113d4565b806308c379a00361077e5750610709611467565b806107145750610780565b600081604051602001610727919061158e565b60405160208183030381529060405290610777576040517f08c379a000000000000000000000000000000000000000000000000000000000815260040161076e91906115ed565b60405180910390fd5b505061078a565b505b3d6000803e3d6000fd5b610790565b5b60008054906101000a900473ffffffffffffffffffffffffffffffffffffffff1673ffffffffffffffffffffffffffffffffffffffff1663313ce5676040518163ffffffff1660e01b8152600401602060405180830381865afa1580156107fb573d6000803e3d6000fd5b505050506040513d601f19601f8201168201806040525081019061081f9190610f7a565b600a61082b9190611109565b683635c9adc5dea0000061083f9190611154565b600160009054906101000a900473ffffffffffffffffffffffffffffffffffffffff1673ffffffffffffffffffffffffffffffffffffffff1663b4f40c616040518163ffffffff1660e01b8152600401602060405180830381865afa1580156108ac573d6000803e3d6000fd5b505050506040513d601f19601f820116820180604052508101906108d09190610d5e565b14610910576040517f08c379a000000000000000000000000000000000000000000000000000000000815260040161090790611681565b60405180910390fd5b678ac7230489e80000600160009054906101000a900473ffffffffffffffffffffffffffffffffffffffff1673ffffffffffffffffffffffffffffffffffffffff16630c55699c6040518163ffffffff1660e01b8152600401602060405180830381865afa158015610986573d6000803e3d6000fd5b505050506040513d601f19601f820116820180604052508101906109aa9190610d5e565b146109ea576040517f08c379a00000000000000000000000000000000000000000000000000000000081526004016109e190611713565b60405180910390fd5b60008054906101000a900473ffffffffffffffffffffffffffffffffffffffff1673ffffffffffffffffffffffffffffffffffffffff1663313ce5676040518163ffffffff1660e01b8152600401602060405180830381865afa158015610a55573d6000803e3d6000fd5b505050506040513d601f19601f82011682018060405250810190610a799190610f7a565b600a610a859190611109565b6064610a919190611154565b600160009054906101000a900473ffffffffffffffffffffffffffffffffffffffff1673ffffffffffffffffffffffffffffffffffffffff1663a56dfe4a6040518163ffffffff1660e01b8152600401602060405180830381865afa158015610afe573d6000803e3d6000fd5b505050506040513d601f19601f82011682018060405250810190610b229190610d5e565b14610b62576040517f08c379a0000000000000000000000000000000000000000000000000000000008152600401610b59906117a5565b60405180910390fd5b6000610ba3576040517f08c379a0000000000000000000000000000000000000000000000000000000008152600401610b9a90611811565b60405180910390fd5b5050565b61046a8061183283390190565b600073ffffffffffffffffffffffffffffffffffffffff82169050919050565b6000819050919050565b6000610bf9610bf4610bef84610bb4565b610bd4565b610bb4565b9050919050565b6000610c0b82610bde565b9050919050565b6000610c1d82610c00565b9050919050565b610c2d81610c12565b82525050565b6000602082019050610c486000830184610c24565b92915050565b6000610c5982610bde565b9050919050565b6000610c6b82610c4e565b9050919050565b610c7b81610c60565b82525050565b6000602082019050610c966000830184610c72565b92915050565b600082825260208201905092915050565b7f4d7573742063616c6c2074657374282920776974682031332065746865720000600082015250565b6000610ce3601e83610c9c565b9150610cee82610cad565b602082019050919050565b60006020820190508181036000830152610d1281610cd6565b9050919050565b6000604051905090565b600080fd5b6000819050919050565b610d3b81610d28565b8114610d4657600080fd5b50565b600081519050610d5881610d32565b92915050565b600060208284031215610d7457610d73610d23565b5b6000610d8284828501610d49565b91505092915050565b7f6b2076616c7565206e6f74203020616674657220444558206372656174696f6e60008201527f2829000000000000000000000000000000000000000000000000000000000000602082015250565b6000610de7602283610c9c565b9150610df282610d8b565b604082019050919050565b60006020820190508181036000830152610e1681610dda565b9050919050565b7f782076616c7565206e6f74203020616674657220444558206372656174696f6e60008201527f2829000000000000000000000000000000000000000000000000000000000000602082015250565b6000610e79602283610c9c565b9150610e8482610e1d565b604082019050919050565b60006020820190508181036000830152610ea881610e6c565b9050919050565b7f792076616c7565206e6f74203020616674657220444558206372656174696f6e60008201527f2829000000000000000000000000000000000000000000000000000000000000602082015250565b6000610f0b602283610c9c565b9150610f1682610eaf565b604082019050919050565b60006020820190508181036000830152610f3a81610efe565b9050919050565b600060ff82169050919050565b610f5781610f41565b8114610f6257600080fd5b50565b600081519050610f7481610f4e565b92915050565b600060208284031215610f9057610f8f610d23565b5b6000610f9e84828501610f65565b91505092915050565b7f4e487b7100000000000000000000000000000000000000000000000000000000600052601160045260246000fd5b60008160011c9050919050565b6000808291508390505b600185111561102d5780860481111561100957611008610fa7565b5b60018516156110185780820291505b808102905061102685610fd6565b9450610fed565b94509492505050565b6000826110465760019050611102565b816110545760009050611102565b816001811461106a5760028114611074576110a3565b6001915050611102565b60ff84111561108657611085610fa7565b5b8360020a91508482111561109d5761109c610fa7565b5b50611102565b5060208310610133831016604e8410600b84101617156110d85782820a9050838111156110d3576110d2610fa7565b5b611102565b6110e58484846001610fe3565b925090508184048111156110fc576110fb610fa7565b5b81810290505b9392505050565b600061111482610d28565b915061111f83610f41565b925061114c7fffffffffffffffffffffffffffffffffffffffffffffffffffffffffffffffff8484611036565b905092915050565b600061115f82610d28565b915061116a83610d28565b9250817fffffffffffffffffffffffffffffffffffffffffffffffffffffffffffffffff04831182151516156111a3576111a2610fa7565b5b828202905092915050565b60006111b982610bb4565b9050919050565b6111c9816111ae565b82525050565b6111d881610d28565b82525050565b60006040820190506111f360008301856111c0565b61120060208301846111cf565b9392505050565b60008115159050919050565b61121c81611207565b811461122757600080fd5b50565b60008151905061123981611213565b92915050565b60006020828403121561125557611254610d23565b5b60006112638482850161122a565b91505092915050565b7f4661696c656420746f20617070726f7665205443206265666f7265206372656160008201527f7465506f6f6c2829000000000000000000000000000000000000000000000000602082015250565b60006112c8602883610c9c565b91506112d38261126c565b604082019050919050565b600060208201905081810360008301526112f7816112bb565b9050919050565b6000819050919050565b600061132361131e611319846112fe565b610bd4565b610d28565b9050919050565b61133381611308565b82525050565b6000819050919050565b600061135e61135961135484611339565b610bd4565b610d28565b9050919050565b61136e81611343565b82525050565b600060a08201905061138960008301886111cf565b611396602083018761132a565b6113a36040830186611365565b6113b060608301856111c0565b6113bd60808301846111c0565b9695505050505050565b60008160e01c9050919050565b600060033d11156113f35760046000803e6113f06000516113c7565b90505b90565b6000601f19601f8301169050919050565b7f4e487b7100000000000000000000000000000000000000000000000000000000600052604160045260246000fd5b61143f826113f6565b810181811067ffffffffffffffff8211171561145e5761145d611407565b5b80604052505050565b600060443d106114f457611479610d19565b60043d036004823e80513d602482011167ffffffffffffffff821117156114a15750506114f4565b808201805167ffffffffffffffff8111156114bf57505050506114f4565b80602083010160043d0385018111156114dc5750505050506114f4565b6114eb82602001850186611436565b82955050505050505b90565b7f637265617465506f6f6c28292063616c6c2072657665727465643a2000000000815250565b600081519050919050565b600081905092915050565b60005b83811015611551578082015181840152602081019050611536565b60008484015250505050565b60006115688261151d565b6115728185611528565b9350611582818560208601611533565b80840191505092915050565b6000611599826114f7565b601c820191506115a9828461155d565b915081905092915050565b60006115bf8261151d565b6115c98185610c9c565b93506115d9818560208601611533565b6115e2816113f6565b840191505092915050565b6000602082019050818103600083015261160781846115b4565b905092915050565b7f6b2076616c7565206e6f7420636f72726563742061667465722063726561746560008201527f506f6f6c28290000000000000000000000000000000000000000000000000000602082015250565b600061166b602683610c9c565b91506116768261160f565b604082019050919050565b6000602082019050818103600083015261169a8161165e565b9050919050565b7f782076616c7565206e6f7420636f72726563742061667465722063726561746560008201527f506f6f6c28290000000000000000000000000000000000000000000000000000602082015250565b60006116fd602683610c9c565b9150611708826116a1565b604082019050919050565b6000602082019050818103600083015261172c816116f0565b9050919050565b7f792076616c7565206e6f7420636f72726563742061667465722063726561746560008201527f506f6f6c28290000000000000000000000000000000000000000000000000000602082015250565b600061178f602683610c9c565b915061179a82611733565b604082019050919050565b600060208201905081810360008301526117be81611782565b9050919050565b7f656e64206661696c000000000000000000000000000000000000000000000000600082015250565b60006117fb600883610c9c565b9150611806826117c5565b602082019050919050565b6000602082019050818103600083015261182a816117ee565b905091905056fe608060405234801561001057600080fd5b5061044a806100206000396000f3fe608060405234801561001057600080fd5b50600436106100575760003560e01c806301ffc9a71461005c57806306fdde031461008c578063313ce567146100aa57806395d89b41146100c8578063a035b1fe146100e6575b600080fd5b61007660048036038101906100719190610293565b610104565b60405161008391906102db565b60405180910390f35b6100946101d6565b6040516100a19190610386565b60405180910390f35b6100b26101f2565b6040516100bf91906103c1565b60405180910390f35b6100d06101f7565b6040516100dd9190610386565b60405180910390f35b6100ee610230565b6040516100fb91906103c1565b60405180910390f35b60007f022c11db000000000000000000000000000000000000000000000000000000007bffffffffffffffffffffffffffffffffffffffffffffffffffffffff1916827bffffffffffffffffffffffffffffffffffffffffffffffffffffffff191614806101cf57507f01ffc9a7000000000000000000000000000000000000000000000000000000007bffffffffffffffffffffffffffffffffffffffffffffffffffffffff1916827bffffffffffffffffffffffffffffffffffffffffffffffffffffffff1916145b9050919050565b6040518060600160405280603881526020016103dd6038913981565b600281565b6040518060400160405280600181526020017f240000000000000000000000000000000000000000000000000000000000000081525081565b61271081565b600080fd5b60007fffffffff0000000000000000000000000000000000000000000000000000000082169050919050565b6102708161023b565b811461027b57600080fd5b50565b60008135905061028d81610267565b92915050565b6000602082840312156102a9576102a8610236565b5b60006102b78482850161027e565b91505092915050565b60008115159050919050565b6102d5816102c0565b82525050565b60006020820190506102f060008301846102cc565b92915050565b600081519050919050565b600082825260208201905092915050565b60005b83811015610330578082015181840152602081019050610315565b60008484015250505050565b6000601f19601f8301169050919050565b6000610358826102f6565b6103628185610301565b9350610372818560208601610312565b61037b8161033c565b840191505092915050565b600060208201905081810360008301526103a0818461034d565b905092915050565b6000819050919050565b6103bb816103a8565b82525050565b60006020820190506103d660008301846103b2565b9291505056fe4120636f6e7374616e742045746865725072696365206f7261636c65207468617420616c776179732072657475726e7320243130302e3030a26469706673582212200916da454c6e5fc928a765ea82af5d933851a3b772fe82ce38f039d36f7fb5fe64736f6c63430008100033a2646970667358221220286f7c600c317968f6d502ec30f16d5e0ebcb4d01e98c263e99f83c4ce113e1764736f6c6343000810003360806040523480156200001157600080fd5b506040518060400160405280600881526020017f4d617278436f696e0000000000000000000000000000000000000000000000008152506040518060400160405280600381526020017f4d5843000000000000000000000000000000000000000000000000000000000081525081600390816200008f919062000613565b508060049081620000a1919062000613565b505050620000bf33683635c9adc5dea00000620000c560201b60201c565b62000993565b600073ffffffffffffffffffffffffffffffffffffffff168273ffffffffffffffffffffffffffffffffffffffff160362000137576040517f08c379a00000000000000000000000000000000000000000000000000000000081526004016200012e906200075b565b60405180910390fd5b6200014b600083836200023260201b60201c565b80600260008282546200015f9190620007ac565b92505081905550806000808473ffffffffffffffffffffffffffffffffffffffff1673ffffffffffffffffffffffffffffffffffffffff168152602001908152602001600020600082825401925050819055508173ffffffffffffffffffffffffffffffffffffffff16600073ffffffffffffffffffffffffffffffffffffffff167fddf252ad1be2c89b69c2b068fc378daa952ba7f163c4a11628f55a4df523b3ef83604051620002129190620007f8565b60405180910390a36200022e600083836200023760201b60201c565b5050565b505050565b60008273ffffffffffffffffffffffffffffffffffffffff163b1180156200028c5750600073ffffffffffffffffffffffffffffffffffffffff168373ffffffffffffffffffffffffffffffffffffffff1614155b8015620002c65750600073ffffffffffffffffffffffffffffffffffffffff168273ffffffffffffffffffffffffffffffffffffffff1614155b1562000394578173ffffffffffffffffffffffffffffffffffffffff1663bc04f0af84836040518363ffffffff1660e01b8152600401620003099291906200085a565b6020604051808303816000875af19250505080156200034857506040513d601f19601f82011682018060405250810190620003459190620008c9565b60015b1562000393578062000391576040517f08c379a0000000000000000000000000000000000000000000000000000000008152600401620003889062000971565b60405180910390fd5b505b5b505050565b600081519050919050565b7f4e487b7100000000000000000000000000000000000000000000000000000000600052604160045260246000fd5b7f4e487b7100000000000000000000000000000000000000000000000000000000600052602260045260246000fd5b600060028204905060018216806200041b57607f821691505b602082108103620004315762000430620003d3565b5b50919050565b60008190508160005260206000209050919050565b60006020601f8301049050919050565b600082821b905092915050565b6000600883026200049b7fffffffffffffffffffffffffffffffffffffffffffffffffffffffffffffffff826200045c565b620004a786836200045c565b95508019841693508086168417925050509392505050565b6000819050919050565b6000819050919050565b6000620004f4620004ee620004e884620004bf565b620004c9565b620004bf565b9050919050565b6000819050919050565b6200051083620004d3565b620005286200051f82620004fb565b84845462000469565b825550505050565b600090565b6200053f62000530565b6200054c81848462000505565b505050565b5b8181101562000574576200056860008262000535565b60018101905062000552565b5050565b601f821115620005c3576200058d8162000437565b62000598846200044c565b81016020851015620005a8578190505b620005c0620005b7856200044c565b83018262000551565b50505b505050565b600082821c905092915050565b6000620005e860001984600802620005c8565b1980831691505092915050565b6000620006038383620005d5565b9150826002028217905092915050565b6200061e8262000399565b67ffffffffffffffff8111156200063a5762000639620003a4565b5b62000646825462000402565b6200065382828562000578565b600060209050601f8311600181146200068b576000841562000676578287015190505b620006828582620005f5565b865550620006f2565b601f1984166200069b8662000437565b60005b82811015620006c5578489015182556001820191506020850194506020810190506200069e565b86831015620006e55784890151620006e1601f891682620005d5565b8355505b6001600288020188555050505b505050505050565b600082825260208201905092915050565b7f45524332303a206d696e7420746f20746865207a65726f206164647265737300600082015250565b600062000743601f83620006fa565b915062000750826200070b565b602082019050919050565b60006020820190508181036000830152620007768162000734565b9050919050565b7f4e487b7100000000000000000000000000000000000000000000000000000000600052601160045260246000fd5b6000620007b982620004bf565b9150620007c683620004bf565b9250828201905080821115620007e157620007e06200077d565b5b92915050565b620007f281620004bf565b82525050565b60006020820190506200080f6000830184620007e7565b92915050565b600073ffffffffffffffffffffffffffffffffffffffff82169050919050565b6000620008428262000815565b9050919050565b620008548162000835565b82525050565b600060408201905062000871600083018562000849565b620008806020830184620007e7565b9392505050565b600080fd5b60008115159050919050565b620008a3816200088c565b8114620008af57600080fd5b50565b600081519050620008c38162000898565b92915050565b600060208284031215620008e257620008e162000887565b5b6000620008f284828501620008b2565b91505092915050565b7f4552432d323020726563656970742072656a656374656420627920646573746960008201527f6e6174696f6e206f66207472616e736665720000000000000000000000000000602082015250565b600062000959603283620006fa565b91506200096682620008fb565b604082019050919050565b600060208201905081810360008301526200098c816200094a565b9050919050565b61172f80620009a36000396000f3fe608060405234801561001057600080fd5b50600436106100cf5760003560e01c8063395093511161008c578063a457c2d711610066578063a457c2d71461023c578063a9059cbb1461026c578063b026ba571461029c578063dd62ed3e146102a6576100cf565b806339509351146101be57806370a08231146101ee57806395d89b411461021e576100cf565b806301ffc9a7146100d457806306fdde0314610104578063095ea7b31461012257806318160ddd1461015257806323b872dd14610170578063313ce567146101a0575b600080fd5b6100ee60048036038101906100e99190610e31565b6102d6565b6040516100fb9190610e79565b60405180910390f35b61010c610478565b6040516101199190610f24565b60405180910390f35b61013c60048036038101906101379190610fda565b61050a565b6040516101499190610e79565b60405180910390f35b61015a61052d565b6040516101679190611029565b60405180910390f35b61018a60048036038101906101859190611044565b610537565b6040516101979190610e79565b60405180910390f35b6101a8610566565b6040516101b591906110b3565b60405180910390f35b6101d860048036038101906101d39190610fda565b61056f565b6040516101e59190610e79565b60405180910390f35b610208600480360381019061020391906110ce565b6105a6565b6040516102159190611029565b60405180910390f35b6102266105ee565b6040516102339190610f24565b60405180910390f35b61025660048036038101906102519190610fda565b610680565b6040516102639190610e79565b60405180910390f35b61028660048036038101906102819190610fda565b6106f7565b6040516102939190610e79565b60405180910390f35b6102a461071a565b005b6102c060048036038101906102bb91906110fb565b61071f565b6040516102cd9190611029565b60405180910390f35b60007fb026ba57000000000000000000000000000000000000000000000000000000007bffffffffffffffffffffffffffffffffffffffffffffffffffffffff1916827bffffffffffffffffffffffffffffffffffffffffffffffffffffffff191614806103a157507f36372b07000000000000000000000000000000000000000000000000000000007bffffffffffffffffffffffffffffffffffffffffffffffffffffffff1916827bffffffffffffffffffffffffffffffffffffffffffffffffffffffff1916145b8061040957507f01ffc9a7000000000000000000000000000000000000000000000000000000007bffffffffffffffffffffffffffffffffffffffffffffffffffffffff1916827bffffffffffffffffffffffffffffffffffffffffffffffffffffffff1916145b8061047157507fa219a025000000000000000000000000000000000000000000000000000000007bffffffffffffffffffffffffffffffffffffffffffffffffffffffff1916827bffffffffffffffffffffffffffffffffffffffffffffffffffffffff1916145b9050919050565b6060600380546104879061116a565b80601f01602080910402602001604051908101604052809291908181526020018280546104b39061116a565b80156105005780601f106104d557610100808354040283529160200191610500565b820191906000526020600020905b8154815290600101906020018083116104e357829003601f168201915b5050505050905090565b6000806105156107a6565b90506105228185856107ae565b600191505092915050565b6000600254905090565b6000806105426107a6565b905061054f858285610977565b61055a858585610a03565b60019150509392505050565b60006009905090565b60008061057a6107a6565b905061059b81858561058c858961071f565b61059691906111ca565b6107ae565b600191505092915050565b60008060008373ffffffffffffffffffffffffffffffffffffffff1673ffffffffffffffffffffffffffffffffffffffff168152602001908152602001600020549050919050565b6060600480546105fd9061116a565b80601f01602080910402602001604051908101604052809291908181526020018280546106299061116a565b80156106765780601f1061064b57610100808354040283529160200191610676565b820191906000526020600020905b81548152906001019060200180831161065957829003601f168201915b5050505050905090565b60008061068b6107a6565b90506000610699828661071f565b9050838110156106de576040517f08c379a00000000000000000000000000000000000000000000000000000000081526004016106d590611270565b60405180910390fd5b6106eb82868684036107ae565b60019250505092915050565b6000806107026107a6565b905061070f818585610a03565b600191505092915050565b600080fd5b6000600160008473ffffffffffffffffffffffffffffffffffffffff1673ffffffffffffffffffffffffffffffffffffffff16815260200190815260200160002060008373ffffffffffffffffffffffffffffffffffffffff1673ffffffffffffffffffffffffffffffffffffffff16815260200190815260200160002054905092915050565b600033905090565b600073ffffffffffffffffffffffffffffffffffffffff168373ffffffffffffffffffffffffffffffffffffffff160361081d576040517f08c379a000000000000000000000000000000000000000000000000000000000815260040161081490611302565b60405180910390fd5b600073ffffffffffffffffffffffffffffffffffffffff168273ffffffffffffffffffffffffffffffffffffffff160361088c576040517f08c379a000000000000000000000000000000000000000000000000000000000815260040161088390611394565b60405180910390fd5b80600160008573ffffffffffffffffffffffffffffffffffffffff1673ffffffffffffffffffffffffffffffffffffffff16815260200190815260200160002060008473ffffffffffffffffffffffffffffffffffffffff1673ffffffffffffffffffffffffffffffffffffffff168152602001908152602001600020819055508173ffffffffffffffffffffffffffffffffffffffff168373ffffffffffffffffffffffffffffffffffffffff167f8c5be1e5ebec7d5bd14f71427d1e84f3dd0314c0f7b2291e5b200ac8c7c3b9258360405161096a9190611029565b60405180910390a3505050565b6000610983848461071f565b90507fffffffffffffffffffffffffffffffffffffffffffffffffffffffffffffffff81146109fd57818110156109ef576040517f08c379a00000000000000000000000000000000000000000000000000000000081526004016109e690611400565b60405180910390fd5b6109fc84848484036107ae565b5b50505050565b600073ffffffffffffffffffffffffffffffffffffffff168373ffffffffffffffffffffffffffffffffffffffff1603610a72576040517f08c379a0000000000000000000000000000000000000000000000000000000008152600401610a6990611492565b60405180910390fd5b600073ffffffffffffffffffffffffffffffffffffffff168273ffffffffffffffffffffffffffffffffffffffff1603610ae1576040517f08c379a0000000000000000000000000000000000000000000000000000000008152600401610ad890611524565b60405180910390fd5b610aec838383610c79565b60008060008573ffffffffffffffffffffffffffffffffffffffff1673ffffffffffffffffffffffffffffffffffffffff16815260200190815260200160002054905081811015610b72576040517f08c379a0000000000000000000000000000000000000000000000000000000008152600401610b69906115b6565b60405180910390fd5b8181036000808673ffffffffffffffffffffffffffffffffffffffff1673ffffffffffffffffffffffffffffffffffffffff16815260200190815260200160002081905550816000808573ffffffffffffffffffffffffffffffffffffffff1673ffffffffffffffffffffffffffffffffffffffff168152602001908152602001600020600082825401925050819055508273ffffffffffffffffffffffffffffffffffffffff168473ffffffffffffffffffffffffffffffffffffffff167fddf252ad1be2c89b69c2b068fc378daa952ba7f163c4a11628f55a4df523b3ef84604051610c609190611029565b60405180910390a3610c73848484610c7e565b50505050565b505050565b60008273ffffffffffffffffffffffffffffffffffffffff163b118015610cd25750600073ffffffffffffffffffffffffffffffffffffffff168373ffffffffffffffffffffffffffffffffffffffff1614155b8015610d0b5750600073ffffffffffffffffffffffffffffffffffffffff168273ffffffffffffffffffffffffffffffffffffffff1614155b15610dcf578173ffffffffffffffffffffffffffffffffffffffff1663bc04f0af84836040518363ffffffff1660e01b8152600401610d4b9291906115e5565b6020604051808303816000875af1925050508015610d8757506040513d601f19601f82011682018060405250810190610d84919061163a565b60015b15610dce5780610dcc576040517f08c379a0000000000000000000000000000000000000000000000000000000008152600401610dc3906116d9565b60405180910390fd5b505b5b505050565b600080fd5b60007fffffffff0000000000000000000000000000000000000000000000000000000082169050919050565b610e0e81610dd9565b8114610e1957600080fd5b50565b600081359050610e2b81610e05565b92915050565b600060208284031215610e4757610e46610dd4565b5b6000610e5584828501610e1c565b91505092915050565b60008115159050919050565b610e7381610e5e565b82525050565b6000602082019050610e8e6000830184610e6a565b92915050565b600081519050919050565b600082825260208201905092915050565b60005b83811015610ece578082015181840152602081019050610eb3565b60008484015250505050565b6000601f19601f8301169050919050565b6000610ef682610e94565b610f008185610e9f565b9350610f10818560208601610eb0565b610f1981610eda565b840191505092915050565b60006020820190508181036000830152610f3e8184610eeb565b905092915050565b600073ffffffffffffffffffffffffffffffffffffffff82169050919050565b6000610f7182610f46565b9050919050565b610f8181610f66565b8114610f8c57600080fd5b50565b600081359050610f9e81610f78565b92915050565b6000819050919050565b610fb781610fa4565b8114610fc257600080fd5b50565b600081359050610fd481610fae565b92915050565b60008060408385031215610ff157610ff0610dd4565b5b6000610fff85828601610f8f565b925050602061101085828601610fc5565b9150509250929050565b61102381610fa4565b82525050565b600060208201905061103e600083018461101a565b92915050565b60008060006060848603121561105d5761105c610dd4565b5b600061106b86828701610f8f565b935050602061107c86828701610f8f565b925050604061108d86828701610fc5565b9150509250925092565b600060ff82169050919050565b6110ad81611097565b82525050565b60006020820190506110c860008301846110a4565b92915050565b6000602082840312156110e4576110e3610dd4565b5b60006110f284828501610f8f565b91505092915050565b6000806040838503121561111257611111610dd4565b5b600061112085828601610f8f565b925050602061113185828601610f8f565b9150509250929050565b7f4e487b7100000000000000000000000000000000000000000000000000000000600052602260045260246000fd5b6000600282049050600182168061118257607f821691505b6020821081036111955761119461113b565b5b50919050565b7f4e487b7100000000000000000000000000000000000000000000000000000000600052601160045260246000fd5b60006111d582610fa4565b91506111e083610fa4565b92508282019050808211156111f8576111f761119b565b5b92915050565b7f45524332303a2064656372656173656420616c6c6f77616e63652062656c6f7760008201527f207a65726f000000000000000000000000000000000000000000000000000000602082015250565b600061125a602583610e9f565b9150611265826111fe565b604082019050919050565b600060208201905081810360008301526112898161124d565b9050919050565b7f45524332303a20617070726f76652066726f6d20746865207a65726f2061646460008201527f7265737300000000000000000000000000000000000000000000000000000000602082015250565b60006112ec602483610e9f565b91506112f782611290565b604082019050919050565b6000602082019050818103600083015261131b816112df565b9050919050565b7f45524332303a20617070726f766520746f20746865207a65726f20616464726560008201527f7373000000000000000000000000000000000000000000000000000000000000602082015250565b600061137e602283610e9f565b915061138982611322565b604082019050919050565b600060208201905081810360008301526113ad81611371565b9050919050565b7f45524332303a20696e73756666696369656e7420616c6c6f77616e6365000000600082015250565b60006113ea601d83610e9f565b91506113f5826113b4565b602082019050919050565b60006020820190508181036000830152611419816113dd565b9050919050565b7f45524332303a207472616e736665722066726f6d20746865207a65726f20616460008201527f6472657373000000000000000000000000000000000000000000000000000000602082015250565b600061147c602583610e9f565b915061148782611420565b604082019050919050565b600060208201905081810360008301526114ab8161146f565b9050919050565b7f45524332303a207472616e7366657220746f20746865207a65726f206164647260008201527f6573730000000000000000000000000000000000000000000000000000000000602082015250565b600061150e602383610e9f565b9150611519826114b2565b604082019050919050565b6000602082019050818103600083015261153d81611501565b9050919050565b7f45524332303a207472616e7366657220616d6f756e742065786365656473206260008201527f616c616e63650000000000000000000000000000000000000000000000000000602082015250565b60006115a0602683610e9f565b91506115ab82611544565b604082019050919050565b600060208201905081810360008301526115cf81611593565b9050919050565b6115df81610f66565b82525050565b60006040820190506115fa60008301856115d6565b611607602083018461101a565b9392505050565b61161781610e5e565b811461162257600080fd5b50565b6000815190506116348161160e565b92915050565b6000602082840312156116505761164f610dd4565b5b600061165e84828501611625565b91505092915050565b7f4552432d323020726563656970742072656a656374656420627920646573746960008201527f6e6174696f6e206f66207472616e736665720000000000000000000000000000602082015250565b60006116c3603283610e9f565b91506116ce82611667565b604082019050919050565b600060208201905081810360008301526116f2816116b6565b905091905056fea2646970667358221220432719e719bc0773302860703d26f5dfc71580ee706348ad1e10688a17821f2664736f6c63430008100033608060405260016000806101000a81548160ff02191690831515021790555060008060016101000a81548160ff02191690831515021790555034801561004457600080fd5b5033600060026101000a81548173ffffffffffffffffffffffffffffffffffffffff021916908373ffffffffffffffffffffffffffffffffffffffff16021790555061319a806100956000396000f3fe6080604052600436106101445760003560e01c80639c8f9f23116100b6578063bc04f0af1161006f578063bc04f0af1461061c578063ca7c4dba14610659578063d3c51d9114610684578063e8078d94146106c1578063e86dea4a146106cb578063feffe7e4146106f65761031e565b80639c8f9f23146105205780639fed4ad814610549578063a56dfe4a1461057f578063add010a5146105aa578063b4f40c61146105c6578063b7c56525146105f15761031e565b8063313ce56711610108578063313ce5671461040c5780634b94f50e146104375780634f54a081146104625780635dfd87731461048d5780638d729abb146104b857806395d89b41146104f55761031e565b806301ffc9a7146103235780630c55699c14610360578063180b0d7e1461038b578063276184ae146103b65780632bfdf307146103e15761031e565b3661031e5760003490506000600254600354836101619190611da8565b61016b9190611e31565b9050816002600082825461017f9190611e62565b9250508190555080600360008282546101989190611e96565b925050819055506001546003546002546101b29190611da8565b146101f2576040517f08c379a00000000000000000000000000000000000000000000000000000000081526004016101e990611f4d565b60405180910390fd5b6000600754600654836102059190611da8565b61020f9190611e31565b9050808261021d9190611e96565b915080600960008282546102319190611e62565b925050819055506000600b60009054906101000a900473ffffffffffffffffffffffffffffffffffffffff1690508073ffffffffffffffffffffffffffffffffffffffff1663095ea7b333856040518363ffffffff1660e01b815260040161029a929190611fbd565b6020604051808303816000875af11580156102b9573d6000803e3d6000fd5b505050506040513d601f19601f820116820180604052508101906102dd9190612032565b61031c576040517f08c379a0000000000000000000000000000000000000000000000000000000008152600401610313906120d1565b60405180910390fd5b005b600080fd5b34801561032f57600080fd5b5061034a60048036038101906103459190612149565b61071f565b6040516103579190612185565b60405180910390f35b34801561036c57600080fd5b50610375610859565b60405161038291906121a0565b60405180910390f35b34801561039757600080fd5b506103a061085f565b6040516103ad91906121a0565b60405180910390f35b3480156103c257600080fd5b506103cb610865565b6040516103d891906121bb565b60405180910390f35b3480156103ed57600080fd5b506103f661088b565b60405161040391906121a0565b60405180910390f35b34801561041857600080fd5b50610421610891565b60405161042e91906121a0565b60405180910390f35b34801561044357600080fd5b5061044c610931565b60405161045991906121a0565b60405180910390f35b34801561046e57600080fd5b506104776109f4565b60405161048491906121bb565b60405180910390f35b34801561049957600080fd5b506104a2610a1a565b6040516104af91906121a0565b60405180910390f35b3480156104c457600080fd5b506104df60048036038101906104da9190612202565b610a20565b6040516104ec91906121a0565b60405180910390f35b34801561050157600080fd5b5061050a610a38565b60405161051791906122ae565b60405180910390f35b34801561052c57600080fd5b50610547600480360381019061054291906122fc565b610adb565b005b34801561055557600080fd5b5061055e610f70565b6040516105769c9b9a99989796959493929190612329565b60405180910390f35b34801561058b57600080fd5b50610594611166565b6040516105a191906121a0565b60405180910390f35b6105c460048036038101906105bf91906123f1565b61116c565b005b3480156105d257600080fd5b506105db6115cd565b6040516105e891906121a0565b60405180910390f35b3480156105fd57600080fd5b506106066115d3565b60405161061391906121a0565b60405180910390f35b34801561062857600080fd5b50610643600480360381019061063e919061246c565b611690565b6040516106509190612185565b60405180910390f35b34801561066557600080fd5b5061066e611987565b60405161067b91906121a0565b60405180910390f35b34801561069057600080fd5b506106ab60048036038101906106a69190612202565b611a24565b6040516106b891906121a0565b60405180910390f35b6106c9611a3c565b005b3480156106d757600080fd5b506106e0611d25565b6040516106ed91906121a0565b60405180910390f35b34801561070257600080fd5b5061071d60048036038101906107189190612202565b611d2b565b005b60007f87aba76b000000000000000000000000000000000000000000000000000000007bffffffffffffffffffffffffffffffffffffffffffffffffffffffff1916827bffffffffffffffffffffffffffffffffffffffffffffffffffffffff191614806107ea57507f01ffc9a7000000000000000000000000000000000000000000000000000000007bffffffffffffffffffffffffffffffffffffffffffffffffffffffff1916827bffffffffffffffffffffffffffffffffffffffffffffffffffffffff1916145b8061085257507fbc04f0af000000000000000000000000000000000000000000000000000000007bffffffffffffffffffffffffffffffffffffffffffffffffffffffff1916827bffffffffffffffffffffffffffffffffffffffffffffffffffffffff1916145b9050919050565b60025481565b60075481565b600b60009054906101000a900473ffffffffffffffffffffffffffffffffffffffff1681565b60095481565b600080600b60009054906101000a900473ffffffffffffffffffffffffffffffffffffffff1690508073ffffffffffffffffffffffffffffffffffffffff1663313ce5676040518163ffffffff1660e01b8152600401602060405180830381865afa158015610904573d6000803e3d6000fd5b505050506040513d601f19601f8201168201806040525081019061092891906124e5565b60ff1691505090565b600080600a60009054906101000a900473ffffffffffffffffffffffffffffffffffffffff16905060008173ffffffffffffffffffffffffffffffffffffffff1663a035b1fe6040518163ffffffff1660e01b8152600401602060405180830381865afa1580156109a6573d6000803e3d6000fd5b505050506040513d601f19601f820116820180604052508101906109ca9190612527565b905060006003546002546109de9190611e31565b905080826109ec9190611da8565b935050505090565b600a60009054906101000a900473ffffffffffffffffffffffffffffffffffffffff1681565b60085481565b60056020528060005260406000206000915090505481565b60606000600b60009054906101000a900473ffffffffffffffffffffffffffffffffffffffff1690508073ffffffffffffffffffffffffffffffffffffffff166395d89b416040518163ffffffff1660e01b8152600401600060405180830381865afa158015610aac573d6000803e3d6000fd5b505050506040513d6000823e3d601f19601f82011682018060405250810190610ad5919061267a565b91505090565b60008060006101000a81548160ff021916908315150217905550600060025460035483610b089190611da8565b610b129190611e31565b905081600460003373ffffffffffffffffffffffffffffffffffffffff1673ffffffffffffffffffffffffffffffffffffffff168152602001908152602001600020541115610b96576040517f08c379a0000000000000000000000000000000000000000000000000000000008152600401610b8d9061275b565b60405180910390fd5b8160025411610bda576040517f08c379a0000000000000000000000000000000000000000000000000000000008152600401610bd1906127ed565b60405180910390fd5b80600560003373ffffffffffffffffffffffffffffffffffffffff1673ffffffffffffffffffffffffffffffffffffffff168152602001908152602001600020541115610c5c576040517f08c379a0000000000000000000000000000000000000000000000000000000008152600401610c53906128a5565b60405180910390fd5b8060035411610ca0576040517f08c379a0000000000000000000000000000000000000000000000000000000008152600401610c9790612937565b60405180910390fd5b60003373ffffffffffffffffffffffffffffffffffffffff1683604051610cc690612988565b60006040518083038185875af1925050503d8060008114610d03576040519150601f19603f3d011682016040523d82523d6000602084013e610d08565b606091505b5050905080610d4c576040517f08c379a0000000000000000000000000000000000000000000000000000000008152600401610d4390612a0f565b60405180910390fd5b6000600b60009054906101000a900473ffffffffffffffffffffffffffffffffffffffff1690508073ffffffffffffffffffffffffffffffffffffffff1663095ea7b333856040518363ffffffff1660e01b8152600401610dae929190611fbd565b6020604051808303816000875af1158015610dcd573d6000803e3d6000fd5b505050506040513d601f19601f82011682018060405250810190610df19190612032565b610e30576040517f08c379a0000000000000000000000000000000000000000000000000000000008152600401610e27906120d1565b60405180910390fd5b82600560003373ffffffffffffffffffffffffffffffffffffffff1673ffffffffffffffffffffffffffffffffffffffff1681526020019081526020016000206000828254610e7f9190611e96565b9250508190555083600460003373ffffffffffffffffffffffffffffffffffffffff1673ffffffffffffffffffffffffffffffffffffffff1681526020019081526020016000206000828254610ed59190611e96565b925050819055508260026000828254610eee9190611e96565b925050819055508360036000828254610f079190611e96565b92505081905550600354600254610f1e9190611da8565b60018190555060016000806101000a81548160ff0219169083151502179055507f8866993f7c029be4215942b34c1545282b8f28836579f2687fe96a5a6bf7770460405160405180910390a150505050565b6000606080600080600080600080600080600080600b60009054906101000a900473ffffffffffffffffffffffffffffffffffffffff169050308173ffffffffffffffffffffffffffffffffffffffff166395d89b416040518163ffffffff1660e01b8152600401600060405180830381865afa158015610ff5573d6000803e3d6000fd5b505050506040513d6000823e3d601f19601f8201168201806040525081019061101e919061267a565b8273ffffffffffffffffffffffffffffffffffffffff166306fdde036040518163ffffffff1660e01b8152600401600060405180830381865afa158015611069573d6000803e3d6000fd5b505050506040513d6000823e3d601f19601f82011682018060405250810190611092919061267a565b600b60009054906101000a900473ffffffffffffffffffffffffffffffffffffffff166001546002546003546006546007548973ffffffffffffffffffffffffffffffffffffffff1663313ce5676040518163ffffffff1660e01b8152600401602060405180830381865afa15801561110f573d6000803e3d6000fd5b505050506040513d601f19601f8201168201806040525081019061113391906124e5565b6008546009548260ff1692509c509c509c509c509c509c509c509c509c509c509c509c5050909192939495969798999a9b565b60035481565b60008060006101000a81548160ff02191690831515021790555060001515600060019054906101000a900460ff161515146111dc576040517f08c379a00000000000000000000000000000000000000000000000000000000081526004016111d390612a7b565b60405180910390fd5b600060029054906101000a900473ffffffffffffffffffffffffffffffffffffffff1673ffffffffffffffffffffffffffffffffffffffff163373ffffffffffffffffffffffffffffffffffffffff161461126c576040517f08c379a000000000000000000000000000000000000000000000000000000000815260040161126390612b0d565b60405180910390fd5b600754600654106112b2576040517f08c379a00000000000000000000000000000000000000000000000000000000081526004016112a990612b9f565b60405180910390fd5b836006819055508260078190555081600b60006101000a81548173ffffffffffffffffffffffffffffffffffffffff021916908373ffffffffffffffffffffffffffffffffffffffff16021790555080600a60006101000a81548173ffffffffffffffffffffffffffffffffffffffff021916908373ffffffffffffffffffffffffffffffffffffffff1602179055503460028190555084600381905550600060025411611395576040517f08c379a000000000000000000000000000000000000000000000000000000000815260040161138c90612c31565b60405180910390fd5b6000600354116113da576040517f08c379a00000000000000000000000000000000000000000000000000000000081526004016113d190612cc3565b60405180910390fd5b6003546002546113ea9190611da8565b6001819055506000600b60009054906101000a900473ffffffffffffffffffffffffffffffffffffffff1690508073ffffffffffffffffffffffffffffffffffffffff166323b872dd33306003546040518463ffffffff1660e01b815260040161145693929190612ce3565b6020604051808303816000875af1158015611475573d6000803e3d6000fd5b505050506040513d601f19601f820116820180604052508101906114999190612032565b6114d8576040517f08c379a00000000000000000000000000000000000000000000000000000000081526004016114cf90612d8c565b60405180910390fd5b600254600460003373ffffffffffffffffffffffffffffffffffffffff1673ffffffffffffffffffffffffffffffffffffffff16815260200190815260200160002081905550600354600560003373ffffffffffffffffffffffffffffffffffffffff1673ffffffffffffffffffffffffffffffffffffffff168152602001908152602001600020819055506001600060016101000a81548160ff02191690831515021790555060016000806101000a81548160ff0219169083151502179055507f8866993f7c029be4215942b34c1545282b8f28836579f2687fe96a5a6bf7770460405160405180910390a1505050505050565b60015481565b600080600a60009054906101000a900473ffffffffffffffffffffffffffffffffffffffff16905060008173ffffffffffffffffffffffffffffffffffffffff1663a035b1fe6040518163ffffffff1660e01b8152600401602060405180830381865afa158015611648573d6000803e3d6000fd5b505050506040513d601f19601f8201168201806040525081019061166c9190612527565b90508060035460025461167f9190611e62565b6116899190611da8565b9250505090565b600080151560008054906101000a900460ff161515036116b35760019050611981565b60008290506000600b60009054906101000a900473ffffffffffffffffffffffffffffffffffffffff16905060008411611722576040517f08c379a000000000000000000000000000000000000000000000000000000000815260040161171990612c31565b60405180910390fd5b8073ffffffffffffffffffffffffffffffffffffffff166323b872dd8630876040518463ffffffff1660e01b815260040161175f93929190612ce3565b6020604051808303816000875af115801561177e573d6000803e3d6000fd5b505050506040513d601f19601f820116820180604052508101906117a29190612032565b6117e1576040517f08c379a00000000000000000000000000000000000000000000000000000000081526004016117d890612e44565b60405180910390fd5b6000600354600254846117f49190611da8565b6117fe9190611e31565b905080600260008282546118129190611e62565b92505081905550826003600082825461182b9190611e96565b925050819055506001546003546002546118459190611da8565b14611885576040517f08c379a000000000000000000000000000000000000000000000000000000000815260040161187c90612ed6565b60405180910390fd5b6000600754600654836118989190611da8565b6118a29190611e31565b905080826118b09190611e96565b915080600860008282546118c49190611e62565b9250508190555060008773ffffffffffffffffffffffffffffffffffffffff16836040516118f190612988565b60006040518083038185875af1925050503d806000811461192e576040519150601f19603f3d011682016040523d82523d6000602084013e611933565b606091505b5050905080611977576040517f08c379a000000000000000000000000000000000000000000000000000000000815260040161196e90612f68565b60405180910390fd5b6001955050505050505b92915050565b600080600a60009054906101000a900473ffffffffffffffffffffffffffffffffffffffff1690508073ffffffffffffffffffffffffffffffffffffffff1663a035b1fe6040518163ffffffff1660e01b8152600401602060405180830381865afa1580156119fa573d6000803e3d6000fd5b505050506040513d601f19601f82011682018060405250810190611a1e9190612527565b91505090565b60046020528060005260406000206000915090505481565b60008060006101000a81548160ff021916908315150217905550600034905060008111611a9e576040517f08c379a0000000000000000000000000000000000000000000000000000000008152600401611a9590612ffa565b60405180910390fd5b600060025460035483611ab19190611da8565b611abb9190611e31565b905060008111611b00576040517f08c379a0000000000000000000000000000000000000000000000000000000008152600401611af79061308c565b60405180910390fd5b6000600b60009054906101000a900473ffffffffffffffffffffffffffffffffffffffff1690508073ffffffffffffffffffffffffffffffffffffffff166323b872dd3330856040518463ffffffff1660e01b8152600401611b6493929190612ce3565b6020604051808303816000875af1158015611b83573d6000803e3d6000fd5b505050506040513d601f19601f82011682018060405250810190611ba79190612032565b611be6576040517f08c379a0000000000000000000000000000000000000000000000000000000008152600401611bdd90613144565b60405180910390fd5b8260026000828254611bf89190611e62565b925050819055508160036000828254611c119190611e62565b92505081905550600354600254611c289190611da8565b60018190555082600460003373ffffffffffffffffffffffffffffffffffffffff1673ffffffffffffffffffffffffffffffffffffffff1681526020019081526020016000206000828254611c7d9190611e62565b9250508190555081600560003373ffffffffffffffffffffffffffffffffffffffff1673ffffffffffffffffffffffffffffffffffffffff1681526020019081526020016000206000828254611cd39190611e62565b9250508190555060016000806101000a81548160ff0219169083151502179055507f8866993f7c029be4215942b34c1545282b8f28836579f2687fe96a5a6bf7770460405160405180910390a1505050565b60065481565b80600a60006101000a81548173ffffffffffffffffffffffffffffffffffffffff021916908373ffffffffffffffffffffffffffffffffffffffff16021790555050565b6000819050919050565b7f4e487b7100000000000000000000000000000000000000000000000000000000600052601160045260246000fd5b6000611db382611d6f565b9150611dbe83611d6f565b9250817fffffffffffffffffffffffffffffffffffffffffffffffffffffffffffffffff0483118215151615611df757611df6611d79565b5b828202905092915050565b7f4e487b7100000000000000000000000000000000000000000000000000000000600052601260045260246000fd5b6000611e3c82611d6f565b9150611e4783611d6f565b925082611e5757611e56611e02565b5b828204905092915050565b6000611e6d82611d6f565b9150611e7883611d6f565b9250828201905080821115611e9057611e8f611d79565b5b92915050565b6000611ea182611d6f565b9150611eac83611d6f565b9250828203905081811115611ec457611ec3611d79565b5b92915050565b600082825260208201905092915050565b7f496e646966666572656e636520637572766520776173206e6f74206d61696e7460008201527f61696e656421202d207265636569766528290000000000000000000000000000602082015250565b6000611f37603283611eca565b9150611f4282611edb565b604082019050919050565b60006020820190508181036000830152611f6681611f2a565b9050919050565b600073ffffffffffffffffffffffffffffffffffffffff82169050919050565b6000611f9882611f6d565b9050919050565b611fa881611f8d565b82525050565b611fb781611d6f565b82525050565b6000604082019050611fd26000830185611f9f565b611fdf6020830184611fae565b9392505050565b6000604051905090565b600080fd5b600080fd5b60008115159050919050565b61200f81611ffa565b811461201a57600080fd5b50565b60008151905061202c81612006565b92915050565b60006020828403121561204857612047611ff0565b5b60006120568482850161201d565b91505092915050565b7f547279696e6720746f20617070726f76652072657475726e206f6620746f6b6560008201527f6e202d2062757420726576657274656400000000000000000000000000000000602082015250565b60006120bb603083611eca565b91506120c68261205f565b604082019050919050565b600060208201905081810360008301526120ea816120ae565b9050919050565b60007fffffffff0000000000000000000000000000000000000000000000000000000082169050919050565b612126816120f1565b811461213157600080fd5b50565b6000813590506121438161211d565b92915050565b60006020828403121561215f5761215e611ff0565b5b600061216d84828501612134565b91505092915050565b61217f81611ffa565b82525050565b600060208201905061219a6000830184612176565b92915050565b60006020820190506121b56000830184611fae565b92915050565b60006020820190506121d06000830184611f9f565b92915050565b6121df81611f8d565b81146121ea57600080fd5b50565b6000813590506121fc816121d6565b92915050565b60006020828403121561221857612217611ff0565b5b6000612226848285016121ed565b91505092915050565b600081519050919050565b60005b8381101561225857808201518184015260208101905061223d565b60008484015250505050565b6000601f19601f8301169050919050565b60006122808261222f565b61228a8185611eca565b935061229a81856020860161223a565b6122a381612264565b840191505092915050565b600060208201905081810360008301526122c88184612275565b905092915050565b6122d981611d6f565b81146122e457600080fd5b50565b6000813590506122f6816122d0565b92915050565b60006020828403121561231257612311611ff0565b5b6000612320848285016122e7565b91505092915050565b60006101808201905061233f600083018f611f9f565b8181036020830152612351818e612275565b90508181036040830152612365818d612275565b9050612374606083018c611f9f565b612381608083018b611fae565b61238e60a083018a611fae565b61239b60c0830189611fae565b6123a860e0830188611fae565b6123b6610100830187611fae565b6123c4610120830186611fae565b6123d2610140830185611fae565b6123e0610160830184611fae565b9d9c50505050505050505050505050565b600080600080600060a0868803121561240d5761240c611ff0565b5b600061241b888289016122e7565b955050602061242c888289016122e7565b945050604061243d888289016122e7565b935050606061244e888289016121ed565b925050608061245f888289016121ed565b9150509295509295909350565b6000806040838503121561248357612482611ff0565b5b6000612491858286016121ed565b92505060206124a2858286016122e7565b9150509250929050565b600060ff82169050919050565b6124c2816124ac565b81146124cd57600080fd5b50565b6000815190506124df816124b9565b92915050565b6000602082840312156124fb576124fa611ff0565b5b6000612509848285016124d0565b91505092915050565b600081519050612521816122d0565b92915050565b60006020828403121561253d5761253c611ff0565b5b600061254b84828501612512565b91505092915050565b600080fd5b600080fd5b7f4e487b7100000000000000000000000000000000000000000000000000000000600052604160045260246000fd5b61259682612264565b810181811067ffffffffffffffff821117156125b5576125b461255e565b5b80604052505050565b60006125c8611fe6565b90506125d4828261258d565b919050565b600067ffffffffffffffff8211156125f4576125f361255e565b5b6125fd82612264565b9050602081019050919050565b600061261d612618846125d9565b6125be565b90508281526020810184848401111561263957612638612559565b5b61264484828561223a565b509392505050565b600082601f83011261266157612660612554565b5b815161267184826020860161260a565b91505092915050565b6000602082840312156126905761268f611ff0565b5b600082015167ffffffffffffffff8111156126ae576126ad611ff5565b5b6126ba8482850161264c565b91505092915050565b7f73656e64657220617474656d7074696e6720746f207769746864726177206d6f60008201527f7265206c6971756964697479207468616e20746865792068617665202845746860208201527f2900000000000000000000000000000000000000000000000000000000000000604082015250565b6000612745604183611eca565b9150612750826126c3565b606082019050919050565b6000602082019050818103600083015261277481612738565b9050919050565b7f63616e6e6f7420776974686472617720616c6c206c697175696469747920284560008201527f7468290000000000000000000000000000000000000000000000000000000000602082015250565b60006127d7602383611eca565b91506127e28261277b565b604082019050919050565b60006020820190508181036000830152612806816127ca565b9050919050565b7f73656e64657220617474656d7074696e6720746f207769746864726177206d6f60008201527f7265206c6971756964697479207468616e207468657920686176652028546f6b60208201527f656e290000000000000000000000000000000000000000000000000000000000604082015250565b600061288f604383611eca565b915061289a8261280d565b606082019050919050565b600060208201905081810360008301526128be81612882565b9050919050565b7f63616e6e6f7420776974686472617720616c6c206c697175696469747920285460008201527f6f6b656e29000000000000000000000000000000000000000000000000000000602082015250565b6000612921602583611eca565b915061292c826128c5565b604082019050919050565b6000602082019050818103600083015261295081612914565b9050919050565b600081905092915050565b50565b6000612972600083612957565b915061297d82612962565b600082019050919050565b600061299382612965565b9150819050919050565b7f72656d6f7665206c6971756964697479202d20657468207061796d656e74206460008201527f69646e277420776f726b00000000000000000000000000000000000000000000602082015250565b60006129f9602a83611eca565b9150612a048261299d565b604082019050919050565b60006020820190508181036000830152612a28816129ec565b9050919050565b7f43616e206f6e6c792063616c6c2063726561746520706f6f6c206f6e63652100600082015250565b6000612a65601f83611eca565b9150612a7082612a2f565b602082019050919050565b60006020820190508181036000830152612a9481612a58565b9050919050565b7f4f6e6c792074686520636f6e7472616374206465706c6f7965722063616e206360008201527f616c6c20746869732066756e6374696f6e2e0000000000000000000000000000602082015250565b6000612af7603283611eca565b9150612b0282612a9b565b604082019050919050565b60006020820190508181036000830152612b2681612aea565b9050919050565b7f43616e6e6f74206368617267652066656573206f662031303025206f7220686960008201527f6768657200000000000000000000000000000000000000000000000000000000602082015250565b6000612b89602483611eca565b9150612b9482612b2d565b604082019050919050565b60006020820190508181036000830152612bb881612b7c565b9050919050565b7f4d757374206465706f73697420706f73746976652065746820666f72206c697160008201527f7569646974790000000000000000000000000000000000000000000000000000602082015250565b6000612c1b602683611eca565b9150612c2682612bbf565b604082019050919050565b60006020820190508181036000830152612c4a81612c0e565b9050919050565b7f4d757374206465706f73697420706f736974766520746f6b656e20666f72206c60008201527f6971756964697479000000000000000000000000000000000000000000000000602082015250565b6000612cad602883611eca565b9150612cb882612c51565b604082019050919050565b60006020820190508181036000830152612cdc81612ca0565b9050919050565b6000606082019050612cf86000830186611f9f565b612d056020830185611f9f565b612d126040830184611fae565b949350505050565b7f7472616e7366657246726f6d207265766572746564202d206469642073656e6460008201527f65722063616c6c20617070726f766528293f0000000000000000000000000000602082015250565b6000612d76603283611eca565b9150612d8182612d1a565b604082019050919050565b60006020820190508181036000830152612da581612d69565b9050919050565b7f7472616e7366657246726f6d207265766572746564202d206469642073656e6460008201527f65722063616c6c20617070726f766528293f20466f7220636f7272656374206160208201527f6d6f756e743f0000000000000000000000000000000000000000000000000000604082015250565b6000612e2e604683611eca565b9150612e3982612dac565b606082019050919050565b60006020820190508181036000830152612e5d81612e21565b9050919050565b7f496e646966666572656e636520637572766520776173206e6f74206d61696e7460008201527f61696e656421202d206f6e455243323052656365697665642829000000000000602082015250565b6000612ec0603a83611eca565b9150612ecb82612e64565b604082019050919050565b60006020820190508181036000830152612eef81612eb3565b9050919050565b7f6f6e45524332305265636569766564202d20657468207061796d656e7420646960008201527f646e277420776f726b0000000000000000000000000000000000000000000000602082015250565b6000612f52602983611eca565b9150612f5d82612ef6565b604082019050919050565b60006020820190508181036000830152612f8181612f45565b9050919050565b7f4d7573742068617665206164646564206120706f73697469766520616d6f756e60008201527f74206f6620657468206c69717569646974790000000000000000000000000000602082015250565b6000612fe4603283611eca565b9150612fef82612f88565b604082019050919050565b6000602082019050818103600083015261301381612fd7565b9050919050565b7f6c69717569746964792062616c656e63696e6720636f6d7075746174696f6e2060008201527f697320696e636f72726563740000000000000000000000000000000000000000602082015250565b6000613076602c83611eca565b91506130818261301a565b604082019050919050565b600060208201905081810360008301526130a581613069565b9050919050565b7f7472616e7366657246726f6d207265766572746564202d206469642073656e6460008201527f65722063616c6c20617070726f766528293f207769746820617070726f70726960208201527f61746520616d6f756e743f000000000000000000000000000000000000000000604082015250565b600061312e604b83611eca565b9150613139826130ac565b606082019050919050565b6000602082019050818103600083015261315d81613121565b905091905056fea26469706673582212205041227bf2ecad9f3db5670493d31eb48f2cedac2111e34761a09342e53e727264736f6c63430008100033",
			"opcodes": "PUSH1 0x80 PUSH1 0x40 MSTORE CALLVALUE DUP1 ISZERO PUSH3 0x11 JUMPI PUSH1 0x0 DUP1 REVERT JUMPDEST POP PUSH1 0x40 MLOAD PUSH3 0x20 SWAP1 PUSH3 0xEF JUMP JUMPDEST PUSH1 0x40 MLOAD DUP1 SWAP2 SUB SWAP1 PUSH1 0x0 CREATE DUP1 ISZERO DUP1 ISZERO PUSH3 0x3D JUMPI RETURNDATASIZE PUSH1 0x0 DUP1 RETURNDATACOPY RETURNDATASIZE PUSH1 0x0 REVERT JUMPDEST POP PUSH1 0x0 DUP1 PUSH2 0x100 EXP DUP2 SLOAD DUP2 PUSH20 0xFFFFFFFFFFFFFFFFFFFFFFFFFFFFFFFFFFFFFFFF MUL NOT AND SWAP1 DUP4 PUSH20 0xFFFFFFFFFFFFFFFFFFFFFFFFFFFFFFFFFFFFFFFF AND MUL OR SWAP1 SSTORE POP PUSH1 0x40 MLOAD PUSH3 0x8B SWAP1 PUSH3 0xFD JUMP JUMPDEST PUSH1 0x40 MLOAD DUP1 SWAP2 SUB SWAP1 PUSH1 0x0 CREATE DUP1 ISZERO DUP1 ISZERO PUSH3 0xA8 JUMPI RETURNDATASIZE PUSH1 0x0 DUP1 RETURNDATACOPY RETURNDATASIZE PUSH1 0x0 REVERT JUMPDEST POP PUSH1 0x1 PUSH1 0x0 PUSH2 0x100 EXP DUP2 SLOAD DUP2 PUSH20 0xFFFFFFFFFFFFFFFFFFFFFFFFFFFFFFFFFFFFFFFF MUL NOT AND SWAP1 DUP4 PUSH20 0xFFFFFFFFFFFFFFFFFFFFFFFFFFFFFFFFFFFFFFFF AND MUL OR SWAP1 SSTORE POP PUSH3 0x10B JUMP JUMPDEST PUSH2 0x20D2 DUP1 PUSH3 0x1DEC DUP4 CODECOPY ADD SWAP1 JUMP JUMPDEST PUSH2 0x322F DUP1 PUSH3 0x3EBE DUP4 CODECOPY ADD SWAP1 JUMP JUMPDEST PUSH2 0x1CD1 DUP1 PUSH3 0x11B PUSH1 0x0 CODECOPY PUSH1 0x0 RETURN INVALID PUSH1 0x80 PUSH1 0x40 MSTORE PUSH1 0x4 CALLDATASIZE LT PUSH2 0x38 JUMPI PUSH1 0x0 CALLDATALOAD PUSH1 0xE0 SHR DUP1 PUSH4 0x692058C2 EQ PUSH2 0x44 JUMPI DUP1 PUSH4 0xF6420E15 EQ PUSH2 0x6F JUMPI DUP1 PUSH4 0xF8A8FD6D EQ PUSH2 0x9A JUMPI PUSH2 0x3F JUMP JUMPDEST CALLDATASIZE PUSH2 0x3F JUMPI STOP JUMPDEST PUSH1 0x0 DUP1 REVERT JUMPDEST CALLVALUE DUP1 ISZERO PUSH2 0x50 JUMPI PUSH1 0x0 DUP1 REVERT JUMPDEST POP PUSH2 0x59 PUSH2 0xA4 JUMP JUMPDEST PUSH1 0x40 MLOAD PUSH2 0x66 SWAP2 SWAP1 PUSH2 0xC33 JUMP JUMPDEST PUSH1 0x40 MLOAD DUP1 SWAP2 SUB SWAP1 RETURN JUMPDEST CALLVALUE DUP1 ISZERO PUSH2 0x7B JUMPI PUSH1 0x0 DUP1 REVERT JUMPDEST POP PUSH2 0x84 PUSH2 0xCA JUMP JUMPDEST PUSH1 0x40 MLOAD PUSH2 0x91 SWAP2 SWAP1 PUSH2 0xC81 JUMP JUMPDEST PUSH1 0x40 MLOAD DUP1 SWAP2 SUB SWAP1 RETURN JUMPDEST PUSH2 0xA2 PUSH2 0xEE JUMP JUMPDEST STOP JUMPDEST PUSH1 0x1 PUSH1 0x0 SWAP1 SLOAD SWAP1 PUSH2 0x100 EXP SWAP1 DIV PUSH20 0xFFFFFFFFFFFFFFFFFFFFFFFFFFFFFFFFFFFFFFFF AND DUP2 JUMP JUMPDEST PUSH1 0x0 DUP1 SLOAD SWAP1 PUSH2 0x100 EXP SWAP1 DIV PUSH20 0xFFFFFFFFFFFFFFFFFFFFFFFFFFFFFFFFFFFFFFFF AND DUP2 JUMP JUMPDEST PUSH8 0xB469471F80140000 CALLVALUE EQ PUSH2 0x138 JUMPI PUSH1 0x40 MLOAD PUSH32 0x8C379A000000000000000000000000000000000000000000000000000000000 DUP2 MSTORE PUSH1 0x4 ADD PUSH2 0x12F SWAP1 PUSH2 0xCF9 JUMP JUMPDEST PUSH1 0x40 MLOAD DUP1 SWAP2 SUB SWAP1 REVERT JUMPDEST PUSH1 0x0 PUSH1 0x40 MLOAD PUSH2 0x146 SWAP1 PUSH2 0xBA7 JUMP JUMPDEST PUSH1 0x40 MLOAD DUP1 SWAP2 SUB SWAP1 PUSH1 0x0 CREATE DUP1 ISZERO DUP1 ISZERO PUSH2 0x162 JUMPI RETURNDATASIZE PUSH1 0x0 DUP1 RETURNDATACOPY RETURNDATASIZE PUSH1 0x0 REVERT JUMPDEST POP SWAP1 POP PUSH1 0x0 PUSH1 0x1 PUSH1 0x0 SWAP1 SLOAD SWAP1 PUSH2 0x100 EXP SWAP1 DIV PUSH20 0xFFFFFFFFFFFFFFFFFFFFFFFFFFFFFFFFFFFFFFFF AND PUSH20 0xFFFFFFFFFFFFFFFFFFFFFFFFFFFFFFFFFFFFFFFF AND PUSH4 0xB4F40C61 PUSH1 0x40 MLOAD DUP2 PUSH4 0xFFFFFFFF AND PUSH1 0xE0 SHL DUP2 MSTORE PUSH1 0x4 ADD PUSH1 0x20 PUSH1 0x40 MLOAD DUP1 DUP4 SUB DUP2 DUP7 GAS STATICCALL ISZERO DUP1 ISZERO PUSH2 0x1D4 JUMPI RETURNDATASIZE PUSH1 0x0 DUP1 RETURNDATACOPY RETURNDATASIZE PUSH1 0x0 REVERT JUMPDEST POP POP POP POP PUSH1 0x40 MLOAD RETURNDATASIZE PUSH1 0x1F NOT PUSH1 0x1F DUP3 ADD AND DUP3 ADD DUP1 PUSH1 0x40 MSTORE POP DUP2 ADD SWAP1 PUSH2 0x1F8 SWAP2 SWAP1 PUSH2 0xD5E JUMP JUMPDEST EQ PUSH2 0x238 JUMPI PUSH1 0x40 MLOAD PUSH32 0x8C379A000000000000000000000000000000000000000000000000000000000 DUP2 MSTORE PUSH1 0x4 ADD PUSH2 0x22F SWAP1 PUSH2 0xDFD JUMP JUMPDEST PUSH1 0x40 MLOAD DUP1 SWAP2 SUB SWAP1 REVERT JUMPDEST PUSH1 0x0 PUSH1 0x1 PUSH1 0x0 SWAP1 SLOAD SWAP1 PUSH2 0x100 EXP SWAP1 DIV PUSH20 0xFFFFFFFFFFFFFFFFFFFFFFFFFFFFFFFFFFFFFFFF AND PUSH20 0xFFFFFFFFFFFFFFFFFFFFFFFFFFFFFFFFFFFFFFFF AND PUSH4 0xC55699C PUSH1 0x40 MLOAD DUP2 PUSH4 0xFFFFFFFF AND PUSH1 0xE0 SHL DUP2 MSTORE PUSH1 0x4 ADD PUSH1 0x20 PUSH1 0x40 MLOAD DUP1 DUP4 SUB DUP2 DUP7 GAS STATICCALL ISZERO DUP1 ISZERO PUSH2 0x2A7 JUMPI RETURNDATASIZE PUSH1 0x0 DUP1 RETURNDATACOPY RETURNDATASIZE PUSH1 0x0 REVERT JUMPDEST POP POP POP POP PUSH1 0x40 MLOAD RETURNDATASIZE PUSH1 0x1F NOT PUSH1 0x1F DUP3 ADD AND DUP3 ADD DUP1 PUSH1 0x40 MSTORE POP DUP2 ADD SWAP1 PUSH2 0x2CB SWAP2 SWAP1 PUSH2 0xD5E JUMP JUMPDEST EQ PUSH2 0x30B JUMPI PUSH1 0x40 MLOAD PUSH32 0x8C379A000000000000000000000000000000000000000000000000000000000 DUP2 MSTORE PUSH1 0x4 ADD PUSH2 0x302 SWAP1 PUSH2 0xE8F JUMP JUMPDEST PUSH1 0x40 MLOAD DUP1 SWAP2 SUB SWAP1 REVERT JUMPDEST PUSH1 0x0 PUSH1 0x1 PUSH1 0x0 SWAP1 SLOAD SWAP1 PUSH2 0x100 EXP SWAP1 DIV PUSH20 0xFFFFFFFFFFFFFFFFFFFFFFFFFFFFFFFFFFFFFFFF AND PUSH20 0xFFFFFFFFFFFFFFFFFFFFFFFFFFFFFFFFFFFFFFFF AND PUSH4 0xA56DFE4A PUSH1 0x40 MLOAD DUP2 PUSH4 0xFFFFFFFF AND PUSH1 0xE0 SHL DUP2 MSTORE PUSH1 0x4 ADD PUSH1 0x20 PUSH1 0x40 MLOAD DUP1 DUP4 SUB DUP2 DUP7 GAS STATICCALL ISZERO DUP1 ISZERO PUSH2 0x37A JUMPI RETURNDATASIZE PUSH1 0x0 DUP1 RETURNDATACOPY RETURNDATASIZE PUSH1 0x0 REVERT JUMPDEST POP POP POP POP PUSH1 0x40 MLOAD RETURNDATASIZE PUSH1 0x1F NOT PUSH1 0x1F DUP3 ADD AND DUP3 ADD DUP1 PUSH1 0x40 MSTORE POP DUP2 ADD SWAP1 PUSH2 0x39E SWAP2 SWAP1 PUSH2 0xD5E JUMP JUMPDEST EQ PUSH2 0x3DE JUMPI PUSH1 0x40 MLOAD PUSH32 0x8C379A000000000000000000000000000000000000000000000000000000000 DUP2 MSTORE PUSH1 0x4 ADD PUSH2 0x3D5 SWAP1 PUSH2 0xF21 JUMP JUMPDEST PUSH1 0x40 MLOAD DUP1 SWAP2 SUB SWAP1 REVERT JUMPDEST PUSH1 0x0 DUP1 PUSH1 0x0 SWAP1 SLOAD SWAP1 PUSH2 0x100 EXP SWAP1 DIV PUSH20 0xFFFFFFFFFFFFFFFFFFFFFFFFFFFFFFFFFFFFFFFF AND PUSH20 0xFFFFFFFFFFFFFFFFFFFFFFFFFFFFFFFFFFFFFFFF AND PUSH4 0x95EA7B3 PUSH1 0x1 PUSH1 0x0 SWAP1 SLOAD SWAP1 PUSH2 0x100 EXP SWAP1 DIV PUSH20 0xFFFFFFFFFFFFFFFFFFFFFFFFFFFFFFFFFFFFFFFF AND PUSH1 0x0 DUP1 SLOAD SWAP1 PUSH2 0x100 EXP SWAP1 DIV PUSH20 0xFFFFFFFFFFFFFFFFFFFFFFFFFFFFFFFFFFFFFFFF AND PUSH20 0xFFFFFFFFFFFFFFFFFFFFFFFFFFFFFFFFFFFFFFFF AND PUSH4 0x313CE567 PUSH1 0x40 MLOAD DUP2 PUSH4 0xFFFFFFFF AND PUSH1 0xE0 SHL DUP2 MSTORE PUSH1 0x4 ADD PUSH1 0x20 PUSH1 0x40 MLOAD DUP1 DUP4 SUB DUP2 DUP7 GAS STATICCALL ISZERO DUP1 ISZERO PUSH2 0x4AB JUMPI RETURNDATASIZE PUSH1 0x0 DUP1 RETURNDATACOPY RETURNDATASIZE PUSH1 0x0 REVERT JUMPDEST POP POP POP POP PUSH1 0x40 MLOAD RETURNDATASIZE PUSH1 0x1F NOT PUSH1 0x1F DUP3 ADD AND DUP3 ADD DUP1 PUSH1 0x40 MSTORE POP DUP2 ADD SWAP1 PUSH2 0x4CF SWAP2 SWAP1 PUSH2 0xF7A JUMP JUMPDEST PUSH1 0xA PUSH2 0x4DB SWAP2 SWAP1 PUSH2 0x1109 JUMP JUMPDEST PUSH1 0x64 PUSH2 0x4E7 SWAP2 SWAP1 PUSH2 0x1154 JUMP JUMPDEST PUSH1 0x40 MLOAD DUP4 PUSH4 0xFFFFFFFF AND PUSH1 0xE0 SHL DUP2 MSTORE PUSH1 0x4 ADD PUSH2 0x504 SWAP3 SWAP2 SWAP1 PUSH2 0x11DE JUMP JUMPDEST PUSH1 0x20 PUSH1 0x40 MLOAD DUP1 DUP4 SUB DUP2 PUSH1 0x0 DUP8 GAS CALL ISZERO DUP1 ISZERO PUSH2 0x523 JUMPI RETURNDATASIZE PUSH1 0x0 DUP1 RETURNDATACOPY RETURNDATASIZE PUSH1 0x0 REVERT JUMPDEST POP POP POP POP PUSH1 0x40 MLOAD RETURNDATASIZE PUSH1 0x1F NOT PUSH1 0x1F DUP3 ADD AND DUP3 ADD DUP1 PUSH1 0x40 MSTORE POP DUP2 ADD SWAP1 PUSH2 0x547 SWAP2 SWAP1 PUSH2 0x123F JUMP JUMPDEST SWAP1 POP DUP1 PUSH2 0x589 JUMPI PUSH1 0x40 MLOAD PUSH32 0x8C379A000000000000000000000000000000000000000000000000000000000 DUP2 MSTORE PUSH1 0x4 ADD PUSH2 0x580 SWAP1 PUSH2 0x12DE JUMP JUMPDEST PUSH1 0x40 MLOAD DUP1 SWAP2 SUB SWAP1 REVERT JUMPDEST PUSH1 0x1 PUSH1 0x0 SWAP1 SLOAD SWAP1 PUSH2 0x100 EXP SWAP1 DIV PUSH20 0xFFFFFFFFFFFFFFFFFFFFFFFFFFFFFFFFFFFFFFFF AND PUSH20 0xFFFFFFFFFFFFFFFFFFFFFFFFFFFFFFFFFFFFFFFF AND PUSH4 0xADD010A5 PUSH8 0x8AC7230489E80000 PUSH1 0x0 DUP1 SLOAD SWAP1 PUSH2 0x100 EXP SWAP1 DIV PUSH20 0xFFFFFFFFFFFFFFFFFFFFFFFFFFFFFFFFFFFFFFFF AND PUSH20 0xFFFFFFFFFFFFFFFFFFFFFFFFFFFFFFFFFFFFFFFF AND PUSH4 0x313CE567 PUSH1 0x40 MLOAD DUP2 PUSH4 0xFFFFFFFF AND PUSH1 0xE0 SHL DUP2 MSTORE PUSH1 0x4 ADD PUSH1 0x20 PUSH1 0x40 MLOAD DUP1 DUP4 SUB DUP2 DUP7 GAS STATICCALL ISZERO DUP1 ISZERO PUSH2 0x63B JUMPI RETURNDATASIZE PUSH1 0x0 DUP1 RETURNDATACOPY RETURNDATASIZE PUSH1 0x0 REVERT JUMPDEST POP POP POP POP PUSH1 0x40 MLOAD RETURNDATASIZE PUSH1 0x1F NOT PUSH1 0x1F DUP3 ADD AND DUP3 ADD DUP1 PUSH1 0x40 MSTORE POP DUP2 ADD SWAP1 PUSH2 0x65F SWAP2 SWAP1 PUSH2 0xF7A JUMP JUMPDEST PUSH1 0xA PUSH2 0x66B SWAP2 SWAP1 PUSH2 0x1109 JUMP JUMPDEST PUSH1 0x64 PUSH2 0x677 SWAP2 SWAP1 PUSH2 0x1154 JUMP JUMPDEST PUSH1 0x0 PUSH2 0x3E8 PUSH1 0x0 DUP1 SLOAD SWAP1 PUSH2 0x100 EXP SWAP1 DIV PUSH20 0xFFFFFFFFFFFFFFFFFFFFFFFFFFFFFFFFFFFFFFFF AND DUP9 PUSH1 0x40 MLOAD DUP8 PUSH4 0xFFFFFFFF AND PUSH1 0xE0 SHL DUP2 MSTORE PUSH1 0x4 ADD PUSH2 0x6BE SWAP6 SWAP5 SWAP4 SWAP3 SWAP2 SWAP1 PUSH2 0x1374 JUMP JUMPDEST PUSH1 0x0 PUSH1 0x40 MLOAD DUP1 DUP4 SUB DUP2 DUP6 DUP9 DUP1 EXTCODESIZE ISZERO DUP1 ISZERO PUSH2 0x6D7 JUMPI PUSH1 0x0 DUP1 REVERT JUMPDEST POP GAS CALL SWAP4 POP POP POP POP DUP1 ISZERO PUSH2 0x6E9 JUMPI POP PUSH1 0x1 JUMPDEST PUSH2 0x78F JUMPI PUSH2 0x6F5 PUSH2 0x13D4 JUMP JUMPDEST DUP1 PUSH4 0x8C379A0 SUB PUSH2 0x77E JUMPI POP PUSH2 0x709 PUSH2 0x1467 JUMP JUMPDEST DUP1 PUSH2 0x714 JUMPI POP PUSH2 0x780 JUMP JUMPDEST PUSH1 0x0 DUP2 PUSH1 0x40 MLOAD PUSH1 0x20 ADD PUSH2 0x727 SWAP2 SWAP1 PUSH2 0x158E JUMP JUMPDEST PUSH1 0x40 MLOAD PUSH1 0x20 DUP2 DUP4 SUB SUB DUP2 MSTORE SWAP1 PUSH1 0x40 MSTORE SWAP1 PUSH2 0x777 JUMPI PUSH1 0x40 MLOAD PUSH32 0x8C379A000000000000000000000000000000000000000000000000000000000 DUP2 MSTORE PUSH1 0x4 ADD PUSH2 0x76E SWAP2 SWAP1 PUSH2 0x15ED JUMP JUMPDEST PUSH1 0x40 MLOAD DUP1 SWAP2 SUB SWAP1 REVERT JUMPDEST POP POP PUSH2 0x78A JUMP JUMPDEST POP JUMPDEST RETURNDATASIZE PUSH1 0x0 DUP1 RETURNDATACOPY RETURNDATASIZE PUSH1 0x0 REVERT JUMPDEST PUSH2 0x790 JUMP JUMPDEST JUMPDEST PUSH1 0x0 DUP1 SLOAD SWAP1 PUSH2 0x100 EXP SWAP1 DIV PUSH20 0xFFFFFFFFFFFFFFFFFFFFFFFFFFFFFFFFFFFFFFFF AND PUSH20 0xFFFFFFFFFFFFFFFFFFFFFFFFFFFFFFFFFFFFFFFF AND PUSH4 0x313CE567 PUSH1 0x40 MLOAD DUP2 PUSH4 0xFFFFFFFF AND PUSH1 0xE0 SHL DUP2 MSTORE PUSH1 0x4 ADD PUSH1 0x20 PUSH1 0x40 MLOAD DUP1 DUP4 SUB DUP2 DUP7 GAS STATICCALL ISZERO DUP1 ISZERO PUSH2 0x7FB JUMPI RETURNDATASIZE PUSH1 0x0 DUP1 RETURNDATACOPY RETURNDATASIZE PUSH1 0x0 REVERT JUMPDEST POP POP POP POP PUSH1 0x40 MLOAD RETURNDATASIZE PUSH1 0x1F NOT PUSH1 0x1F DUP3 ADD AND DUP3 ADD DUP1 PUSH1 0x40 MSTORE POP DUP2 ADD SWAP1 PUSH2 0x81F SWAP2 SWAP1 PUSH2 0xF7A JUMP JUMPDEST PUSH1 0xA PUSH2 0x82B SWAP2 SWAP1 PUSH2 0x1109 JUMP JUMPDEST PUSH9 0x3635C9ADC5DEA00000 PUSH2 0x83F SWAP2 SWAP1 PUSH2 0x1154 JUMP JUMPDEST PUSH1 0x1 PUSH1 0x0 SWAP1 SLOAD SWAP1 PUSH2 0x100 EXP SWAP1 DIV PUSH20 0xFFFFFFFFFFFFFFFFFFFFFFFFFFFFFFFFFFFFFFFF AND PUSH20 0xFFFFFFFFFFFFFFFFFFFFFFFFFFFFFFFFFFFFFFFF AND PUSH4 0xB4F40C61 PUSH1 0x40 MLOAD DUP2 PUSH4 0xFFFFFFFF AND PUSH1 0xE0 SHL DUP2 MSTORE PUSH1 0x4 ADD PUSH1 0x20 PUSH1 0x40 MLOAD DUP1 DUP4 SUB DUP2 DUP7 GAS STATICCALL ISZERO DUP1 ISZERO PUSH2 0x8AC JUMPI RETURNDATASIZE PUSH1 0x0 DUP1 RETURNDATACOPY RETURNDATASIZE PUSH1 0x0 REVERT JUMPDEST POP POP POP POP PUSH1 0x40 MLOAD RETURNDATASIZE PUSH1 0x1F NOT PUSH1 0x1F DUP3 ADD AND DUP3 ADD DUP1 PUSH1 0x40 MSTORE POP DUP2 ADD SWAP1 PUSH2 0x8D0 SWAP2 SWAP1 PUSH2 0xD5E JUMP JUMPDEST EQ PUSH2 0x910 JUMPI PUSH1 0x40 MLOAD PUSH32 0x8C379A000000000000000000000000000000000000000000000000000000000 DUP2 MSTORE PUSH1 0x4 ADD PUSH2 0x907 SWAP1 PUSH2 0x1681 JUMP JUMPDEST PUSH1 0x40 MLOAD DUP1 SWAP2 SUB SWAP1 REVERT JUMPDEST PUSH8 0x8AC7230489E80000 PUSH1 0x1 PUSH1 0x0 SWAP1 SLOAD SWAP1 PUSH2 0x100 EXP SWAP1 DIV PUSH20 0xFFFFFFFFFFFFFFFFFFFFFFFFFFFFFFFFFFFFFFFF AND PUSH20 0xFFFFFFFFFFFFFFFFFFFFFFFFFFFFFFFFFFFFFFFF AND PUSH4 0xC55699C PUSH1 0x40 MLOAD DUP2 PUSH4 0xFFFFFFFF AND PUSH1 0xE0 SHL DUP2 MSTORE PUSH1 0x4 ADD PUSH1 0x20 PUSH1 0x40 MLOAD DUP1 DUP4 SUB DUP2 DUP7 GAS STATICCALL ISZERO DUP1 ISZERO PUSH2 0x986 JUMPI RETURNDATASIZE PUSH1 0x0 DUP1 RETURNDATACOPY RETURNDATASIZE PUSH1 0x0 REVERT JUMPDEST POP POP POP POP PUSH1 0x40 MLOAD RETURNDATASIZE PUSH1 0x1F NOT PUSH1 0x1F DUP3 ADD AND DUP3 ADD DUP1 PUSH1 0x40 MSTORE POP DUP2 ADD SWAP1 PUSH2 0x9AA SWAP2 SWAP1 PUSH2 0xD5E JUMP JUMPDEST EQ PUSH2 0x9EA JUMPI PUSH1 0x40 MLOAD PUSH32 0x8C379A000000000000000000000000000000000000000000000000000000000 DUP2 MSTORE PUSH1 0x4 ADD PUSH2 0x9E1 SWAP1 PUSH2 0x1713 JUMP JUMPDEST PUSH1 0x40 MLOAD DUP1 SWAP2 SUB SWAP1 REVERT JUMPDEST PUSH1 0x0 DUP1 SLOAD SWAP1 PUSH2 0x100 EXP SWAP1 DIV PUSH20 0xFFFFFFFFFFFFFFFFFFFFFFFFFFFFFFFFFFFFFFFF AND PUSH20 0xFFFFFFFFFFFFFFFFFFFFFFFFFFFFFFFFFFFFFFFF AND PUSH4 0x313CE567 PUSH1 0x40 MLOAD DUP2 PUSH4 0xFFFFFFFF AND PUSH1 0xE0 SHL DUP2 MSTORE PUSH1 0x4 ADD PUSH1 0x20 PUSH1 0x40 MLOAD DUP1 DUP4 SUB DUP2 DUP7 GAS STATICCALL ISZERO DUP1 ISZERO PUSH2 0xA55 JUMPI RETURNDATASIZE PUSH1 0x0 DUP1 RETURNDATACOPY RETURNDATASIZE PUSH1 0x0 REVERT JUMPDEST POP POP POP POP PUSH1 0x40 MLOAD RETURNDATASIZE PUSH1 0x1F NOT PUSH1 0x1F DUP3 ADD AND DUP3 ADD DUP1 PUSH1 0x40 MSTORE POP DUP2 ADD SWAP1 PUSH2 0xA79 SWAP2 SWAP1 PUSH2 0xF7A JUMP JUMPDEST PUSH1 0xA PUSH2 0xA85 SWAP2 SWAP1 PUSH2 0x1109 JUMP JUMPDEST PUSH1 0x64 PUSH2 0xA91 SWAP2 SWAP1 PUSH2 0x1154 JUMP JUMPDEST PUSH1 0x1 PUSH1 0x0 SWAP1 SLOAD SWAP1 PUSH2 0x100 EXP SWAP1 DIV PUSH20 0xFFFFFFFFFFFFFFFFFFFFFFFFFFFFFFFFFFFFFFFF AND PUSH20 0xFFFFFFFFFFFFFFFFFFFFFFFFFFFFFFFFFFFFFFFF AND PUSH4 0xA56DFE4A PUSH1 0x40 MLOAD DUP2 PUSH4 0xFFFFFFFF AND PUSH1 0xE0 SHL DUP2 MSTORE PUSH1 0x4 ADD PUSH1 0x20 PUSH1 0x40 MLOAD DUP1 DUP4 SUB DUP2 DUP7 GAS STATICCALL ISZERO DUP1 ISZERO PUSH2 0xAFE JUMPI RETURNDATASIZE PUSH1 0x0 DUP1 RETURNDATACOPY RETURNDATASIZE PUSH1 0x0 REVERT JUMPDEST POP POP POP POP PUSH1 0x40 MLOAD RETURNDATASIZE PUSH1 0x1F NOT PUSH1 0x1F DUP3 ADD AND DUP3 ADD DUP1 PUSH1 0x40 MSTORE POP DUP2 ADD SWAP1 PUSH2 0xB22 SWAP2 SWAP1 PUSH2 0xD5E JUMP JUMPDEST EQ PUSH2 0xB62 JUMPI PUSH1 0x40 MLOAD PUSH32 0x8C379A000000000000000000000000000000000000000000000000000000000 DUP2 MSTORE PUSH1 0x4 ADD PUSH2 0xB59 SWAP1 PUSH2 0x17A5 JUMP JUMPDEST PUSH1 0x40 MLOAD DUP1 SWAP2 SUB SWAP1 REVERT JUMPDEST PUSH1 0x0 PUSH2 0xBA3 JUMPI PUSH1 0x40 MLOAD PUSH32 0x8C379A000000000000000000000000000000000000000000000000000000000 DUP2 MSTORE PUSH1 0x4 ADD PUSH2 0xB9A SWAP1 PUSH2 0x1811 JUMP JUMPDEST PUSH1 0x40 MLOAD DUP1 SWAP2 SUB SWAP1 REVERT JUMPDEST POP POP JUMP JUMPDEST PUSH2 0x46A DUP1 PUSH2 0x1832 DUP4 CODECOPY ADD SWAP1 JUMP JUMPDEST PUSH1 0x0 PUSH20 0xFFFFFFFFFFFFFFFFFFFFFFFFFFFFFFFFFFFFFFFF DUP3 AND SWAP1 POP SWAP2 SWAP1 POP JUMP JUMPDEST PUSH1 0x0 DUP2 SWAP1 POP SWAP2 SWAP1 POP JUMP JUMPDEST PUSH1 0x0 PUSH2 0xBF9 PUSH2 0xBF4 PUSH2 0xBEF DUP5 PUSH2 0xBB4 JUMP JUMPDEST PUSH2 0xBD4 JUMP JUMPDEST PUSH2 0xBB4 JUMP JUMPDEST SWAP1 POP SWAP2 SWAP1 POP JUMP JUMPDEST PUSH1 0x0 PUSH2 0xC0B DUP3 PUSH2 0xBDE JUMP JUMPDEST SWAP1 POP SWAP2 SWAP1 POP JUMP JUMPDEST PUSH1 0x0 PUSH2 0xC1D DUP3 PUSH2 0xC00 JUMP JUMPDEST SWAP1 POP SWAP2 SWAP1 POP JUMP JUMPDEST PUSH2 0xC2D DUP2 PUSH2 0xC12 JUMP JUMPDEST DUP3 MSTORE POP POP JUMP JUMPDEST PUSH1 0x0 PUSH1 0x20 DUP3 ADD SWAP1 POP PUSH2 0xC48 PUSH1 0x0 DUP4 ADD DUP5 PUSH2 0xC24 JUMP JUMPDEST SWAP3 SWAP2 POP POP JUMP JUMPDEST PUSH1 0x0 PUSH2 0xC59 DUP3 PUSH2 0xBDE JUMP JUMPDEST SWAP1 POP SWAP2 SWAP1 POP JUMP JUMPDEST PUSH1 0x0 PUSH2 0xC6B DUP3 PUSH2 0xC4E JUMP JUMPDEST SWAP1 POP SWAP2 SWAP1 POP JUMP JUMPDEST PUSH2 0xC7B DUP2 PUSH2 0xC60 JUMP JUMPDEST DUP3 MSTORE POP POP JUMP JUMPDEST PUSH1 0x0 PUSH1 0x20 DUP3 ADD SWAP1 POP PUSH2 0xC96 PUSH1 0x0 DUP4 ADD DUP5 PUSH2 0xC72 JUMP JUMPDEST SWAP3 SWAP2 POP POP JUMP JUMPDEST PUSH1 0x0 DUP3 DUP3 MSTORE PUSH1 0x20 DUP3 ADD SWAP1 POP SWAP3 SWAP2 POP POP JUMP JUMPDEST PUSH32 0x4D7573742063616C6C2074657374282920776974682031332065746865720000 PUSH1 0x0 DUP3 ADD MSTORE POP JUMP JUMPDEST PUSH1 0x0 PUSH2 0xCE3 PUSH1 0x1E DUP4 PUSH2 0xC9C JUMP JUMPDEST SWAP2 POP PUSH2 0xCEE DUP3 PUSH2 0xCAD JUMP JUMPDEST PUSH1 0x20 DUP3 ADD SWAP1 POP SWAP2 SWAP1 POP JUMP JUMPDEST PUSH1 0x0 PUSH1 0x20 DUP3 ADD SWAP1 POP DUP2 DUP2 SUB PUSH1 0x0 DUP4 ADD MSTORE PUSH2 0xD12 DUP2 PUSH2 0xCD6 JUMP JUMPDEST SWAP1 POP SWAP2 SWAP1 POP JUMP JUMPDEST PUSH1 0x0 PUSH1 0x40 MLOAD SWAP1 POP SWAP1 JUMP JUMPDEST PUSH1 0x0 DUP1 REVERT JUMPDEST PUSH1 0x0 DUP2 SWAP1 POP SWAP2 SWAP1 POP JUMP JUMPDEST PUSH2 0xD3B DUP2 PUSH2 0xD28 JUMP JUMPDEST DUP2 EQ PUSH2 0xD46 JUMPI PUSH1 0x0 DUP1 REVERT JUMPDEST POP JUMP JUMPDEST PUSH1 0x0 DUP2 MLOAD SWAP1 POP PUSH2 0xD58 DUP2 PUSH2 0xD32 JUMP JUMPDEST SWAP3 SWAP2 POP POP JUMP JUMPDEST PUSH1 0x0 PUSH1 0x20 DUP3 DUP5 SUB SLT ISZERO PUSH2 0xD74 JUMPI PUSH2 0xD73 PUSH2 0xD23 JUMP JUMPDEST JUMPDEST PUSH1 0x0 PUSH2 0xD82 DUP5 DUP3 DUP6 ADD PUSH2 0xD49 JUMP JUMPDEST SWAP2 POP POP SWAP3 SWAP2 POP POP JUMP JUMPDEST PUSH32 0x6B2076616C7565206E6F74203020616674657220444558206372656174696F6E PUSH1 0x0 DUP3 ADD MSTORE PUSH32 0x2829000000000000000000000000000000000000000000000000000000000000 PUSH1 0x20 DUP3 ADD MSTORE POP JUMP JUMPDEST PUSH1 0x0 PUSH2 0xDE7 PUSH1 0x22 DUP4 PUSH2 0xC9C JUMP JUMPDEST SWAP2 POP PUSH2 0xDF2 DUP3 PUSH2 0xD8B JUMP JUMPDEST PUSH1 0x40 DUP3 ADD SWAP1 POP SWAP2 SWAP1 POP JUMP JUMPDEST PUSH1 0x0 PUSH1 0x20 DUP3 ADD SWAP1 POP DUP2 DUP2 SUB PUSH1 0x0 DUP4 ADD MSTORE PUSH2 0xE16 DUP2 PUSH2 0xDDA JUMP JUMPDEST SWAP1 POP SWAP2 SWAP1 POP JUMP JUMPDEST PUSH32 0x782076616C7565206E6F74203020616674657220444558206372656174696F6E PUSH1 0x0 DUP3 ADD MSTORE PUSH32 0x2829000000000000000000000000000000000000000000000000000000000000 PUSH1 0x20 DUP3 ADD MSTORE POP JUMP JUMPDEST PUSH1 0x0 PUSH2 0xE79 PUSH1 0x22 DUP4 PUSH2 0xC9C JUMP JUMPDEST SWAP2 POP PUSH2 0xE84 DUP3 PUSH2 0xE1D JUMP JUMPDEST PUSH1 0x40 DUP3 ADD SWAP1 POP SWAP2 SWAP1 POP JUMP JUMPDEST PUSH1 0x0 PUSH1 0x20 DUP3 ADD SWAP1 POP DUP2 DUP2 SUB PUSH1 0x0 DUP4 ADD MSTORE PUSH2 0xEA8 DUP2 PUSH2 0xE6C JUMP JUMPDEST SWAP1 POP SWAP2 SWAP1 POP JUMP JUMPDEST PUSH32 0x792076616C7565206E6F74203020616674657220444558206372656174696F6E PUSH1 0x0 DUP3 ADD MSTORE PUSH32 0x2829000000000000000000000000000000000000000000000000000000000000 PUSH1 0x20 DUP3 ADD MSTORE POP JUMP JUMPDEST PUSH1 0x0 PUSH2 0xF0B PUSH1 0x22 DUP4 PUSH2 0xC9C JUMP JUMPDEST SWAP2 POP PUSH2 0xF16 DUP3 PUSH2 0xEAF JUMP JUMPDEST PUSH1 0x40 DUP3 ADD SWAP1 POP SWAP2 SWAP1 POP JUMP JUMPDEST PUSH1 0x0 PUSH1 0x20 DUP3 ADD SWAP1 POP DUP2 DUP2 SUB PUSH1 0x0 DUP4 ADD MSTORE PUSH2 0xF3A DUP2 PUSH2 0xEFE JUMP JUMPDEST SWAP1 POP SWAP2 SWAP1 POP JUMP JUMPDEST PUSH1 0x0 PUSH1 0xFF DUP3 AND SWAP1 POP SWAP2 SWAP1 POP JUMP JUMPDEST PUSH2 0xF57 DUP2 PUSH2 0xF41 JUMP JUMPDEST DUP2 EQ PUSH2 0xF62 JUMPI PUSH1 0x0 DUP1 REVERT JUMPDEST POP JUMP JUMPDEST PUSH1 0x0 DUP2 MLOAD SWAP1 POP PUSH2 0xF74 DUP2 PUSH2 0xF4E JUMP JUMPDEST SWAP3 SWAP2 POP POP JUMP JUMPDEST PUSH1 0x0 PUSH1 0x20 DUP3 DUP5 SUB SLT ISZERO PUSH2 0xF90 JUMPI PUSH2 0xF8F PUSH2 0xD23 JUMP JUMPDEST JUMPDEST PUSH1 0x0 PUSH2 0xF9E DUP5 DUP3 DUP6 ADD PUSH2 0xF65 JUMP JUMPDEST SWAP2 POP POP SWAP3 SWAP2 POP POP JUMP JUMPDEST PUSH32 0x4E487B7100000000000000000000000000000000000000000000000000000000 PUSH1 0x0 MSTORE PUSH1 0x11 PUSH1 0x4 MSTORE PUSH1 0x24 PUSH1 0x0 REVERT JUMPDEST PUSH1 0x0 DUP2 PUSH1 0x1 SHR SWAP1 POP SWAP2 SWAP1 POP JUMP JUMPDEST PUSH1 0x0 DUP1 DUP3 SWAP2 POP DUP4 SWAP1 POP JUMPDEST PUSH1 0x1 DUP6 GT ISZERO PUSH2 0x102D JUMPI DUP1 DUP7 DIV DUP2 GT ISZERO PUSH2 0x1009 JUMPI PUSH2 0x1008 PUSH2 0xFA7 JUMP JUMPDEST JUMPDEST PUSH1 0x1 DUP6 AND ISZERO PUSH2 0x1018 JUMPI DUP1 DUP3 MUL SWAP2 POP JUMPDEST DUP1 DUP2 MUL SWAP1 POP PUSH2 0x1026 DUP6 PUSH2 0xFD6 JUMP JUMPDEST SWAP5 POP PUSH2 0xFED JUMP JUMPDEST SWAP5 POP SWAP5 SWAP3 POP POP POP JUMP JUMPDEST PUSH1 0x0 DUP3 PUSH2 0x1046 JUMPI PUSH1 0x1 SWAP1 POP PUSH2 0x1102 JUMP JUMPDEST DUP2 PUSH2 0x1054 JUMPI PUSH1 0x0 SWAP1 POP PUSH2 0x1102 JUMP JUMPDEST DUP2 PUSH1 0x1 DUP2 EQ PUSH2 0x106A JUMPI PUSH1 0x2 DUP2 EQ PUSH2 0x1074 JUMPI PUSH2 0x10A3 JUMP JUMPDEST PUSH1 0x1 SWAP2 POP POP PUSH2 0x1102 JUMP JUMPDEST PUSH1 0xFF DUP5 GT ISZERO PUSH2 0x1086 JUMPI PUSH2 0x1085 PUSH2 0xFA7 JUMP JUMPDEST JUMPDEST DUP4 PUSH1 0x2 EXP SWAP2 POP DUP5 DUP3 GT ISZERO PUSH2 0x109D JUMPI PUSH2 0x109C PUSH2 0xFA7 JUMP JUMPDEST JUMPDEST POP PUSH2 0x1102 JUMP JUMPDEST POP PUSH1 0x20 DUP4 LT PUSH2 0x133 DUP4 LT AND PUSH1 0x4E DUP5 LT PUSH1 0xB DUP5 LT AND OR ISZERO PUSH2 0x10D8 JUMPI DUP3 DUP3 EXP SWAP1 POP DUP4 DUP2 GT ISZERO PUSH2 0x10D3 JUMPI PUSH2 0x10D2 PUSH2 0xFA7 JUMP JUMPDEST JUMPDEST PUSH2 0x1102 JUMP JUMPDEST PUSH2 0x10E5 DUP5 DUP5 DUP5 PUSH1 0x1 PUSH2 0xFE3 JUMP JUMPDEST SWAP3 POP SWAP1 POP DUP2 DUP5 DIV DUP2 GT ISZERO PUSH2 0x10FC JUMPI PUSH2 0x10FB PUSH2 0xFA7 JUMP JUMPDEST JUMPDEST DUP2 DUP2 MUL SWAP1 POP JUMPDEST SWAP4 SWAP3 POP POP POP JUMP JUMPDEST PUSH1 0x0 PUSH2 0x1114 DUP3 PUSH2 0xD28 JUMP JUMPDEST SWAP2 POP PUSH2 0x111F DUP4 PUSH2 0xF41 JUMP JUMPDEST SWAP3 POP PUSH2 0x114C PUSH32 0xFFFFFFFFFFFFFFFFFFFFFFFFFFFFFFFFFFFFFFFFFFFFFFFFFFFFFFFFFFFFFFFF DUP5 DUP5 PUSH2 0x1036 JUMP JUMPDEST SWAP1 POP SWAP3 SWAP2 POP POP JUMP JUMPDEST PUSH1 0x0 PUSH2 0x115F DUP3 PUSH2 0xD28 JUMP JUMPDEST SWAP2 POP PUSH2 0x116A DUP4 PUSH2 0xD28 JUMP JUMPDEST SWAP3 POP DUP2 PUSH32 0xFFFFFFFFFFFFFFFFFFFFFFFFFFFFFFFFFFFFFFFFFFFFFFFFFFFFFFFFFFFFFFFF DIV DUP4 GT DUP3 ISZERO ISZERO AND ISZERO PUSH2 0x11A3 JUMPI PUSH2 0x11A2 PUSH2 0xFA7 JUMP JUMPDEST JUMPDEST DUP3 DUP3 MUL SWAP1 POP SWAP3 SWAP2 POP POP JUMP JUMPDEST PUSH1 0x0 PUSH2 0x11B9 DUP3 PUSH2 0xBB4 JUMP JUMPDEST SWAP1 POP SWAP2 SWAP1 POP JUMP JUMPDEST PUSH2 0x11C9 DUP2 PUSH2 0x11AE JUMP JUMPDEST DUP3 MSTORE POP POP JUMP JUMPDEST PUSH2 0x11D8 DUP2 PUSH2 0xD28 JUMP JUMPDEST DUP3 MSTORE POP POP JUMP JUMPDEST PUSH1 0x0 PUSH1 0x40 DUP3 ADD SWAP1 POP PUSH2 0x11F3 PUSH1 0x0 DUP4 ADD DUP6 PUSH2 0x11C0 JUMP JUMPDEST PUSH2 0x1200 PUSH1 0x20 DUP4 ADD DUP5 PUSH2 0x11CF JUMP JUMPDEST SWAP4 SWAP3 POP POP POP JUMP JUMPDEST PUSH1 0x0 DUP2 ISZERO ISZERO SWAP1 POP SWAP2 SWAP1 POP JUMP JUMPDEST PUSH2 0x121C DUP2 PUSH2 0x1207 JUMP JUMPDEST DUP2 EQ PUSH2 0x1227 JUMPI PUSH1 0x0 DUP1 REVERT JUMPDEST POP JUMP JUMPDEST PUSH1 0x0 DUP2 MLOAD SWAP1 POP PUSH2 0x1239 DUP2 PUSH2 0x1213 JUMP JUMPDEST SWAP3 SWAP2 POP POP JUMP JUMPDEST PUSH1 0x0 PUSH1 0x20 DUP3 DUP5 SUB SLT ISZERO PUSH2 0x1255 JUMPI PUSH2 0x1254 PUSH2 0xD23 JUMP JUMPDEST JUMPDEST PUSH1 0x0 PUSH2 0x1263 DUP5 DUP3 DUP6 ADD PUSH2 0x122A JUMP JUMPDEST SWAP2 POP POP SWAP3 SWAP2 POP POP JUMP JUMPDEST PUSH32 0x4661696C656420746F20617070726F7665205443206265666F72652063726561 PUSH1 0x0 DUP3 ADD MSTORE PUSH32 0x7465506F6F6C2829000000000000000000000000000000000000000000000000 PUSH1 0x20 DUP3 ADD MSTORE POP JUMP JUMPDEST PUSH1 0x0 PUSH2 0x12C8 PUSH1 0x28 DUP4 PUSH2 0xC9C JUMP JUMPDEST SWAP2 POP PUSH2 0x12D3 DUP3 PUSH2 0x126C JUMP JUMPDEST PUSH1 0x40 DUP3 ADD SWAP1 POP SWAP2 SWAP1 POP JUMP JUMPDEST PUSH1 0x0 PUSH1 0x20 DUP3 ADD SWAP1 POP DUP2 DUP2 SUB PUSH1 0x0 DUP4 ADD MSTORE PUSH2 0x12F7 DUP2 PUSH2 0x12BB JUMP JUMPDEST SWAP1 POP SWAP2 SWAP1 POP JUMP JUMPDEST PUSH1 0x0 DUP2 SWAP1 POP SWAP2 SWAP1 POP JUMP JUMPDEST PUSH1 0x0 PUSH2 0x1323 PUSH2 0x131E PUSH2 0x1319 DUP5 PUSH2 0x12FE JUMP JUMPDEST PUSH2 0xBD4 JUMP JUMPDEST PUSH2 0xD28 JUMP JUMPDEST SWAP1 POP SWAP2 SWAP1 POP JUMP JUMPDEST PUSH2 0x1333 DUP2 PUSH2 0x1308 JUMP JUMPDEST DUP3 MSTORE POP POP JUMP JUMPDEST PUSH1 0x0 DUP2 SWAP1 POP SWAP2 SWAP1 POP JUMP JUMPDEST PUSH1 0x0 PUSH2 0x135E PUSH2 0x1359 PUSH2 0x1354 DUP5 PUSH2 0x1339 JUMP JUMPDEST PUSH2 0xBD4 JUMP JUMPDEST PUSH2 0xD28 JUMP JUMPDEST SWAP1 POP SWAP2 SWAP1 POP JUMP JUMPDEST PUSH2 0x136E DUP2 PUSH2 0x1343 JUMP JUMPDEST DUP3 MSTORE POP POP JUMP JUMPDEST PUSH1 0x0 PUSH1 0xA0 DUP3 ADD SWAP1 POP PUSH2 0x1389 PUSH1 0x0 DUP4 ADD DUP9 PUSH2 0x11CF JUMP JUMPDEST PUSH2 0x1396 PUSH1 0x20 DUP4 ADD DUP8 PUSH2 0x132A JUMP JUMPDEST PUSH2 0x13A3 PUSH1 0x40 DUP4 ADD DUP7 PUSH2 0x1365 JUMP JUMPDEST PUSH2 0x13B0 PUSH1 0x60 DUP4 ADD DUP6 PUSH2 0x11C0 JUMP JUMPDEST PUSH2 0x13BD PUSH1 0x80 DUP4 ADD DUP5 PUSH2 0x11C0 JUMP JUMPDEST SWAP7 SWAP6 POP POP POP POP POP POP JUMP JUMPDEST PUSH1 0x0 DUP2 PUSH1 0xE0 SHR SWAP1 POP SWAP2 SWAP1 POP JUMP JUMPDEST PUSH1 0x0 PUSH1 0x3 RETURNDATASIZE GT ISZERO PUSH2 0x13F3 JUMPI PUSH1 0x4 PUSH1 0x0 DUP1 RETURNDATACOPY PUSH2 0x13F0 PUSH1 0x0 MLOAD PUSH2 0x13C7 JUMP JUMPDEST SWAP1 POP JUMPDEST SWAP1 JUMP JUMPDEST PUSH1 0x0 PUSH1 0x1F NOT PUSH1 0x1F DUP4 ADD AND SWAP1 POP SWAP2 SWAP1 POP JUMP JUMPDEST PUSH32 0x4E487B7100000000000000000000000000000000000000000000000000000000 PUSH1 0x0 MSTORE PUSH1 0x41 PUSH1 0x4 MSTORE PUSH1 0x24 PUSH1 0x0 REVERT JUMPDEST PUSH2 0x143F DUP3 PUSH2 0x13F6 JUMP JUMPDEST DUP2 ADD DUP2 DUP2 LT PUSH8 0xFFFFFFFFFFFFFFFF DUP3 GT OR ISZERO PUSH2 0x145E JUMPI PUSH2 0x145D PUSH2 0x1407 JUMP JUMPDEST JUMPDEST DUP1 PUSH1 0x40 MSTORE POP POP POP JUMP JUMPDEST PUSH1 0x0 PUSH1 0x44 RETURNDATASIZE LT PUSH2 0x14F4 JUMPI PUSH2 0x1479 PUSH2 0xD19 JUMP JUMPDEST PUSH1 0x4 RETURNDATASIZE SUB PUSH1 0x4 DUP3 RETURNDATACOPY DUP1 MLOAD RETURNDATASIZE PUSH1 0x24 DUP3 ADD GT PUSH8 0xFFFFFFFFFFFFFFFF DUP3 GT OR ISZERO PUSH2 0x14A1 JUMPI POP POP PUSH2 0x14F4 JUMP JUMPDEST DUP1 DUP3 ADD DUP1 MLOAD PUSH8 0xFFFFFFFFFFFFFFFF DUP2 GT ISZERO PUSH2 0x14BF JUMPI POP POP POP POP PUSH2 0x14F4 JUMP JUMPDEST DUP1 PUSH1 0x20 DUP4 ADD ADD PUSH1 0x4 RETURNDATASIZE SUB DUP6 ADD DUP2 GT ISZERO PUSH2 0x14DC JUMPI POP POP POP POP POP PUSH2 0x14F4 JUMP JUMPDEST PUSH2 0x14EB DUP3 PUSH1 0x20 ADD DUP6 ADD DUP7 PUSH2 0x1436 JUMP JUMPDEST DUP3 SWAP6 POP POP POP POP POP POP JUMPDEST SWAP1 JUMP JUMPDEST PUSH32 0x637265617465506F6F6C28292063616C6C2072657665727465643A2000000000 DUP2 MSTORE POP JUMP JUMPDEST PUSH1 0x0 DUP2 MLOAD SWAP1 POP SWAP2 SWAP1 POP JUMP JUMPDEST PUSH1 0x0 DUP2 SWAP1 POP SWAP3 SWAP2 POP POP JUMP JUMPDEST PUSH1 0x0 JUMPDEST DUP4 DUP2 LT ISZERO PUSH2 0x1551 JUMPI DUP1 DUP3 ADD MLOAD DUP2 DUP5 ADD MSTORE PUSH1 0x20 DUP2 ADD SWAP1 POP PUSH2 0x1536 JUMP JUMPDEST PUSH1 0x0 DUP5 DUP5 ADD MSTORE POP POP POP POP JUMP JUMPDEST PUSH1 0x0 PUSH2 0x1568 DUP3 PUSH2 0x151D JUMP JUMPDEST PUSH2 0x1572 DUP2 DUP6 PUSH2 0x1528 JUMP JUMPDEST SWAP4 POP PUSH2 0x1582 DUP2 DUP6 PUSH1 0x20 DUP7 ADD PUSH2 0x1533 JUMP JUMPDEST DUP1 DUP5 ADD SWAP2 POP POP SWAP3 SWAP2 POP POP JUMP JUMPDEST PUSH1 0x0 PUSH2 0x1599 DUP3 PUSH2 0x14F7 JUMP JUMPDEST PUSH1 0x1C DUP3 ADD SWAP2 POP PUSH2 0x15A9 DUP3 DUP5 PUSH2 0x155D JUMP JUMPDEST SWAP2 POP DUP2 SWAP1 POP SWAP3 SWAP2 POP POP JUMP JUMPDEST PUSH1 0x0 PUSH2 0x15BF DUP3 PUSH2 0x151D JUMP JUMPDEST PUSH2 0x15C9 DUP2 DUP6 PUSH2 0xC9C JUMP JUMPDEST SWAP4 POP PUSH2 0x15D9 DUP2 DUP6 PUSH1 0x20 DUP7 ADD PUSH2 0x1533 JUMP JUMPDEST PUSH2 0x15E2 DUP2 PUSH2 0x13F6 JUMP JUMPDEST DUP5 ADD SWAP2 POP POP SWAP3 SWAP2 POP POP JUMP JUMPDEST PUSH1 0x0 PUSH1 0x20 DUP3 ADD SWAP1 POP DUP2 DUP2 SUB PUSH1 0x0 DUP4 ADD MSTORE PUSH2 0x1607 DUP2 DUP5 PUSH2 0x15B4 JUMP JUMPDEST SWAP1 POP SWAP3 SWAP2 POP POP JUMP JUMPDEST PUSH32 0x6B2076616C7565206E6F7420636F727265637420616674657220637265617465 PUSH1 0x0 DUP3 ADD MSTORE PUSH32 0x506F6F6C28290000000000000000000000000000000000000000000000000000 PUSH1 0x20 DUP3 ADD MSTORE POP JUMP JUMPDEST PUSH1 0x0 PUSH2 0x166B PUSH1 0x26 DUP4 PUSH2 0xC9C JUMP JUMPDEST SWAP2 POP PUSH2 0x1676 DUP3 PUSH2 0x160F JUMP JUMPDEST PUSH1 0x40 DUP3 ADD SWAP1 POP SWAP2 SWAP1 POP JUMP JUMPDEST PUSH1 0x0 PUSH1 0x20 DUP3 ADD SWAP1 POP DUP2 DUP2 SUB PUSH1 0x0 DUP4 ADD MSTORE PUSH2 0x169A DUP2 PUSH2 0x165E JUMP JUMPDEST SWAP1 POP SWAP2 SWAP1 POP JUMP JUMPDEST PUSH32 0x782076616C7565206E6F7420636F727265637420616674657220637265617465 PUSH1 0x0 DUP3 ADD MSTORE PUSH32 0x506F6F6C28290000000000000000000000000000000000000000000000000000 PUSH1 0x20 DUP3 ADD MSTORE POP JUMP JUMPDEST PUSH1 0x0 PUSH2 0x16FD PUSH1 0x26 DUP4 PUSH2 0xC9C JUMP JUMPDEST SWAP2 POP PUSH2 0x1708 DUP3 PUSH2 0x16A1 JUMP JUMPDEST PUSH1 0x40 DUP3 ADD SWAP1 POP SWAP2 SWAP1 POP JUMP JUMPDEST PUSH1 0x0 PUSH1 0x20 DUP3 ADD SWAP1 POP DUP2 DUP2 SUB PUSH1 0x0 DUP4 ADD MSTORE PUSH2 0x172C DUP2 PUSH2 0x16F0 JUMP JUMPDEST SWAP1 POP SWAP2 SWAP1 POP JUMP JUMPDEST PUSH32 0x792076616C7565206E6F7420636F727265637420616674657220637265617465 PUSH1 0x0 DUP3 ADD MSTORE PUSH32 0x506F6F6C28290000000000000000000000000000000000000000000000000000 PUSH1 0x20 DUP3 ADD MSTORE POP JUMP JUMPDEST PUSH1 0x0 PUSH2 0x178F PUSH1 0x26 DUP4 PUSH2 0xC9C JUMP JUMPDEST SWAP2 POP PUSH2 0x179A DUP3 PUSH2 0x1733 JUMP JUMPDEST PUSH1 0x40 DUP3 ADD SWAP1 POP SWAP2 SWAP1 POP JUMP JUMPDEST PUSH1 0x0 PUSH1 0x20 DUP3 ADD SWAP1 POP DUP2 DUP2 SUB PUSH1 0x0 DUP4 ADD MSTORE PUSH2 0x17BE DUP2 PUSH2 0x1782 JUMP JUMPDEST SWAP1 POP SWAP2 SWAP1 POP JUMP JUMPDEST PUSH32 0x656E64206661696C000000000000000000000000000000000000000000000000 PUSH1 0x0 DUP3 ADD MSTORE POP JUMP JUMPDEST PUSH1 0x0 PUSH2 0x17FB PUSH1 0x8 DUP4 PUSH2 0xC9C JUMP JUMPDEST SWAP2 POP PUSH2 0x1806 DUP3 PUSH2 0x17C5 JUMP JUMPDEST PUSH1 0x20 DUP3 ADD SWAP1 POP SWAP2 SWAP1 POP JUMP JUMPDEST PUSH1 0x0 PUSH1 0x20 DUP3 ADD SWAP1 POP DUP2 DUP2 SUB PUSH1 0x0 DUP4 ADD MSTORE PUSH2 0x182A DUP2 PUSH2 0x17EE JUMP JUMPDEST SWAP1 POP SWAP2 SWAP1 POP JUMP INVALID PUSH1 0x80 PUSH1 0x40 MSTORE CALLVALUE DUP1 ISZERO PUSH2 0x10 JUMPI PUSH1 0x0 DUP1 REVERT JUMPDEST POP PUSH2 0x44A DUP1 PUSH2 0x20 PUSH1 0x0 CODECOPY PUSH1 0x0 RETURN INVALID PUSH1 0x80 PUSH1 0x40 MSTORE CALLVALUE DUP1 ISZERO PUSH2 0x10 JUMPI PUSH1 0x0 DUP1 REVERT JUMPDEST POP PUSH1 0x4 CALLDATASIZE LT PUSH2 0x57 JUMPI PUSH1 0x0 CALLDATALOAD PUSH1 0xE0 SHR DUP1 PUSH4 0x1FFC9A7 EQ PUSH2 0x5C JUMPI DUP1 PUSH4 0x6FDDE03 EQ PUSH2 0x8C JUMPI DUP1 PUSH4 0x313CE567 EQ PUSH2 0xAA JUMPI DUP1 PUSH4 0x95D89B41 EQ PUSH2 0xC8 JUMPI DUP1 PUSH4 0xA035B1FE EQ PUSH2 0xE6 JUMPI JUMPDEST PUSH1 0x0 DUP1 REVERT JUMPDEST PUSH2 0x76 PUSH1 0x4 DUP1 CALLDATASIZE SUB DUP2 ADD SWAP1 PUSH2 0x71 SWAP2 SWAP1 PUSH2 0x293 JUMP JUMPDEST PUSH2 0x104 JUMP JUMPDEST PUSH1 0x40 MLOAD PUSH2 0x83 SWAP2 SWAP1 PUSH2 0x2DB JUMP JUMPDEST PUSH1 0x40 MLOAD DUP1 SWAP2 SUB SWAP1 RETURN JUMPDEST PUSH2 0x94 PUSH2 0x1D6 JUMP JUMPDEST PUSH1 0x40 MLOAD PUSH2 0xA1 SWAP2 SWAP1 PUSH2 0x386 JUMP JUMPDEST PUSH1 0x40 MLOAD DUP1 SWAP2 SUB SWAP1 RETURN JUMPDEST PUSH2 0xB2 PUSH2 0x1F2 JUMP JUMPDEST PUSH1 0x40 MLOAD PUSH2 0xBF SWAP2 SWAP1 PUSH2 0x3C1 JUMP JUMPDEST PUSH1 0x40 MLOAD DUP1 SWAP2 SUB SWAP1 RETURN JUMPDEST PUSH2 0xD0 PUSH2 0x1F7 JUMP JUMPDEST PUSH1 0x40 MLOAD PUSH2 0xDD SWAP2 SWAP1 PUSH2 0x386 JUMP JUMPDEST PUSH1 0x40 MLOAD DUP1 SWAP2 SUB SWAP1 RETURN JUMPDEST PUSH2 0xEE PUSH2 0x230 JUMP JUMPDEST PUSH1 0x40 MLOAD PUSH2 0xFB SWAP2 SWAP1 PUSH2 0x3C1 JUMP JUMPDEST PUSH1 0x40 MLOAD DUP1 SWAP2 SUB SWAP1 RETURN JUMPDEST PUSH1 0x0 PUSH32 0x22C11DB00000000000000000000000000000000000000000000000000000000 PUSH28 0xFFFFFFFFFFFFFFFFFFFFFFFFFFFFFFFFFFFFFFFFFFFFFFFFFFFFFFFF NOT AND DUP3 PUSH28 0xFFFFFFFFFFFFFFFFFFFFFFFFFFFFFFFFFFFFFFFFFFFFFFFFFFFFFFFF NOT AND EQ DUP1 PUSH2 0x1CF JUMPI POP PUSH32 0x1FFC9A700000000000000000000000000000000000000000000000000000000 PUSH28 0xFFFFFFFFFFFFFFFFFFFFFFFFFFFFFFFFFFFFFFFFFFFFFFFFFFFFFFFF NOT AND DUP3 PUSH28 0xFFFFFFFFFFFFFFFFFFFFFFFFFFFFFFFFFFFFFFFFFFFFFFFFFFFFFFFF NOT AND EQ JUMPDEST SWAP1 POP SWAP2 SWAP1 POP JUMP JUMPDEST PUSH1 0x40 MLOAD DUP1 PUSH1 0x60 ADD PUSH1 0x40 MSTORE DUP1 PUSH1 0x38 DUP2 MSTORE PUSH1 0x20 ADD PUSH2 0x3DD PUSH1 0x38 SWAP2 CODECOPY DUP2 JUMP JUMPDEST PUSH1 0x2 DUP2 JUMP JUMPDEST PUSH1 0x40 MLOAD DUP1 PUSH1 0x40 ADD PUSH1 0x40 MSTORE DUP1 PUSH1 0x1 DUP2 MSTORE PUSH1 0x20 ADD PUSH32 0x2400000000000000000000000000000000000000000000000000000000000000 DUP2 MSTORE POP DUP2 JUMP JUMPDEST PUSH2 0x2710 DUP2 JUMP JUMPDEST PUSH1 0x0 DUP1 REVERT JUMPDEST PUSH1 0x0 PUSH32 0xFFFFFFFF00000000000000000000000000000000000000000000000000000000 DUP3 AND SWAP1 POP SWAP2 SWAP1 POP JUMP JUMPDEST PUSH2 0x270 DUP2 PUSH2 0x23B JUMP JUMPDEST DUP2 EQ PUSH2 0x27B JUMPI PUSH1 0x0 DUP1 REVERT JUMPDEST POP JUMP JUMPDEST PUSH1 0x0 DUP2 CALLDATALOAD SWAP1 POP PUSH2 0x28D DUP2 PUSH2 0x267 JUMP JUMPDEST SWAP3 SWAP2 POP POP JUMP JUMPDEST PUSH1 0x0 PUSH1 0x20 DUP3 DUP5 SUB SLT ISZERO PUSH2 0x2A9 JUMPI PUSH2 0x2A8 PUSH2 0x236 JUMP JUMPDEST JUMPDEST PUSH1 0x0 PUSH2 0x2B7 DUP5 DUP3 DUP6 ADD PUSH2 0x27E JUMP JUMPDEST SWAP2 POP POP SWAP3 SWAP2 POP POP JUMP JUMPDEST PUSH1 0x0 DUP2 ISZERO ISZERO SWAP1 POP SWAP2 SWAP1 POP JUMP JUMPDEST PUSH2 0x2D5 DUP2 PUSH2 0x2C0 JUMP JUMPDEST DUP3 MSTORE POP POP JUMP JUMPDEST PUSH1 0x0 PUSH1 0x20 DUP3 ADD SWAP1 POP PUSH2 0x2F0 PUSH1 0x0 DUP4 ADD DUP5 PUSH2 0x2CC JUMP JUMPDEST SWAP3 SWAP2 POP POP JUMP JUMPDEST PUSH1 0x0 DUP2 MLOAD SWAP1 POP SWAP2 SWAP1 POP JUMP JUMPDEST PUSH1 0x0 DUP3 DUP3 MSTORE PUSH1 0x20 DUP3 ADD SWAP1 POP SWAP3 SWAP2 POP POP JUMP JUMPDEST PUSH1 0x0 JUMPDEST DUP4 DUP2 LT ISZERO PUSH2 0x330 JUMPI DUP1 DUP3 ADD MLOAD DUP2 DUP5 ADD MSTORE PUSH1 0x20 DUP2 ADD SWAP1 POP PUSH2 0x315 JUMP JUMPDEST PUSH1 0x0 DUP5 DUP5 ADD MSTORE POP POP POP POP JUMP JUMPDEST PUSH1 0x0 PUSH1 0x1F NOT PUSH1 0x1F DUP4 ADD AND SWAP1 POP SWAP2 SWAP1 POP JUMP JUMPDEST PUSH1 0x0 PUSH2 0x358 DUP3 PUSH2 0x2F6 JUMP JUMPDEST PUSH2 0x362 DUP2 DUP6 PUSH2 0x301 JUMP JUMPDEST SWAP4 POP PUSH2 0x372 DUP2 DUP6 PUSH1 0x20 DUP7 ADD PUSH2 0x312 JUMP JUMPDEST PUSH2 0x37B DUP2 PUSH2 0x33C JUMP JUMPDEST DUP5 ADD SWAP2 POP POP SWAP3 SWAP2 POP POP JUMP JUMPDEST PUSH1 0x0 PUSH1 0x20 DUP3 ADD SWAP1 POP DUP2 DUP2 SUB PUSH1 0x0 DUP4 ADD MSTORE PUSH2 0x3A0 DUP2 DUP5 PUSH2 0x34D JUMP JUMPDEST SWAP1 POP SWAP3 SWAP2 POP POP JUMP JUMPDEST PUSH1 0x0 DUP2 SWAP1 POP SWAP2 SWAP1 POP JUMP JUMPDEST PUSH2 0x3BB DUP2 PUSH2 0x3A8 JUMP JUMPDEST DUP3 MSTORE POP POP JUMP JUMPDEST PUSH1 0x0 PUSH1 0x20 DUP3 ADD SWAP1 POP PUSH2 0x3D6 PUSH1 0x0 DUP4 ADD DUP5 PUSH2 0x3B2 JUMP JUMPDEST SWAP3 SWAP2 POP POP JUMP INVALID COINBASE KECCAK256 PUSH4 0x6F6E7374 PUSH2 0x6E74 KECCAK256 GASLIMIT PUSH21 0x6865725072696365206F7261636C65207468617420 PUSH2 0x6C77 PUSH2 0x7973 KECCAK256 PUSH19 0x657475726E7320243130302E3030A264697066 PUSH20 0x582212200916DA454C6E5FC928A765EA82AF5D93 CODESIZE MLOAD LOG3 0xB7 PUSH19 0xFE82CE38F039D36F7FB5FE64736F6C63430008 LT STOP CALLER LOG2 PUSH5 0x6970667358 0x22 SLT KECCAK256 0x28 PUSH16 0x7C600C317968F6D502EC30F16D5E0EBC 0xB4 0xD0 0x1E SWAP9 0xC2 PUSH4 0xE99F83C4 0xCE GT RETURNDATACOPY OR PUSH5 0x736F6C6343 STOP ADDMOD LT STOP CALLER PUSH1 0x80 PUSH1 0x40 MSTORE CALLVALUE DUP1 ISZERO PUSH3 0x11 JUMPI PUSH1 0x0 DUP1 REVERT JUMPDEST POP PUSH1 0x40 MLOAD DUP1 PUSH1 0x40 ADD PUSH1 0x40 MSTORE DUP1 PUSH1 0x8 DUP2 MSTORE PUSH1 0x20 ADD PUSH32 0x4D617278436F696E000000000000000000000000000000000000000000000000 DUP2 MSTORE POP PUSH1 0x40 MLOAD DUP1 PUSH1 0x40 ADD PUSH1 0x40 MSTORE DUP1 PUSH1 0x3 DUP2 MSTORE PUSH1 0x20 ADD PUSH32 0x4D58430000000000000000000000000000000000000000000000000000000000 DUP2 MSTORE POP DUP2 PUSH1 0x3 SWAP1 DUP2 PUSH3 0x8F SWAP2 SWAP1 PUSH3 0x613 JUMP JUMPDEST POP DUP1 PUSH1 0x4 SWAP1 DUP2 PUSH3 0xA1 SWAP2 SWAP1 PUSH3 0x613 JUMP JUMPDEST POP POP POP PUSH3 0xBF CALLER PUSH9 0x3635C9ADC5DEA00000 PUSH3 0xC5 PUSH1 0x20 SHL PUSH1 0x20 SHR JUMP JUMPDEST PUSH3 0x993 JUMP JUMPDEST PUSH1 0x0 PUSH20 0xFFFFFFFFFFFFFFFFFFFFFFFFFFFFFFFFFFFFFFFF AND DUP3 PUSH20 0xFFFFFFFFFFFFFFFFFFFFFFFFFFFFFFFFFFFFFFFF AND SUB PUSH3 0x137 JUMPI PUSH1 0x40 MLOAD PUSH32 0x8C379A000000000000000000000000000000000000000000000000000000000 DUP2 MSTORE PUSH1 0x4 ADD PUSH3 0x12E SWAP1 PUSH3 0x75B JUMP JUMPDEST PUSH1 0x40 MLOAD DUP1 SWAP2 SUB SWAP1 REVERT JUMPDEST PUSH3 0x14B PUSH1 0x0 DUP4 DUP4 PUSH3 0x232 PUSH1 0x20 SHL PUSH1 0x20 SHR JUMP JUMPDEST DUP1 PUSH1 0x2 PUSH1 0x0 DUP3 DUP3 SLOAD PUSH3 0x15F SWAP2 SWAP1 PUSH3 0x7AC JUMP JUMPDEST SWAP3 POP POP DUP2 SWAP1 SSTORE POP DUP1 PUSH1 0x0 DUP1 DUP5 PUSH20 0xFFFFFFFFFFFFFFFFFFFFFFFFFFFFFFFFFFFFFFFF AND PUSH20 0xFFFFFFFFFFFFFFFFFFFFFFFFFFFFFFFFFFFFFFFF AND DUP2 MSTORE PUSH1 0x20 ADD SWAP1 DUP2 MSTORE PUSH1 0x20 ADD PUSH1 0x0 KECCAK256 PUSH1 0x0 DUP3 DUP3 SLOAD ADD SWAP3 POP POP DUP2 SWAP1 SSTORE POP DUP2 PUSH20 0xFFFFFFFFFFFFFFFFFFFFFFFFFFFFFFFFFFFFFFFF AND PUSH1 0x0 PUSH20 0xFFFFFFFFFFFFFFFFFFFFFFFFFFFFFFFFFFFFFFFF AND PUSH32 0xDDF252AD1BE2C89B69C2B068FC378DAA952BA7F163C4A11628F55A4DF523B3EF DUP4 PUSH1 0x40 MLOAD PUSH3 0x212 SWAP2 SWAP1 PUSH3 0x7F8 JUMP JUMPDEST PUSH1 0x40 MLOAD DUP1 SWAP2 SUB SWAP1 LOG3 PUSH3 0x22E PUSH1 0x0 DUP4 DUP4 PUSH3 0x237 PUSH1 0x20 SHL PUSH1 0x20 SHR JUMP JUMPDEST POP POP JUMP JUMPDEST POP POP POP JUMP JUMPDEST PUSH1 0x0 DUP3 PUSH20 0xFFFFFFFFFFFFFFFFFFFFFFFFFFFFFFFFFFFFFFFF AND EXTCODESIZE GT DUP1 ISZERO PUSH3 0x28C JUMPI POP PUSH1 0x0 PUSH20 0xFFFFFFFFFFFFFFFFFFFFFFFFFFFFFFFFFFFFFFFF AND DUP4 PUSH20 0xFFFFFFFFFFFFFFFFFFFFFFFFFFFFFFFFFFFFFFFF AND EQ ISZERO JUMPDEST DUP1 ISZERO PUSH3 0x2C6 JUMPI POP PUSH1 0x0 PUSH20 0xFFFFFFFFFFFFFFFFFFFFFFFFFFFFFFFFFFFFFFFF AND DUP3 PUSH20 0xFFFFFFFFFFFFFFFFFFFFFFFFFFFFFFFFFFFFFFFF AND EQ ISZERO JUMPDEST ISZERO PUSH3 0x394 JUMPI DUP2 PUSH20 0xFFFFFFFFFFFFFFFFFFFFFFFFFFFFFFFFFFFFFFFF AND PUSH4 0xBC04F0AF DUP5 DUP4 PUSH1 0x40 MLOAD DUP4 PUSH4 0xFFFFFFFF AND PUSH1 0xE0 SHL DUP2 MSTORE PUSH1 0x4 ADD PUSH3 0x309 SWAP3 SWAP2 SWAP1 PUSH3 0x85A JUMP JUMPDEST PUSH1 0x20 PUSH1 0x40 MLOAD DUP1 DUP4 SUB DUP2 PUSH1 0x0 DUP8 GAS CALL SWAP3 POP POP POP DUP1 ISZERO PUSH3 0x348 JUMPI POP PUSH1 0x40 MLOAD RETURNDATASIZE PUSH1 0x1F NOT PUSH1 0x1F DUP3 ADD AND DUP3 ADD DUP1 PUSH1 0x40 MSTORE POP DUP2 ADD SWAP1 PUSH3 0x345 SWAP2 SWAP1 PUSH3 0x8C9 JUMP JUMPDEST PUSH1 0x1 JUMPDEST ISZERO PUSH3 0x393 JUMPI DUP1 PUSH3 0x391 JUMPI PUSH1 0x40 MLOAD PUSH32 0x8C379A000000000000000000000000000000000000000000000000000000000 DUP2 MSTORE PUSH1 0x4 ADD PUSH3 0x388 SWAP1 PUSH3 0x971 JUMP JUMPDEST PUSH1 0x40 MLOAD DUP1 SWAP2 SUB SWAP1 REVERT JUMPDEST POP JUMPDEST JUMPDEST POP POP POP JUMP JUMPDEST PUSH1 0x0 DUP2 MLOAD SWAP1 POP SWAP2 SWAP1 POP JUMP JUMPDEST PUSH32 0x4E487B7100000000000000000000000000000000000000000000000000000000 PUSH1 0x0 MSTORE PUSH1 0x41 PUSH1 0x4 MSTORE PUSH1 0x24 PUSH1 0x0 REVERT JUMPDEST PUSH32 0x4E487B7100000000000000000000000000000000000000000000000000000000 PUSH1 0x0 MSTORE PUSH1 0x22 PUSH1 0x4 MSTORE PUSH1 0x24 PUSH1 0x0 REVERT JUMPDEST PUSH1 0x0 PUSH1 0x2 DUP3 DIV SWAP1 POP PUSH1 0x1 DUP3 AND DUP1 PUSH3 0x41B JUMPI PUSH1 0x7F DUP3 AND SWAP2 POP JUMPDEST PUSH1 0x20 DUP3 LT DUP2 SUB PUSH3 0x431 JUMPI PUSH3 0x430 PUSH3 0x3D3 JUMP JUMPDEST JUMPDEST POP SWAP2 SWAP1 POP JUMP JUMPDEST PUSH1 0x0 DUP2 SWAP1 POP DUP2 PUSH1 0x0 MSTORE PUSH1 0x20 PUSH1 0x0 KECCAK256 SWAP1 POP SWAP2 SWAP1 POP JUMP JUMPDEST PUSH1 0x0 PUSH1 0x20 PUSH1 0x1F DUP4 ADD DIV SWAP1 POP SWAP2 SWAP1 POP JUMP JUMPDEST PUSH1 0x0 DUP3 DUP3 SHL SWAP1 POP SWAP3 SWAP2 POP POP JUMP JUMPDEST PUSH1 0x0 PUSH1 0x8 DUP4 MUL PUSH3 0x49B PUSH32 0xFFFFFFFFFFFFFFFFFFFFFFFFFFFFFFFFFFFFFFFFFFFFFFFFFFFFFFFFFFFFFFFF DUP3 PUSH3 0x45C JUMP JUMPDEST PUSH3 0x4A7 DUP7 DUP4 PUSH3 0x45C JUMP JUMPDEST SWAP6 POP DUP1 NOT DUP5 AND SWAP4 POP DUP1 DUP7 AND DUP5 OR SWAP3 POP POP POP SWAP4 SWAP3 POP POP POP JUMP JUMPDEST PUSH1 0x0 DUP2 SWAP1 POP SWAP2 SWAP1 POP JUMP JUMPDEST PUSH1 0x0 DUP2 SWAP1 POP SWAP2 SWAP1 POP JUMP JUMPDEST PUSH1 0x0 PUSH3 0x4F4 PUSH3 0x4EE PUSH3 0x4E8 DUP5 PUSH3 0x4BF JUMP JUMPDEST PUSH3 0x4C9 JUMP JUMPDEST PUSH3 0x4BF JUMP JUMPDEST SWAP1 POP SWAP2 SWAP1 POP JUMP JUMPDEST PUSH1 0x0 DUP2 SWAP1 POP SWAP2 SWAP1 POP JUMP JUMPDEST PUSH3 0x510 DUP4 PUSH3 0x4D3 JUMP JUMPDEST PUSH3 0x528 PUSH3 0x51F DUP3 PUSH3 0x4FB JUMP JUMPDEST DUP5 DUP5 SLOAD PUSH3 0x469 JUMP JUMPDEST DUP3 SSTORE POP POP POP POP JUMP JUMPDEST PUSH1 0x0 SWAP1 JUMP JUMPDEST PUSH3 0x53F PUSH3 0x530 JUMP JUMPDEST PUSH3 0x54C DUP2 DUP5 DUP5 PUSH3 0x505 JUMP JUMPDEST POP POP POP JUMP JUMPDEST JUMPDEST DUP2 DUP2 LT ISZERO PUSH3 0x574 JUMPI PUSH3 0x568 PUSH1 0x0 DUP3 PUSH3 0x535 JUMP JUMPDEST PUSH1 0x1 DUP2 ADD SWAP1 POP PUSH3 0x552 JUMP JUMPDEST POP POP JUMP JUMPDEST PUSH1 0x1F DUP3 GT ISZERO PUSH3 0x5C3 JUMPI PUSH3 0x58D DUP2 PUSH3 0x437 JUMP JUMPDEST PUSH3 0x598 DUP5 PUSH3 0x44C JUMP JUMPDEST DUP2 ADD PUSH1 0x20 DUP6 LT ISZERO PUSH3 0x5A8 JUMPI DUP2 SWAP1 POP JUMPDEST PUSH3 0x5C0 PUSH3 0x5B7 DUP6 PUSH3 0x44C JUMP JUMPDEST DUP4 ADD DUP3 PUSH3 0x551 JUMP JUMPDEST POP POP JUMPDEST POP POP POP JUMP JUMPDEST PUSH1 0x0 DUP3 DUP3 SHR SWAP1 POP SWAP3 SWAP2 POP POP JUMP JUMPDEST PUSH1 0x0 PUSH3 0x5E8 PUSH1 0x0 NOT DUP5 PUSH1 0x8 MUL PUSH3 0x5C8 JUMP JUMPDEST NOT DUP1 DUP4 AND SWAP2 POP POP SWAP3 SWAP2 POP POP JUMP JUMPDEST PUSH1 0x0 PUSH3 0x603 DUP4 DUP4 PUSH3 0x5D5 JUMP JUMPDEST SWAP2 POP DUP3 PUSH1 0x2 MUL DUP3 OR SWAP1 POP SWAP3 SWAP2 POP POP JUMP JUMPDEST PUSH3 0x61E DUP3 PUSH3 0x399 JUMP JUMPDEST PUSH8 0xFFFFFFFFFFFFFFFF DUP2 GT ISZERO PUSH3 0x63A JUMPI PUSH3 0x639 PUSH3 0x3A4 JUMP JUMPDEST JUMPDEST PUSH3 0x646 DUP3 SLOAD PUSH3 0x402 JUMP JUMPDEST PUSH3 0x653 DUP3 DUP3 DUP6 PUSH3 0x578 JUMP JUMPDEST PUSH1 0x0 PUSH1 0x20 SWAP1 POP PUSH1 0x1F DUP4 GT PUSH1 0x1 DUP2 EQ PUSH3 0x68B JUMPI PUSH1 0x0 DUP5 ISZERO PUSH3 0x676 JUMPI DUP3 DUP8 ADD MLOAD SWAP1 POP JUMPDEST PUSH3 0x682 DUP6 DUP3 PUSH3 0x5F5 JUMP JUMPDEST DUP7 SSTORE POP PUSH3 0x6F2 JUMP JUMPDEST PUSH1 0x1F NOT DUP5 AND PUSH3 0x69B DUP7 PUSH3 0x437 JUMP JUMPDEST PUSH1 0x0 JUMPDEST DUP3 DUP2 LT ISZERO PUSH3 0x6C5 JUMPI DUP5 DUP10 ADD MLOAD DUP3 SSTORE PUSH1 0x1 DUP3 ADD SWAP2 POP PUSH1 0x20 DUP6 ADD SWAP5 POP PUSH1 0x20 DUP2 ADD SWAP1 POP PUSH3 0x69E JUMP JUMPDEST DUP7 DUP4 LT ISZERO PUSH3 0x6E5 JUMPI DUP5 DUP10 ADD MLOAD PUSH3 0x6E1 PUSH1 0x1F DUP10 AND DUP3 PUSH3 0x5D5 JUMP JUMPDEST DUP4 SSTORE POP JUMPDEST PUSH1 0x1 PUSH1 0x2 DUP9 MUL ADD DUP9 SSTORE POP POP POP JUMPDEST POP POP POP POP POP POP JUMP JUMPDEST PUSH1 0x0 DUP3 DUP3 MSTORE PUSH1 0x20 DUP3 ADD SWAP1 POP SWAP3 SWAP2 POP POP JUMP JUMPDEST PUSH32 0x45524332303A206D696E7420746F20746865207A65726F206164647265737300 PUSH1 0x0 DUP3 ADD MSTORE POP JUMP JUMPDEST PUSH1 0x0 PUSH3 0x743 PUSH1 0x1F DUP4 PUSH3 0x6FA JUMP JUMPDEST SWAP2 POP PUSH3 0x750 DUP3 PUSH3 0x70B JUMP JUMPDEST PUSH1 0x20 DUP3 ADD SWAP1 POP SWAP2 SWAP1 POP JUMP JUMPDEST PUSH1 0x0 PUSH1 0x20 DUP3 ADD SWAP1 POP DUP2 DUP2 SUB PUSH1 0x0 DUP4 ADD MSTORE PUSH3 0x776 DUP2 PUSH3 0x734 JUMP JUMPDEST SWAP1 POP SWAP2 SWAP1 POP JUMP JUMPDEST PUSH32 0x4E487B7100000000000000000000000000000000000000000000000000000000 PUSH1 0x0 MSTORE PUSH1 0x11 PUSH1 0x4 MSTORE PUSH1 0x24 PUSH1 0x0 REVERT JUMPDEST PUSH1 0x0 PUSH3 0x7B9 DUP3 PUSH3 0x4BF JUMP JUMPDEST SWAP2 POP PUSH3 0x7C6 DUP4 PUSH3 0x4BF JUMP JUMPDEST SWAP3 POP DUP3 DUP3 ADD SWAP1 POP DUP1 DUP3 GT ISZERO PUSH3 0x7E1 JUMPI PUSH3 0x7E0 PUSH3 0x77D JUMP JUMPDEST JUMPDEST SWAP3 SWAP2 POP POP JUMP JUMPDEST PUSH3 0x7F2 DUP2 PUSH3 0x4BF JUMP JUMPDEST DUP3 MSTORE POP POP JUMP JUMPDEST PUSH1 0x0 PUSH1 0x20 DUP3 ADD SWAP1 POP PUSH3 0x80F PUSH1 0x0 DUP4 ADD DUP5 PUSH3 0x7E7 JUMP JUMPDEST SWAP3 SWAP2 POP POP JUMP JUMPDEST PUSH1 0x0 PUSH20 0xFFFFFFFFFFFFFFFFFFFFFFFFFFFFFFFFFFFFFFFF DUP3 AND SWAP1 POP SWAP2 SWAP1 POP JUMP JUMPDEST PUSH1 0x0 PUSH3 0x842 DUP3 PUSH3 0x815 JUMP JUMPDEST SWAP1 POP SWAP2 SWAP1 POP JUMP JUMPDEST PUSH3 0x854 DUP2 PUSH3 0x835 JUMP JUMPDEST DUP3 MSTORE POP POP JUMP JUMPDEST PUSH1 0x0 PUSH1 0x40 DUP3 ADD SWAP1 POP PUSH3 0x871 PUSH1 0x0 DUP4 ADD DUP6 PUSH3 0x849 JUMP JUMPDEST PUSH3 0x880 PUSH1 0x20 DUP4 ADD DUP5 PUSH3 0x7E7 JUMP JUMPDEST SWAP4 SWAP3 POP POP POP JUMP JUMPDEST PUSH1 0x0 DUP1 REVERT JUMPDEST PUSH1 0x0 DUP2 ISZERO ISZERO SWAP1 POP SWAP2 SWAP1 POP JUMP JUMPDEST PUSH3 0x8A3 DUP2 PUSH3 0x88C JUMP JUMPDEST DUP2 EQ PUSH3 0x8AF JUMPI PUSH1 0x0 DUP1 REVERT JUMPDEST POP JUMP JUMPDEST PUSH1 0x0 DUP2 MLOAD SWAP1 POP PUSH3 0x8C3 DUP2 PUSH3 0x898 JUMP JUMPDEST SWAP3 SWAP2 POP POP JUMP JUMPDEST PUSH1 0x0 PUSH1 0x20 DUP3 DUP5 SUB SLT ISZERO PUSH3 0x8E2 JUMPI PUSH3 0x8E1 PUSH3 0x887 JUMP JUMPDEST JUMPDEST PUSH1 0x0 PUSH3 0x8F2 DUP5 DUP3 DUP6 ADD PUSH3 0x8B2 JUMP JUMPDEST SWAP2 POP POP SWAP3 SWAP2 POP POP JUMP JUMPDEST PUSH32 0x4552432D323020726563656970742072656A6563746564206279206465737469 PUSH1 0x0 DUP3 ADD MSTORE PUSH32 0x6E6174696F6E206F66207472616E736665720000000000000000000000000000 PUSH1 0x20 DUP3 ADD MSTORE POP JUMP JUMPDEST PUSH1 0x0 PUSH3 0x959 PUSH1 0x32 DUP4 PUSH3 0x6FA JUMP JUMPDEST SWAP2 POP PUSH3 0x966 DUP3 PUSH3 0x8FB JUMP JUMPDEST PUSH1 0x40 DUP3 ADD SWAP1 POP SWAP2 SWAP1 POP JUMP JUMPDEST PUSH1 0x0 PUSH1 0x20 DUP3 ADD SWAP1 POP DUP2 DUP2 SUB PUSH1 0x0 DUP4 ADD MSTORE PUSH3 0x98C DUP2 PUSH3 0x94A JUMP JUMPDEST SWAP1 POP SWAP2 SWAP1 POP JUMP JUMPDEST PUSH2 0x172F DUP1 PUSH3 0x9A3 PUSH1 0x0 CODECOPY PUSH1 0x0 RETURN INVALID PUSH1 0x80 PUSH1 0x40 MSTORE CALLVALUE DUP1 ISZERO PUSH2 0x10 JUMPI PUSH1 0x0 DUP1 REVERT JUMPDEST POP PUSH1 0x4 CALLDATASIZE LT PUSH2 0xCF JUMPI PUSH1 0x0 CALLDATALOAD PUSH1 0xE0 SHR DUP1 PUSH4 0x39509351 GT PUSH2 0x8C JUMPI DUP1 PUSH4 0xA457C2D7 GT PUSH2 0x66 JUMPI DUP1 PUSH4 0xA457C2D7 EQ PUSH2 0x23C JUMPI DUP1 PUSH4 0xA9059CBB EQ PUSH2 0x26C JUMPI DUP1 PUSH4 0xB026BA57 EQ PUSH2 0x29C JUMPI DUP1 PUSH4 0xDD62ED3E EQ PUSH2 0x2A6 JUMPI PUSH2 0xCF JUMP JUMPDEST DUP1 PUSH4 0x39509351 EQ PUSH2 0x1BE JUMPI DUP1 PUSH4 0x70A08231 EQ PUSH2 0x1EE JUMPI DUP1 PUSH4 0x95D89B41 EQ PUSH2 0x21E JUMPI PUSH2 0xCF JUMP JUMPDEST DUP1 PUSH4 0x1FFC9A7 EQ PUSH2 0xD4 JUMPI DUP1 PUSH4 0x6FDDE03 EQ PUSH2 0x104 JUMPI DUP1 PUSH4 0x95EA7B3 EQ PUSH2 0x122 JUMPI DUP1 PUSH4 0x18160DDD EQ PUSH2 0x152 JUMPI DUP1 PUSH4 0x23B872DD EQ PUSH2 0x170 JUMPI DUP1 PUSH4 0x313CE567 EQ PUSH2 0x1A0 JUMPI JUMPDEST PUSH1 0x0 DUP1 REVERT JUMPDEST PUSH2 0xEE PUSH1 0x4 DUP1 CALLDATASIZE SUB DUP2 ADD SWAP1 PUSH2 0xE9 SWAP2 SWAP1 PUSH2 0xE31 JUMP JUMPDEST PUSH2 0x2D6 JUMP JUMPDEST PUSH1 0x40 MLOAD PUSH2 0xFB SWAP2 SWAP1 PUSH2 0xE79 JUMP JUMPDEST PUSH1 0x40 MLOAD DUP1 SWAP2 SUB SWAP1 RETURN JUMPDEST PUSH2 0x10C PUSH2 0x478 JUMP JUMPDEST PUSH1 0x40 MLOAD PUSH2 0x119 SWAP2 SWAP1 PUSH2 0xF24 JUMP JUMPDEST PUSH1 0x40 MLOAD DUP1 SWAP2 SUB SWAP1 RETURN JUMPDEST PUSH2 0x13C PUSH1 0x4 DUP1 CALLDATASIZE SUB DUP2 ADD SWAP1 PUSH2 0x137 SWAP2 SWAP1 PUSH2 0xFDA JUMP JUMPDEST PUSH2 0x50A JUMP JUMPDEST PUSH1 0x40 MLOAD PUSH2 0x149 SWAP2 SWAP1 PUSH2 0xE79 JUMP JUMPDEST PUSH1 0x40 MLOAD DUP1 SWAP2 SUB SWAP1 RETURN JUMPDEST PUSH2 0x15A PUSH2 0x52D JUMP JUMPDEST PUSH1 0x40 MLOAD PUSH2 0x167 SWAP2 SWAP1 PUSH2 0x1029 JUMP JUMPDEST PUSH1 0x40 MLOAD DUP1 SWAP2 SUB SWAP1 RETURN JUMPDEST PUSH2 0x18A PUSH1 0x4 DUP1 CALLDATASIZE SUB DUP2 ADD SWAP1 PUSH2 0x185 SWAP2 SWAP1 PUSH2 0x1044 JUMP JUMPDEST PUSH2 0x537 JUMP JUMPDEST PUSH1 0x40 MLOAD PUSH2 0x197 SWAP2 SWAP1 PUSH2 0xE79 JUMP JUMPDEST PUSH1 0x40 MLOAD DUP1 SWAP2 SUB SWAP1 RETURN JUMPDEST PUSH2 0x1A8 PUSH2 0x566 JUMP JUMPDEST PUSH1 0x40 MLOAD PUSH2 0x1B5 SWAP2 SWAP1 PUSH2 0x10B3 JUMP JUMPDEST PUSH1 0x40 MLOAD DUP1 SWAP2 SUB SWAP1 RETURN JUMPDEST PUSH2 0x1D8 PUSH1 0x4 DUP1 CALLDATASIZE SUB DUP2 ADD SWAP1 PUSH2 0x1D3 SWAP2 SWAP1 PUSH2 0xFDA JUMP JUMPDEST PUSH2 0x56F JUMP JUMPDEST PUSH1 0x40 MLOAD PUSH2 0x1E5 SWAP2 SWAP1 PUSH2 0xE79 JUMP JUMPDEST PUSH1 0x40 MLOAD DUP1 SWAP2 SUB SWAP1 RETURN JUMPDEST PUSH2 0x208 PUSH1 0x4 DUP1 CALLDATASIZE SUB DUP2 ADD SWAP1 PUSH2 0x203 SWAP2 SWAP1 PUSH2 0x10CE JUMP JUMPDEST PUSH2 0x5A6 JUMP JUMPDEST PUSH1 0x40 MLOAD PUSH2 0x215 SWAP2 SWAP1 PUSH2 0x1029 JUMP JUMPDEST PUSH1 0x40 MLOAD DUP1 SWAP2 SUB SWAP1 RETURN JUMPDEST PUSH2 0x226 PUSH2 0x5EE JUMP JUMPDEST PUSH1 0x40 MLOAD PUSH2 0x233 SWAP2 SWAP1 PUSH2 0xF24 JUMP JUMPDEST PUSH1 0x40 MLOAD DUP1 SWAP2 SUB SWAP1 RETURN JUMPDEST PUSH2 0x256 PUSH1 0x4 DUP1 CALLDATASIZE SUB DUP2 ADD SWAP1 PUSH2 0x251 SWAP2 SWAP1 PUSH2 0xFDA JUMP JUMPDEST PUSH2 0x680 JUMP JUMPDEST PUSH1 0x40 MLOAD PUSH2 0x263 SWAP2 SWAP1 PUSH2 0xE79 JUMP JUMPDEST PUSH1 0x40 MLOAD DUP1 SWAP2 SUB SWAP1 RETURN JUMPDEST PUSH2 0x286 PUSH1 0x4 DUP1 CALLDATASIZE SUB DUP2 ADD SWAP1 PUSH2 0x281 SWAP2 SWAP1 PUSH2 0xFDA JUMP JUMPDEST PUSH2 0x6F7 JUMP JUMPDEST PUSH1 0x40 MLOAD PUSH2 0x293 SWAP2 SWAP1 PUSH2 0xE79 JUMP JUMPDEST PUSH1 0x40 MLOAD DUP1 SWAP2 SUB SWAP1 RETURN JUMPDEST PUSH2 0x2A4 PUSH2 0x71A JUMP JUMPDEST STOP JUMPDEST PUSH2 0x2C0 PUSH1 0x4 DUP1 CALLDATASIZE SUB DUP2 ADD SWAP1 PUSH2 0x2BB SWAP2 SWAP1 PUSH2 0x10FB JUMP JUMPDEST PUSH2 0x71F JUMP JUMPDEST PUSH1 0x40 MLOAD PUSH2 0x2CD SWAP2 SWAP1 PUSH2 0x1029 JUMP JUMPDEST PUSH1 0x40 MLOAD DUP1 SWAP2 SUB SWAP1 RETURN JUMPDEST PUSH1 0x0 PUSH32 0xB026BA5700000000000000000000000000000000000000000000000000000000 PUSH28 0xFFFFFFFFFFFFFFFFFFFFFFFFFFFFFFFFFFFFFFFFFFFFFFFFFFFFFFFF NOT AND DUP3 PUSH28 0xFFFFFFFFFFFFFFFFFFFFFFFFFFFFFFFFFFFFFFFFFFFFFFFFFFFFFFFF NOT AND EQ DUP1 PUSH2 0x3A1 JUMPI POP PUSH32 0x36372B0700000000000000000000000000000000000000000000000000000000 PUSH28 0xFFFFFFFFFFFFFFFFFFFFFFFFFFFFFFFFFFFFFFFFFFFFFFFFFFFFFFFF NOT AND DUP3 PUSH28 0xFFFFFFFFFFFFFFFFFFFFFFFFFFFFFFFFFFFFFFFFFFFFFFFFFFFFFFFF NOT AND EQ JUMPDEST DUP1 PUSH2 0x409 JUMPI POP PUSH32 0x1FFC9A700000000000000000000000000000000000000000000000000000000 PUSH28 0xFFFFFFFFFFFFFFFFFFFFFFFFFFFFFFFFFFFFFFFFFFFFFFFFFFFFFFFF NOT AND DUP3 PUSH28 0xFFFFFFFFFFFFFFFFFFFFFFFFFFFFFFFFFFFFFFFFFFFFFFFFFFFFFFFF NOT AND EQ JUMPDEST DUP1 PUSH2 0x471 JUMPI POP PUSH32 0xA219A02500000000000000000000000000000000000000000000000000000000 PUSH28 0xFFFFFFFFFFFFFFFFFFFFFFFFFFFFFFFFFFFFFFFFFFFFFFFFFFFFFFFF NOT AND DUP3 PUSH28 0xFFFFFFFFFFFFFFFFFFFFFFFFFFFFFFFFFFFFFFFFFFFFFFFFFFFFFFFF NOT AND EQ JUMPDEST SWAP1 POP SWAP2 SWAP1 POP JUMP JUMPDEST PUSH1 0x60 PUSH1 0x3 DUP1 SLOAD PUSH2 0x487 SWAP1 PUSH2 0x116A JUMP JUMPDEST DUP1 PUSH1 0x1F ADD PUSH1 0x20 DUP1 SWAP2 DIV MUL PUSH1 0x20 ADD PUSH1 0x40 MLOAD SWAP1 DUP2 ADD PUSH1 0x40 MSTORE DUP1 SWAP3 SWAP2 SWAP1 DUP2 DUP2 MSTORE PUSH1 0x20 ADD DUP3 DUP1 SLOAD PUSH2 0x4B3 SWAP1 PUSH2 0x116A JUMP JUMPDEST DUP1 ISZERO PUSH2 0x500 JUMPI DUP1 PUSH1 0x1F LT PUSH2 0x4D5 JUMPI PUSH2 0x100 DUP1 DUP4 SLOAD DIV MUL DUP4 MSTORE SWAP2 PUSH1 0x20 ADD SWAP2 PUSH2 0x500 JUMP JUMPDEST DUP3 ADD SWAP2 SWAP1 PUSH1 0x0 MSTORE PUSH1 0x20 PUSH1 0x0 KECCAK256 SWAP1 JUMPDEST DUP2 SLOAD DUP2 MSTORE SWAP1 PUSH1 0x1 ADD SWAP1 PUSH1 0x20 ADD DUP1 DUP4 GT PUSH2 0x4E3 JUMPI DUP3 SWAP1 SUB PUSH1 0x1F AND DUP3 ADD SWAP2 JUMPDEST POP POP POP POP POP SWAP1 POP SWAP1 JUMP JUMPDEST PUSH1 0x0 DUP1 PUSH2 0x515 PUSH2 0x7A6 JUMP JUMPDEST SWAP1 POP PUSH2 0x522 DUP2 DUP6 DUP6 PUSH2 0x7AE JUMP JUMPDEST PUSH1 0x1 SWAP2 POP POP SWAP3 SWAP2 POP POP JUMP JUMPDEST PUSH1 0x0 PUSH1 0x2 SLOAD SWAP1 POP SWAP1 JUMP JUMPDEST PUSH1 0x0 DUP1 PUSH2 0x542 PUSH2 0x7A6 JUMP JUMPDEST SWAP1 POP PUSH2 0x54F DUP6 DUP3 DUP6 PUSH2 0x977 JUMP JUMPDEST PUSH2 0x55A DUP6 DUP6 DUP6 PUSH2 0xA03 JUMP JUMPDEST PUSH1 0x1 SWAP2 POP POP SWAP4 SWAP3 POP POP POP JUMP JUMPDEST PUSH1 0x0 PUSH1 0x9 SWAP1 POP SWAP1 JUMP JUMPDEST PUSH1 0x0 DUP1 PUSH2 0x57A PUSH2 0x7A6 JUMP JUMPDEST SWAP1 POP PUSH2 0x59B DUP2 DUP6 DUP6 PUSH2 0x58C DUP6 DUP10 PUSH2 0x71F JUMP JUMPDEST PUSH2 0x596 SWAP2 SWAP1 PUSH2 0x11CA JUMP JUMPDEST PUSH2 0x7AE JUMP JUMPDEST PUSH1 0x1 SWAP2 POP POP SWAP3 SWAP2 POP POP JUMP JUMPDEST PUSH1 0x0 DUP1 PUSH1 0x0 DUP4 PUSH20 0xFFFFFFFFFFFFFFFFFFFFFFFFFFFFFFFFFFFFFFFF AND PUSH20 0xFFFFFFFFFFFFFFFFFFFFFFFFFFFFFFFFFFFFFFFF AND DUP2 MSTORE PUSH1 0x20 ADD SWAP1 DUP2 MSTORE PUSH1 0x20 ADD PUSH1 0x0 KECCAK256 SLOAD SWAP1 POP SWAP2 SWAP1 POP JUMP JUMPDEST PUSH1 0x60 PUSH1 0x4 DUP1 SLOAD PUSH2 0x5FD SWAP1 PUSH2 0x116A JUMP JUMPDEST DUP1 PUSH1 0x1F ADD PUSH1 0x20 DUP1 SWAP2 DIV MUL PUSH1 0x20 ADD PUSH1 0x40 MLOAD SWAP1 DUP2 ADD PUSH1 0x40 MSTORE DUP1 SWAP3 SWAP2 SWAP1 DUP2 DUP2 MSTORE PUSH1 0x20 ADD DUP3 DUP1 SLOAD PUSH2 0x629 SWAP1 PUSH2 0x116A JUMP JUMPDEST DUP1 ISZERO PUSH2 0x676 JUMPI DUP1 PUSH1 0x1F LT PUSH2 0x64B JUMPI PUSH2 0x100 DUP1 DUP4 SLOAD DIV MUL DUP4 MSTORE SWAP2 PUSH1 0x20 ADD SWAP2 PUSH2 0x676 JUMP JUMPDEST DUP3 ADD SWAP2 SWAP1 PUSH1 0x0 MSTORE PUSH1 0x20 PUSH1 0x0 KECCAK256 SWAP1 JUMPDEST DUP2 SLOAD DUP2 MSTORE SWAP1 PUSH1 0x1 ADD SWAP1 PUSH1 0x20 ADD DUP1 DUP4 GT PUSH2 0x659 JUMPI DUP3 SWAP1 SUB PUSH1 0x1F AND DUP3 ADD SWAP2 JUMPDEST POP POP POP POP POP SWAP1 POP SWAP1 JUMP JUMPDEST PUSH1 0x0 DUP1 PUSH2 0x68B PUSH2 0x7A6 JUMP JUMPDEST SWAP1 POP PUSH1 0x0 PUSH2 0x699 DUP3 DUP7 PUSH2 0x71F JUMP JUMPDEST SWAP1 POP DUP4 DUP2 LT ISZERO PUSH2 0x6DE JUMPI PUSH1 0x40 MLOAD PUSH32 0x8C379A000000000000000000000000000000000000000000000000000000000 DUP2 MSTORE PUSH1 0x4 ADD PUSH2 0x6D5 SWAP1 PUSH2 0x1270 JUMP JUMPDEST PUSH1 0x40 MLOAD DUP1 SWAP2 SUB SWAP1 REVERT JUMPDEST PUSH2 0x6EB DUP3 DUP7 DUP7 DUP5 SUB PUSH2 0x7AE JUMP JUMPDEST PUSH1 0x1 SWAP3 POP POP POP SWAP3 SWAP2 POP POP JUMP JUMPDEST PUSH1 0x0 DUP1 PUSH2 0x702 PUSH2 0x7A6 JUMP JUMPDEST SWAP1 POP PUSH2 0x70F DUP2 DUP6 DUP6 PUSH2 0xA03 JUMP JUMPDEST PUSH1 0x1 SWAP2 POP POP SWAP3 SWAP2 POP POP JUMP JUMPDEST PUSH1 0x0 DUP1 REVERT JUMPDEST PUSH1 0x0 PUSH1 0x1 PUSH1 0x0 DUP5 PUSH20 0xFFFFFFFFFFFFFFFFFFFFFFFFFFFFFFFFFFFFFFFF AND PUSH20 0xFFFFFFFFFFFFFFFFFFFFFFFFFFFFFFFFFFFFFFFF AND DUP2 MSTORE PUSH1 0x20 ADD SWAP1 DUP2 MSTORE PUSH1 0x20 ADD PUSH1 0x0 KECCAK256 PUSH1 0x0 DUP4 PUSH20 0xFFFFFFFFFFFFFFFFFFFFFFFFFFFFFFFFFFFFFFFF AND PUSH20 0xFFFFFFFFFFFFFFFFFFFFFFFFFFFFFFFFFFFFFFFF AND DUP2 MSTORE PUSH1 0x20 ADD SWAP1 DUP2 MSTORE PUSH1 0x20 ADD PUSH1 0x0 KECCAK256 SLOAD SWAP1 POP SWAP3 SWAP2 POP POP JUMP JUMPDEST PUSH1 0x0 CALLER SWAP1 POP SWAP1 JUMP JUMPDEST PUSH1 0x0 PUSH20 0xFFFFFFFFFFFFFFFFFFFFFFFFFFFFFFFFFFFFFFFF AND DUP4 PUSH20 0xFFFFFFFFFFFFFFFFFFFFFFFFFFFFFFFFFFFFFFFF AND SUB PUSH2 0x81D JUMPI PUSH1 0x40 MLOAD PUSH32 0x8C379A000000000000000000000000000000000000000000000000000000000 DUP2 MSTORE PUSH1 0x4 ADD PUSH2 0x814 SWAP1 PUSH2 0x1302 JUMP JUMPDEST PUSH1 0x40 MLOAD DUP1 SWAP2 SUB SWAP1 REVERT JUMPDEST PUSH1 0x0 PUSH20 0xFFFFFFFFFFFFFFFFFFFFFFFFFFFFFFFFFFFFFFFF AND DUP3 PUSH20 0xFFFFFFFFFFFFFFFFFFFFFFFFFFFFFFFFFFFFFFFF AND SUB PUSH2 0x88C JUMPI PUSH1 0x40 MLOAD PUSH32 0x8C379A000000000000000000000000000000000000000000000000000000000 DUP2 MSTORE PUSH1 0x4 ADD PUSH2 0x883 SWAP1 PUSH2 0x1394 JUMP JUMPDEST PUSH1 0x40 MLOAD DUP1 SWAP2 SUB SWAP1 REVERT JUMPDEST DUP1 PUSH1 0x1 PUSH1 0x0 DUP6 PUSH20 0xFFFFFFFFFFFFFFFFFFFFFFFFFFFFFFFFFFFFFFFF AND PUSH20 0xFFFFFFFFFFFFFFFFFFFFFFFFFFFFFFFFFFFFFFFF AND DUP2 MSTORE PUSH1 0x20 ADD SWAP1 DUP2 MSTORE PUSH1 0x20 ADD PUSH1 0x0 KECCAK256 PUSH1 0x0 DUP5 PUSH20 0xFFFFFFFFFFFFFFFFFFFFFFFFFFFFFFFFFFFFFFFF AND PUSH20 0xFFFFFFFFFFFFFFFFFFFFFFFFFFFFFFFFFFFFFFFF AND DUP2 MSTORE PUSH1 0x20 ADD SWAP1 DUP2 MSTORE PUSH1 0x20 ADD PUSH1 0x0 KECCAK256 DUP2 SWAP1 SSTORE POP DUP2 PUSH20 0xFFFFFFFFFFFFFFFFFFFFFFFFFFFFFFFFFFFFFFFF AND DUP4 PUSH20 0xFFFFFFFFFFFFFFFFFFFFFFFFFFFFFFFFFFFFFFFF AND PUSH32 0x8C5BE1E5EBEC7D5BD14F71427D1E84F3DD0314C0F7B2291E5B200AC8C7C3B925 DUP4 PUSH1 0x40 MLOAD PUSH2 0x96A SWAP2 SWAP1 PUSH2 0x1029 JUMP JUMPDEST PUSH1 0x40 MLOAD DUP1 SWAP2 SUB SWAP1 LOG3 POP POP POP JUMP JUMPDEST PUSH1 0x0 PUSH2 0x983 DUP5 DUP5 PUSH2 0x71F JUMP JUMPDEST SWAP1 POP PUSH32 0xFFFFFFFFFFFFFFFFFFFFFFFFFFFFFFFFFFFFFFFFFFFFFFFFFFFFFFFFFFFFFFFF DUP2 EQ PUSH2 0x9FD JUMPI DUP2 DUP2 LT ISZERO PUSH2 0x9EF JUMPI PUSH1 0x40 MLOAD PUSH32 0x8C379A000000000000000000000000000000000000000000000000000000000 DUP2 MSTORE PUSH1 0x4 ADD PUSH2 0x9E6 SWAP1 PUSH2 0x1400 JUMP JUMPDEST PUSH1 0x40 MLOAD DUP1 SWAP2 SUB SWAP1 REVERT JUMPDEST PUSH2 0x9FC DUP5 DUP5 DUP5 DUP5 SUB PUSH2 0x7AE JUMP JUMPDEST JUMPDEST POP POP POP POP JUMP JUMPDEST PUSH1 0x0 PUSH20 0xFFFFFFFFFFFFFFFFFFFFFFFFFFFFFFFFFFFFFFFF AND DUP4 PUSH20 0xFFFFFFFFFFFFFFFFFFFFFFFFFFFFFFFFFFFFFFFF AND SUB PUSH2 0xA72 JUMPI PUSH1 0x40 MLOAD PUSH32 0x8C379A000000000000000000000000000000000000000000000000000000000 DUP2 MSTORE PUSH1 0x4 ADD PUSH2 0xA69 SWAP1 PUSH2 0x1492 JUMP JUMPDEST PUSH1 0x40 MLOAD DUP1 SWAP2 SUB SWAP1 REVERT JUMPDEST PUSH1 0x0 PUSH20 0xFFFFFFFFFFFFFFFFFFFFFFFFFFFFFFFFFFFFFFFF AND DUP3 PUSH20 0xFFFFFFFFFFFFFFFFFFFFFFFFFFFFFFFFFFFFFFFF AND SUB PUSH2 0xAE1 JUMPI PUSH1 0x40 MLOAD PUSH32 0x8C379A000000000000000000000000000000000000000000000000000000000 DUP2 MSTORE PUSH1 0x4 ADD PUSH2 0xAD8 SWAP1 PUSH2 0x1524 JUMP JUMPDEST PUSH1 0x40 MLOAD DUP1 SWAP2 SUB SWAP1 REVERT JUMPDEST PUSH2 0xAEC DUP4 DUP4 DUP4 PUSH2 0xC79 JUMP JUMPDEST PUSH1 0x0 DUP1 PUSH1 0x0 DUP6 PUSH20 0xFFFFFFFFFFFFFFFFFFFFFFFFFFFFFFFFFFFFFFFF AND PUSH20 0xFFFFFFFFFFFFFFFFFFFFFFFFFFFFFFFFFFFFFFFF AND DUP2 MSTORE PUSH1 0x20 ADD SWAP1 DUP2 MSTORE PUSH1 0x20 ADD PUSH1 0x0 KECCAK256 SLOAD SWAP1 POP DUP2 DUP2 LT ISZERO PUSH2 0xB72 JUMPI PUSH1 0x40 MLOAD PUSH32 0x8C379A000000000000000000000000000000000000000000000000000000000 DUP2 MSTORE PUSH1 0x4 ADD PUSH2 0xB69 SWAP1 PUSH2 0x15B6 JUMP JUMPDEST PUSH1 0x40 MLOAD DUP1 SWAP2 SUB SWAP1 REVERT JUMPDEST DUP2 DUP2 SUB PUSH1 0x0 DUP1 DUP7 PUSH20 0xFFFFFFFFFFFFFFFFFFFFFFFFFFFFFFFFFFFFFFFF AND PUSH20 0xFFFFFFFFFFFFFFFFFFFFFFFFFFFFFFFFFFFFFFFF AND DUP2 MSTORE PUSH1 0x20 ADD SWAP1 DUP2 MSTORE PUSH1 0x20 ADD PUSH1 0x0 KECCAK256 DUP2 SWAP1 SSTORE POP DUP2 PUSH1 0x0 DUP1 DUP6 PUSH20 0xFFFFFFFFFFFFFFFFFFFFFFFFFFFFFFFFFFFFFFFF AND PUSH20 0xFFFFFFFFFFFFFFFFFFFFFFFFFFFFFFFFFFFFFFFF AND DUP2 MSTORE PUSH1 0x20 ADD SWAP1 DUP2 MSTORE PUSH1 0x20 ADD PUSH1 0x0 KECCAK256 PUSH1 0x0 DUP3 DUP3 SLOAD ADD SWAP3 POP POP DUP2 SWAP1 SSTORE POP DUP3 PUSH20 0xFFFFFFFFFFFFFFFFFFFFFFFFFFFFFFFFFFFFFFFF AND DUP5 PUSH20 0xFFFFFFFFFFFFFFFFFFFFFFFFFFFFFFFFFFFFFFFF AND PUSH32 0xDDF252AD1BE2C89B69C2B068FC378DAA952BA7F163C4A11628F55A4DF523B3EF DUP5 PUSH1 0x40 MLOAD PUSH2 0xC60 SWAP2 SWAP1 PUSH2 0x1029 JUMP JUMPDEST PUSH1 0x40 MLOAD DUP1 SWAP2 SUB SWAP1 LOG3 PUSH2 0xC73 DUP5 DUP5 DUP5 PUSH2 0xC7E JUMP JUMPDEST POP POP POP POP JUMP JUMPDEST POP POP POP JUMP JUMPDEST PUSH1 0x0 DUP3 PUSH20 0xFFFFFFFFFFFFFFFFFFFFFFFFFFFFFFFFFFFFFFFF AND EXTCODESIZE GT DUP1 ISZERO PUSH2 0xCD2 JUMPI POP PUSH1 0x0 PUSH20 0xFFFFFFFFFFFFFFFFFFFFFFFFFFFFFFFFFFFFFFFF AND DUP4 PUSH20 0xFFFFFFFFFFFFFFFFFFFFFFFFFFFFFFFFFFFFFFFF AND EQ ISZERO JUMPDEST DUP1 ISZERO PUSH2 0xD0B JUMPI POP PUSH1 0x0 PUSH20 0xFFFFFFFFFFFFFFFFFFFFFFFFFFFFFFFFFFFFFFFF AND DUP3 PUSH20 0xFFFFFFFFFFFFFFFFFFFFFFFFFFFFFFFFFFFFFFFF AND EQ ISZERO JUMPDEST ISZERO PUSH2 0xDCF JUMPI DUP2 PUSH20 0xFFFFFFFFFFFFFFFFFFFFFFFFFFFFFFFFFFFFFFFF AND PUSH4 0xBC04F0AF DUP5 DUP4 PUSH1 0x40 MLOAD DUP4 PUSH4 0xFFFFFFFF AND PUSH1 0xE0 SHL DUP2 MSTORE PUSH1 0x4 ADD PUSH2 0xD4B SWAP3 SWAP2 SWAP1 PUSH2 0x15E5 JUMP JUMPDEST PUSH1 0x20 PUSH1 0x40 MLOAD DUP1 DUP4 SUB DUP2 PUSH1 0x0 DUP8 GAS CALL SWAP3 POP POP POP DUP1 ISZERO PUSH2 0xD87 JUMPI POP PUSH1 0x40 MLOAD RETURNDATASIZE PUSH1 0x1F NOT PUSH1 0x1F DUP3 ADD AND DUP3 ADD DUP1 PUSH1 0x40 MSTORE POP DUP2 ADD SWAP1 PUSH2 0xD84 SWAP2 SWAP1 PUSH2 0x163A JUMP JUMPDEST PUSH1 0x1 JUMPDEST ISZERO PUSH2 0xDCE JUMPI DUP1 PUSH2 0xDCC JUMPI PUSH1 0x40 MLOAD PUSH32 0x8C379A000000000000000000000000000000000000000000000000000000000 DUP2 MSTORE PUSH1 0x4 ADD PUSH2 0xDC3 SWAP1 PUSH2 0x16D9 JUMP JUMPDEST PUSH1 0x40 MLOAD DUP1 SWAP2 SUB SWAP1 REVERT JUMPDEST POP JUMPDEST JUMPDEST POP POP POP JUMP JUMPDEST PUSH1 0x0 DUP1 REVERT JUMPDEST PUSH1 0x0 PUSH32 0xFFFFFFFF00000000000000000000000000000000000000000000000000000000 DUP3 AND SWAP1 POP SWAP2 SWAP1 POP JUMP JUMPDEST PUSH2 0xE0E DUP2 PUSH2 0xDD9 JUMP JUMPDEST DUP2 EQ PUSH2 0xE19 JUMPI PUSH1 0x0 DUP1 REVERT JUMPDEST POP JUMP JUMPDEST PUSH1 0x0 DUP2 CALLDATALOAD SWAP1 POP PUSH2 0xE2B DUP2 PUSH2 0xE05 JUMP JUMPDEST SWAP3 SWAP2 POP POP JUMP JUMPDEST PUSH1 0x0 PUSH1 0x20 DUP3 DUP5 SUB SLT ISZERO PUSH2 0xE47 JUMPI PUSH2 0xE46 PUSH2 0xDD4 JUMP JUMPDEST JUMPDEST PUSH1 0x0 PUSH2 0xE55 DUP5 DUP3 DUP6 ADD PUSH2 0xE1C JUMP JUMPDEST SWAP2 POP POP SWAP3 SWAP2 POP POP JUMP JUMPDEST PUSH1 0x0 DUP2 ISZERO ISZERO SWAP1 POP SWAP2 SWAP1 POP JUMP JUMPDEST PUSH2 0xE73 DUP2 PUSH2 0xE5E JUMP JUMPDEST DUP3 MSTORE POP POP JUMP JUMPDEST PUSH1 0x0 PUSH1 0x20 DUP3 ADD SWAP1 POP PUSH2 0xE8E PUSH1 0x0 DUP4 ADD DUP5 PUSH2 0xE6A JUMP JUMPDEST SWAP3 SWAP2 POP POP JUMP JUMPDEST PUSH1 0x0 DUP2 MLOAD SWAP1 POP SWAP2 SWAP1 POP JUMP JUMPDEST PUSH1 0x0 DUP3 DUP3 MSTORE PUSH1 0x20 DUP3 ADD SWAP1 POP SWAP3 SWAP2 POP POP JUMP JUMPDEST PUSH1 0x0 JUMPDEST DUP4 DUP2 LT ISZERO PUSH2 0xECE JUMPI DUP1 DUP3 ADD MLOAD DUP2 DUP5 ADD MSTORE PUSH1 0x20 DUP2 ADD SWAP1 POP PUSH2 0xEB3 JUMP JUMPDEST PUSH1 0x0 DUP5 DUP5 ADD MSTORE POP POP POP POP JUMP JUMPDEST PUSH1 0x0 PUSH1 0x1F NOT PUSH1 0x1F DUP4 ADD AND SWAP1 POP SWAP2 SWAP1 POP JUMP JUMPDEST PUSH1 0x0 PUSH2 0xEF6 DUP3 PUSH2 0xE94 JUMP JUMPDEST PUSH2 0xF00 DUP2 DUP6 PUSH2 0xE9F JUMP JUMPDEST SWAP4 POP PUSH2 0xF10 DUP2 DUP6 PUSH1 0x20 DUP7 ADD PUSH2 0xEB0 JUMP JUMPDEST PUSH2 0xF19 DUP2 PUSH2 0xEDA JUMP JUMPDEST DUP5 ADD SWAP2 POP POP SWAP3 SWAP2 POP POP JUMP JUMPDEST PUSH1 0x0 PUSH1 0x20 DUP3 ADD SWAP1 POP DUP2 DUP2 SUB PUSH1 0x0 DUP4 ADD MSTORE PUSH2 0xF3E DUP2 DUP5 PUSH2 0xEEB JUMP JUMPDEST SWAP1 POP SWAP3 SWAP2 POP POP JUMP JUMPDEST PUSH1 0x0 PUSH20 0xFFFFFFFFFFFFFFFFFFFFFFFFFFFFFFFFFFFFFFFF DUP3 AND SWAP1 POP SWAP2 SWAP1 POP JUMP JUMPDEST PUSH1 0x0 PUSH2 0xF71 DUP3 PUSH2 0xF46 JUMP JUMPDEST SWAP1 POP SWAP2 SWAP1 POP JUMP JUMPDEST PUSH2 0xF81 DUP2 PUSH2 0xF66 JUMP JUMPDEST DUP2 EQ PUSH2 0xF8C JUMPI PUSH1 0x0 DUP1 REVERT JUMPDEST POP JUMP JUMPDEST PUSH1 0x0 DUP2 CALLDATALOAD SWAP1 POP PUSH2 0xF9E DUP2 PUSH2 0xF78 JUMP JUMPDEST SWAP3 SWAP2 POP POP JUMP JUMPDEST PUSH1 0x0 DUP2 SWAP1 POP SWAP2 SWAP1 POP JUMP JUMPDEST PUSH2 0xFB7 DUP2 PUSH2 0xFA4 JUMP JUMPDEST DUP2 EQ PUSH2 0xFC2 JUMPI PUSH1 0x0 DUP1 REVERT JUMPDEST POP JUMP JUMPDEST PUSH1 0x0 DUP2 CALLDATALOAD SWAP1 POP PUSH2 0xFD4 DUP2 PUSH2 0xFAE JUMP JUMPDEST SWAP3 SWAP2 POP POP JUMP JUMPDEST PUSH1 0x0 DUP1 PUSH1 0x40 DUP4 DUP6 SUB SLT ISZERO PUSH2 0xFF1 JUMPI PUSH2 0xFF0 PUSH2 0xDD4 JUMP JUMPDEST JUMPDEST PUSH1 0x0 PUSH2 0xFFF DUP6 DUP3 DUP7 ADD PUSH2 0xF8F JUMP JUMPDEST SWAP3 POP POP PUSH1 0x20 PUSH2 0x1010 DUP6 DUP3 DUP7 ADD PUSH2 0xFC5 JUMP JUMPDEST SWAP2 POP POP SWAP3 POP SWAP3 SWAP1 POP JUMP JUMPDEST PUSH2 0x1023 DUP2 PUSH2 0xFA4 JUMP JUMPDEST DUP3 MSTORE POP POP JUMP JUMPDEST PUSH1 0x0 PUSH1 0x20 DUP3 ADD SWAP1 POP PUSH2 0x103E PUSH1 0x0 DUP4 ADD DUP5 PUSH2 0x101A JUMP JUMPDEST SWAP3 SWAP2 POP POP JUMP JUMPDEST PUSH1 0x0 DUP1 PUSH1 0x0 PUSH1 0x60 DUP5 DUP7 SUB SLT ISZERO PUSH2 0x105D JUMPI PUSH2 0x105C PUSH2 0xDD4 JUMP JUMPDEST JUMPDEST PUSH1 0x0 PUSH2 0x106B DUP7 DUP3 DUP8 ADD PUSH2 0xF8F JUMP JUMPDEST SWAP4 POP POP PUSH1 0x20 PUSH2 0x107C DUP7 DUP3 DUP8 ADD PUSH2 0xF8F JUMP JUMPDEST SWAP3 POP POP PUSH1 0x40 PUSH2 0x108D DUP7 DUP3 DUP8 ADD PUSH2 0xFC5 JUMP JUMPDEST SWAP2 POP POP SWAP3 POP SWAP3 POP SWAP3 JUMP JUMPDEST PUSH1 0x0 PUSH1 0xFF DUP3 AND SWAP1 POP SWAP2 SWAP1 POP JUMP JUMPDEST PUSH2 0x10AD DUP2 PUSH2 0x1097 JUMP JUMPDEST DUP3 MSTORE POP POP JUMP JUMPDEST PUSH1 0x0 PUSH1 0x20 DUP3 ADD SWAP1 POP PUSH2 0x10C8 PUSH1 0x0 DUP4 ADD DUP5 PUSH2 0x10A4 JUMP JUMPDEST SWAP3 SWAP2 POP POP JUMP JUMPDEST PUSH1 0x0 PUSH1 0x20 DUP3 DUP5 SUB SLT ISZERO PUSH2 0x10E4 JUMPI PUSH2 0x10E3 PUSH2 0xDD4 JUMP JUMPDEST JUMPDEST PUSH1 0x0 PUSH2 0x10F2 DUP5 DUP3 DUP6 ADD PUSH2 0xF8F JUMP JUMPDEST SWAP2 POP POP SWAP3 SWAP2 POP POP JUMP JUMPDEST PUSH1 0x0 DUP1 PUSH1 0x40 DUP4 DUP6 SUB SLT ISZERO PUSH2 0x1112 JUMPI PUSH2 0x1111 PUSH2 0xDD4 JUMP JUMPDEST JUMPDEST PUSH1 0x0 PUSH2 0x1120 DUP6 DUP3 DUP7 ADD PUSH2 0xF8F JUMP JUMPDEST SWAP3 POP POP PUSH1 0x20 PUSH2 0x1131 DUP6 DUP3 DUP7 ADD PUSH2 0xF8F JUMP JUMPDEST SWAP2 POP POP SWAP3 POP SWAP3 SWAP1 POP JUMP JUMPDEST PUSH32 0x4E487B7100000000000000000000000000000000000000000000000000000000 PUSH1 0x0 MSTORE PUSH1 0x22 PUSH1 0x4 MSTORE PUSH1 0x24 PUSH1 0x0 REVERT JUMPDEST PUSH1 0x0 PUSH1 0x2 DUP3 DIV SWAP1 POP PUSH1 0x1 DUP3 AND DUP1 PUSH2 0x1182 JUMPI PUSH1 0x7F DUP3 AND SWAP2 POP JUMPDEST PUSH1 0x20 DUP3 LT DUP2 SUB PUSH2 0x1195 JUMPI PUSH2 0x1194 PUSH2 0x113B JUMP JUMPDEST JUMPDEST POP SWAP2 SWAP1 POP JUMP JUMPDEST PUSH32 0x4E487B7100000000000000000000000000000000000000000000000000000000 PUSH1 0x0 MSTORE PUSH1 0x11 PUSH1 0x4 MSTORE PUSH1 0x24 PUSH1 0x0 REVERT JUMPDEST PUSH1 0x0 PUSH2 0x11D5 DUP3 PUSH2 0xFA4 JUMP JUMPDEST SWAP2 POP PUSH2 0x11E0 DUP4 PUSH2 0xFA4 JUMP JUMPDEST SWAP3 POP DUP3 DUP3 ADD SWAP1 POP DUP1 DUP3 GT ISZERO PUSH2 0x11F8 JUMPI PUSH2 0x11F7 PUSH2 0x119B JUMP JUMPDEST JUMPDEST SWAP3 SWAP2 POP POP JUMP JUMPDEST PUSH32 0x45524332303A2064656372656173656420616C6C6F77616E63652062656C6F77 PUSH1 0x0 DUP3 ADD MSTORE PUSH32 0x207A65726F000000000000000000000000000000000000000000000000000000 PUSH1 0x20 DUP3 ADD MSTORE POP JUMP JUMPDEST PUSH1 0x0 PUSH2 0x125A PUSH1 0x25 DUP4 PUSH2 0xE9F JUMP JUMPDEST SWAP2 POP PUSH2 0x1265 DUP3 PUSH2 0x11FE JUMP JUMPDEST PUSH1 0x40 DUP3 ADD SWAP1 POP SWAP2 SWAP1 POP JUMP JUMPDEST PUSH1 0x0 PUSH1 0x20 DUP3 ADD SWAP1 POP DUP2 DUP2 SUB PUSH1 0x0 DUP4 ADD MSTORE PUSH2 0x1289 DUP2 PUSH2 0x124D JUMP JUMPDEST SWAP1 POP SWAP2 SWAP1 POP JUMP JUMPDEST PUSH32 0x45524332303A20617070726F76652066726F6D20746865207A65726F20616464 PUSH1 0x0 DUP3 ADD MSTORE PUSH32 0x7265737300000000000000000000000000000000000000000000000000000000 PUSH1 0x20 DUP3 ADD MSTORE POP JUMP JUMPDEST PUSH1 0x0 PUSH2 0x12EC PUSH1 0x24 DUP4 PUSH2 0xE9F JUMP JUMPDEST SWAP2 POP PUSH2 0x12F7 DUP3 PUSH2 0x1290 JUMP JUMPDEST PUSH1 0x40 DUP3 ADD SWAP1 POP SWAP2 SWAP1 POP JUMP JUMPDEST PUSH1 0x0 PUSH1 0x20 DUP3 ADD SWAP1 POP DUP2 DUP2 SUB PUSH1 0x0 DUP4 ADD MSTORE PUSH2 0x131B DUP2 PUSH2 0x12DF JUMP JUMPDEST SWAP1 POP SWAP2 SWAP1 POP JUMP JUMPDEST PUSH32 0x45524332303A20617070726F766520746F20746865207A65726F206164647265 PUSH1 0x0 DUP3 ADD MSTORE PUSH32 0x7373000000000000000000000000000000000000000000000000000000000000 PUSH1 0x20 DUP3 ADD MSTORE POP JUMP JUMPDEST PUSH1 0x0 PUSH2 0x137E PUSH1 0x22 DUP4 PUSH2 0xE9F JUMP JUMPDEST SWAP2 POP PUSH2 0x1389 DUP3 PUSH2 0x1322 JUMP JUMPDEST PUSH1 0x40 DUP3 ADD SWAP1 POP SWAP2 SWAP1 POP JUMP JUMPDEST PUSH1 0x0 PUSH1 0x20 DUP3 ADD SWAP1 POP DUP2 DUP2 SUB PUSH1 0x0 DUP4 ADD MSTORE PUSH2 0x13AD DUP2 PUSH2 0x1371 JUMP JUMPDEST SWAP1 POP SWAP2 SWAP1 POP JUMP JUMPDEST PUSH32 0x45524332303A20696E73756666696369656E7420616C6C6F77616E6365000000 PUSH1 0x0 DUP3 ADD MSTORE POP JUMP JUMPDEST PUSH1 0x0 PUSH2 0x13EA PUSH1 0x1D DUP4 PUSH2 0xE9F JUMP JUMPDEST SWAP2 POP PUSH2 0x13F5 DUP3 PUSH2 0x13B4 JUMP JUMPDEST PUSH1 0x20 DUP3 ADD SWAP1 POP SWAP2 SWAP1 POP JUMP JUMPDEST PUSH1 0x0 PUSH1 0x20 DUP3 ADD SWAP1 POP DUP2 DUP2 SUB PUSH1 0x0 DUP4 ADD MSTORE PUSH2 0x1419 DUP2 PUSH2 0x13DD JUMP JUMPDEST SWAP1 POP SWAP2 SWAP1 POP JUMP JUMPDEST PUSH32 0x45524332303A207472616E736665722066726F6D20746865207A65726F206164 PUSH1 0x0 DUP3 ADD MSTORE PUSH32 0x6472657373000000000000000000000000000000000000000000000000000000 PUSH1 0x20 DUP3 ADD MSTORE POP JUMP JUMPDEST PUSH1 0x0 PUSH2 0x147C PUSH1 0x25 DUP4 PUSH2 0xE9F JUMP JUMPDEST SWAP2 POP PUSH2 0x1487 DUP3 PUSH2 0x1420 JUMP JUMPDEST PUSH1 0x40 DUP3 ADD SWAP1 POP SWAP2 SWAP1 POP JUMP JUMPDEST PUSH1 0x0 PUSH1 0x20 DUP3 ADD SWAP1 POP DUP2 DUP2 SUB PUSH1 0x0 DUP4 ADD MSTORE PUSH2 0x14AB DUP2 PUSH2 0x146F JUMP JUMPDEST SWAP1 POP SWAP2 SWAP1 POP JUMP JUMPDEST PUSH32 0x45524332303A207472616E7366657220746F20746865207A65726F2061646472 PUSH1 0x0 DUP3 ADD MSTORE PUSH32 0x6573730000000000000000000000000000000000000000000000000000000000 PUSH1 0x20 DUP3 ADD MSTORE POP JUMP JUMPDEST PUSH1 0x0 PUSH2 0x150E PUSH1 0x23 DUP4 PUSH2 0xE9F JUMP JUMPDEST SWAP2 POP PUSH2 0x1519 DUP3 PUSH2 0x14B2 JUMP JUMPDEST PUSH1 0x40 DUP3 ADD SWAP1 POP SWAP2 SWAP1 POP JUMP JUMPDEST PUSH1 0x0 PUSH1 0x20 DUP3 ADD SWAP1 POP DUP2 DUP2 SUB PUSH1 0x0 DUP4 ADD MSTORE PUSH2 0x153D DUP2 PUSH2 0x1501 JUMP JUMPDEST SWAP1 POP SWAP2 SWAP1 POP JUMP JUMPDEST PUSH32 0x45524332303A207472616E7366657220616D6F756E7420657863656564732062 PUSH1 0x0 DUP3 ADD MSTORE PUSH32 0x616C616E63650000000000000000000000000000000000000000000000000000 PUSH1 0x20 DUP3 ADD MSTORE POP JUMP JUMPDEST PUSH1 0x0 PUSH2 0x15A0 PUSH1 0x26 DUP4 PUSH2 0xE9F JUMP JUMPDEST SWAP2 POP PUSH2 0x15AB DUP3 PUSH2 0x1544 JUMP JUMPDEST PUSH1 0x40 DUP3 ADD SWAP1 POP SWAP2 SWAP1 POP JUMP JUMPDEST PUSH1 0x0 PUSH1 0x20 DUP3 ADD SWAP1 POP DUP2 DUP2 SUB PUSH1 0x0 DUP4 ADD MSTORE PUSH2 0x15CF DUP2 PUSH2 0x1593 JUMP JUMPDEST SWAP1 POP SWAP2 SWAP1 POP JUMP JUMPDEST PUSH2 0x15DF DUP2 PUSH2 0xF66 JUMP JUMPDEST DUP3 MSTORE POP POP JUMP JUMPDEST PUSH1 0x0 PUSH1 0x40 DUP3 ADD SWAP1 POP PUSH2 0x15FA PUSH1 0x0 DUP4 ADD DUP6 PUSH2 0x15D6 JUMP JUMPDEST PUSH2 0x1607 PUSH1 0x20 DUP4 ADD DUP5 PUSH2 0x101A JUMP JUMPDEST SWAP4 SWAP3 POP POP POP JUMP JUMPDEST PUSH2 0x1617 DUP2 PUSH2 0xE5E JUMP JUMPDEST DUP2 EQ PUSH2 0x1622 JUMPI PUSH1 0x0 DUP1 REVERT JUMPDEST POP JUMP JUMPDEST PUSH1 0x0 DUP2 MLOAD SWAP1 POP PUSH2 0x1634 DUP2 PUSH2 0x160E JUMP JUMPDEST SWAP3 SWAP2 POP POP JUMP JUMPDEST PUSH1 0x0 PUSH1 0x20 DUP3 DUP5 SUB SLT ISZERO PUSH2 0x1650 JUMPI PUSH2 0x164F PUSH2 0xDD4 JUMP JUMPDEST JUMPDEST PUSH1 0x0 PUSH2 0x165E DUP5 DUP3 DUP6 ADD PUSH2 0x1625 JUMP JUMPDEST SWAP2 POP POP SWAP3 SWAP2 POP POP JUMP JUMPDEST PUSH32 0x4552432D323020726563656970742072656A6563746564206279206465737469 PUSH1 0x0 DUP3 ADD MSTORE PUSH32 0x6E6174696F6E206F66207472616E736665720000000000000000000000000000 PUSH1 0x20 DUP3 ADD MSTORE POP JUMP JUMPDEST PUSH1 0x0 PUSH2 0x16C3 PUSH1 0x32 DUP4 PUSH2 0xE9F JUMP JUMPDEST SWAP2 POP PUSH2 0x16CE DUP3 PUSH2 0x1667 JUMP JUMPDEST PUSH1 0x40 DUP3 ADD SWAP1 POP SWAP2 SWAP1 POP JUMP JUMPDEST PUSH1 0x0 PUSH1 0x20 DUP3 ADD SWAP1 POP DUP2 DUP2 SUB PUSH1 0x0 DUP4 ADD MSTORE PUSH2 0x16F2 DUP2 PUSH2 0x16B6 JUMP JUMPDEST SWAP1 POP SWAP2 SWAP1 POP JUMP INVALID LOG2 PUSH5 0x6970667358 0x22 SLT KECCAK256 NUMBER 0x27 NOT 0xE7 NOT 0xBC SMOD PUSH20 0x302860703D26F5DFC71580EE706348AD1E10688A OR DUP3 0x1F 0x26 PUSH5 0x736F6C6343 STOP ADDMOD LT STOP CALLER PUSH1 0x80 PUSH1 0x40 MSTORE PUSH1 0x1 PUSH1 0x0 DUP1 PUSH2 0x100 EXP DUP2 SLOAD DUP2 PUSH1 0xFF MUL NOT AND SWAP1 DUP4 ISZERO ISZERO MUL OR SWAP1 SSTORE POP PUSH1 0x0 DUP1 PUSH1 0x1 PUSH2 0x100 EXP DUP2 SLOAD DUP2 PUSH1 0xFF MUL NOT AND SWAP1 DUP4 ISZERO ISZERO MUL OR SWAP1 SSTORE POP CALLVALUE DUP1 ISZERO PUSH2 0x44 JUMPI PUSH1 0x0 DUP1 REVERT JUMPDEST POP CALLER PUSH1 0x0 PUSH1 0x2 PUSH2 0x100 EXP DUP2 SLOAD DUP2 PUSH20 0xFFFFFFFFFFFFFFFFFFFFFFFFFFFFFFFFFFFFFFFF MUL NOT AND SWAP1 DUP4 PUSH20 0xFFFFFFFFFFFFFFFFFFFFFFFFFFFFFFFFFFFFFFFF AND MUL OR SWAP1 SSTORE POP PUSH2 0x319A DUP1 PUSH2 0x95 PUSH1 0x0 CODECOPY PUSH1 0x0 RETURN INVALID PUSH1 0x80 PUSH1 0x40 MSTORE PUSH1 0x4 CALLDATASIZE LT PUSH2 0x144 JUMPI PUSH1 0x0 CALLDATALOAD PUSH1 0xE0 SHR DUP1 PUSH4 0x9C8F9F23 GT PUSH2 0xB6 JUMPI DUP1 PUSH4 0xBC04F0AF GT PUSH2 0x6F JUMPI DUP1 PUSH4 0xBC04F0AF EQ PUSH2 0x61C JUMPI DUP1 PUSH4 0xCA7C4DBA EQ PUSH2 0x659 JUMPI DUP1 PUSH4 0xD3C51D91 EQ PUSH2 0x684 JUMPI DUP1 PUSH4 0xE8078D94 EQ PUSH2 0x6C1 JUMPI DUP1 PUSH4 0xE86DEA4A EQ PUSH2 0x6CB JUMPI DUP1 PUSH4 0xFEFFE7E4 EQ PUSH2 0x6F6 JUMPI PUSH2 0x31E JUMP JUMPDEST DUP1 PUSH4 0x9C8F9F23 EQ PUSH2 0x520 JUMPI DUP1 PUSH4 0x9FED4AD8 EQ PUSH2 0x549 JUMPI DUP1 PUSH4 0xA56DFE4A EQ PUSH2 0x57F JUMPI DUP1 PUSH4 0xADD010A5 EQ PUSH2 0x5AA JUMPI DUP1 PUSH4 0xB4F40C61 EQ PUSH2 0x5C6 JUMPI DUP1 PUSH4 0xB7C56525 EQ PUSH2 0x5F1 JUMPI PUSH2 0x31E JUMP JUMPDEST DUP1 PUSH4 0x313CE567 GT PUSH2 0x108 JUMPI DUP1 PUSH4 0x313CE567 EQ PUSH2 0x40C JUMPI DUP1 PUSH4 0x4B94F50E EQ PUSH2 0x437 JUMPI DUP1 PUSH4 0x4F54A081 EQ PUSH2 0x462 JUMPI DUP1 PUSH4 0x5DFD8773 EQ PUSH2 0x48D JUMPI DUP1 PUSH4 0x8D729ABB EQ PUSH2 0x4B8 JUMPI DUP1 PUSH4 0x95D89B41 EQ PUSH2 0x4F5 JUMPI PUSH2 0x31E JUMP JUMPDEST DUP1 PUSH4 0x1FFC9A7 EQ PUSH2 0x323 JUMPI DUP1 PUSH4 0xC55699C EQ PUSH2 0x360 JUMPI DUP1 PUSH4 0x180B0D7E EQ PUSH2 0x38B JUMPI DUP1 PUSH4 0x276184AE EQ PUSH2 0x3B6 JUMPI DUP1 PUSH4 0x2BFDF307 EQ PUSH2 0x3E1 JUMPI PUSH2 0x31E JUMP JUMPDEST CALLDATASIZE PUSH2 0x31E JUMPI PUSH1 0x0 CALLVALUE SWAP1 POP PUSH1 0x0 PUSH1 0x2 SLOAD PUSH1 0x3 SLOAD DUP4 PUSH2 0x161 SWAP2 SWAP1 PUSH2 0x1DA8 JUMP JUMPDEST PUSH2 0x16B SWAP2 SWAP1 PUSH2 0x1E31 JUMP JUMPDEST SWAP1 POP DUP2 PUSH1 0x2 PUSH1 0x0 DUP3 DUP3 SLOAD PUSH2 0x17F SWAP2 SWAP1 PUSH2 0x1E62 JUMP JUMPDEST SWAP3 POP POP DUP2 SWAP1 SSTORE POP DUP1 PUSH1 0x3 PUSH1 0x0 DUP3 DUP3 SLOAD PUSH2 0x198 SWAP2 SWAP1 PUSH2 0x1E96 JUMP JUMPDEST SWAP3 POP POP DUP2 SWAP1 SSTORE POP PUSH1 0x1 SLOAD PUSH1 0x3 SLOAD PUSH1 0x2 SLOAD PUSH2 0x1B2 SWAP2 SWAP1 PUSH2 0x1DA8 JUMP JUMPDEST EQ PUSH2 0x1F2 JUMPI PUSH1 0x40 MLOAD PUSH32 0x8C379A000000000000000000000000000000000000000000000000000000000 DUP2 MSTORE PUSH1 0x4 ADD PUSH2 0x1E9 SWAP1 PUSH2 0x1F4D JUMP JUMPDEST PUSH1 0x40 MLOAD DUP1 SWAP2 SUB SWAP1 REVERT JUMPDEST PUSH1 0x0 PUSH1 0x7 SLOAD PUSH1 0x6 SLOAD DUP4 PUSH2 0x205 SWAP2 SWAP1 PUSH2 0x1DA8 JUMP JUMPDEST PUSH2 0x20F SWAP2 SWAP1 PUSH2 0x1E31 JUMP JUMPDEST SWAP1 POP DUP1 DUP3 PUSH2 0x21D SWAP2 SWAP1 PUSH2 0x1E96 JUMP JUMPDEST SWAP2 POP DUP1 PUSH1 0x9 PUSH1 0x0 DUP3 DUP3 SLOAD PUSH2 0x231 SWAP2 SWAP1 PUSH2 0x1E62 JUMP JUMPDEST SWAP3 POP POP DUP2 SWAP1 SSTORE POP PUSH1 0x0 PUSH1 0xB PUSH1 0x0 SWAP1 SLOAD SWAP1 PUSH2 0x100 EXP SWAP1 DIV PUSH20 0xFFFFFFFFFFFFFFFFFFFFFFFFFFFFFFFFFFFFFFFF AND SWAP1 POP DUP1 PUSH20 0xFFFFFFFFFFFFFFFFFFFFFFFFFFFFFFFFFFFFFFFF AND PUSH4 0x95EA7B3 CALLER DUP6 PUSH1 0x40 MLOAD DUP4 PUSH4 0xFFFFFFFF AND PUSH1 0xE0 SHL DUP2 MSTORE PUSH1 0x4 ADD PUSH2 0x29A SWAP3 SWAP2 SWAP1 PUSH2 0x1FBD JUMP JUMPDEST PUSH1 0x20 PUSH1 0x40 MLOAD DUP1 DUP4 SUB DUP2 PUSH1 0x0 DUP8 GAS CALL ISZERO DUP1 ISZERO PUSH2 0x2B9 JUMPI RETURNDATASIZE PUSH1 0x0 DUP1 RETURNDATACOPY RETURNDATASIZE PUSH1 0x0 REVERT JUMPDEST POP POP POP POP PUSH1 0x40 MLOAD RETURNDATASIZE PUSH1 0x1F NOT PUSH1 0x1F DUP3 ADD AND DUP3 ADD DUP1 PUSH1 0x40 MSTORE POP DUP2 ADD SWAP1 PUSH2 0x2DD SWAP2 SWAP1 PUSH2 0x2032 JUMP JUMPDEST PUSH2 0x31C JUMPI PUSH1 0x40 MLOAD PUSH32 0x8C379A000000000000000000000000000000000000000000000000000000000 DUP2 MSTORE PUSH1 0x4 ADD PUSH2 0x313 SWAP1 PUSH2 0x20D1 JUMP JUMPDEST PUSH1 0x40 MLOAD DUP1 SWAP2 SUB SWAP1 REVERT JUMPDEST STOP JUMPDEST PUSH1 0x0 DUP1 REVERT JUMPDEST CALLVALUE DUP1 ISZERO PUSH2 0x32F JUMPI PUSH1 0x0 DUP1 REVERT JUMPDEST POP PUSH2 0x34A PUSH1 0x4 DUP1 CALLDATASIZE SUB DUP2 ADD SWAP1 PUSH2 0x345 SWAP2 SWAP1 PUSH2 0x2149 JUMP JUMPDEST PUSH2 0x71F JUMP JUMPDEST PUSH1 0x40 MLOAD PUSH2 0x357 SWAP2 SWAP1 PUSH2 0x2185 JUMP JUMPDEST PUSH1 0x40 MLOAD DUP1 SWAP2 SUB SWAP1 RETURN JUMPDEST CALLVALUE DUP1 ISZERO PUSH2 0x36C JUMPI PUSH1 0x0 DUP1 REVERT JUMPDEST POP PUSH2 0x375 PUSH2 0x859 JUMP JUMPDEST PUSH1 0x40 MLOAD PUSH2 0x382 SWAP2 SWAP1 PUSH2 0x21A0 JUMP JUMPDEST PUSH1 0x40 MLOAD DUP1 SWAP2 SUB SWAP1 RETURN JUMPDEST CALLVALUE DUP1 ISZERO PUSH2 0x397 JUMPI PUSH1 0x0 DUP1 REVERT JUMPDEST POP PUSH2 0x3A0 PUSH2 0x85F JUMP JUMPDEST PUSH1 0x40 MLOAD PUSH2 0x3AD SWAP2 SWAP1 PUSH2 0x21A0 JUMP JUMPDEST PUSH1 0x40 MLOAD DUP1 SWAP2 SUB SWAP1 RETURN JUMPDEST CALLVALUE DUP1 ISZERO PUSH2 0x3C2 JUMPI PUSH1 0x0 DUP1 REVERT JUMPDEST POP PUSH2 0x3CB PUSH2 0x865 JUMP JUMPDEST PUSH1 0x40 MLOAD PUSH2 0x3D8 SWAP2 SWAP1 PUSH2 0x21BB JUMP JUMPDEST PUSH1 0x40 MLOAD DUP1 SWAP2 SUB SWAP1 RETURN JUMPDEST CALLVALUE DUP1 ISZERO PUSH2 0x3ED JUMPI PUSH1 0x0 DUP1 REVERT JUMPDEST POP PUSH2 0x3F6 PUSH2 0x88B JUMP JUMPDEST PUSH1 0x40 MLOAD PUSH2 0x403 SWAP2 SWAP1 PUSH2 0x21A0 JUMP JUMPDEST PUSH1 0x40 MLOAD DUP1 SWAP2 SUB SWAP1 RETURN JUMPDEST CALLVALUE DUP1 ISZERO PUSH2 0x418 JUMPI PUSH1 0x0 DUP1 REVERT JUMPDEST POP PUSH2 0x421 PUSH2 0x891 JUMP JUMPDEST PUSH1 0x40 MLOAD PUSH2 0x42E SWAP2 SWAP1 PUSH2 0x21A0 JUMP JUMPDEST PUSH1 0x40 MLOAD DUP1 SWAP2 SUB SWAP1 RETURN JUMPDEST CALLVALUE DUP1 ISZERO PUSH2 0x443 JUMPI PUSH1 0x0 DUP1 REVERT JUMPDEST POP PUSH2 0x44C PUSH2 0x931 JUMP JUMPDEST PUSH1 0x40 MLOAD PUSH2 0x459 SWAP2 SWAP1 PUSH2 0x21A0 JUMP JUMPDEST PUSH1 0x40 MLOAD DUP1 SWAP2 SUB SWAP1 RETURN JUMPDEST CALLVALUE DUP1 ISZERO PUSH2 0x46E JUMPI PUSH1 0x0 DUP1 REVERT JUMPDEST POP PUSH2 0x477 PUSH2 0x9F4 JUMP JUMPDEST PUSH1 0x40 MLOAD PUSH2 0x484 SWAP2 SWAP1 PUSH2 0x21BB JUMP JUMPDEST PUSH1 0x40 MLOAD DUP1 SWAP2 SUB SWAP1 RETURN JUMPDEST CALLVALUE DUP1 ISZERO PUSH2 0x499 JUMPI PUSH1 0x0 DUP1 REVERT JUMPDEST POP PUSH2 0x4A2 PUSH2 0xA1A JUMP JUMPDEST PUSH1 0x40 MLOAD PUSH2 0x4AF SWAP2 SWAP1 PUSH2 0x21A0 JUMP JUMPDEST PUSH1 0x40 MLOAD DUP1 SWAP2 SUB SWAP1 RETURN JUMPDEST CALLVALUE DUP1 ISZERO PUSH2 0x4C4 JUMPI PUSH1 0x0 DUP1 REVERT JUMPDEST POP PUSH2 0x4DF PUSH1 0x4 DUP1 CALLDATASIZE SUB DUP2 ADD SWAP1 PUSH2 0x4DA SWAP2 SWAP1 PUSH2 0x2202 JUMP JUMPDEST PUSH2 0xA20 JUMP JUMPDEST PUSH1 0x40 MLOAD PUSH2 0x4EC SWAP2 SWAP1 PUSH2 0x21A0 JUMP JUMPDEST PUSH1 0x40 MLOAD DUP1 SWAP2 SUB SWAP1 RETURN JUMPDEST CALLVALUE DUP1 ISZERO PUSH2 0x501 JUMPI PUSH1 0x0 DUP1 REVERT JUMPDEST POP PUSH2 0x50A PUSH2 0xA38 JUMP JUMPDEST PUSH1 0x40 MLOAD PUSH2 0x517 SWAP2 SWAP1 PUSH2 0x22AE JUMP JUMPDEST PUSH1 0x40 MLOAD DUP1 SWAP2 SUB SWAP1 RETURN JUMPDEST CALLVALUE DUP1 ISZERO PUSH2 0x52C JUMPI PUSH1 0x0 DUP1 REVERT JUMPDEST POP PUSH2 0x547 PUSH1 0x4 DUP1 CALLDATASIZE SUB DUP2 ADD SWAP1 PUSH2 0x542 SWAP2 SWAP1 PUSH2 0x22FC JUMP JUMPDEST PUSH2 0xADB JUMP JUMPDEST STOP JUMPDEST CALLVALUE DUP1 ISZERO PUSH2 0x555 JUMPI PUSH1 0x0 DUP1 REVERT JUMPDEST POP PUSH2 0x55E PUSH2 0xF70 JUMP JUMPDEST PUSH1 0x40 MLOAD PUSH2 0x576 SWAP13 SWAP12 SWAP11 SWAP10 SWAP9 SWAP8 SWAP7 SWAP6 SWAP5 SWAP4 SWAP3 SWAP2 SWAP1 PUSH2 0x2329 JUMP JUMPDEST PUSH1 0x40 MLOAD DUP1 SWAP2 SUB SWAP1 RETURN JUMPDEST CALLVALUE DUP1 ISZERO PUSH2 0x58B JUMPI PUSH1 0x0 DUP1 REVERT JUMPDEST POP PUSH2 0x594 PUSH2 0x1166 JUMP JUMPDEST PUSH1 0x40 MLOAD PUSH2 0x5A1 SWAP2 SWAP1 PUSH2 0x21A0 JUMP JUMPDEST PUSH1 0x40 MLOAD DUP1 SWAP2 SUB SWAP1 RETURN JUMPDEST PUSH2 0x5C4 PUSH1 0x4 DUP1 CALLDATASIZE SUB DUP2 ADD SWAP1 PUSH2 0x5BF SWAP2 SWAP1 PUSH2 0x23F1 JUMP JUMPDEST PUSH2 0x116C JUMP JUMPDEST STOP JUMPDEST CALLVALUE DUP1 ISZERO PUSH2 0x5D2 JUMPI PUSH1 0x0 DUP1 REVERT JUMPDEST POP PUSH2 0x5DB PUSH2 0x15CD JUMP JUMPDEST PUSH1 0x40 MLOAD PUSH2 0x5E8 SWAP2 SWAP1 PUSH2 0x21A0 JUMP JUMPDEST PUSH1 0x40 MLOAD DUP1 SWAP2 SUB SWAP1 RETURN JUMPDEST CALLVALUE DUP1 ISZERO PUSH2 0x5FD JUMPI PUSH1 0x0 DUP1 REVERT JUMPDEST POP PUSH2 0x606 PUSH2 0x15D3 JUMP JUMPDEST PUSH1 0x40 MLOAD PUSH2 0x613 SWAP2 SWAP1 PUSH2 0x21A0 JUMP JUMPDEST PUSH1 0x40 MLOAD DUP1 SWAP2 SUB SWAP1 RETURN JUMPDEST CALLVALUE DUP1 ISZERO PUSH2 0x628 JUMPI PUSH1 0x0 DUP1 REVERT JUMPDEST POP PUSH2 0x643 PUSH1 0x4 DUP1 CALLDATASIZE SUB DUP2 ADD SWAP1 PUSH2 0x63E SWAP2 SWAP1 PUSH2 0x246C JUMP JUMPDEST PUSH2 0x1690 JUMP JUMPDEST PUSH1 0x40 MLOAD PUSH2 0x650 SWAP2 SWAP1 PUSH2 0x2185 JUMP JUMPDEST PUSH1 0x40 MLOAD DUP1 SWAP2 SUB SWAP1 RETURN JUMPDEST CALLVALUE DUP1 ISZERO PUSH2 0x665 JUMPI PUSH1 0x0 DUP1 REVERT JUMPDEST POP PUSH2 0x66E PUSH2 0x1987 JUMP JUMPDEST PUSH1 0x40 MLOAD PUSH2 0x67B SWAP2 SWAP1 PUSH2 0x21A0 JUMP JUMPDEST PUSH1 0x40 MLOAD DUP1 SWAP2 SUB SWAP1 RETURN JUMPDEST CALLVALUE DUP1 ISZERO PUSH2 0x690 JUMPI PUSH1 0x0 DUP1 REVERT JUMPDEST POP PUSH2 0x6AB PUSH1 0x4 DUP1 CALLDATASIZE SUB DUP2 ADD SWAP1 PUSH2 0x6A6 SWAP2 SWAP1 PUSH2 0x2202 JUMP JUMPDEST PUSH2 0x1A24 JUMP JUMPDEST PUSH1 0x40 MLOAD PUSH2 0x6B8 SWAP2 SWAP1 PUSH2 0x21A0 JUMP JUMPDEST PUSH1 0x40 MLOAD DUP1 SWAP2 SUB SWAP1 RETURN JUMPDEST PUSH2 0x6C9 PUSH2 0x1A3C JUMP JUMPDEST STOP JUMPDEST CALLVALUE DUP1 ISZERO PUSH2 0x6D7 JUMPI PUSH1 0x0 DUP1 REVERT JUMPDEST POP PUSH2 0x6E0 PUSH2 0x1D25 JUMP JUMPDEST PUSH1 0x40 MLOAD PUSH2 0x6ED SWAP2 SWAP1 PUSH2 0x21A0 JUMP JUMPDEST PUSH1 0x40 MLOAD DUP1 SWAP2 SUB SWAP1 RETURN JUMPDEST CALLVALUE DUP1 ISZERO PUSH2 0x702 JUMPI PUSH1 0x0 DUP1 REVERT JUMPDEST POP PUSH2 0x71D PUSH1 0x4 DUP1 CALLDATASIZE SUB DUP2 ADD SWAP1 PUSH2 0x718 SWAP2 SWAP1 PUSH2 0x2202 JUMP JUMPDEST PUSH2 0x1D2B JUMP JUMPDEST STOP JUMPDEST PUSH1 0x0 PUSH32 0x87ABA76B00000000000000000000000000000000000000000000000000000000 PUSH28 0xFFFFFFFFFFFFFFFFFFFFFFFFFFFFFFFFFFFFFFFFFFFFFFFFFFFFFFFF NOT AND DUP3 PUSH28 0xFFFFFFFFFFFFFFFFFFFFFFFFFFFFFFFFFFFFFFFFFFFFFFFFFFFFFFFF NOT AND EQ DUP1 PUSH2 0x7EA JUMPI POP PUSH32 0x1FFC9A700000000000000000000000000000000000000000000000000000000 PUSH28 0xFFFFFFFFFFFFFFFFFFFFFFFFFFFFFFFFFFFFFFFFFFFFFFFFFFFFFFFF NOT AND DUP3 PUSH28 0xFFFFFFFFFFFFFFFFFFFFFFFFFFFFFFFFFFFFFFFFFFFFFFFFFFFFFFFF NOT AND EQ JUMPDEST DUP1 PUSH2 0x852 JUMPI POP PUSH32 0xBC04F0AF00000000000000000000000000000000000000000000000000000000 PUSH28 0xFFFFFFFFFFFFFFFFFFFFFFFFFFFFFFFFFFFFFFFFFFFFFFFFFFFFFFFF NOT AND DUP3 PUSH28 0xFFFFFFFFFFFFFFFFFFFFFFFFFFFFFFFFFFFFFFFFFFFFFFFFFFFFFFFF NOT AND EQ JUMPDEST SWAP1 POP SWAP2 SWAP1 POP JUMP JUMPDEST PUSH1 0x2 SLOAD DUP2 JUMP JUMPDEST PUSH1 0x7 SLOAD DUP2 JUMP JUMPDEST PUSH1 0xB PUSH1 0x0 SWAP1 SLOAD SWAP1 PUSH2 0x100 EXP SWAP1 DIV PUSH20 0xFFFFFFFFFFFFFFFFFFFFFFFFFFFFFFFFFFFFFFFF AND DUP2 JUMP JUMPDEST PUSH1 0x9 SLOAD DUP2 JUMP JUMPDEST PUSH1 0x0 DUP1 PUSH1 0xB PUSH1 0x0 SWAP1 SLOAD SWAP1 PUSH2 0x100 EXP SWAP1 DIV PUSH20 0xFFFFFFFFFFFFFFFFFFFFFFFFFFFFFFFFFFFFFFFF AND SWAP1 POP DUP1 PUSH20 0xFFFFFFFFFFFFFFFFFFFFFFFFFFFFFFFFFFFFFFFF AND PUSH4 0x313CE567 PUSH1 0x40 MLOAD DUP2 PUSH4 0xFFFFFFFF AND PUSH1 0xE0 SHL DUP2 MSTORE PUSH1 0x4 ADD PUSH1 0x20 PUSH1 0x40 MLOAD DUP1 DUP4 SUB DUP2 DUP7 GAS STATICCALL ISZERO DUP1 ISZERO PUSH2 0x904 JUMPI RETURNDATASIZE PUSH1 0x0 DUP1 RETURNDATACOPY RETURNDATASIZE PUSH1 0x0 REVERT JUMPDEST POP POP POP POP PUSH1 0x40 MLOAD RETURNDATASIZE PUSH1 0x1F NOT PUSH1 0x1F DUP3 ADD AND DUP3 ADD DUP1 PUSH1 0x40 MSTORE POP DUP2 ADD SWAP1 PUSH2 0x928 SWAP2 SWAP1 PUSH2 0x24E5 JUMP JUMPDEST PUSH1 0xFF AND SWAP2 POP POP SWAP1 JUMP JUMPDEST PUSH1 0x0 DUP1 PUSH1 0xA PUSH1 0x0 SWAP1 SLOAD SWAP1 PUSH2 0x100 EXP SWAP1 DIV PUSH20 0xFFFFFFFFFFFFFFFFFFFFFFFFFFFFFFFFFFFFFFFF AND SWAP1 POP PUSH1 0x0 DUP2 PUSH20 0xFFFFFFFFFFFFFFFFFFFFFFFFFFFFFFFFFFFFFFFF AND PUSH4 0xA035B1FE PUSH1 0x40 MLOAD DUP2 PUSH4 0xFFFFFFFF AND PUSH1 0xE0 SHL DUP2 MSTORE PUSH1 0x4 ADD PUSH1 0x20 PUSH1 0x40 MLOAD DUP1 DUP4 SUB DUP2 DUP7 GAS STATICCALL ISZERO DUP1 ISZERO PUSH2 0x9A6 JUMPI RETURNDATASIZE PUSH1 0x0 DUP1 RETURNDATACOPY RETURNDATASIZE PUSH1 0x0 REVERT JUMPDEST POP POP POP POP PUSH1 0x40 MLOAD RETURNDATASIZE PUSH1 0x1F NOT PUSH1 0x1F DUP3 ADD AND DUP3 ADD DUP1 PUSH1 0x40 MSTORE POP DUP2 ADD SWAP1 PUSH2 0x9CA SWAP2 SWAP1 PUSH2 0x2527 JUMP JUMPDEST SWAP1 POP PUSH1 0x0 PUSH1 0x3 SLOAD PUSH1 0x2 SLOAD PUSH2 0x9DE SWAP2 SWAP1 PUSH2 0x1E31 JUMP JUMPDEST SWAP1 POP DUP1 DUP3 PUSH2 0x9EC SWAP2 SWAP1 PUSH2 0x1DA8 JUMP JUMPDEST SWAP4 POP POP POP POP SWAP1 JUMP JUMPDEST PUSH1 0xA PUSH1 0x0 SWAP1 SLOAD SWAP1 PUSH2 0x100 EXP SWAP1 DIV PUSH20 0xFFFFFFFFFFFFFFFFFFFFFFFFFFFFFFFFFFFFFFFF AND DUP2 JUMP JUMPDEST PUSH1 0x8 SLOAD DUP2 JUMP JUMPDEST PUSH1 0x5 PUSH1 0x20 MSTORE DUP1 PUSH1 0x0 MSTORE PUSH1 0x40 PUSH1 0x0 KECCAK256 PUSH1 0x0 SWAP2 POP SWAP1 POP SLOAD DUP2 JUMP JUMPDEST PUSH1 0x60 PUSH1 0x0 PUSH1 0xB PUSH1 0x0 SWAP1 SLOAD SWAP1 PUSH2 0x100 EXP SWAP1 DIV PUSH20 0xFFFFFFFFFFFFFFFFFFFFFFFFFFFFFFFFFFFFFFFF AND SWAP1 POP DUP1 PUSH20 0xFFFFFFFFFFFFFFFFFFFFFFFFFFFFFFFFFFFFFFFF AND PUSH4 0x95D89B41 PUSH1 0x40 MLOAD DUP2 PUSH4 0xFFFFFFFF AND PUSH1 0xE0 SHL DUP2 MSTORE PUSH1 0x4 ADD PUSH1 0x0 PUSH1 0x40 MLOAD DUP1 DUP4 SUB DUP2 DUP7 GAS STATICCALL ISZERO DUP1 ISZERO PUSH2 0xAAC JUMPI RETURNDATASIZE PUSH1 0x0 DUP1 RETURNDATACOPY RETURNDATASIZE PUSH1 0x0 REVERT JUMPDEST POP POP POP POP PUSH1 0x40 MLOAD RETURNDATASIZE PUSH1 0x0 DUP3 RETURNDATACOPY RETURNDATASIZE PUSH1 0x1F NOT PUSH1 0x1F DUP3 ADD AND DUP3 ADD DUP1 PUSH1 0x40 MSTORE POP DUP2 ADD SWAP1 PUSH2 0xAD5 SWAP2 SWAP1 PUSH2 0x267A JUMP JUMPDEST SWAP2 POP POP SWAP1 JUMP JUMPDEST PUSH1 0x0 DUP1 PUSH1 0x0 PUSH2 0x100 EXP DUP2 SLOAD DUP2 PUSH1 0xFF MUL NOT AND SWAP1 DUP4 ISZERO ISZERO MUL OR SWAP1 SSTORE POP PUSH1 0x0 PUSH1 0x2 SLOAD PUSH1 0x3 SLOAD DUP4 PUSH2 0xB08 SWAP2 SWAP1 PUSH2 0x1DA8 JUMP JUMPDEST PUSH2 0xB12 SWAP2 SWAP1 PUSH2 0x1E31 JUMP JUMPDEST SWAP1 POP DUP2 PUSH1 0x4 PUSH1 0x0 CALLER PUSH20 0xFFFFFFFFFFFFFFFFFFFFFFFFFFFFFFFFFFFFFFFF AND PUSH20 0xFFFFFFFFFFFFFFFFFFFFFFFFFFFFFFFFFFFFFFFF AND DUP2 MSTORE PUSH1 0x20 ADD SWAP1 DUP2 MSTORE PUSH1 0x20 ADD PUSH1 0x0 KECCAK256 SLOAD GT ISZERO PUSH2 0xB96 JUMPI PUSH1 0x40 MLOAD PUSH32 0x8C379A000000000000000000000000000000000000000000000000000000000 DUP2 MSTORE PUSH1 0x4 ADD PUSH2 0xB8D SWAP1 PUSH2 0x275B JUMP JUMPDEST PUSH1 0x40 MLOAD DUP1 SWAP2 SUB SWAP1 REVERT JUMPDEST DUP2 PUSH1 0x2 SLOAD GT PUSH2 0xBDA JUMPI PUSH1 0x40 MLOAD PUSH32 0x8C379A000000000000000000000000000000000000000000000000000000000 DUP2 MSTORE PUSH1 0x4 ADD PUSH2 0xBD1 SWAP1 PUSH2 0x27ED JUMP JUMPDEST PUSH1 0x40 MLOAD DUP1 SWAP2 SUB SWAP1 REVERT JUMPDEST DUP1 PUSH1 0x5 PUSH1 0x0 CALLER PUSH20 0xFFFFFFFFFFFFFFFFFFFFFFFFFFFFFFFFFFFFFFFF AND PUSH20 0xFFFFFFFFFFFFFFFFFFFFFFFFFFFFFFFFFFFFFFFF AND DUP2 MSTORE PUSH1 0x20 ADD SWAP1 DUP2 MSTORE PUSH1 0x20 ADD PUSH1 0x0 KECCAK256 SLOAD GT ISZERO PUSH2 0xC5C JUMPI PUSH1 0x40 MLOAD PUSH32 0x8C379A000000000000000000000000000000000000000000000000000000000 DUP2 MSTORE PUSH1 0x4 ADD PUSH2 0xC53 SWAP1 PUSH2 0x28A5 JUMP JUMPDEST PUSH1 0x40 MLOAD DUP1 SWAP2 SUB SWAP1 REVERT JUMPDEST DUP1 PUSH1 0x3 SLOAD GT PUSH2 0xCA0 JUMPI PUSH1 0x40 MLOAD PUSH32 0x8C379A000000000000000000000000000000000000000000000000000000000 DUP2 MSTORE PUSH1 0x4 ADD PUSH2 0xC97 SWAP1 PUSH2 0x2937 JUMP JUMPDEST PUSH1 0x40 MLOAD DUP1 SWAP2 SUB SWAP1 REVERT JUMPDEST PUSH1 0x0 CALLER PUSH20 0xFFFFFFFFFFFFFFFFFFFFFFFFFFFFFFFFFFFFFFFF AND DUP4 PUSH1 0x40 MLOAD PUSH2 0xCC6 SWAP1 PUSH2 0x2988 JUMP JUMPDEST PUSH1 0x0 PUSH1 0x40 MLOAD DUP1 DUP4 SUB DUP2 DUP6 DUP8 GAS CALL SWAP3 POP POP POP RETURNDATASIZE DUP1 PUSH1 0x0 DUP2 EQ PUSH2 0xD03 JUMPI PUSH1 0x40 MLOAD SWAP2 POP PUSH1 0x1F NOT PUSH1 0x3F RETURNDATASIZE ADD AND DUP3 ADD PUSH1 0x40 MSTORE RETURNDATASIZE DUP3 MSTORE RETURNDATASIZE PUSH1 0x0 PUSH1 0x20 DUP5 ADD RETURNDATACOPY PUSH2 0xD08 JUMP JUMPDEST PUSH1 0x60 SWAP2 POP JUMPDEST POP POP SWAP1 POP DUP1 PUSH2 0xD4C JUMPI PUSH1 0x40 MLOAD PUSH32 0x8C379A000000000000000000000000000000000000000000000000000000000 DUP2 MSTORE PUSH1 0x4 ADD PUSH2 0xD43 SWAP1 PUSH2 0x2A0F JUMP JUMPDEST PUSH1 0x40 MLOAD DUP1 SWAP2 SUB SWAP1 REVERT JUMPDEST PUSH1 0x0 PUSH1 0xB PUSH1 0x0 SWAP1 SLOAD SWAP1 PUSH2 0x100 EXP SWAP1 DIV PUSH20 0xFFFFFFFFFFFFFFFFFFFFFFFFFFFFFFFFFFFFFFFF AND SWAP1 POP DUP1 PUSH20 0xFFFFFFFFFFFFFFFFFFFFFFFFFFFFFFFFFFFFFFFF AND PUSH4 0x95EA7B3 CALLER DUP6 PUSH1 0x40 MLOAD DUP4 PUSH4 0xFFFFFFFF AND PUSH1 0xE0 SHL DUP2 MSTORE PUSH1 0x4 ADD PUSH2 0xDAE SWAP3 SWAP2 SWAP1 PUSH2 0x1FBD JUMP JUMPDEST PUSH1 0x20 PUSH1 0x40 MLOAD DUP1 DUP4 SUB DUP2 PUSH1 0x0 DUP8 GAS CALL ISZERO DUP1 ISZERO PUSH2 0xDCD JUMPI RETURNDATASIZE PUSH1 0x0 DUP1 RETURNDATACOPY RETURNDATASIZE PUSH1 0x0 REVERT JUMPDEST POP POP POP POP PUSH1 0x40 MLOAD RETURNDATASIZE PUSH1 0x1F NOT PUSH1 0x1F DUP3 ADD AND DUP3 ADD DUP1 PUSH1 0x40 MSTORE POP DUP2 ADD SWAP1 PUSH2 0xDF1 SWAP2 SWAP1 PUSH2 0x2032 JUMP JUMPDEST PUSH2 0xE30 JUMPI PUSH1 0x40 MLOAD PUSH32 0x8C379A000000000000000000000000000000000000000000000000000000000 DUP2 MSTORE PUSH1 0x4 ADD PUSH2 0xE27 SWAP1 PUSH2 0x20D1 JUMP JUMPDEST PUSH1 0x40 MLOAD DUP1 SWAP2 SUB SWAP1 REVERT JUMPDEST DUP3 PUSH1 0x5 PUSH1 0x0 CALLER PUSH20 0xFFFFFFFFFFFFFFFFFFFFFFFFFFFFFFFFFFFFFFFF AND PUSH20 0xFFFFFFFFFFFFFFFFFFFFFFFFFFFFFFFFFFFFFFFF AND DUP2 MSTORE PUSH1 0x20 ADD SWAP1 DUP2 MSTORE PUSH1 0x20 ADD PUSH1 0x0 KECCAK256 PUSH1 0x0 DUP3 DUP3 SLOAD PUSH2 0xE7F SWAP2 SWAP1 PUSH2 0x1E96 JUMP JUMPDEST SWAP3 POP POP DUP2 SWAP1 SSTORE POP DUP4 PUSH1 0x4 PUSH1 0x0 CALLER PUSH20 0xFFFFFFFFFFFFFFFFFFFFFFFFFFFFFFFFFFFFFFFF AND PUSH20 0xFFFFFFFFFFFFFFFFFFFFFFFFFFFFFFFFFFFFFFFF AND DUP2 MSTORE PUSH1 0x20 ADD SWAP1 DUP2 MSTORE PUSH1 0x20 ADD PUSH1 0x0 KECCAK256 PUSH1 0x0 DUP3 DUP3 SLOAD PUSH2 0xED5 SWAP2 SWAP1 PUSH2 0x1E96 JUMP JUMPDEST SWAP3 POP POP DUP2 SWAP1 SSTORE POP DUP3 PUSH1 0x2 PUSH1 0x0 DUP3 DUP3 SLOAD PUSH2 0xEEE SWAP2 SWAP1 PUSH2 0x1E96 JUMP JUMPDEST SWAP3 POP POP DUP2 SWAP1 SSTORE POP DUP4 PUSH1 0x3 PUSH1 0x0 DUP3 DUP3 SLOAD PUSH2 0xF07 SWAP2 SWAP1 PUSH2 0x1E96 JUMP JUMPDEST SWAP3 POP POP DUP2 SWAP1 SSTORE POP PUSH1 0x3 SLOAD PUSH1 0x2 SLOAD PUSH2 0xF1E SWAP2 SWAP1 PUSH2 0x1DA8 JUMP JUMPDEST PUSH1 0x1 DUP2 SWAP1 SSTORE POP PUSH1 0x1 PUSH1 0x0 DUP1 PUSH2 0x100 EXP DUP2 SLOAD DUP2 PUSH1 0xFF MUL NOT AND SWAP1 DUP4 ISZERO ISZERO MUL OR SWAP1 SSTORE POP PUSH32 0x8866993F7C029BE4215942B34C1545282B8F28836579F2687FE96A5A6BF77704 PUSH1 0x40 MLOAD PUSH1 0x40 MLOAD DUP1 SWAP2 SUB SWAP1 LOG1 POP POP POP POP JUMP JUMPDEST PUSH1 0x0 PUSH1 0x60 DUP1 PUSH1 0x0 DUP1 PUSH1 0x0 DUP1 PUSH1 0x0 DUP1 PUSH1 0x0 DUP1 PUSH1 0x0 DUP1 PUSH1 0xB PUSH1 0x0 SWAP1 SLOAD SWAP1 PUSH2 0x100 EXP SWAP1 DIV PUSH20 0xFFFFFFFFFFFFFFFFFFFFFFFFFFFFFFFFFFFFFFFF AND SWAP1 POP ADDRESS DUP2 PUSH20 0xFFFFFFFFFFFFFFFFFFFFFFFFFFFFFFFFFFFFFFFF AND PUSH4 0x95D89B41 PUSH1 0x40 MLOAD DUP2 PUSH4 0xFFFFFFFF AND PUSH1 0xE0 SHL DUP2 MSTORE PUSH1 0x4 ADD PUSH1 0x0 PUSH1 0x40 MLOAD DUP1 DUP4 SUB DUP2 DUP7 GAS STATICCALL ISZERO DUP1 ISZERO PUSH2 0xFF5 JUMPI RETURNDATASIZE PUSH1 0x0 DUP1 RETURNDATACOPY RETURNDATASIZE PUSH1 0x0 REVERT JUMPDEST POP POP POP POP PUSH1 0x40 MLOAD RETURNDATASIZE PUSH1 0x0 DUP3 RETURNDATACOPY RETURNDATASIZE PUSH1 0x1F NOT PUSH1 0x1F DUP3 ADD AND DUP3 ADD DUP1 PUSH1 0x40 MSTORE POP DUP2 ADD SWAP1 PUSH2 0x101E SWAP2 SWAP1 PUSH2 0x267A JUMP JUMPDEST DUP3 PUSH20 0xFFFFFFFFFFFFFFFFFFFFFFFFFFFFFFFFFFFFFFFF AND PUSH4 0x6FDDE03 PUSH1 0x40 MLOAD DUP2 PUSH4 0xFFFFFFFF AND PUSH1 0xE0 SHL DUP2 MSTORE PUSH1 0x4 ADD PUSH1 0x0 PUSH1 0x40 MLOAD DUP1 DUP4 SUB DUP2 DUP7 GAS STATICCALL ISZERO DUP1 ISZERO PUSH2 0x1069 JUMPI RETURNDATASIZE PUSH1 0x0 DUP1 RETURNDATACOPY RETURNDATASIZE PUSH1 0x0 REVERT JUMPDEST POP POP POP POP PUSH1 0x40 MLOAD RETURNDATASIZE PUSH1 0x0 DUP3 RETURNDATACOPY RETURNDATASIZE PUSH1 0x1F NOT PUSH1 0x1F DUP3 ADD AND DUP3 ADD DUP1 PUSH1 0x40 MSTORE POP DUP2 ADD SWAP1 PUSH2 0x1092 SWAP2 SWAP1 PUSH2 0x267A JUMP JUMPDEST PUSH1 0xB PUSH1 0x0 SWAP1 SLOAD SWAP1 PUSH2 0x100 EXP SWAP1 DIV PUSH20 0xFFFFFFFFFFFFFFFFFFFFFFFFFFFFFFFFFFFFFFFF AND PUSH1 0x1 SLOAD PUSH1 0x2 SLOAD PUSH1 0x3 SLOAD PUSH1 0x6 SLOAD PUSH1 0x7 SLOAD DUP10 PUSH20 0xFFFFFFFFFFFFFFFFFFFFFFFFFFFFFFFFFFFFFFFF AND PUSH4 0x313CE567 PUSH1 0x40 MLOAD DUP2 PUSH4 0xFFFFFFFF AND PUSH1 0xE0 SHL DUP2 MSTORE PUSH1 0x4 ADD PUSH1 0x20 PUSH1 0x40 MLOAD DUP1 DUP4 SUB DUP2 DUP7 GAS STATICCALL ISZERO DUP1 ISZERO PUSH2 0x110F JUMPI RETURNDATASIZE PUSH1 0x0 DUP1 RETURNDATACOPY RETURNDATASIZE PUSH1 0x0 REVERT JUMPDEST POP POP POP POP PUSH1 0x40 MLOAD RETURNDATASIZE PUSH1 0x1F NOT PUSH1 0x1F DUP3 ADD AND DUP3 ADD DUP1 PUSH1 0x40 MSTORE POP DUP2 ADD SWAP1 PUSH2 0x1133 SWAP2 SWAP1 PUSH2 0x24E5 JUMP JUMPDEST PUSH1 0x8 SLOAD PUSH1 0x9 SLOAD DUP3 PUSH1 0xFF AND SWAP3 POP SWAP13 POP SWAP13 POP SWAP13 POP SWAP13 POP SWAP13 POP SWAP13 POP SWAP13 POP SWAP13 POP SWAP13 POP SWAP13 POP SWAP13 POP SWAP13 POP POP SWAP1 SWAP2 SWAP3 SWAP4 SWAP5 SWAP6 SWAP7 SWAP8 SWAP9 SWAP10 SWAP11 SWAP12 JUMP JUMPDEST PUSH1 0x3 SLOAD DUP2 JUMP JUMPDEST PUSH1 0x0 DUP1 PUSH1 0x0 PUSH2 0x100 EXP DUP2 SLOAD DUP2 PUSH1 0xFF MUL NOT AND SWAP1 DUP4 ISZERO ISZERO MUL OR SWAP1 SSTORE POP PUSH1 0x0 ISZERO ISZERO PUSH1 0x0 PUSH1 0x1 SWAP1 SLOAD SWAP1 PUSH2 0x100 EXP SWAP1 DIV PUSH1 0xFF AND ISZERO ISZERO EQ PUSH2 0x11DC JUMPI PUSH1 0x40 MLOAD PUSH32 0x8C379A000000000000000000000000000000000000000000000000000000000 DUP2 MSTORE PUSH1 0x4 ADD PUSH2 0x11D3 SWAP1 PUSH2 0x2A7B JUMP JUMPDEST PUSH1 0x40 MLOAD DUP1 SWAP2 SUB SWAP1 REVERT JUMPDEST PUSH1 0x0 PUSH1 0x2 SWAP1 SLOAD SWAP1 PUSH2 0x100 EXP SWAP1 DIV PUSH20 0xFFFFFFFFFFFFFFFFFFFFFFFFFFFFFFFFFFFFFFFF AND PUSH20 0xFFFFFFFFFFFFFFFFFFFFFFFFFFFFFFFFFFFFFFFF AND CALLER PUSH20 0xFFFFFFFFFFFFFFFFFFFFFFFFFFFFFFFFFFFFFFFF AND EQ PUSH2 0x126C JUMPI PUSH1 0x40 MLOAD PUSH32 0x8C379A000000000000000000000000000000000000000000000000000000000 DUP2 MSTORE PUSH1 0x4 ADD PUSH2 0x1263 SWAP1 PUSH2 0x2B0D JUMP JUMPDEST PUSH1 0x40 MLOAD DUP1 SWAP2 SUB SWAP1 REVERT JUMPDEST PUSH1 0x7 SLOAD PUSH1 0x6 SLOAD LT PUSH2 0x12B2 JUMPI PUSH1 0x40 MLOAD PUSH32 0x8C379A000000000000000000000000000000000000000000000000000000000 DUP2 MSTORE PUSH1 0x4 ADD PUSH2 0x12A9 SWAP1 PUSH2 0x2B9F JUMP JUMPDEST PUSH1 0x40 MLOAD DUP1 SWAP2 SUB SWAP1 REVERT JUMPDEST DUP4 PUSH1 0x6 DUP2 SWAP1 SSTORE POP DUP3 PUSH1 0x7 DUP2 SWAP1 SSTORE POP DUP2 PUSH1 0xB PUSH1 0x0 PUSH2 0x100 EXP DUP2 SLOAD DUP2 PUSH20 0xFFFFFFFFFFFFFFFFFFFFFFFFFFFFFFFFFFFFFFFF MUL NOT AND SWAP1 DUP4 PUSH20 0xFFFFFFFFFFFFFFFFFFFFFFFFFFFFFFFFFFFFFFFF AND MUL OR SWAP1 SSTORE POP DUP1 PUSH1 0xA PUSH1 0x0 PUSH2 0x100 EXP DUP2 SLOAD DUP2 PUSH20 0xFFFFFFFFFFFFFFFFFFFFFFFFFFFFFFFFFFFFFFFF MUL NOT AND SWAP1 DUP4 PUSH20 0xFFFFFFFFFFFFFFFFFFFFFFFFFFFFFFFFFFFFFFFF AND MUL OR SWAP1 SSTORE POP CALLVALUE PUSH1 0x2 DUP2 SWAP1 SSTORE POP DUP5 PUSH1 0x3 DUP2 SWAP1 SSTORE POP PUSH1 0x0 PUSH1 0x2 SLOAD GT PUSH2 0x1395 JUMPI PUSH1 0x40 MLOAD PUSH32 0x8C379A000000000000000000000000000000000000000000000000000000000 DUP2 MSTORE PUSH1 0x4 ADD PUSH2 0x138C SWAP1 PUSH2 0x2C31 JUMP JUMPDEST PUSH1 0x40 MLOAD DUP1 SWAP2 SUB SWAP1 REVERT JUMPDEST PUSH1 0x0 PUSH1 0x3 SLOAD GT PUSH2 0x13DA JUMPI PUSH1 0x40 MLOAD PUSH32 0x8C379A000000000000000000000000000000000000000000000000000000000 DUP2 MSTORE PUSH1 0x4 ADD PUSH2 0x13D1 SWAP1 PUSH2 0x2CC3 JUMP JUMPDEST PUSH1 0x40 MLOAD DUP1 SWAP2 SUB SWAP1 REVERT JUMPDEST PUSH1 0x3 SLOAD PUSH1 0x2 SLOAD PUSH2 0x13EA SWAP2 SWAP1 PUSH2 0x1DA8 JUMP JUMPDEST PUSH1 0x1 DUP2 SWAP1 SSTORE POP PUSH1 0x0 PUSH1 0xB PUSH1 0x0 SWAP1 SLOAD SWAP1 PUSH2 0x100 EXP SWAP1 DIV PUSH20 0xFFFFFFFFFFFFFFFFFFFFFFFFFFFFFFFFFFFFFFFF AND SWAP1 POP DUP1 PUSH20 0xFFFFFFFFFFFFFFFFFFFFFFFFFFFFFFFFFFFFFFFF AND PUSH4 0x23B872DD CALLER ADDRESS PUSH1 0x3 SLOAD PUSH1 0x40 MLOAD DUP5 PUSH4 0xFFFFFFFF AND PUSH1 0xE0 SHL DUP2 MSTORE PUSH1 0x4 ADD PUSH2 0x1456 SWAP4 SWAP3 SWAP2 SWAP1 PUSH2 0x2CE3 JUMP JUMPDEST PUSH1 0x20 PUSH1 0x40 MLOAD DUP1 DUP4 SUB DUP2 PUSH1 0x0 DUP8 GAS CALL ISZERO DUP1 ISZERO PUSH2 0x1475 JUMPI RETURNDATASIZE PUSH1 0x0 DUP1 RETURNDATACOPY RETURNDATASIZE PUSH1 0x0 REVERT JUMPDEST POP POP POP POP PUSH1 0x40 MLOAD RETURNDATASIZE PUSH1 0x1F NOT PUSH1 0x1F DUP3 ADD AND DUP3 ADD DUP1 PUSH1 0x40 MSTORE POP DUP2 ADD SWAP1 PUSH2 0x1499 SWAP2 SWAP1 PUSH2 0x2032 JUMP JUMPDEST PUSH2 0x14D8 JUMPI PUSH1 0x40 MLOAD PUSH32 0x8C379A000000000000000000000000000000000000000000000000000000000 DUP2 MSTORE PUSH1 0x4 ADD PUSH2 0x14CF SWAP1 PUSH2 0x2D8C JUMP JUMPDEST PUSH1 0x40 MLOAD DUP1 SWAP2 SUB SWAP1 REVERT JUMPDEST PUSH1 0x2 SLOAD PUSH1 0x4 PUSH1 0x0 CALLER PUSH20 0xFFFFFFFFFFFFFFFFFFFFFFFFFFFFFFFFFFFFFFFF AND PUSH20 0xFFFFFFFFFFFFFFFFFFFFFFFFFFFFFFFFFFFFFFFF AND DUP2 MSTORE PUSH1 0x20 ADD SWAP1 DUP2 MSTORE PUSH1 0x20 ADD PUSH1 0x0 KECCAK256 DUP2 SWAP1 SSTORE POP PUSH1 0x3 SLOAD PUSH1 0x5 PUSH1 0x0 CALLER PUSH20 0xFFFFFFFFFFFFFFFFFFFFFFFFFFFFFFFFFFFFFFFF AND PUSH20 0xFFFFFFFFFFFFFFFFFFFFFFFFFFFFFFFFFFFFFFFF AND DUP2 MSTORE PUSH1 0x20 ADD SWAP1 DUP2 MSTORE PUSH1 0x20 ADD PUSH1 0x0 KECCAK256 DUP2 SWAP1 SSTORE POP PUSH1 0x1 PUSH1 0x0 PUSH1 0x1 PUSH2 0x100 EXP DUP2 SLOAD DUP2 PUSH1 0xFF MUL NOT AND SWAP1 DUP4 ISZERO ISZERO MUL OR SWAP1 SSTORE POP PUSH1 0x1 PUSH1 0x0 DUP1 PUSH2 0x100 EXP DUP2 SLOAD DUP2 PUSH1 0xFF MUL NOT AND SWAP1 DUP4 ISZERO ISZERO MUL OR SWAP1 SSTORE POP PUSH32 0x8866993F7C029BE4215942B34C1545282B8F28836579F2687FE96A5A6BF77704 PUSH1 0x40 MLOAD PUSH1 0x40 MLOAD DUP1 SWAP2 SUB SWAP1 LOG1 POP POP POP POP POP POP JUMP JUMPDEST PUSH1 0x1 SLOAD DUP2 JUMP JUMPDEST PUSH1 0x0 DUP1 PUSH1 0xA PUSH1 0x0 SWAP1 SLOAD SWAP1 PUSH2 0x100 EXP SWAP1 DIV PUSH20 0xFFFFFFFFFFFFFFFFFFFFFFFFFFFFFFFFFFFFFFFF AND SWAP1 POP PUSH1 0x0 DUP2 PUSH20 0xFFFFFFFFFFFFFFFFFFFFFFFFFFFFFFFFFFFFFFFF AND PUSH4 0xA035B1FE PUSH1 0x40 MLOAD DUP2 PUSH4 0xFFFFFFFF AND PUSH1 0xE0 SHL DUP2 MSTORE PUSH1 0x4 ADD PUSH1 0x20 PUSH1 0x40 MLOAD DUP1 DUP4 SUB DUP2 DUP7 GAS STATICCALL ISZERO DUP1 ISZERO PUSH2 0x1648 JUMPI RETURNDATASIZE PUSH1 0x0 DUP1 RETURNDATACOPY RETURNDATASIZE PUSH1 0x0 REVERT JUMPDEST POP POP POP POP PUSH1 0x40 MLOAD RETURNDATASIZE PUSH1 0x1F NOT PUSH1 0x1F DUP3 ADD AND DUP3 ADD DUP1 PUSH1 0x40 MSTORE POP DUP2 ADD SWAP1 PUSH2 0x166C SWAP2 SWAP1 PUSH2 0x2527 JUMP JUMPDEST SWAP1 POP DUP1 PUSH1 0x3 SLOAD PUSH1 0x2 SLOAD PUSH2 0x167F SWAP2 SWAP1 PUSH2 0x1E62 JUMP JUMPDEST PUSH2 0x1689 SWAP2 SWAP1 PUSH2 0x1DA8 JUMP JUMPDEST SWAP3 POP POP POP SWAP1 JUMP JUMPDEST PUSH1 0x0 DUP1 ISZERO ISZERO PUSH1 0x0 DUP1 SLOAD SWAP1 PUSH2 0x100 EXP SWAP1 DIV PUSH1 0xFF AND ISZERO ISZERO SUB PUSH2 0x16B3 JUMPI PUSH1 0x1 SWAP1 POP PUSH2 0x1981 JUMP JUMPDEST PUSH1 0x0 DUP3 SWAP1 POP PUSH1 0x0 PUSH1 0xB PUSH1 0x0 SWAP1 SLOAD SWAP1 PUSH2 0x100 EXP SWAP1 DIV PUSH20 0xFFFFFFFFFFFFFFFFFFFFFFFFFFFFFFFFFFFFFFFF AND SWAP1 POP PUSH1 0x0 DUP5 GT PUSH2 0x1722 JUMPI PUSH1 0x40 MLOAD PUSH32 0x8C379A000000000000000000000000000000000000000000000000000000000 DUP2 MSTORE PUSH1 0x4 ADD PUSH2 0x1719 SWAP1 PUSH2 0x2C31 JUMP JUMPDEST PUSH1 0x40 MLOAD DUP1 SWAP2 SUB SWAP1 REVERT JUMPDEST DUP1 PUSH20 0xFFFFFFFFFFFFFFFFFFFFFFFFFFFFFFFFFFFFFFFF AND PUSH4 0x23B872DD DUP7 ADDRESS DUP8 PUSH1 0x40 MLOAD DUP5 PUSH4 0xFFFFFFFF AND PUSH1 0xE0 SHL DUP2 MSTORE PUSH1 0x4 ADD PUSH2 0x175F SWAP4 SWAP3 SWAP2 SWAP1 PUSH2 0x2CE3 JUMP JUMPDEST PUSH1 0x20 PUSH1 0x40 MLOAD DUP1 DUP4 SUB DUP2 PUSH1 0x0 DUP8 GAS CALL ISZERO DUP1 ISZERO PUSH2 0x177E JUMPI RETURNDATASIZE PUSH1 0x0 DUP1 RETURNDATACOPY RETURNDATASIZE PUSH1 0x0 REVERT JUMPDEST POP POP POP POP PUSH1 0x40 MLOAD RETURNDATASIZE PUSH1 0x1F NOT PUSH1 0x1F DUP3 ADD AND DUP3 ADD DUP1 PUSH1 0x40 MSTORE POP DUP2 ADD SWAP1 PUSH2 0x17A2 SWAP2 SWAP1 PUSH2 0x2032 JUMP JUMPDEST PUSH2 0x17E1 JUMPI PUSH1 0x40 MLOAD PUSH32 0x8C379A000000000000000000000000000000000000000000000000000000000 DUP2 MSTORE PUSH1 0x4 ADD PUSH2 0x17D8 SWAP1 PUSH2 0x2E44 JUMP JUMPDEST PUSH1 0x40 MLOAD DUP1 SWAP2 SUB SWAP1 REVERT JUMPDEST PUSH1 0x0 PUSH1 0x3 SLOAD PUSH1 0x2 SLOAD DUP5 PUSH2 0x17F4 SWAP2 SWAP1 PUSH2 0x1DA8 JUMP JUMPDEST PUSH2 0x17FE SWAP2 SWAP1 PUSH2 0x1E31 JUMP JUMPDEST SWAP1 POP DUP1 PUSH1 0x2 PUSH1 0x0 DUP3 DUP3 SLOAD PUSH2 0x1812 SWAP2 SWAP1 PUSH2 0x1E62 JUMP JUMPDEST SWAP3 POP POP DUP2 SWAP1 SSTORE POP DUP3 PUSH1 0x3 PUSH1 0x0 DUP3 DUP3 SLOAD PUSH2 0x182B SWAP2 SWAP1 PUSH2 0x1E96 JUMP JUMPDEST SWAP3 POP POP DUP2 SWAP1 SSTORE POP PUSH1 0x1 SLOAD PUSH1 0x3 SLOAD PUSH1 0x2 SLOAD PUSH2 0x1845 SWAP2 SWAP1 PUSH2 0x1DA8 JUMP JUMPDEST EQ PUSH2 0x1885 JUMPI PUSH1 0x40 MLOAD PUSH32 0x8C379A000000000000000000000000000000000000000000000000000000000 DUP2 MSTORE PUSH1 0x4 ADD PUSH2 0x187C SWAP1 PUSH2 0x2ED6 JUMP JUMPDEST PUSH1 0x40 MLOAD DUP1 SWAP2 SUB SWAP1 REVERT JUMPDEST PUSH1 0x0 PUSH1 0x7 SLOAD PUSH1 0x6 SLOAD DUP4 PUSH2 0x1898 SWAP2 SWAP1 PUSH2 0x1DA8 JUMP JUMPDEST PUSH2 0x18A2 SWAP2 SWAP1 PUSH2 0x1E31 JUMP JUMPDEST SWAP1 POP DUP1 DUP3 PUSH2 0x18B0 SWAP2 SWAP1 PUSH2 0x1E96 JUMP JUMPDEST SWAP2 POP DUP1 PUSH1 0x8 PUSH1 0x0 DUP3 DUP3 SLOAD PUSH2 0x18C4 SWAP2 SWAP1 PUSH2 0x1E62 JUMP JUMPDEST SWAP3 POP POP DUP2 SWAP1 SSTORE POP PUSH1 0x0 DUP8 PUSH20 0xFFFFFFFFFFFFFFFFFFFFFFFFFFFFFFFFFFFFFFFF AND DUP4 PUSH1 0x40 MLOAD PUSH2 0x18F1 SWAP1 PUSH2 0x2988 JUMP JUMPDEST PUSH1 0x0 PUSH1 0x40 MLOAD DUP1 DUP4 SUB DUP2 DUP6 DUP8 GAS CALL SWAP3 POP POP POP RETURNDATASIZE DUP1 PUSH1 0x0 DUP2 EQ PUSH2 0x192E JUMPI PUSH1 0x40 MLOAD SWAP2 POP PUSH1 0x1F NOT PUSH1 0x3F RETURNDATASIZE ADD AND DUP3 ADD PUSH1 0x40 MSTORE RETURNDATASIZE DUP3 MSTORE RETURNDATASIZE PUSH1 0x0 PUSH1 0x20 DUP5 ADD RETURNDATACOPY PUSH2 0x1933 JUMP JUMPDEST PUSH1 0x60 SWAP2 POP JUMPDEST POP POP SWAP1 POP DUP1 PUSH2 0x1977 JUMPI PUSH1 0x40 MLOAD PUSH32 0x8C379A000000000000000000000000000000000000000000000000000000000 DUP2 MSTORE PUSH1 0x4 ADD PUSH2 0x196E SWAP1 PUSH2 0x2F68 JUMP JUMPDEST PUSH1 0x40 MLOAD DUP1 SWAP2 SUB SWAP1 REVERT JUMPDEST PUSH1 0x1 SWAP6 POP POP POP POP POP POP JUMPDEST SWAP3 SWAP2 POP POP JUMP JUMPDEST PUSH1 0x0 DUP1 PUSH1 0xA PUSH1 0x0 SWAP1 SLOAD SWAP1 PUSH2 0x100 EXP SWAP1 DIV PUSH20 0xFFFFFFFFFFFFFFFFFFFFFFFFFFFFFFFFFFFFFFFF AND SWAP1 POP DUP1 PUSH20 0xFFFFFFFFFFFFFFFFFFFFFFFFFFFFFFFFFFFFFFFF AND PUSH4 0xA035B1FE PUSH1 0x40 MLOAD DUP2 PUSH4 0xFFFFFFFF AND PUSH1 0xE0 SHL DUP2 MSTORE PUSH1 0x4 ADD PUSH1 0x20 PUSH1 0x40 MLOAD DUP1 DUP4 SUB DUP2 DUP7 GAS STATICCALL ISZERO DUP1 ISZERO PUSH2 0x19FA JUMPI RETURNDATASIZE PUSH1 0x0 DUP1 RETURNDATACOPY RETURNDATASIZE PUSH1 0x0 REVERT JUMPDEST POP POP POP POP PUSH1 0x40 MLOAD RETURNDATASIZE PUSH1 0x1F NOT PUSH1 0x1F DUP3 ADD AND DUP3 ADD DUP1 PUSH1 0x40 MSTORE POP DUP2 ADD SWAP1 PUSH2 0x1A1E SWAP2 SWAP1 PUSH2 0x2527 JUMP JUMPDEST SWAP2 POP POP SWAP1 JUMP JUMPDEST PUSH1 0x4 PUSH1 0x20 MSTORE DUP1 PUSH1 0x0 MSTORE PUSH1 0x40 PUSH1 0x0 KECCAK256 PUSH1 0x0 SWAP2 POP SWAP1 POP SLOAD DUP2 JUMP JUMPDEST PUSH1 0x0 DUP1 PUSH1 0x0 PUSH2 0x100 EXP DUP2 SLOAD DUP2 PUSH1 0xFF MUL NOT AND SWAP1 DUP4 ISZERO ISZERO MUL OR SWAP1 SSTORE POP PUSH1 0x0 CALLVALUE SWAP1 POP PUSH1 0x0 DUP2 GT PUSH2 0x1A9E JUMPI PUSH1 0x40 MLOAD PUSH32 0x8C379A000000000000000000000000000000000000000000000000000000000 DUP2 MSTORE PUSH1 0x4 ADD PUSH2 0x1A95 SWAP1 PUSH2 0x2FFA JUMP JUMPDEST PUSH1 0x40 MLOAD DUP1 SWAP2 SUB SWAP1 REVERT JUMPDEST PUSH1 0x0 PUSH1 0x2 SLOAD PUSH1 0x3 SLOAD DUP4 PUSH2 0x1AB1 SWAP2 SWAP1 PUSH2 0x1DA8 JUMP JUMPDEST PUSH2 0x1ABB SWAP2 SWAP1 PUSH2 0x1E31 JUMP JUMPDEST SWAP1 POP PUSH1 0x0 DUP2 GT PUSH2 0x1B00 JUMPI PUSH1 0x40 MLOAD PUSH32 0x8C379A000000000000000000000000000000000000000000000000000000000 DUP2 MSTORE PUSH1 0x4 ADD PUSH2 0x1AF7 SWAP1 PUSH2 0x308C JUMP JUMPDEST PUSH1 0x40 MLOAD DUP1 SWAP2 SUB SWAP1 REVERT JUMPDEST PUSH1 0x0 PUSH1 0xB PUSH1 0x0 SWAP1 SLOAD SWAP1 PUSH2 0x100 EXP SWAP1 DIV PUSH20 0xFFFFFFFFFFFFFFFFFFFFFFFFFFFFFFFFFFFFFFFF AND SWAP1 POP DUP1 PUSH20 0xFFFFFFFFFFFFFFFFFFFFFFFFFFFFFFFFFFFFFFFF AND PUSH4 0x23B872DD CALLER ADDRESS DUP6 PUSH1 0x40 MLOAD DUP5 PUSH4 0xFFFFFFFF AND PUSH1 0xE0 SHL DUP2 MSTORE PUSH1 0x4 ADD PUSH2 0x1B64 SWAP4 SWAP3 SWAP2 SWAP1 PUSH2 0x2CE3 JUMP JUMPDEST PUSH1 0x20 PUSH1 0x40 MLOAD DUP1 DUP4 SUB DUP2 PUSH1 0x0 DUP8 GAS CALL ISZERO DUP1 ISZERO PUSH2 0x1B83 JUMPI RETURNDATASIZE PUSH1 0x0 DUP1 RETURNDATACOPY RETURNDATASIZE PUSH1 0x0 REVERT JUMPDEST POP POP POP POP PUSH1 0x40 MLOAD RETURNDATASIZE PUSH1 0x1F NOT PUSH1 0x1F DUP3 ADD AND DUP3 ADD DUP1 PUSH1 0x40 MSTORE POP DUP2 ADD SWAP1 PUSH2 0x1BA7 SWAP2 SWAP1 PUSH2 0x2032 JUMP JUMPDEST PUSH2 0x1BE6 JUMPI PUSH1 0x40 MLOAD PUSH32 0x8C379A000000000000000000000000000000000000000000000000000000000 DUP2 MSTORE PUSH1 0x4 ADD PUSH2 0x1BDD SWAP1 PUSH2 0x3144 JUMP JUMPDEST PUSH1 0x40 MLOAD DUP1 SWAP2 SUB SWAP1 REVERT JUMPDEST DUP3 PUSH1 0x2 PUSH1 0x0 DUP3 DUP3 SLOAD PUSH2 0x1BF8 SWAP2 SWAP1 PUSH2 0x1E62 JUMP JUMPDEST SWAP3 POP POP DUP2 SWAP1 SSTORE POP DUP2 PUSH1 0x3 PUSH1 0x0 DUP3 DUP3 SLOAD PUSH2 0x1C11 SWAP2 SWAP1 PUSH2 0x1E62 JUMP JUMPDEST SWAP3 POP POP DUP2 SWAP1 SSTORE POP PUSH1 0x3 SLOAD PUSH1 0x2 SLOAD PUSH2 0x1C28 SWAP2 SWAP1 PUSH2 0x1DA8 JUMP JUMPDEST PUSH1 0x1 DUP2 SWAP1 SSTORE POP DUP3 PUSH1 0x4 PUSH1 0x0 CALLER PUSH20 0xFFFFFFFFFFFFFFFFFFFFFFFFFFFFFFFFFFFFFFFF AND PUSH20 0xFFFFFFFFFFFFFFFFFFFFFFFFFFFFFFFFFFFFFFFF AND DUP2 MSTORE PUSH1 0x20 ADD SWAP1 DUP2 MSTORE PUSH1 0x20 ADD PUSH1 0x0 KECCAK256 PUSH1 0x0 DUP3 DUP3 SLOAD PUSH2 0x1C7D SWAP2 SWAP1 PUSH2 0x1E62 JUMP JUMPDEST SWAP3 POP POP DUP2 SWAP1 SSTORE POP DUP2 PUSH1 0x5 PUSH1 0x0 CALLER PUSH20 0xFFFFFFFFFFFFFFFFFFFFFFFFFFFFFFFFFFFFFFFF AND PUSH20 0xFFFFFFFFFFFFFFFFFFFFFFFFFFFFFFFFFFFFFFFF AND DUP2 MSTORE PUSH1 0x20 ADD SWAP1 DUP2 MSTORE PUSH1 0x20 ADD PUSH1 0x0 KECCAK256 PUSH1 0x0 DUP3 DUP3 SLOAD PUSH2 0x1CD3 SWAP2 SWAP1 PUSH2 0x1E62 JUMP JUMPDEST SWAP3 POP POP DUP2 SWAP1 SSTORE POP PUSH1 0x1 PUSH1 0x0 DUP1 PUSH2 0x100 EXP DUP2 SLOAD DUP2 PUSH1 0xFF MUL NOT AND SWAP1 DUP4 ISZERO ISZERO MUL OR SWAP1 SSTORE POP PUSH32 0x8866993F7C029BE4215942B34C1545282B8F28836579F2687FE96A5A6BF77704 PUSH1 0x40 MLOAD PUSH1 0x40 MLOAD DUP1 SWAP2 SUB SWAP1 LOG1 POP POP POP JUMP JUMPDEST PUSH1 0x6 SLOAD DUP2 JUMP JUMPDEST DUP1 PUSH1 0xA PUSH1 0x0 PUSH2 0x100 EXP DUP2 SLOAD DUP2 PUSH20 0xFFFFFFFFFFFFFFFFFFFFFFFFFFFFFFFFFFFFFFFF MUL NOT AND SWAP1 DUP4 PUSH20 0xFFFFFFFFFFFFFFFFFFFFFFFFFFFFFFFFFFFFFFFF AND MUL OR SWAP1 SSTORE POP POP JUMP JUMPDEST PUSH1 0x0 DUP2 SWAP1 POP SWAP2 SWAP1 POP JUMP JUMPDEST PUSH32 0x4E487B7100000000000000000000000000000000000000000000000000000000 PUSH1 0x0 MSTORE PUSH1 0x11 PUSH1 0x4 MSTORE PUSH1 0x24 PUSH1 0x0 REVERT JUMPDEST PUSH1 0x0 PUSH2 0x1DB3 DUP3 PUSH2 0x1D6F JUMP JUMPDEST SWAP2 POP PUSH2 0x1DBE DUP4 PUSH2 0x1D6F JUMP JUMPDEST SWAP3 POP DUP2 PUSH32 0xFFFFFFFFFFFFFFFFFFFFFFFFFFFFFFFFFFFFFFFFFFFFFFFFFFFFFFFFFFFFFFFF DIV DUP4 GT DUP3 ISZERO ISZERO AND ISZERO PUSH2 0x1DF7 JUMPI PUSH2 0x1DF6 PUSH2 0x1D79 JUMP JUMPDEST JUMPDEST DUP3 DUP3 MUL SWAP1 POP SWAP3 SWAP2 POP POP JUMP JUMPDEST PUSH32 0x4E487B7100000000000000000000000000000000000000000000000000000000 PUSH1 0x0 MSTORE PUSH1 0x12 PUSH1 0x4 MSTORE PUSH1 0x24 PUSH1 0x0 REVERT JUMPDEST PUSH1 0x0 PUSH2 0x1E3C DUP3 PUSH2 0x1D6F JUMP JUMPDEST SWAP2 POP PUSH2 0x1E47 DUP4 PUSH2 0x1D6F JUMP JUMPDEST SWAP3 POP DUP3 PUSH2 0x1E57 JUMPI PUSH2 0x1E56 PUSH2 0x1E02 JUMP JUMPDEST JUMPDEST DUP3 DUP3 DIV SWAP1 POP SWAP3 SWAP2 POP POP JUMP JUMPDEST PUSH1 0x0 PUSH2 0x1E6D DUP3 PUSH2 0x1D6F JUMP JUMPDEST SWAP2 POP PUSH2 0x1E78 DUP4 PUSH2 0x1D6F JUMP JUMPDEST SWAP3 POP DUP3 DUP3 ADD SWAP1 POP DUP1 DUP3 GT ISZERO PUSH2 0x1E90 JUMPI PUSH2 0x1E8F PUSH2 0x1D79 JUMP JUMPDEST JUMPDEST SWAP3 SWAP2 POP POP JUMP JUMPDEST PUSH1 0x0 PUSH2 0x1EA1 DUP3 PUSH2 0x1D6F JUMP JUMPDEST SWAP2 POP PUSH2 0x1EAC DUP4 PUSH2 0x1D6F JUMP JUMPDEST SWAP3 POP DUP3 DUP3 SUB SWAP1 POP DUP2 DUP2 GT ISZERO PUSH2 0x1EC4 JUMPI PUSH2 0x1EC3 PUSH2 0x1D79 JUMP JUMPDEST JUMPDEST SWAP3 SWAP2 POP POP JUMP JUMPDEST PUSH1 0x0 DUP3 DUP3 MSTORE PUSH1 0x20 DUP3 ADD SWAP1 POP SWAP3 SWAP2 POP POP JUMP JUMPDEST PUSH32 0x496E646966666572656E636520637572766520776173206E6F74206D61696E74 PUSH1 0x0 DUP3 ADD MSTORE PUSH32 0x61696E656421202D207265636569766528290000000000000000000000000000 PUSH1 0x20 DUP3 ADD MSTORE POP JUMP JUMPDEST PUSH1 0x0 PUSH2 0x1F37 PUSH1 0x32 DUP4 PUSH2 0x1ECA JUMP JUMPDEST SWAP2 POP PUSH2 0x1F42 DUP3 PUSH2 0x1EDB JUMP JUMPDEST PUSH1 0x40 DUP3 ADD SWAP1 POP SWAP2 SWAP1 POP JUMP JUMPDEST PUSH1 0x0 PUSH1 0x20 DUP3 ADD SWAP1 POP DUP2 DUP2 SUB PUSH1 0x0 DUP4 ADD MSTORE PUSH2 0x1F66 DUP2 PUSH2 0x1F2A JUMP JUMPDEST SWAP1 POP SWAP2 SWAP1 POP JUMP JUMPDEST PUSH1 0x0 PUSH20 0xFFFFFFFFFFFFFFFFFFFFFFFFFFFFFFFFFFFFFFFF DUP3 AND SWAP1 POP SWAP2 SWAP1 POP JUMP JUMPDEST PUSH1 0x0 PUSH2 0x1F98 DUP3 PUSH2 0x1F6D JUMP JUMPDEST SWAP1 POP SWAP2 SWAP1 POP JUMP JUMPDEST PUSH2 0x1FA8 DUP2 PUSH2 0x1F8D JUMP JUMPDEST DUP3 MSTORE POP POP JUMP JUMPDEST PUSH2 0x1FB7 DUP2 PUSH2 0x1D6F JUMP JUMPDEST DUP3 MSTORE POP POP JUMP JUMPDEST PUSH1 0x0 PUSH1 0x40 DUP3 ADD SWAP1 POP PUSH2 0x1FD2 PUSH1 0x0 DUP4 ADD DUP6 PUSH2 0x1F9F JUMP JUMPDEST PUSH2 0x1FDF PUSH1 0x20 DUP4 ADD DUP5 PUSH2 0x1FAE JUMP JUMPDEST SWAP4 SWAP3 POP POP POP JUMP JUMPDEST PUSH1 0x0 PUSH1 0x40 MLOAD SWAP1 POP SWAP1 JUMP JUMPDEST PUSH1 0x0 DUP1 REVERT JUMPDEST PUSH1 0x0 DUP1 REVERT JUMPDEST PUSH1 0x0 DUP2 ISZERO ISZERO SWAP1 POP SWAP2 SWAP1 POP JUMP JUMPDEST PUSH2 0x200F DUP2 PUSH2 0x1FFA JUMP JUMPDEST DUP2 EQ PUSH2 0x201A JUMPI PUSH1 0x0 DUP1 REVERT JUMPDEST POP JUMP JUMPDEST PUSH1 0x0 DUP2 MLOAD SWAP1 POP PUSH2 0x202C DUP2 PUSH2 0x2006 JUMP JUMPDEST SWAP3 SWAP2 POP POP JUMP JUMPDEST PUSH1 0x0 PUSH1 0x20 DUP3 DUP5 SUB SLT ISZERO PUSH2 0x2048 JUMPI PUSH2 0x2047 PUSH2 0x1FF0 JUMP JUMPDEST JUMPDEST PUSH1 0x0 PUSH2 0x2056 DUP5 DUP3 DUP6 ADD PUSH2 0x201D JUMP JUMPDEST SWAP2 POP POP SWAP3 SWAP2 POP POP JUMP JUMPDEST PUSH32 0x547279696E6720746F20617070726F76652072657475726E206F6620746F6B65 PUSH1 0x0 DUP3 ADD MSTORE PUSH32 0x6E202D2062757420726576657274656400000000000000000000000000000000 PUSH1 0x20 DUP3 ADD MSTORE POP JUMP JUMPDEST PUSH1 0x0 PUSH2 0x20BB PUSH1 0x30 DUP4 PUSH2 0x1ECA JUMP JUMPDEST SWAP2 POP PUSH2 0x20C6 DUP3 PUSH2 0x205F JUMP JUMPDEST PUSH1 0x40 DUP3 ADD SWAP1 POP SWAP2 SWAP1 POP JUMP JUMPDEST PUSH1 0x0 PUSH1 0x20 DUP3 ADD SWAP1 POP DUP2 DUP2 SUB PUSH1 0x0 DUP4 ADD MSTORE PUSH2 0x20EA DUP2 PUSH2 0x20AE JUMP JUMPDEST SWAP1 POP SWAP2 SWAP1 POP JUMP JUMPDEST PUSH1 0x0 PUSH32 0xFFFFFFFF00000000000000000000000000000000000000000000000000000000 DUP3 AND SWAP1 POP SWAP2 SWAP1 POP JUMP JUMPDEST PUSH2 0x2126 DUP2 PUSH2 0x20F1 JUMP JUMPDEST DUP2 EQ PUSH2 0x2131 JUMPI PUSH1 0x0 DUP1 REVERT JUMPDEST POP JUMP JUMPDEST PUSH1 0x0 DUP2 CALLDATALOAD SWAP1 POP PUSH2 0x2143 DUP2 PUSH2 0x211D JUMP JUMPDEST SWAP3 SWAP2 POP POP JUMP JUMPDEST PUSH1 0x0 PUSH1 0x20 DUP3 DUP5 SUB SLT ISZERO PUSH2 0x215F JUMPI PUSH2 0x215E PUSH2 0x1FF0 JUMP JUMPDEST JUMPDEST PUSH1 0x0 PUSH2 0x216D DUP5 DUP3 DUP6 ADD PUSH2 0x2134 JUMP JUMPDEST SWAP2 POP POP SWAP3 SWAP2 POP POP JUMP JUMPDEST PUSH2 0x217F DUP2 PUSH2 0x1FFA JUMP JUMPDEST DUP3 MSTORE POP POP JUMP JUMPDEST PUSH1 0x0 PUSH1 0x20 DUP3 ADD SWAP1 POP PUSH2 0x219A PUSH1 0x0 DUP4 ADD DUP5 PUSH2 0x2176 JUMP JUMPDEST SWAP3 SWAP2 POP POP JUMP JUMPDEST PUSH1 0x0 PUSH1 0x20 DUP3 ADD SWAP1 POP PUSH2 0x21B5 PUSH1 0x0 DUP4 ADD DUP5 PUSH2 0x1FAE JUMP JUMPDEST SWAP3 SWAP2 POP POP JUMP JUMPDEST PUSH1 0x0 PUSH1 0x20 DUP3 ADD SWAP1 POP PUSH2 0x21D0 PUSH1 0x0 DUP4 ADD DUP5 PUSH2 0x1F9F JUMP JUMPDEST SWAP3 SWAP2 POP POP JUMP JUMPDEST PUSH2 0x21DF DUP2 PUSH2 0x1F8D JUMP JUMPDEST DUP2 EQ PUSH2 0x21EA JUMPI PUSH1 0x0 DUP1 REVERT JUMPDEST POP JUMP JUMPDEST PUSH1 0x0 DUP2 CALLDATALOAD SWAP1 POP PUSH2 0x21FC DUP2 PUSH2 0x21D6 JUMP JUMPDEST SWAP3 SWAP2 POP POP JUMP JUMPDEST PUSH1 0x0 PUSH1 0x20 DUP3 DUP5 SUB SLT ISZERO PUSH2 0x2218 JUMPI PUSH2 0x2217 PUSH2 0x1FF0 JUMP JUMPDEST JUMPDEST PUSH1 0x0 PUSH2 0x2226 DUP5 DUP3 DUP6 ADD PUSH2 0x21ED JUMP JUMPDEST SWAP2 POP POP SWAP3 SWAP2 POP POP JUMP JUMPDEST PUSH1 0x0 DUP2 MLOAD SWAP1 POP SWAP2 SWAP1 POP JUMP JUMPDEST PUSH1 0x0 JUMPDEST DUP4 DUP2 LT ISZERO PUSH2 0x2258 JUMPI DUP1 DUP3 ADD MLOAD DUP2 DUP5 ADD MSTORE PUSH1 0x20 DUP2 ADD SWAP1 POP PUSH2 0x223D JUMP JUMPDEST PUSH1 0x0 DUP5 DUP5 ADD MSTORE POP POP POP POP JUMP JUMPDEST PUSH1 0x0 PUSH1 0x1F NOT PUSH1 0x1F DUP4 ADD AND SWAP1 POP SWAP2 SWAP1 POP JUMP JUMPDEST PUSH1 0x0 PUSH2 0x2280 DUP3 PUSH2 0x222F JUMP JUMPDEST PUSH2 0x228A DUP2 DUP6 PUSH2 0x1ECA JUMP JUMPDEST SWAP4 POP PUSH2 0x229A DUP2 DUP6 PUSH1 0x20 DUP7 ADD PUSH2 0x223A JUMP JUMPDEST PUSH2 0x22A3 DUP2 PUSH2 0x2264 JUMP JUMPDEST DUP5 ADD SWAP2 POP POP SWAP3 SWAP2 POP POP JUMP JUMPDEST PUSH1 0x0 PUSH1 0x20 DUP3 ADD SWAP1 POP DUP2 DUP2 SUB PUSH1 0x0 DUP4 ADD MSTORE PUSH2 0x22C8 DUP2 DUP5 PUSH2 0x2275 JUMP JUMPDEST SWAP1 POP SWAP3 SWAP2 POP POP JUMP JUMPDEST PUSH2 0x22D9 DUP2 PUSH2 0x1D6F JUMP JUMPDEST DUP2 EQ PUSH2 0x22E4 JUMPI PUSH1 0x0 DUP1 REVERT JUMPDEST POP JUMP JUMPDEST PUSH1 0x0 DUP2 CALLDATALOAD SWAP1 POP PUSH2 0x22F6 DUP2 PUSH2 0x22D0 JUMP JUMPDEST SWAP3 SWAP2 POP POP JUMP JUMPDEST PUSH1 0x0 PUSH1 0x20 DUP3 DUP5 SUB SLT ISZERO PUSH2 0x2312 JUMPI PUSH2 0x2311 PUSH2 0x1FF0 JUMP JUMPDEST JUMPDEST PUSH1 0x0 PUSH2 0x2320 DUP5 DUP3 DUP6 ADD PUSH2 0x22E7 JUMP JUMPDEST SWAP2 POP POP SWAP3 SWAP2 POP POP JUMP JUMPDEST PUSH1 0x0 PUSH2 0x180 DUP3 ADD SWAP1 POP PUSH2 0x233F PUSH1 0x0 DUP4 ADD DUP16 PUSH2 0x1F9F JUMP JUMPDEST DUP2 DUP2 SUB PUSH1 0x20 DUP4 ADD MSTORE PUSH2 0x2351 DUP2 DUP15 PUSH2 0x2275 JUMP JUMPDEST SWAP1 POP DUP2 DUP2 SUB PUSH1 0x40 DUP4 ADD MSTORE PUSH2 0x2365 DUP2 DUP14 PUSH2 0x2275 JUMP JUMPDEST SWAP1 POP PUSH2 0x2374 PUSH1 0x60 DUP4 ADD DUP13 PUSH2 0x1F9F JUMP JUMPDEST PUSH2 0x2381 PUSH1 0x80 DUP4 ADD DUP12 PUSH2 0x1FAE JUMP JUMPDEST PUSH2 0x238E PUSH1 0xA0 DUP4 ADD DUP11 PUSH2 0x1FAE JUMP JUMPDEST PUSH2 0x239B PUSH1 0xC0 DUP4 ADD DUP10 PUSH2 0x1FAE JUMP JUMPDEST PUSH2 0x23A8 PUSH1 0xE0 DUP4 ADD DUP9 PUSH2 0x1FAE JUMP JUMPDEST PUSH2 0x23B6 PUSH2 0x100 DUP4 ADD DUP8 PUSH2 0x1FAE JUMP JUMPDEST PUSH2 0x23C4 PUSH2 0x120 DUP4 ADD DUP7 PUSH2 0x1FAE JUMP JUMPDEST PUSH2 0x23D2 PUSH2 0x140 DUP4 ADD DUP6 PUSH2 0x1FAE JUMP JUMPDEST PUSH2 0x23E0 PUSH2 0x160 DUP4 ADD DUP5 PUSH2 0x1FAE JUMP JUMPDEST SWAP14 SWAP13 POP POP POP POP POP POP POP POP POP POP POP POP POP JUMP JUMPDEST PUSH1 0x0 DUP1 PUSH1 0x0 DUP1 PUSH1 0x0 PUSH1 0xA0 DUP7 DUP9 SUB SLT ISZERO PUSH2 0x240D JUMPI PUSH2 0x240C PUSH2 0x1FF0 JUMP JUMPDEST JUMPDEST PUSH1 0x0 PUSH2 0x241B DUP9 DUP3 DUP10 ADD PUSH2 0x22E7 JUMP JUMPDEST SWAP6 POP POP PUSH1 0x20 PUSH2 0x242C DUP9 DUP3 DUP10 ADD PUSH2 0x22E7 JUMP JUMPDEST SWAP5 POP POP PUSH1 0x40 PUSH2 0x243D DUP9 DUP3 DUP10 ADD PUSH2 0x22E7 JUMP JUMPDEST SWAP4 POP POP PUSH1 0x60 PUSH2 0x244E DUP9 DUP3 DUP10 ADD PUSH2 0x21ED JUMP JUMPDEST SWAP3 POP POP PUSH1 0x80 PUSH2 0x245F DUP9 DUP3 DUP10 ADD PUSH2 0x21ED JUMP JUMPDEST SWAP2 POP POP SWAP3 SWAP6 POP SWAP3 SWAP6 SWAP1 SWAP4 POP JUMP JUMPDEST PUSH1 0x0 DUP1 PUSH1 0x40 DUP4 DUP6 SUB SLT ISZERO PUSH2 0x2483 JUMPI PUSH2 0x2482 PUSH2 0x1FF0 JUMP JUMPDEST JUMPDEST PUSH1 0x0 PUSH2 0x2491 DUP6 DUP3 DUP7 ADD PUSH2 0x21ED JUMP JUMPDEST SWAP3 POP POP PUSH1 0x20 PUSH2 0x24A2 DUP6 DUP3 DUP7 ADD PUSH2 0x22E7 JUMP JUMPDEST SWAP2 POP POP SWAP3 POP SWAP3 SWAP1 POP JUMP JUMPDEST PUSH1 0x0 PUSH1 0xFF DUP3 AND SWAP1 POP SWAP2 SWAP1 POP JUMP JUMPDEST PUSH2 0x24C2 DUP2 PUSH2 0x24AC JUMP JUMPDEST DUP2 EQ PUSH2 0x24CD JUMPI PUSH1 0x0 DUP1 REVERT JUMPDEST POP JUMP JUMPDEST PUSH1 0x0 DUP2 MLOAD SWAP1 POP PUSH2 0x24DF DUP2 PUSH2 0x24B9 JUMP JUMPDEST SWAP3 SWAP2 POP POP JUMP JUMPDEST PUSH1 0x0 PUSH1 0x20 DUP3 DUP5 SUB SLT ISZERO PUSH2 0x24FB JUMPI PUSH2 0x24FA PUSH2 0x1FF0 JUMP JUMPDEST JUMPDEST PUSH1 0x0 PUSH2 0x2509 DUP5 DUP3 DUP6 ADD PUSH2 0x24D0 JUMP JUMPDEST SWAP2 POP POP SWAP3 SWAP2 POP POP JUMP JUMPDEST PUSH1 0x0 DUP2 MLOAD SWAP1 POP PUSH2 0x2521 DUP2 PUSH2 0x22D0 JUMP JUMPDEST SWAP3 SWAP2 POP POP JUMP JUMPDEST PUSH1 0x0 PUSH1 0x20 DUP3 DUP5 SUB SLT ISZERO PUSH2 0x253D JUMPI PUSH2 0x253C PUSH2 0x1FF0 JUMP JUMPDEST JUMPDEST PUSH1 0x0 PUSH2 0x254B DUP5 DUP3 DUP6 ADD PUSH2 0x2512 JUMP JUMPDEST SWAP2 POP POP SWAP3 SWAP2 POP POP JUMP JUMPDEST PUSH1 0x0 DUP1 REVERT JUMPDEST PUSH1 0x0 DUP1 REVERT JUMPDEST PUSH32 0x4E487B7100000000000000000000000000000000000000000000000000000000 PUSH1 0x0 MSTORE PUSH1 0x41 PUSH1 0x4 MSTORE PUSH1 0x24 PUSH1 0x0 REVERT JUMPDEST PUSH2 0x2596 DUP3 PUSH2 0x2264 JUMP JUMPDEST DUP2 ADD DUP2 DUP2 LT PUSH8 0xFFFFFFFFFFFFFFFF DUP3 GT OR ISZERO PUSH2 0x25B5 JUMPI PUSH2 0x25B4 PUSH2 0x255E JUMP JUMPDEST JUMPDEST DUP1 PUSH1 0x40 MSTORE POP POP POP JUMP JUMPDEST PUSH1 0x0 PUSH2 0x25C8 PUSH2 0x1FE6 JUMP JUMPDEST SWAP1 POP PUSH2 0x25D4 DUP3 DUP3 PUSH2 0x258D JUMP JUMPDEST SWAP2 SWAP1 POP JUMP JUMPDEST PUSH1 0x0 PUSH8 0xFFFFFFFFFFFFFFFF DUP3 GT ISZERO PUSH2 0x25F4 JUMPI PUSH2 0x25F3 PUSH2 0x255E JUMP JUMPDEST JUMPDEST PUSH2 0x25FD DUP3 PUSH2 0x2264 JUMP JUMPDEST SWAP1 POP PUSH1 0x20 DUP2 ADD SWAP1 POP SWAP2 SWAP1 POP JUMP JUMPDEST PUSH1 0x0 PUSH2 0x261D PUSH2 0x2618 DUP5 PUSH2 0x25D9 JUMP JUMPDEST PUSH2 0x25BE JUMP JUMPDEST SWAP1 POP DUP3 DUP2 MSTORE PUSH1 0x20 DUP2 ADD DUP5 DUP5 DUP5 ADD GT ISZERO PUSH2 0x2639 JUMPI PUSH2 0x2638 PUSH2 0x2559 JUMP JUMPDEST JUMPDEST PUSH2 0x2644 DUP5 DUP3 DUP6 PUSH2 0x223A JUMP JUMPDEST POP SWAP4 SWAP3 POP POP POP JUMP JUMPDEST PUSH1 0x0 DUP3 PUSH1 0x1F DUP4 ADD SLT PUSH2 0x2661 JUMPI PUSH2 0x2660 PUSH2 0x2554 JUMP JUMPDEST JUMPDEST DUP2 MLOAD PUSH2 0x2671 DUP5 DUP3 PUSH1 0x20 DUP7 ADD PUSH2 0x260A JUMP JUMPDEST SWAP2 POP POP SWAP3 SWAP2 POP POP JUMP JUMPDEST PUSH1 0x0 PUSH1 0x20 DUP3 DUP5 SUB SLT ISZERO PUSH2 0x2690 JUMPI PUSH2 0x268F PUSH2 0x1FF0 JUMP JUMPDEST JUMPDEST PUSH1 0x0 DUP3 ADD MLOAD PUSH8 0xFFFFFFFFFFFFFFFF DUP2 GT ISZERO PUSH2 0x26AE JUMPI PUSH2 0x26AD PUSH2 0x1FF5 JUMP JUMPDEST JUMPDEST PUSH2 0x26BA DUP5 DUP3 DUP6 ADD PUSH2 0x264C JUMP JUMPDEST SWAP2 POP POP SWAP3 SWAP2 POP POP JUMP JUMPDEST PUSH32 0x73656E64657220617474656D7074696E6720746F207769746864726177206D6F PUSH1 0x0 DUP3 ADD MSTORE PUSH32 0x7265206C6971756964697479207468616E207468657920686176652028457468 PUSH1 0x20 DUP3 ADD MSTORE PUSH32 0x2900000000000000000000000000000000000000000000000000000000000000 PUSH1 0x40 DUP3 ADD MSTORE POP JUMP JUMPDEST PUSH1 0x0 PUSH2 0x2745 PUSH1 0x41 DUP4 PUSH2 0x1ECA JUMP JUMPDEST SWAP2 POP PUSH2 0x2750 DUP3 PUSH2 0x26C3 JUMP JUMPDEST PUSH1 0x60 DUP3 ADD SWAP1 POP SWAP2 SWAP1 POP JUMP JUMPDEST PUSH1 0x0 PUSH1 0x20 DUP3 ADD SWAP1 POP DUP2 DUP2 SUB PUSH1 0x0 DUP4 ADD MSTORE PUSH2 0x2774 DUP2 PUSH2 0x2738 JUMP JUMPDEST SWAP1 POP SWAP2 SWAP1 POP JUMP JUMPDEST PUSH32 0x63616E6E6F7420776974686472617720616C6C206C6971756964697479202845 PUSH1 0x0 DUP3 ADD MSTORE PUSH32 0x7468290000000000000000000000000000000000000000000000000000000000 PUSH1 0x20 DUP3 ADD MSTORE POP JUMP JUMPDEST PUSH1 0x0 PUSH2 0x27D7 PUSH1 0x23 DUP4 PUSH2 0x1ECA JUMP JUMPDEST SWAP2 POP PUSH2 0x27E2 DUP3 PUSH2 0x277B JUMP JUMPDEST PUSH1 0x40 DUP3 ADD SWAP1 POP SWAP2 SWAP1 POP JUMP JUMPDEST PUSH1 0x0 PUSH1 0x20 DUP3 ADD SWAP1 POP DUP2 DUP2 SUB PUSH1 0x0 DUP4 ADD MSTORE PUSH2 0x2806 DUP2 PUSH2 0x27CA JUMP JUMPDEST SWAP1 POP SWAP2 SWAP1 POP JUMP JUMPDEST PUSH32 0x73656E64657220617474656D7074696E6720746F207769746864726177206D6F PUSH1 0x0 DUP3 ADD MSTORE PUSH32 0x7265206C6971756964697479207468616E207468657920686176652028546F6B PUSH1 0x20 DUP3 ADD MSTORE PUSH32 0x656E290000000000000000000000000000000000000000000000000000000000 PUSH1 0x40 DUP3 ADD MSTORE POP JUMP JUMPDEST PUSH1 0x0 PUSH2 0x288F PUSH1 0x43 DUP4 PUSH2 0x1ECA JUMP JUMPDEST SWAP2 POP PUSH2 0x289A DUP3 PUSH2 0x280D JUMP JUMPDEST PUSH1 0x60 DUP3 ADD SWAP1 POP SWAP2 SWAP1 POP JUMP JUMPDEST PUSH1 0x0 PUSH1 0x20 DUP3 ADD SWAP1 POP DUP2 DUP2 SUB PUSH1 0x0 DUP4 ADD MSTORE PUSH2 0x28BE DUP2 PUSH2 0x2882 JUMP JUMPDEST SWAP1 POP SWAP2 SWAP1 POP JUMP JUMPDEST PUSH32 0x63616E6E6F7420776974686472617720616C6C206C6971756964697479202854 PUSH1 0x0 DUP3 ADD MSTORE PUSH32 0x6F6B656E29000000000000000000000000000000000000000000000000000000 PUSH1 0x20 DUP3 ADD MSTORE POP JUMP JUMPDEST PUSH1 0x0 PUSH2 0x2921 PUSH1 0x25 DUP4 PUSH2 0x1ECA JUMP JUMPDEST SWAP2 POP PUSH2 0x292C DUP3 PUSH2 0x28C5 JUMP JUMPDEST PUSH1 0x40 DUP3 ADD SWAP1 POP SWAP2 SWAP1 POP JUMP JUMPDEST PUSH1 0x0 PUSH1 0x20 DUP3 ADD SWAP1 POP DUP2 DUP2 SUB PUSH1 0x0 DUP4 ADD MSTORE PUSH2 0x2950 DUP2 PUSH2 0x2914 JUMP JUMPDEST SWAP1 POP SWAP2 SWAP1 POP JUMP JUMPDEST PUSH1 0x0 DUP2 SWAP1 POP SWAP3 SWAP2 POP POP JUMP JUMPDEST POP JUMP JUMPDEST PUSH1 0x0 PUSH2 0x2972 PUSH1 0x0 DUP4 PUSH2 0x2957 JUMP JUMPDEST SWAP2 POP PUSH2 0x297D DUP3 PUSH2 0x2962 JUMP JUMPDEST PUSH1 0x0 DUP3 ADD SWAP1 POP SWAP2 SWAP1 POP JUMP JUMPDEST PUSH1 0x0 PUSH2 0x2993 DUP3 PUSH2 0x2965 JUMP JUMPDEST SWAP2 POP DUP2 SWAP1 POP SWAP2 SWAP1 POP JUMP JUMPDEST PUSH32 0x72656D6F7665206C6971756964697479202D20657468207061796D656E742064 PUSH1 0x0 DUP3 ADD MSTORE PUSH32 0x69646E277420776F726B00000000000000000000000000000000000000000000 PUSH1 0x20 DUP3 ADD MSTORE POP JUMP JUMPDEST PUSH1 0x0 PUSH2 0x29F9 PUSH1 0x2A DUP4 PUSH2 0x1ECA JUMP JUMPDEST SWAP2 POP PUSH2 0x2A04 DUP3 PUSH2 0x299D JUMP JUMPDEST PUSH1 0x40 DUP3 ADD SWAP1 POP SWAP2 SWAP1 POP JUMP JUMPDEST PUSH1 0x0 PUSH1 0x20 DUP3 ADD SWAP1 POP DUP2 DUP2 SUB PUSH1 0x0 DUP4 ADD MSTORE PUSH2 0x2A28 DUP2 PUSH2 0x29EC JUMP JUMPDEST SWAP1 POP SWAP2 SWAP1 POP JUMP JUMPDEST PUSH32 0x43616E206F6E6C792063616C6C2063726561746520706F6F6C206F6E63652100 PUSH1 0x0 DUP3 ADD MSTORE POP JUMP JUMPDEST PUSH1 0x0 PUSH2 0x2A65 PUSH1 0x1F DUP4 PUSH2 0x1ECA JUMP JUMPDEST SWAP2 POP PUSH2 0x2A70 DUP3 PUSH2 0x2A2F JUMP JUMPDEST PUSH1 0x20 DUP3 ADD SWAP1 POP SWAP2 SWAP1 POP JUMP JUMPDEST PUSH1 0x0 PUSH1 0x20 DUP3 ADD SWAP1 POP DUP2 DUP2 SUB PUSH1 0x0 DUP4 ADD MSTORE PUSH2 0x2A94 DUP2 PUSH2 0x2A58 JUMP JUMPDEST SWAP1 POP SWAP2 SWAP1 POP JUMP JUMPDEST PUSH32 0x4F6E6C792074686520636F6E7472616374206465706C6F7965722063616E2063 PUSH1 0x0 DUP3 ADD MSTORE PUSH32 0x616C6C20746869732066756E6374696F6E2E0000000000000000000000000000 PUSH1 0x20 DUP3 ADD MSTORE POP JUMP JUMPDEST PUSH1 0x0 PUSH2 0x2AF7 PUSH1 0x32 DUP4 PUSH2 0x1ECA JUMP JUMPDEST SWAP2 POP PUSH2 0x2B02 DUP3 PUSH2 0x2A9B JUMP JUMPDEST PUSH1 0x40 DUP3 ADD SWAP1 POP SWAP2 SWAP1 POP JUMP JUMPDEST PUSH1 0x0 PUSH1 0x20 DUP3 ADD SWAP1 POP DUP2 DUP2 SUB PUSH1 0x0 DUP4 ADD MSTORE PUSH2 0x2B26 DUP2 PUSH2 0x2AEA JUMP JUMPDEST SWAP1 POP SWAP2 SWAP1 POP JUMP JUMPDEST PUSH32 0x43616E6E6F74206368617267652066656573206F662031303025206F72206869 PUSH1 0x0 DUP3 ADD MSTORE PUSH32 0x6768657200000000000000000000000000000000000000000000000000000000 PUSH1 0x20 DUP3 ADD MSTORE POP JUMP JUMPDEST PUSH1 0x0 PUSH2 0x2B89 PUSH1 0x24 DUP4 PUSH2 0x1ECA JUMP JUMPDEST SWAP2 POP PUSH2 0x2B94 DUP3 PUSH2 0x2B2D JUMP JUMPDEST PUSH1 0x40 DUP3 ADD SWAP1 POP SWAP2 SWAP1 POP JUMP JUMPDEST PUSH1 0x0 PUSH1 0x20 DUP3 ADD SWAP1 POP DUP2 DUP2 SUB PUSH1 0x0 DUP4 ADD MSTORE PUSH2 0x2BB8 DUP2 PUSH2 0x2B7C JUMP JUMPDEST SWAP1 POP SWAP2 SWAP1 POP JUMP JUMPDEST PUSH32 0x4D757374206465706F73697420706F73746976652065746820666F72206C6971 PUSH1 0x0 DUP3 ADD MSTORE PUSH32 0x7569646974790000000000000000000000000000000000000000000000000000 PUSH1 0x20 DUP3 ADD MSTORE POP JUMP JUMPDEST PUSH1 0x0 PUSH2 0x2C1B PUSH1 0x26 DUP4 PUSH2 0x1ECA JUMP JUMPDEST SWAP2 POP PUSH2 0x2C26 DUP3 PUSH2 0x2BBF JUMP JUMPDEST PUSH1 0x40 DUP3 ADD SWAP1 POP SWAP2 SWAP1 POP JUMP JUMPDEST PUSH1 0x0 PUSH1 0x20 DUP3 ADD SWAP1 POP DUP2 DUP2 SUB PUSH1 0x0 DUP4 ADD MSTORE PUSH2 0x2C4A DUP2 PUSH2 0x2C0E JUMP JUMPDEST SWAP1 POP SWAP2 SWAP1 POP JUMP JUMPDEST PUSH32 0x4D757374206465706F73697420706F736974766520746F6B656E20666F72206C PUSH1 0x0 DUP3 ADD MSTORE PUSH32 0x6971756964697479000000000000000000000000000000000000000000000000 PUSH1 0x20 DUP3 ADD MSTORE POP JUMP JUMPDEST PUSH1 0x0 PUSH2 0x2CAD PUSH1 0x28 DUP4 PUSH2 0x1ECA JUMP JUMPDEST SWAP2 POP PUSH2 0x2CB8 DUP3 PUSH2 0x2C51 JUMP JUMPDEST PUSH1 0x40 DUP3 ADD SWAP1 POP SWAP2 SWAP1 POP JUMP JUMPDEST PUSH1 0x0 PUSH1 0x20 DUP3 ADD SWAP1 POP DUP2 DUP2 SUB PUSH1 0x0 DUP4 ADD MSTORE PUSH2 0x2CDC DUP2 PUSH2 0x2CA0 JUMP JUMPDEST SWAP1 POP SWAP2 SWAP1 POP JUMP JUMPDEST PUSH1 0x0 PUSH1 0x60 DUP3 ADD SWAP1 POP PUSH2 0x2CF8 PUSH1 0x0 DUP4 ADD DUP7 PUSH2 0x1F9F JUMP JUMPDEST PUSH2 0x2D05 PUSH1 0x20 DUP4 ADD DUP6 PUSH2 0x1F9F JUMP JUMPDEST PUSH2 0x2D12 PUSH1 0x40 DUP4 ADD DUP5 PUSH2 0x1FAE JUMP JUMPDEST SWAP5 SWAP4 POP POP POP POP JUMP JUMPDEST PUSH32 0x7472616E7366657246726F6D207265766572746564202D206469642073656E64 PUSH1 0x0 DUP3 ADD MSTORE PUSH32 0x65722063616C6C20617070726F766528293F0000000000000000000000000000 PUSH1 0x20 DUP3 ADD MSTORE POP JUMP JUMPDEST PUSH1 0x0 PUSH2 0x2D76 PUSH1 0x32 DUP4 PUSH2 0x1ECA JUMP JUMPDEST SWAP2 POP PUSH2 0x2D81 DUP3 PUSH2 0x2D1A JUMP JUMPDEST PUSH1 0x40 DUP3 ADD SWAP1 POP SWAP2 SWAP1 POP JUMP JUMPDEST PUSH1 0x0 PUSH1 0x20 DUP3 ADD SWAP1 POP DUP2 DUP2 SUB PUSH1 0x0 DUP4 ADD MSTORE PUSH2 0x2DA5 DUP2 PUSH2 0x2D69 JUMP JUMPDEST SWAP1 POP SWAP2 SWAP1 POP JUMP JUMPDEST PUSH32 0x7472616E7366657246726F6D207265766572746564202D206469642073656E64 PUSH1 0x0 DUP3 ADD MSTORE PUSH32 0x65722063616C6C20617070726F766528293F20466F7220636F72726563742061 PUSH1 0x20 DUP3 ADD MSTORE PUSH32 0x6D6F756E743F0000000000000000000000000000000000000000000000000000 PUSH1 0x40 DUP3 ADD MSTORE POP JUMP JUMPDEST PUSH1 0x0 PUSH2 0x2E2E PUSH1 0x46 DUP4 PUSH2 0x1ECA JUMP JUMPDEST SWAP2 POP PUSH2 0x2E39 DUP3 PUSH2 0x2DAC JUMP JUMPDEST PUSH1 0x60 DUP3 ADD SWAP1 POP SWAP2 SWAP1 POP JUMP JUMPDEST PUSH1 0x0 PUSH1 0x20 DUP3 ADD SWAP1 POP DUP2 DUP2 SUB PUSH1 0x0 DUP4 ADD MSTORE PUSH2 0x2E5D DUP2 PUSH2 0x2E21 JUMP JUMPDEST SWAP1 POP SWAP2 SWAP1 POP JUMP JUMPDEST PUSH32 0x496E646966666572656E636520637572766520776173206E6F74206D61696E74 PUSH1 0x0 DUP3 ADD MSTORE PUSH32 0x61696E656421202D206F6E455243323052656365697665642829000000000000 PUSH1 0x20 DUP3 ADD MSTORE POP JUMP JUMPDEST PUSH1 0x0 PUSH2 0x2EC0 PUSH1 0x3A DUP4 PUSH2 0x1ECA JUMP JUMPDEST SWAP2 POP PUSH2 0x2ECB DUP3 PUSH2 0x2E64 JUMP JUMPDEST PUSH1 0x40 DUP3 ADD SWAP1 POP SWAP2 SWAP1 POP JUMP JUMPDEST PUSH1 0x0 PUSH1 0x20 DUP3 ADD SWAP1 POP DUP2 DUP2 SUB PUSH1 0x0 DUP4 ADD MSTORE PUSH2 0x2EEF DUP2 PUSH2 0x2EB3 JUMP JUMPDEST SWAP1 POP SWAP2 SWAP1 POP JUMP JUMPDEST PUSH32 0x6F6E45524332305265636569766564202D20657468207061796D656E74206469 PUSH1 0x0 DUP3 ADD MSTORE PUSH32 0x646E277420776F726B0000000000000000000000000000000000000000000000 PUSH1 0x20 DUP3 ADD MSTORE POP JUMP JUMPDEST PUSH1 0x0 PUSH2 0x2F52 PUSH1 0x29 DUP4 PUSH2 0x1ECA JUMP JUMPDEST SWAP2 POP PUSH2 0x2F5D DUP3 PUSH2 0x2EF6 JUMP JUMPDEST PUSH1 0x40 DUP3 ADD SWAP1 POP SWAP2 SWAP1 POP JUMP JUMPDEST PUSH1 0x0 PUSH1 0x20 DUP3 ADD SWAP1 POP DUP2 DUP2 SUB PUSH1 0x0 DUP4 ADD MSTORE PUSH2 0x2F81 DUP2 PUSH2 0x2F45 JUMP JUMPDEST SWAP1 POP SWAP2 SWAP1 POP JUMP JUMPDEST PUSH32 0x4D7573742068617665206164646564206120706F73697469766520616D6F756E PUSH1 0x0 DUP3 ADD MSTORE PUSH32 0x74206F6620657468206C69717569646974790000000000000000000000000000 PUSH1 0x20 DUP3 ADD MSTORE POP JUMP JUMPDEST PUSH1 0x0 PUSH2 0x2FE4 PUSH1 0x32 DUP4 PUSH2 0x1ECA JUMP JUMPDEST SWAP2 POP PUSH2 0x2FEF DUP3 PUSH2 0x2F88 JUMP JUMPDEST PUSH1 0x40 DUP3 ADD SWAP1 POP SWAP2 SWAP1 POP JUMP JUMPDEST PUSH1 0x0 PUSH1 0x20 DUP3 ADD SWAP1 POP DUP2 DUP2 SUB PUSH1 0x0 DUP4 ADD MSTORE PUSH2 0x3013 DUP2 PUSH2 0x2FD7 JUMP JUMPDEST SWAP1 POP SWAP2 SWAP1 POP JUMP JUMPDEST PUSH32 0x6C69717569746964792062616C656E63696E6720636F6D7075746174696F6E20 PUSH1 0x0 DUP3 ADD MSTORE PUSH32 0x697320696E636F72726563740000000000000000000000000000000000000000 PUSH1 0x20 DUP3 ADD MSTORE POP JUMP JUMPDEST PUSH1 0x0 PUSH2 0x3076 PUSH1 0x2C DUP4 PUSH2 0x1ECA JUMP JUMPDEST SWAP2 POP PUSH2 0x3081 DUP3 PUSH2 0x301A JUMP JUMPDEST PUSH1 0x40 DUP3 ADD SWAP1 POP SWAP2 SWAP1 POP JUMP JUMPDEST PUSH1 0x0 PUSH1 0x20 DUP3 ADD SWAP1 POP DUP2 DUP2 SUB PUSH1 0x0 DUP4 ADD MSTORE PUSH2 0x30A5 DUP2 PUSH2 0x3069 JUMP JUMPDEST SWAP1 POP SWAP2 SWAP1 POP JUMP JUMPDEST PUSH32 0x7472616E7366657246726F6D207265766572746564202D206469642073656E64 PUSH1 0x0 DUP3 ADD MSTORE PUSH32 0x65722063616C6C20617070726F766528293F207769746820617070726F707269 PUSH1 0x20 DUP3 ADD MSTORE PUSH32 0x61746520616D6F756E743F000000000000000000000000000000000000000000 PUSH1 0x40 DUP3 ADD MSTORE POP JUMP JUMPDEST PUSH1 0x0 PUSH2 0x312E PUSH1 0x4B DUP4 PUSH2 0x1ECA JUMP JUMPDEST SWAP2 POP PUSH2 0x3139 DUP3 PUSH2 0x30AC JUMP JUMPDEST PUSH1 0x60 DUP3 ADD SWAP1 POP SWAP2 SWAP1 POP JUMP JUMPDEST PUSH1 0x0 PUSH1 0x20 DUP3 ADD SWAP1 POP DUP2 DUP2 SUB PUSH1 0x0 DUP4 ADD MSTORE PUSH2 0x315D DUP2 PUSH2 0x3121 JUMP JUMPDEST SWAP1 POP SWAP2 SWAP1 POP JUMP INVALID LOG2 PUSH5 0x6970667358 0x22 SLT KECCAK256 POP COINBASE 0x22 PUSH28 0xF2ECAD9F3DB5670493D31EB48F2CEDAC2111E34761A09342E53E7272 PUSH5 0x736F6C6343 STOP ADDMOD LT STOP CALLER "
		},
		"gasEstimates": {
			"creation": {
				"codeDepositCost": "1475400",
				"executionCost": "infinite",
				"totalCost": "infinite"
			},
			"external": {
				"dex()": "infinite",
				"tc()": "infinite",
				"test()": "infinite"
			}
		},
		"methodIdentifiers": {
			"dex()": "692058c2",
			"tc()": "f6420e15",
			"test()": "f8a8fd6d"
		}
	},
	"abi": [
		{
			"inputs": [],
			"stateMutability": "nonpayable",
			"type": "constructor"
		},
		{
			"inputs": [],
			"name": "dex",
			"outputs": [
				{
					"internalType": "contract DEX",
					"name": "",
					"type": "address"
				}
			],
			"stateMutability": "view",
			"type": "function"
		},
		{
			"inputs": [],
			"name": "tc",
			"outputs": [
				{
					"internalType": "contract TokenCC",
					"name": "",
					"type": "address"
				}
			],
			"stateMutability": "view",
			"type": "function"
		},
		{
			"inputs": [],
			"name": "test",
			"outputs": [],
			"stateMutability": "payable",
			"type": "function"
		},
		{
			"stateMutability": "payable",
			"type": "receive"
		}
	]
}