{
	"data": {
		"bytecode": {
			"linkReferences": {},
			"object": "60806040523480156200001157600080fd5b50620000586040518060400160405280600681526020017f5275737369610000000000000000000000000000000000000000000000000000815250620000a460201b60201c565b6200009e6040518060400160405280600781526020017f556b7261696e6500000000000000000000000000000000000000000000000000815250620000a460201b60201c565b6200052f565b604051806060016040528060025481526020018281526020016000815250600160006002548152602001908152602001600020600082015181600001556020820151816001019081620000f89190620003cc565b50604082015181600201559050506002547f8c289382d6fd42a02a06e885da5a69cb0f21294bbfc7acc91d5cf3ced61ca0c460405160405180910390a2600260008154809291906200014a90620004e2565b919050555050565b600081519050919050565b7f4e487b7100000000000000000000000000000000000000000000000000000000600052604160045260246000fd5b7f4e487b7100000000000000000000000000000000000000000000000000000000600052602260045260246000fd5b60006002820490506001821680620001d457607f821691505b602082108103620001ea57620001e96200018c565b5b50919050565b60008190508160005260206000209050919050565b60006020601f8301049050919050565b600082821b905092915050565b600060088302620002547fffffffffffffffffffffffffffffffffffffffffffffffffffffffffffffffff8262000215565b62000260868362000215565b95508019841693508086168417925050509392505050565b6000819050919050565b6000819050919050565b6000620002ad620002a7620002a18462000278565b62000282565b62000278565b9050919050565b6000819050919050565b620002c9836200028c565b620002e1620002d882620002b4565b84845462000222565b825550505050565b600090565b620002f8620002e9565b62000305818484620002be565b505050565b5b818110156200032d5762000321600082620002ee565b6001810190506200030b565b5050565b601f8211156200037c576200034681620001f0565b620003518462000205565b8101602085101562000361578190505b62000379620003708562000205565b8301826200030a565b50505b505050565b600082821c905092915050565b6000620003a16000198460080262000381565b1980831691505092915050565b6000620003bc83836200038e565b9150826002028217905092915050565b620003d78262000152565b67ffffffffffffffff811115620003f357620003f26200015d565b5b620003ff8254620001bb565b6200040c82828562000331565b600060209050601f8311600181146200044457600084156200042f578287015190505b6200043b8582620003ae565b865550620004ab565b601f1984166200045486620001f0565b60005b828110156200047e5784890151825560018201915060208501945060208101905062000457565b868310156200049e57848901516200049a601f8916826200038e565b8355505b6001600288020188555050505b505050505050565b7f4e487b7100000000000000000000000000000000000000000000000000000000600052601160045260246000fd5b6000620004ef8262000278565b91507fffffffffffffffffffffffffffffffffffffffffffffffffffffffffffffffff8203620005245762000523620004b3565b5b600182019050919050565b610fc1806200053f6000396000f3fe608060405234801561001057600080fd5b50600436106100885760003560e01c806370740aab1161005b57806370740aab14610113578063aec2ccae14610131578063dc899a0714610161578063f6fd7fde1461017f57610088565b80630121b93f1461008d57806301ffc9a7146100a9578063251760b7146100d95780635fa520bb146100f7575b600080fd5b6100a760048036038101906100a291906106c6565b6101af565b005b6100c360048036038101906100be919061074b565b61033f565b6040516100d09190610793565b60405180910390f35b6100e16103d9565b6040516100ee91906107bd565b60405180910390f35b610111600480360381019061010c919061091e565b6103df565b005b61011b610489565b60405161012891906109e6565b60405180910390f35b61014b60048036038101906101469190610a66565b6104c2565b6040516101589190610793565b60405180910390f35b6101696104e2565b60405161017691906109e6565b60405180910390f35b610199600480360381019061019491906106c6565b610588565b6040516101a69190610b3c565b60405180910390f35b6000803373ffffffffffffffffffffffffffffffffffffffff1673ffffffffffffffffffffffffffffffffffffffff16815260200190815260200160002060009054906101000a900460ff161561023b576040517f08c379a000000000000000000000000000000000000000000000000000000000815260040161023290610baa565b60405180910390fd5b6000811015801561024d575060025481105b61028c576040517f08c379a000000000000000000000000000000000000000000000000000000000815260040161028390610c16565b60405180910390fd5b60016000803373ffffffffffffffffffffffffffffffffffffffff1673ffffffffffffffffffffffffffffffffffffffff16815260200190815260200160002060006101000a81548160ff02191690831515021790555060016000828152602001908152602001600020600201600081548092919061030a90610c65565b9190505550807ffff3c900d938d21d0990d786e819f29b8d05c1ef587b462b939609625b684b1660405160405180910390a250565b60007f5227894f000000000000000000000000000000000000000000000000000000007bffffffffffffffffffffffffffffffffffffffffffffffffffffffff1916827bffffffffffffffffffffffffffffffffffffffffffffffffffffffff191614806103d257506301ffc9a760e01b827bffffffffffffffffffffffffffffffffffffffffffffffffffffffff1916145b9050919050565b60025481565b6040518060600160405280600254815260200182815260200160008152506001600060025481526020019081526020016000206000820151816000015560208201518160010190816104319190610eb9565b50604082015181600201559050506002547f8c289382d6fd42a02a06e885da5a69cb0f21294bbfc7acc91d5cf3ced61ca0c460405160405180910390a26002600081548092919061048190610c65565b919050555050565b6040518060400160405280601281526020017f527573736961206f7220556b7261696e653f000000000000000000000000000081525081565b60006020528060005260406000206000915054906101000a900460ff1681565b606060016000808152602001908152602001600020600101805461050590610cdc565b80601f016020809104026020016040519081016040528092919081815260200182805461053190610cdc565b801561057e5780601f106105535761010080835404028352916020019161057e565b820191906000526020600020905b81548152906001019060200180831161056157829003601f168201915b5050505050905090565b61059061065b565b60016000838152602001908152602001600020604051806060016040529081600082015481526020016001820180546105c890610cdc565b80601f01602080910402602001604051908101604052809291908181526020018280546105f490610cdc565b80156106415780601f1061061657610100808354040283529160200191610641565b820191906000526020600020905b81548152906001019060200180831161062457829003601f168201915b505050505081526020016002820154815250509050919050565b60405180606001604052806000815260200160608152602001600081525090565b6000604051905090565b600080fd5b600080fd5b6000819050919050565b6106a381610690565b81146106ae57600080fd5b50565b6000813590506106c08161069a565b92915050565b6000602082840312156106dc576106db610686565b5b60006106ea848285016106b1565b91505092915050565b60007fffffffff0000000000000000000000000000000000000000000000000000000082169050919050565b610728816106f3565b811461073357600080fd5b50565b6000813590506107458161071f565b92915050565b60006020828403121561076157610760610686565b5b600061076f84828501610736565b91505092915050565b60008115159050919050565b61078d81610778565b82525050565b60006020820190506107a86000830184610784565b92915050565b6107b781610690565b82525050565b60006020820190506107d260008301846107ae565b92915050565b600080fd5b600080fd5b6000601f19601f8301169050919050565b7f4e487b7100000000000000000000000000000000000000000000000000000000600052604160045260246000fd5b61082b826107e2565b810181811067ffffffffffffffff8211171561084a576108496107f3565b5b80604052505050565b600061085d61067c565b90506108698282610822565b919050565b600067ffffffffffffffff821115610889576108886107f3565b5b610892826107e2565b9050602081019050919050565b82818337600083830152505050565b60006108c16108bc8461086e565b610853565b9050828152602081018484840111156108dd576108dc6107dd565b5b6108e884828561089f565b509392505050565b600082601f830112610905576109046107d8565b5b81356109158482602086016108ae565b91505092915050565b60006020828403121561093457610933610686565b5b600082013567ffffffffffffffff8111156109525761095161068b565b5b61095e848285016108f0565b91505092915050565b600081519050919050565b600082825260208201905092915050565b60005b838110156109a1578082015181840152602081019050610986565b60008484015250505050565b60006109b882610967565b6109c28185610972565b93506109d2818560208601610983565b6109db816107e2565b840191505092915050565b60006020820190508181036000830152610a0081846109ad565b905092915050565b600073ffffffffffffffffffffffffffffffffffffffff82169050919050565b6000610a3382610a08565b9050919050565b610a4381610a28565b8114610a4e57600080fd5b50565b600081359050610a6081610a3a565b92915050565b600060208284031215610a7c57610a7b610686565b5b6000610a8a84828501610a51565b91505092915050565b610a9c81610690565b82525050565b600082825260208201905092915050565b6000610abe82610967565b610ac88185610aa2565b9350610ad8818560208601610983565b610ae1816107e2565b840191505092915050565b6000606083016000830151610b046000860182610a93565b5060208301518482036020860152610b1c8282610ab3565b9150506040830151610b316040860182610a93565b508091505092915050565b60006020820190508181036000830152610b568184610aec565b905092915050565b7f73656e6465722068617320616c726561647920766f7465640000000000000000600082015250565b6000610b94601883610972565b9150610b9f82610b5e565b602082019050919050565b60006020820190508181036000830152610bc381610b87565b9050919050565b7f696e76616c696420766f74652073656c656374696f6e00000000000000000000600082015250565b6000610c00601683610972565b9150610c0b82610bca565b602082019050919050565b60006020820190508181036000830152610c2f81610bf3565b9050919050565b7f4e487b7100000000000000000000000000000000000000000000000000000000600052601160045260246000fd5b6000610c7082610690565b91507fffffffffffffffffffffffffffffffffffffffffffffffffffffffffffffffff8203610ca257610ca1610c36565b5b600182019050919050565b7f4e487b7100000000000000000000000000000000000000000000000000000000600052602260045260246000fd5b60006002820490506001821680610cf457607f821691505b602082108103610d0757610d06610cad565b5b50919050565b60008190508160005260206000209050919050565b60006020601f8301049050919050565b600082821b905092915050565b600060088302610d6f7fffffffffffffffffffffffffffffffffffffffffffffffffffffffffffffffff82610d32565b610d798683610d32565b95508019841693508086168417925050509392505050565b6000819050919050565b6000610db6610db1610dac84610690565b610d91565b610690565b9050919050565b6000819050919050565b610dd083610d9b565b610de4610ddc82610dbd565b848454610d3f565b825550505050565b600090565b610df9610dec565b610e04818484610dc7565b505050565b5b81811015610e2857610e1d600082610df1565b600181019050610e0a565b5050565b601f821115610e6d57610e3e81610d0d565b610e4784610d22565b81016020851015610e56578190505b610e6a610e6285610d22565b830182610e09565b50505b505050565b600082821c905092915050565b6000610e9060001984600802610e72565b1980831691505092915050565b6000610ea98383610e7f565b9150826002028217905092915050565b610ec282610967565b67ffffffffffffffff811115610edb57610eda6107f3565b5b610ee58254610cdc565b610ef0828285610e2c565b600060209050601f831160018114610f235760008415610f11578287015190505b610f1b8582610e9d565b865550610f83565b601f198416610f3186610d0d565b60005b82811015610f5957848901518255600182019150602085019450602081019050610f34565b86831015610f765784890151610f72601f891682610e7f565b8355505b6001600288020188555050505b50505050505056fea2646970667358221220a091275edd3640800e93776250ee3b5f98d55828ca74a5a952774773a1b4081064736f6c63430008110033",
			"opcodes": "PUSH1 0x80 PUSH1 0x40 MSTORE CALLVALUE DUP1 ISZERO PUSH3 0x11 JUMPI PUSH1 0x0 DUP1 REVERT JUMPDEST POP PUSH3 0x58 PUSH1 0x40 MLOAD DUP1 PUSH1 0x40 ADD PUSH1 0x40 MSTORE DUP1 PUSH1 0x6 DUP2 MSTORE PUSH1 0x20 ADD PUSH32 0x5275737369610000000000000000000000000000000000000000000000000000 DUP2 MSTORE POP PUSH3 0xA4 PUSH1 0x20 SHL PUSH1 0x20 SHR JUMP JUMPDEST PUSH3 0x9E PUSH1 0x40 MLOAD DUP1 PUSH1 0x40 ADD PUSH1 0x40 MSTORE DUP1 PUSH1 0x7 DUP2 MSTORE PUSH1 0x20 ADD PUSH32 0x556B7261696E6500000000000000000000000000000000000000000000000000 DUP2 MSTORE POP PUSH3 0xA4 PUSH1 0x20 SHL PUSH1 0x20 SHR JUMP JUMPDEST PUSH3 0x52F JUMP JUMPDEST PUSH1 0x40 MLOAD DUP1 PUSH1 0x60 ADD PUSH1 0x40 MSTORE DUP1 PUSH1 0x2 SLOAD DUP2 MSTORE PUSH1 0x20 ADD DUP3 DUP2 MSTORE PUSH1 0x20 ADD PUSH1 0x0 DUP2 MSTORE POP PUSH1 0x1 PUSH1 0x0 PUSH1 0x2 SLOAD DUP2 MSTORE PUSH1 0x20 ADD SWAP1 DUP2 MSTORE PUSH1 0x20 ADD PUSH1 0x0 KECCAK256 PUSH1 0x0 DUP3 ADD MLOAD DUP2 PUSH1 0x0 ADD SSTORE PUSH1 0x20 DUP3 ADD MLOAD DUP2 PUSH1 0x1 ADD SWAP1 DUP2 PUSH3 0xF8 SWAP2 SWAP1 PUSH3 0x3CC JUMP JUMPDEST POP PUSH1 0x40 DUP3 ADD MLOAD DUP2 PUSH1 0x2 ADD SSTORE SWAP1 POP POP PUSH1 0x2 SLOAD PUSH32 0x8C289382D6FD42A02A06E885DA5A69CB0F21294BBFC7ACC91D5CF3CED61CA0C4 PUSH1 0x40 MLOAD PUSH1 0x40 MLOAD DUP1 SWAP2 SUB SWAP1 LOG2 PUSH1 0x2 PUSH1 0x0 DUP2 SLOAD DUP1 SWAP3 SWAP2 SWAP1 PUSH3 0x14A SWAP1 PUSH3 0x4E2 JUMP JUMPDEST SWAP2 SWAP1 POP SSTORE POP POP JUMP JUMPDEST PUSH1 0x0 DUP2 MLOAD SWAP1 POP SWAP2 SWAP1 POP JUMP JUMPDEST PUSH32 0x4E487B7100000000000000000000000000000000000000000000000000000000 PUSH1 0x0 MSTORE PUSH1 0x41 PUSH1 0x4 MSTORE PUSH1 0x24 PUSH1 0x0 REVERT JUMPDEST PUSH32 0x4E487B7100000000000000000000000000000000000000000000000000000000 PUSH1 0x0 MSTORE PUSH1 0x22 PUSH1 0x4 MSTORE PUSH1 0x24 PUSH1 0x0 REVERT JUMPDEST PUSH1 0x0 PUSH1 0x2 DUP3 DIV SWAP1 POP PUSH1 0x1 DUP3 AND DUP1 PUSH3 0x1D4 JUMPI PUSH1 0x7F DUP3 AND SWAP2 POP JUMPDEST PUSH1 0x20 DUP3 LT DUP2 SUB PUSH3 0x1EA JUMPI PUSH3 0x1E9 PUSH3 0x18C JUMP JUMPDEST JUMPDEST POP SWAP2 SWAP1 POP JUMP JUMPDEST PUSH1 0x0 DUP2 SWAP1 POP DUP2 PUSH1 0x0 MSTORE PUSH1 0x20 PUSH1 0x0 KECCAK256 SWAP1 POP SWAP2 SWAP1 POP JUMP JUMPDEST PUSH1 0x0 PUSH1 0x20 PUSH1 0x1F DUP4 ADD DIV SWAP1 POP SWAP2 SWAP1 POP JUMP JUMPDEST PUSH1 0x0 DUP3 DUP3 SHL SWAP1 POP SWAP3 SWAP2 POP POP JUMP JUMPDEST PUSH1 0x0 PUSH1 0x8 DUP4 MUL PUSH3 0x254 PUSH32 0xFFFFFFFFFFFFFFFFFFFFFFFFFFFFFFFFFFFFFFFFFFFFFFFFFFFFFFFFFFFFFFFF DUP3 PUSH3 0x215 JUMP JUMPDEST PUSH3 0x260 DUP7 DUP4 PUSH3 0x215 JUMP JUMPDEST SWAP6 POP DUP1 NOT DUP5 AND SWAP4 POP DUP1 DUP7 AND DUP5 OR SWAP3 POP POP POP SWAP4 SWAP3 POP POP POP JUMP JUMPDEST PUSH1 0x0 DUP2 SWAP1 POP SWAP2 SWAP1 POP JUMP JUMPDEST PUSH1 0x0 DUP2 SWAP1 POP SWAP2 SWAP1 POP JUMP JUMPDEST PUSH1 0x0 PUSH3 0x2AD PUSH3 0x2A7 PUSH3 0x2A1 DUP5 PUSH3 0x278 JUMP JUMPDEST PUSH3 0x282 JUMP JUMPDEST PUSH3 0x278 JUMP JUMPDEST SWAP1 POP SWAP2 SWAP1 POP JUMP JUMPDEST PUSH1 0x0 DUP2 SWAP1 POP SWAP2 SWAP1 POP JUMP JUMPDEST PUSH3 0x2C9 DUP4 PUSH3 0x28C JUMP JUMPDEST PUSH3 0x2E1 PUSH3 0x2D8 DUP3 PUSH3 0x2B4 JUMP JUMPDEST DUP5 DUP5 SLOAD PUSH3 0x222 JUMP JUMPDEST DUP3 SSTORE POP POP POP POP JUMP JUMPDEST PUSH1 0x0 SWAP1 JUMP JUMPDEST PUSH3 0x2F8 PUSH3 0x2E9 JUMP JUMPDEST PUSH3 0x305 DUP2 DUP5 DUP5 PUSH3 0x2BE JUMP JUMPDEST POP POP POP JUMP JUMPDEST JUMPDEST DUP2 DUP2 LT ISZERO PUSH3 0x32D JUMPI PUSH3 0x321 PUSH1 0x0 DUP3 PUSH3 0x2EE JUMP JUMPDEST PUSH1 0x1 DUP2 ADD SWAP1 POP PUSH3 0x30B JUMP JUMPDEST POP POP JUMP JUMPDEST PUSH1 0x1F DUP3 GT ISZERO PUSH3 0x37C JUMPI PUSH3 0x346 DUP2 PUSH3 0x1F0 JUMP JUMPDEST PUSH3 0x351 DUP5 PUSH3 0x205 JUMP JUMPDEST DUP2 ADD PUSH1 0x20 DUP6 LT ISZERO PUSH3 0x361 JUMPI DUP2 SWAP1 POP JUMPDEST PUSH3 0x379 PUSH3 0x370 DUP6 PUSH3 0x205 JUMP JUMPDEST DUP4 ADD DUP3 PUSH3 0x30A JUMP JUMPDEST POP POP JUMPDEST POP POP POP JUMP JUMPDEST PUSH1 0x0 DUP3 DUP3 SHR SWAP1 POP SWAP3 SWAP2 POP POP JUMP JUMPDEST PUSH1 0x0 PUSH3 0x3A1 PUSH1 0x0 NOT DUP5 PUSH1 0x8 MUL PUSH3 0x381 JUMP JUMPDEST NOT DUP1 DUP4 AND SWAP2 POP POP SWAP3 SWAP2 POP POP JUMP JUMPDEST PUSH1 0x0 PUSH3 0x3BC DUP4 DUP4 PUSH3 0x38E JUMP JUMPDEST SWAP2 POP DUP3 PUSH1 0x2 MUL DUP3 OR SWAP1 POP SWAP3 SWAP2 POP POP JUMP JUMPDEST PUSH3 0x3D7 DUP3 PUSH3 0x152 JUMP JUMPDEST PUSH8 0xFFFFFFFFFFFFFFFF DUP2 GT ISZERO PUSH3 0x3F3 JUMPI PUSH3 0x3F2 PUSH3 0x15D JUMP JUMPDEST JUMPDEST PUSH3 0x3FF DUP3 SLOAD PUSH3 0x1BB JUMP JUMPDEST PUSH3 0x40C DUP3 DUP3 DUP6 PUSH3 0x331 JUMP JUMPDEST PUSH1 0x0 PUSH1 0x20 SWAP1 POP PUSH1 0x1F DUP4 GT PUSH1 0x1 DUP2 EQ PUSH3 0x444 JUMPI PUSH1 0x0 DUP5 ISZERO PUSH3 0x42F JUMPI DUP3 DUP8 ADD MLOAD SWAP1 POP JUMPDEST PUSH3 0x43B DUP6 DUP3 PUSH3 0x3AE JUMP JUMPDEST DUP7 SSTORE POP PUSH3 0x4AB JUMP JUMPDEST PUSH1 0x1F NOT DUP5 AND PUSH3 0x454 DUP7 PUSH3 0x1F0 JUMP JUMPDEST PUSH1 0x0 JUMPDEST DUP3 DUP2 LT ISZERO PUSH3 0x47E JUMPI DUP5 DUP10 ADD MLOAD DUP3 SSTORE PUSH1 0x1 DUP3 ADD SWAP2 POP PUSH1 0x20 DUP6 ADD SWAP5 POP PUSH1 0x20 DUP2 ADD SWAP1 POP PUSH3 0x457 JUMP JUMPDEST DUP7 DUP4 LT ISZERO PUSH3 0x49E JUMPI DUP5 DUP10 ADD MLOAD PUSH3 0x49A PUSH1 0x1F DUP10 AND DUP3 PUSH3 0x38E JUMP JUMPDEST DUP4 SSTORE POP JUMPDEST PUSH1 0x1 PUSH1 0x2 DUP9 MUL ADD DUP9 SSTORE POP POP POP JUMPDEST POP POP POP POP POP POP JUMP JUMPDEST PUSH32 0x4E487B7100000000000000000000000000000000000000000000000000000000 PUSH1 0x0 MSTORE PUSH1 0x11 PUSH1 0x4 MSTORE PUSH1 0x24 PUSH1 0x0 REVERT JUMPDEST PUSH1 0x0 PUSH3 0x4EF DUP3 PUSH3 0x278 JUMP JUMPDEST SWAP2 POP PUSH32 0xFFFFFFFFFFFFFFFFFFFFFFFFFFFFFFFFFFFFFFFFFFFFFFFFFFFFFFFFFFFFFFFF DUP3 SUB PUSH3 0x524 JUMPI PUSH3 0x523 PUSH3 0x4B3 JUMP JUMPDEST JUMPDEST PUSH1 0x1 DUP3 ADD SWAP1 POP SWAP2 SWAP1 POP JUMP JUMPDEST PUSH2 0xFC1 DUP1 PUSH3 0x53F PUSH1 0x0 CODECOPY PUSH1 0x0 RETURN INVALID PUSH1 0x80 PUSH1 0x40 MSTORE CALLVALUE DUP1 ISZERO PUSH2 0x10 JUMPI PUSH1 0x0 DUP1 REVERT JUMPDEST POP PUSH1 0x4 CALLDATASIZE LT PUSH2 0x88 JUMPI PUSH1 0x0 CALLDATALOAD PUSH1 0xE0 SHR DUP1 PUSH4 0x70740AAB GT PUSH2 0x5B JUMPI DUP1 PUSH4 0x70740AAB EQ PUSH2 0x113 JUMPI DUP1 PUSH4 0xAEC2CCAE EQ PUSH2 0x131 JUMPI DUP1 PUSH4 0xDC899A07 EQ PUSH2 0x161 JUMPI DUP1 PUSH4 0xF6FD7FDE EQ PUSH2 0x17F JUMPI PUSH2 0x88 JUMP JUMPDEST DUP1 PUSH4 0x121B93F EQ PUSH2 0x8D JUMPI DUP1 PUSH4 0x1FFC9A7 EQ PUSH2 0xA9 JUMPI DUP1 PUSH4 0x251760B7 EQ PUSH2 0xD9 JUMPI DUP1 PUSH4 0x5FA520BB EQ PUSH2 0xF7 JUMPI JUMPDEST PUSH1 0x0 DUP1 REVERT JUMPDEST PUSH2 0xA7 PUSH1 0x4 DUP1 CALLDATASIZE SUB DUP2 ADD SWAP1 PUSH2 0xA2 SWAP2 SWAP1 PUSH2 0x6C6 JUMP JUMPDEST PUSH2 0x1AF JUMP JUMPDEST STOP JUMPDEST PUSH2 0xC3 PUSH1 0x4 DUP1 CALLDATASIZE SUB DUP2 ADD SWAP1 PUSH2 0xBE SWAP2 SWAP1 PUSH2 0x74B JUMP JUMPDEST PUSH2 0x33F JUMP JUMPDEST PUSH1 0x40 MLOAD PUSH2 0xD0 SWAP2 SWAP1 PUSH2 0x793 JUMP JUMPDEST PUSH1 0x40 MLOAD DUP1 SWAP2 SUB SWAP1 RETURN JUMPDEST PUSH2 0xE1 PUSH2 0x3D9 JUMP JUMPDEST PUSH1 0x40 MLOAD PUSH2 0xEE SWAP2 SWAP1 PUSH2 0x7BD JUMP JUMPDEST PUSH1 0x40 MLOAD DUP1 SWAP2 SUB SWAP1 RETURN JUMPDEST PUSH2 0x111 PUSH1 0x4 DUP1 CALLDATASIZE SUB DUP2 ADD SWAP1 PUSH2 0x10C SWAP2 SWAP1 PUSH2 0x91E JUMP JUMPDEST PUSH2 0x3DF JUMP JUMPDEST STOP JUMPDEST PUSH2 0x11B PUSH2 0x489 JUMP JUMPDEST PUSH1 0x40 MLOAD PUSH2 0x128 SWAP2 SWAP1 PUSH2 0x9E6 JUMP JUMPDEST PUSH1 0x40 MLOAD DUP1 SWAP2 SUB SWAP1 RETURN JUMPDEST PUSH2 0x14B PUSH1 0x4 DUP1 CALLDATASIZE SUB DUP2 ADD SWAP1 PUSH2 0x146 SWAP2 SWAP1 PUSH2 0xA66 JUMP JUMPDEST PUSH2 0x4C2 JUMP JUMPDEST PUSH1 0x40 MLOAD PUSH2 0x158 SWAP2 SWAP1 PUSH2 0x793 JUMP JUMPDEST PUSH1 0x40 MLOAD DUP1 SWAP2 SUB SWAP1 RETURN JUMPDEST PUSH2 0x169 PUSH2 0x4E2 JUMP JUMPDEST PUSH1 0x40 MLOAD PUSH2 0x176 SWAP2 SWAP1 PUSH2 0x9E6 JUMP JUMPDEST PUSH1 0x40 MLOAD DUP1 SWAP2 SUB SWAP1 RETURN JUMPDEST PUSH2 0x199 PUSH1 0x4 DUP1 CALLDATASIZE SUB DUP2 ADD SWAP1 PUSH2 0x194 SWAP2 SWAP1 PUSH2 0x6C6 JUMP JUMPDEST PUSH2 0x588 JUMP JUMPDEST PUSH1 0x40 MLOAD PUSH2 0x1A6 SWAP2 SWAP1 PUSH2 0xB3C JUMP JUMPDEST PUSH1 0x40 MLOAD DUP1 SWAP2 SUB SWAP1 RETURN JUMPDEST PUSH1 0x0 DUP1 CALLER PUSH20 0xFFFFFFFFFFFFFFFFFFFFFFFFFFFFFFFFFFFFFFFF AND PUSH20 0xFFFFFFFFFFFFFFFFFFFFFFFFFFFFFFFFFFFFFFFF AND DUP2 MSTORE PUSH1 0x20 ADD SWAP1 DUP2 MSTORE PUSH1 0x20 ADD PUSH1 0x0 KECCAK256 PUSH1 0x0 SWAP1 SLOAD SWAP1 PUSH2 0x100 EXP SWAP1 DIV PUSH1 0xFF AND ISZERO PUSH2 0x23B JUMPI PUSH1 0x40 MLOAD PUSH32 0x8C379A000000000000000000000000000000000000000000000000000000000 DUP2 MSTORE PUSH1 0x4 ADD PUSH2 0x232 SWAP1 PUSH2 0xBAA JUMP JUMPDEST PUSH1 0x40 MLOAD DUP1 SWAP2 SUB SWAP1 REVERT JUMPDEST PUSH1 0x0 DUP2 LT ISZERO DUP1 ISZERO PUSH2 0x24D JUMPI POP PUSH1 0x2 SLOAD DUP2 LT JUMPDEST PUSH2 0x28C JUMPI PUSH1 0x40 MLOAD PUSH32 0x8C379A000000000000000000000000000000000000000000000000000000000 DUP2 MSTORE PUSH1 0x4 ADD PUSH2 0x283 SWAP1 PUSH2 0xC16 JUMP JUMPDEST PUSH1 0x40 MLOAD DUP1 SWAP2 SUB SWAP1 REVERT JUMPDEST PUSH1 0x1 PUSH1 0x0 DUP1 CALLER PUSH20 0xFFFFFFFFFFFFFFFFFFFFFFFFFFFFFFFFFFFFFFFF AND PUSH20 0xFFFFFFFFFFFFFFFFFFFFFFFFFFFFFFFFFFFFFFFF AND DUP2 MSTORE PUSH1 0x20 ADD SWAP1 DUP2 MSTORE PUSH1 0x20 ADD PUSH1 0x0 KECCAK256 PUSH1 0x0 PUSH2 0x100 EXP DUP2 SLOAD DUP2 PUSH1 0xFF MUL NOT AND SWAP1 DUP4 ISZERO ISZERO MUL OR SWAP1 SSTORE POP PUSH1 0x1 PUSH1 0x0 DUP3 DUP2 MSTORE PUSH1 0x20 ADD SWAP1 DUP2 MSTORE PUSH1 0x20 ADD PUSH1 0x0 KECCAK256 PUSH1 0x2 ADD PUSH1 0x0 DUP2 SLOAD DUP1 SWAP3 SWAP2 SWAP1 PUSH2 0x30A SWAP1 PUSH2 0xC65 JUMP JUMPDEST SWAP2 SWAP1 POP SSTORE POP DUP1 PUSH32 0xFFF3C900D938D21D0990D786E819F29B8D05C1EF587B462B939609625B684B16 PUSH1 0x40 MLOAD PUSH1 0x40 MLOAD DUP1 SWAP2 SUB SWAP1 LOG2 POP JUMP JUMPDEST PUSH1 0x0 PUSH32 0x5227894F00000000000000000000000000000000000000000000000000000000 PUSH28 0xFFFFFFFFFFFFFFFFFFFFFFFFFFFFFFFFFFFFFFFFFFFFFFFFFFFFFFFF NOT AND DUP3 PUSH28 0xFFFFFFFFFFFFFFFFFFFFFFFFFFFFFFFFFFFFFFFFFFFFFFFFFFFFFFFF NOT AND EQ DUP1 PUSH2 0x3D2 JUMPI POP PUSH4 0x1FFC9A7 PUSH1 0xE0 SHL DUP3 PUSH28 0xFFFFFFFFFFFFFFFFFFFFFFFFFFFFFFFFFFFFFFFFFFFFFFFFFFFFFFFF NOT AND EQ JUMPDEST SWAP1 POP SWAP2 SWAP1 POP JUMP JUMPDEST PUSH1 0x2 SLOAD DUP2 JUMP JUMPDEST PUSH1 0x40 MLOAD DUP1 PUSH1 0x60 ADD PUSH1 0x40 MSTORE DUP1 PUSH1 0x2 SLOAD DUP2 MSTORE PUSH1 0x20 ADD DUP3 DUP2 MSTORE PUSH1 0x20 ADD PUSH1 0x0 DUP2 MSTORE POP PUSH1 0x1 PUSH1 0x0 PUSH1 0x2 SLOAD DUP2 MSTORE PUSH1 0x20 ADD SWAP1 DUP2 MSTORE PUSH1 0x20 ADD PUSH1 0x0 KECCAK256 PUSH1 0x0 DUP3 ADD MLOAD DUP2 PUSH1 0x0 ADD SSTORE PUSH1 0x20 DUP3 ADD MLOAD DUP2 PUSH1 0x1 ADD SWAP1 DUP2 PUSH2 0x431 SWAP2 SWAP1 PUSH2 0xEB9 JUMP JUMPDEST POP PUSH1 0x40 DUP3 ADD MLOAD DUP2 PUSH1 0x2 ADD SSTORE SWAP1 POP POP PUSH1 0x2 SLOAD PUSH32 0x8C289382D6FD42A02A06E885DA5A69CB0F21294BBFC7ACC91D5CF3CED61CA0C4 PUSH1 0x40 MLOAD PUSH1 0x40 MLOAD DUP1 SWAP2 SUB SWAP1 LOG2 PUSH1 0x2 PUSH1 0x0 DUP2 SLOAD DUP1 SWAP3 SWAP2 SWAP1 PUSH2 0x481 SWAP1 PUSH2 0xC65 JUMP JUMPDEST SWAP2 SWAP1 POP SSTORE POP POP JUMP JUMPDEST PUSH1 0x40 MLOAD DUP1 PUSH1 0x40 ADD PUSH1 0x40 MSTORE DUP1 PUSH1 0x12 DUP2 MSTORE PUSH1 0x20 ADD PUSH32 0x527573736961206F7220556B7261696E653F0000000000000000000000000000 DUP2 MSTORE POP DUP2 JUMP JUMPDEST PUSH1 0x0 PUSH1 0x20 MSTORE DUP1 PUSH1 0x0 MSTORE PUSH1 0x40 PUSH1 0x0 KECCAK256 PUSH1 0x0 SWAP2 POP SLOAD SWAP1 PUSH2 0x100 EXP SWAP1 DIV PUSH1 0xFF AND DUP2 JUMP JUMPDEST PUSH1 0x60 PUSH1 0x1 PUSH1 0x0 DUP1 DUP2 MSTORE PUSH1 0x20 ADD SWAP1 DUP2 MSTORE PUSH1 0x20 ADD PUSH1 0x0 KECCAK256 PUSH1 0x1 ADD DUP1 SLOAD PUSH2 0x505 SWAP1 PUSH2 0xCDC JUMP JUMPDEST DUP1 PUSH1 0x1F ADD PUSH1 0x20 DUP1 SWAP2 DIV MUL PUSH1 0x20 ADD PUSH1 0x40 MLOAD SWAP1 DUP2 ADD PUSH1 0x40 MSTORE DUP1 SWAP3 SWAP2 SWAP1 DUP2 DUP2 MSTORE PUSH1 0x20 ADD DUP3 DUP1 SLOAD PUSH2 0x531 SWAP1 PUSH2 0xCDC JUMP JUMPDEST DUP1 ISZERO PUSH2 0x57E JUMPI DUP1 PUSH1 0x1F LT PUSH2 0x553 JUMPI PUSH2 0x100 DUP1 DUP4 SLOAD DIV MUL DUP4 MSTORE SWAP2 PUSH1 0x20 ADD SWAP2 PUSH2 0x57E JUMP JUMPDEST DUP3 ADD SWAP2 SWAP1 PUSH1 0x0 MSTORE PUSH1 0x20 PUSH1 0x0 KECCAK256 SWAP1 JUMPDEST DUP2 SLOAD DUP2 MSTORE SWAP1 PUSH1 0x1 ADD SWAP1 PUSH1 0x20 ADD DUP1 DUP4 GT PUSH2 0x561 JUMPI DUP3 SWAP1 SUB PUSH1 0x1F AND DUP3 ADD SWAP2 JUMPDEST POP POP POP POP POP SWAP1 POP SWAP1 JUMP JUMPDEST PUSH2 0x590 PUSH2 0x65B JUMP JUMPDEST PUSH1 0x1 PUSH1 0x0 DUP4 DUP2 MSTORE PUSH1 0x20 ADD SWAP1 DUP2 MSTORE PUSH1 0x20 ADD PUSH1 0x0 KECCAK256 PUSH1 0x40 MLOAD DUP1 PUSH1 0x60 ADD PUSH1 0x40 MSTORE SWAP1 DUP2 PUSH1 0x0 DUP3 ADD SLOAD DUP2 MSTORE PUSH1 0x20 ADD PUSH1 0x1 DUP3 ADD DUP1 SLOAD PUSH2 0x5C8 SWAP1 PUSH2 0xCDC JUMP JUMPDEST DUP1 PUSH1 0x1F ADD PUSH1 0x20 DUP1 SWAP2 DIV MUL PUSH1 0x20 ADD PUSH1 0x40 MLOAD SWAP1 DUP2 ADD PUSH1 0x40 MSTORE DUP1 SWAP3 SWAP2 SWAP1 DUP2 DUP2 MSTORE PUSH1 0x20 ADD DUP3 DUP1 SLOAD PUSH2 0x5F4 SWAP1 PUSH2 0xCDC JUMP JUMPDEST DUP1 ISZERO PUSH2 0x641 JUMPI DUP1 PUSH1 0x1F LT PUSH2 0x616 JUMPI PUSH2 0x100 DUP1 DUP4 SLOAD DIV MUL DUP4 MSTORE SWAP2 PUSH1 0x20 ADD SWAP2 PUSH2 0x641 JUMP JUMPDEST DUP3 ADD SWAP2 SWAP1 PUSH1 0x0 MSTORE PUSH1 0x20 PUSH1 0x0 KECCAK256 SWAP1 JUMPDEST DUP2 SLOAD DUP2 MSTORE SWAP1 PUSH1 0x1 ADD SWAP1 PUSH1 0x20 ADD DUP1 DUP4 GT PUSH2 0x624 JUMPI DUP3 SWAP1 SUB PUSH1 0x1F AND DUP3 ADD SWAP2 JUMPDEST POP POP POP POP POP DUP2 MSTORE PUSH1 0x20 ADD PUSH1 0x2 DUP3 ADD SLOAD DUP2 MSTORE POP POP SWAP1 POP SWAP2 SWAP1 POP JUMP JUMPDEST PUSH1 0x40 MLOAD DUP1 PUSH1 0x60 ADD PUSH1 0x40 MSTORE DUP1 PUSH1 0x0 DUP2 MSTORE PUSH1 0x20 ADD PUSH1 0x60 DUP2 MSTORE PUSH1 0x20 ADD PUSH1 0x0 DUP2 MSTORE POP SWAP1 JUMP JUMPDEST PUSH1 0x0 PUSH1 0x40 MLOAD SWAP1 POP SWAP1 JUMP JUMPDEST PUSH1 0x0 DUP1 REVERT JUMPDEST PUSH1 0x0 DUP1 REVERT JUMPDEST PUSH1 0x0 DUP2 SWAP1 POP SWAP2 SWAP1 POP JUMP JUMPDEST PUSH2 0x6A3 DUP2 PUSH2 0x690 JUMP JUMPDEST DUP2 EQ PUSH2 0x6AE JUMPI PUSH1 0x0 DUP1 REVERT JUMPDEST POP JUMP JUMPDEST PUSH1 0x0 DUP2 CALLDATALOAD SWAP1 POP PUSH2 0x6C0 DUP2 PUSH2 0x69A JUMP JUMPDEST SWAP3 SWAP2 POP POP JUMP JUMPDEST PUSH1 0x0 PUSH1 0x20 DUP3 DUP5 SUB SLT ISZERO PUSH2 0x6DC JUMPI PUSH2 0x6DB PUSH2 0x686 JUMP JUMPDEST JUMPDEST PUSH1 0x0 PUSH2 0x6EA DUP5 DUP3 DUP6 ADD PUSH2 0x6B1 JUMP JUMPDEST SWAP2 POP POP SWAP3 SWAP2 POP POP JUMP JUMPDEST PUSH1 0x0 PUSH32 0xFFFFFFFF00000000000000000000000000000000000000000000000000000000 DUP3 AND SWAP1 POP SWAP2 SWAP1 POP JUMP JUMPDEST PUSH2 0x728 DUP2 PUSH2 0x6F3 JUMP JUMPDEST DUP2 EQ PUSH2 0x733 JUMPI PUSH1 0x0 DUP1 REVERT JUMPDEST POP JUMP JUMPDEST PUSH1 0x0 DUP2 CALLDATALOAD SWAP1 POP PUSH2 0x745 DUP2 PUSH2 0x71F JUMP JUMPDEST SWAP3 SWAP2 POP POP JUMP JUMPDEST PUSH1 0x0 PUSH1 0x20 DUP3 DUP5 SUB SLT ISZERO PUSH2 0x761 JUMPI PUSH2 0x760 PUSH2 0x686 JUMP JUMPDEST JUMPDEST PUSH1 0x0 PUSH2 0x76F DUP5 DUP3 DUP6 ADD PUSH2 0x736 JUMP JUMPDEST SWAP2 POP POP SWAP3 SWAP2 POP POP JUMP JUMPDEST PUSH1 0x0 DUP2 ISZERO ISZERO SWAP1 POP SWAP2 SWAP1 POP JUMP JUMPDEST PUSH2 0x78D DUP2 PUSH2 0x778 JUMP JUMPDEST DUP3 MSTORE POP POP JUMP JUMPDEST PUSH1 0x0 PUSH1 0x20 DUP3 ADD SWAP1 POP PUSH2 0x7A8 PUSH1 0x0 DUP4 ADD DUP5 PUSH2 0x784 JUMP JUMPDEST SWAP3 SWAP2 POP POP JUMP JUMPDEST PUSH2 0x7B7 DUP2 PUSH2 0x690 JUMP JUMPDEST DUP3 MSTORE POP POP JUMP JUMPDEST PUSH1 0x0 PUSH1 0x20 DUP3 ADD SWAP1 POP PUSH2 0x7D2 PUSH1 0x0 DUP4 ADD DUP5 PUSH2 0x7AE JUMP JUMPDEST SWAP3 SWAP2 POP POP JUMP JUMPDEST PUSH1 0x0 DUP1 REVERT JUMPDEST PUSH1 0x0 DUP1 REVERT JUMPDEST PUSH1 0x0 PUSH1 0x1F NOT PUSH1 0x1F DUP4 ADD AND SWAP1 POP SWAP2 SWAP1 POP JUMP JUMPDEST PUSH32 0x4E487B7100000000000000000000000000000000000000000000000000000000 PUSH1 0x0 MSTORE PUSH1 0x41 PUSH1 0x4 MSTORE PUSH1 0x24 PUSH1 0x0 REVERT JUMPDEST PUSH2 0x82B DUP3 PUSH2 0x7E2 JUMP JUMPDEST DUP2 ADD DUP2 DUP2 LT PUSH8 0xFFFFFFFFFFFFFFFF DUP3 GT OR ISZERO PUSH2 0x84A JUMPI PUSH2 0x849 PUSH2 0x7F3 JUMP JUMPDEST JUMPDEST DUP1 PUSH1 0x40 MSTORE POP POP POP JUMP JUMPDEST PUSH1 0x0 PUSH2 0x85D PUSH2 0x67C JUMP JUMPDEST SWAP1 POP PUSH2 0x869 DUP3 DUP3 PUSH2 0x822 JUMP JUMPDEST SWAP2 SWAP1 POP JUMP JUMPDEST PUSH1 0x0 PUSH8 0xFFFFFFFFFFFFFFFF DUP3 GT ISZERO PUSH2 0x889 JUMPI PUSH2 0x888 PUSH2 0x7F3 JUMP JUMPDEST JUMPDEST PUSH2 0x892 DUP3 PUSH2 0x7E2 JUMP JUMPDEST SWAP1 POP PUSH1 0x20 DUP2 ADD SWAP1 POP SWAP2 SWAP1 POP JUMP JUMPDEST DUP3 DUP2 DUP4 CALLDATACOPY PUSH1 0x0 DUP4 DUP4 ADD MSTORE POP POP POP JUMP JUMPDEST PUSH1 0x0 PUSH2 0x8C1 PUSH2 0x8BC DUP5 PUSH2 0x86E JUMP JUMPDEST PUSH2 0x853 JUMP JUMPDEST SWAP1 POP DUP3 DUP2 MSTORE PUSH1 0x20 DUP2 ADD DUP5 DUP5 DUP5 ADD GT ISZERO PUSH2 0x8DD JUMPI PUSH2 0x8DC PUSH2 0x7DD JUMP JUMPDEST JUMPDEST PUSH2 0x8E8 DUP5 DUP3 DUP6 PUSH2 0x89F JUMP JUMPDEST POP SWAP4 SWAP3 POP POP POP JUMP JUMPDEST PUSH1 0x0 DUP3 PUSH1 0x1F DUP4 ADD SLT PUSH2 0x905 JUMPI PUSH2 0x904 PUSH2 0x7D8 JUMP JUMPDEST JUMPDEST DUP2 CALLDATALOAD PUSH2 0x915 DUP5 DUP3 PUSH1 0x20 DUP7 ADD PUSH2 0x8AE JUMP JUMPDEST SWAP2 POP POP SWAP3 SWAP2 POP POP JUMP JUMPDEST PUSH1 0x0 PUSH1 0x20 DUP3 DUP5 SUB SLT ISZERO PUSH2 0x934 JUMPI PUSH2 0x933 PUSH2 0x686 JUMP JUMPDEST JUMPDEST PUSH1 0x0 DUP3 ADD CALLDATALOAD PUSH8 0xFFFFFFFFFFFFFFFF DUP2 GT ISZERO PUSH2 0x952 JUMPI PUSH2 0x951 PUSH2 0x68B JUMP JUMPDEST JUMPDEST PUSH2 0x95E DUP5 DUP3 DUP6 ADD PUSH2 0x8F0 JUMP JUMPDEST SWAP2 POP POP SWAP3 SWAP2 POP POP JUMP JUMPDEST PUSH1 0x0 DUP2 MLOAD SWAP1 POP SWAP2 SWAP1 POP JUMP JUMPDEST PUSH1 0x0 DUP3 DUP3 MSTORE PUSH1 0x20 DUP3 ADD SWAP1 POP SWAP3 SWAP2 POP POP JUMP JUMPDEST PUSH1 0x0 JUMPDEST DUP4 DUP2 LT ISZERO PUSH2 0x9A1 JUMPI DUP1 DUP3 ADD MLOAD DUP2 DUP5 ADD MSTORE PUSH1 0x20 DUP2 ADD SWAP1 POP PUSH2 0x986 JUMP JUMPDEST PUSH1 0x0 DUP5 DUP5 ADD MSTORE POP POP POP POP JUMP JUMPDEST PUSH1 0x0 PUSH2 0x9B8 DUP3 PUSH2 0x967 JUMP JUMPDEST PUSH2 0x9C2 DUP2 DUP6 PUSH2 0x972 JUMP JUMPDEST SWAP4 POP PUSH2 0x9D2 DUP2 DUP6 PUSH1 0x20 DUP7 ADD PUSH2 0x983 JUMP JUMPDEST PUSH2 0x9DB DUP2 PUSH2 0x7E2 JUMP JUMPDEST DUP5 ADD SWAP2 POP POP SWAP3 SWAP2 POP POP JUMP JUMPDEST PUSH1 0x0 PUSH1 0x20 DUP3 ADD SWAP1 POP DUP2 DUP2 SUB PUSH1 0x0 DUP4 ADD MSTORE PUSH2 0xA00 DUP2 DUP5 PUSH2 0x9AD JUMP JUMPDEST SWAP1 POP SWAP3 SWAP2 POP POP JUMP JUMPDEST PUSH1 0x0 PUSH20 0xFFFFFFFFFFFFFFFFFFFFFFFFFFFFFFFFFFFFFFFF DUP3 AND SWAP1 POP SWAP2 SWAP1 POP JUMP JUMPDEST PUSH1 0x0 PUSH2 0xA33 DUP3 PUSH2 0xA08 JUMP JUMPDEST SWAP1 POP SWAP2 SWAP1 POP JUMP JUMPDEST PUSH2 0xA43 DUP2 PUSH2 0xA28 JUMP JUMPDEST DUP2 EQ PUSH2 0xA4E JUMPI PUSH1 0x0 DUP1 REVERT JUMPDEST POP JUMP JUMPDEST PUSH1 0x0 DUP2 CALLDATALOAD SWAP1 POP PUSH2 0xA60 DUP2 PUSH2 0xA3A JUMP JUMPDEST SWAP3 SWAP2 POP POP JUMP JUMPDEST PUSH1 0x0 PUSH1 0x20 DUP3 DUP5 SUB SLT ISZERO PUSH2 0xA7C JUMPI PUSH2 0xA7B PUSH2 0x686 JUMP JUMPDEST JUMPDEST PUSH1 0x0 PUSH2 0xA8A DUP5 DUP3 DUP6 ADD PUSH2 0xA51 JUMP JUMPDEST SWAP2 POP POP SWAP3 SWAP2 POP POP JUMP JUMPDEST PUSH2 0xA9C DUP2 PUSH2 0x690 JUMP JUMPDEST DUP3 MSTORE POP POP JUMP JUMPDEST PUSH1 0x0 DUP3 DUP3 MSTORE PUSH1 0x20 DUP3 ADD SWAP1 POP SWAP3 SWAP2 POP POP JUMP JUMPDEST PUSH1 0x0 PUSH2 0xABE DUP3 PUSH2 0x967 JUMP JUMPDEST PUSH2 0xAC8 DUP2 DUP6 PUSH2 0xAA2 JUMP JUMPDEST SWAP4 POP PUSH2 0xAD8 DUP2 DUP6 PUSH1 0x20 DUP7 ADD PUSH2 0x983 JUMP JUMPDEST PUSH2 0xAE1 DUP2 PUSH2 0x7E2 JUMP JUMPDEST DUP5 ADD SWAP2 POP POP SWAP3 SWAP2 POP POP JUMP JUMPDEST PUSH1 0x0 PUSH1 0x60 DUP4 ADD PUSH1 0x0 DUP4 ADD MLOAD PUSH2 0xB04 PUSH1 0x0 DUP7 ADD DUP3 PUSH2 0xA93 JUMP JUMPDEST POP PUSH1 0x20 DUP4 ADD MLOAD DUP5 DUP3 SUB PUSH1 0x20 DUP7 ADD MSTORE PUSH2 0xB1C DUP3 DUP3 PUSH2 0xAB3 JUMP JUMPDEST SWAP2 POP POP PUSH1 0x40 DUP4 ADD MLOAD PUSH2 0xB31 PUSH1 0x40 DUP7 ADD DUP3 PUSH2 0xA93 JUMP JUMPDEST POP DUP1 SWAP2 POP POP SWAP3 SWAP2 POP POP JUMP JUMPDEST PUSH1 0x0 PUSH1 0x20 DUP3 ADD SWAP1 POP DUP2 DUP2 SUB PUSH1 0x0 DUP4 ADD MSTORE PUSH2 0xB56 DUP2 DUP5 PUSH2 0xAEC JUMP JUMPDEST SWAP1 POP SWAP3 SWAP2 POP POP JUMP JUMPDEST PUSH32 0x73656E6465722068617320616C726561647920766F7465640000000000000000 PUSH1 0x0 DUP3 ADD MSTORE POP JUMP JUMPDEST PUSH1 0x0 PUSH2 0xB94 PUSH1 0x18 DUP4 PUSH2 0x972 JUMP JUMPDEST SWAP2 POP PUSH2 0xB9F DUP3 PUSH2 0xB5E JUMP JUMPDEST PUSH1 0x20 DUP3 ADD SWAP1 POP SWAP2 SWAP1 POP JUMP JUMPDEST PUSH1 0x0 PUSH1 0x20 DUP3 ADD SWAP1 POP DUP2 DUP2 SUB PUSH1 0x0 DUP4 ADD MSTORE PUSH2 0xBC3 DUP2 PUSH2 0xB87 JUMP JUMPDEST SWAP1 POP SWAP2 SWAP1 POP JUMP JUMPDEST PUSH32 0x696E76616C696420766F74652073656C656374696F6E00000000000000000000 PUSH1 0x0 DUP3 ADD MSTORE POP JUMP JUMPDEST PUSH1 0x0 PUSH2 0xC00 PUSH1 0x16 DUP4 PUSH2 0x972 JUMP JUMPDEST SWAP2 POP PUSH2 0xC0B DUP3 PUSH2 0xBCA JUMP JUMPDEST PUSH1 0x20 DUP3 ADD SWAP1 POP SWAP2 SWAP1 POP JUMP JUMPDEST PUSH1 0x0 PUSH1 0x20 DUP3 ADD SWAP1 POP DUP2 DUP2 SUB PUSH1 0x0 DUP4 ADD MSTORE PUSH2 0xC2F DUP2 PUSH2 0xBF3 JUMP JUMPDEST SWAP1 POP SWAP2 SWAP1 POP JUMP JUMPDEST PUSH32 0x4E487B7100000000000000000000000000000000000000000000000000000000 PUSH1 0x0 MSTORE PUSH1 0x11 PUSH1 0x4 MSTORE PUSH1 0x24 PUSH1 0x0 REVERT JUMPDEST PUSH1 0x0 PUSH2 0xC70 DUP3 PUSH2 0x690 JUMP JUMPDEST SWAP2 POP PUSH32 0xFFFFFFFFFFFFFFFFFFFFFFFFFFFFFFFFFFFFFFFFFFFFFFFFFFFFFFFFFFFFFFFF DUP3 SUB PUSH2 0xCA2 JUMPI PUSH2 0xCA1 PUSH2 0xC36 JUMP JUMPDEST JUMPDEST PUSH1 0x1 DUP3 ADD SWAP1 POP SWAP2 SWAP1 POP JUMP JUMPDEST PUSH32 0x4E487B7100000000000000000000000000000000000000000000000000000000 PUSH1 0x0 MSTORE PUSH1 0x22 PUSH1 0x4 MSTORE PUSH1 0x24 PUSH1 0x0 REVERT JUMPDEST PUSH1 0x0 PUSH1 0x2 DUP3 DIV SWAP1 POP PUSH1 0x1 DUP3 AND DUP1 PUSH2 0xCF4 JUMPI PUSH1 0x7F DUP3 AND SWAP2 POP JUMPDEST PUSH1 0x20 DUP3 LT DUP2 SUB PUSH2 0xD07 JUMPI PUSH2 0xD06 PUSH2 0xCAD JUMP JUMPDEST JUMPDEST POP SWAP2 SWAP1 POP JUMP JUMPDEST PUSH1 0x0 DUP2 SWAP1 POP DUP2 PUSH1 0x0 MSTORE PUSH1 0x20 PUSH1 0x0 KECCAK256 SWAP1 POP SWAP2 SWAP1 POP JUMP JUMPDEST PUSH1 0x0 PUSH1 0x20 PUSH1 0x1F DUP4 ADD DIV SWAP1 POP SWAP2 SWAP1 POP JUMP JUMPDEST PUSH1 0x0 DUP3 DUP3 SHL SWAP1 POP SWAP3 SWAP2 POP POP JUMP JUMPDEST PUSH1 0x0 PUSH1 0x8 DUP4 MUL PUSH2 0xD6F PUSH32 0xFFFFFFFFFFFFFFFFFFFFFFFFFFFFFFFFFFFFFFFFFFFFFFFFFFFFFFFFFFFFFFFF DUP3 PUSH2 0xD32 JUMP JUMPDEST PUSH2 0xD79 DUP7 DUP4 PUSH2 0xD32 JUMP JUMPDEST SWAP6 POP DUP1 NOT DUP5 AND SWAP4 POP DUP1 DUP7 AND DUP5 OR SWAP3 POP POP POP SWAP4 SWAP3 POP POP POP JUMP JUMPDEST PUSH1 0x0 DUP2 SWAP1 POP SWAP2 SWAP1 POP JUMP JUMPDEST PUSH1 0x0 PUSH2 0xDB6 PUSH2 0xDB1 PUSH2 0xDAC DUP5 PUSH2 0x690 JUMP JUMPDEST PUSH2 0xD91 JUMP JUMPDEST PUSH2 0x690 JUMP JUMPDEST SWAP1 POP SWAP2 SWAP1 POP JUMP JUMPDEST PUSH1 0x0 DUP2 SWAP1 POP SWAP2 SWAP1 POP JUMP JUMPDEST PUSH2 0xDD0 DUP4 PUSH2 0xD9B JUMP JUMPDEST PUSH2 0xDE4 PUSH2 0xDDC DUP3 PUSH2 0xDBD JUMP JUMPDEST DUP5 DUP5 SLOAD PUSH2 0xD3F JUMP JUMPDEST DUP3 SSTORE POP POP POP POP JUMP JUMPDEST PUSH1 0x0 SWAP1 JUMP JUMPDEST PUSH2 0xDF9 PUSH2 0xDEC JUMP JUMPDEST PUSH2 0xE04 DUP2 DUP5 DUP5 PUSH2 0xDC7 JUMP JUMPDEST POP POP POP JUMP JUMPDEST JUMPDEST DUP2 DUP2 LT ISZERO PUSH2 0xE28 JUMPI PUSH2 0xE1D PUSH1 0x0 DUP3 PUSH2 0xDF1 JUMP JUMPDEST PUSH1 0x1 DUP2 ADD SWAP1 POP PUSH2 0xE0A JUMP JUMPDEST POP POP JUMP JUMPDEST PUSH1 0x1F DUP3 GT ISZERO PUSH2 0xE6D JUMPI PUSH2 0xE3E DUP2 PUSH2 0xD0D JUMP JUMPDEST PUSH2 0xE47 DUP5 PUSH2 0xD22 JUMP JUMPDEST DUP2 ADD PUSH1 0x20 DUP6 LT ISZERO PUSH2 0xE56 JUMPI DUP2 SWAP1 POP JUMPDEST PUSH2 0xE6A PUSH2 0xE62 DUP6 PUSH2 0xD22 JUMP JUMPDEST DUP4 ADD DUP3 PUSH2 0xE09 JUMP JUMPDEST POP POP JUMPDEST POP POP POP JUMP JUMPDEST PUSH1 0x0 DUP3 DUP3 SHR SWAP1 POP SWAP3 SWAP2 POP POP JUMP JUMPDEST PUSH1 0x0 PUSH2 0xE90 PUSH1 0x0 NOT DUP5 PUSH1 0x8 MUL PUSH2 0xE72 JUMP JUMPDEST NOT DUP1 DUP4 AND SWAP2 POP POP SWAP3 SWAP2 POP POP JUMP JUMPDEST PUSH1 0x0 PUSH2 0xEA9 DUP4 DUP4 PUSH2 0xE7F JUMP JUMPDEST SWAP2 POP DUP3 PUSH1 0x2 MUL DUP3 OR SWAP1 POP SWAP3 SWAP2 POP POP JUMP JUMPDEST PUSH2 0xEC2 DUP3 PUSH2 0x967 JUMP JUMPDEST PUSH8 0xFFFFFFFFFFFFFFFF DUP2 GT ISZERO PUSH2 0xEDB JUMPI PUSH2 0xEDA PUSH2 0x7F3 JUMP JUMPDEST JUMPDEST PUSH2 0xEE5 DUP3 SLOAD PUSH2 0xCDC JUMP JUMPDEST PUSH2 0xEF0 DUP3 DUP3 DUP6 PUSH2 0xE2C JUMP JUMPDEST PUSH1 0x0 PUSH1 0x20 SWAP1 POP PUSH1 0x1F DUP4 GT PUSH1 0x1 DUP2 EQ PUSH2 0xF23 JUMPI PUSH1 0x0 DUP5 ISZERO PUSH2 0xF11 JUMPI DUP3 DUP8 ADD MLOAD SWAP1 POP JUMPDEST PUSH2 0xF1B DUP6 DUP3 PUSH2 0xE9D JUMP JUMPDEST DUP7 SSTORE POP PUSH2 0xF83 JUMP JUMPDEST PUSH1 0x1F NOT DUP5 AND PUSH2 0xF31 DUP7 PUSH2 0xD0D JUMP JUMPDEST PUSH1 0x0 JUMPDEST DUP3 DUP2 LT ISZERO PUSH2 0xF59 JUMPI DUP5 DUP10 ADD MLOAD DUP3 SSTORE PUSH1 0x1 DUP3 ADD SWAP2 POP PUSH1 0x20 DUP6 ADD SWAP5 POP PUSH1 0x20 DUP2 ADD SWAP1 POP PUSH2 0xF34 JUMP JUMPDEST DUP7 DUP4 LT ISZERO PUSH2 0xF76 JUMPI DUP5 DUP10 ADD MLOAD PUSH2 0xF72 PUSH1 0x1F DUP10 AND DUP3 PUSH2 0xE7F JUMP JUMPDEST DUP4 SSTORE POP JUMPDEST PUSH1 0x1 PUSH1 0x2 DUP9 MUL ADD DUP9 SSTORE POP POP POP JUMPDEST POP POP POP POP POP POP JUMP INVALID LOG2 PUSH5 0x6970667358 0x22 SLT KECCAK256 LOG0 SWAP2 0x27 0x5E 0xDD CALLDATASIZE BLOCKHASH DUP1 0xE SWAP4 PUSH24 0x6250EE3B5F98D55828CA74A5A952774773A1B4081064736F PUSH13 0x63430008110033000000000000 "
		},
		"gasEstimates": {
			"creation": {
				"codeDepositCost": "806600",
				"executionCost": "infinite",
				"totalCost": "infinite"
			},
			"external": {
				"addChoice(string)": "infinite",
				"choices(uint256)": "infinite",
				"num_choices()": "2474",
				"purpose()": "infinite",
				"supportsInterface(bytes4)": "704",
				"unnecessaryFunction()": "infinite",
				"vote(uint256)": "infinite",
				"voted(address)": "2867"
			}
		},
		"methodIdentifiers": {
			"addChoice(string)": "5fa520bb",
			"choices(uint256)": "f6fd7fde",
			"num_choices()": "251760b7",
			"purpose()": "70740aab",
			"supportsInterface(bytes4)": "01ffc9a7",
			"unnecessaryFunction()": "dc899a07",
			"vote(uint256)": "0121b93f",
			"voted(address)": "aec2ccae"
		}
	},
	"abi": [
		{
			"inputs": [],
			"stateMutability": "nonpayable",
			"type": "constructor"
		},
		{
			"anonymous": false,
			"inputs": [
				{
					"indexed": true,
					"internalType": "uint256",
					"name": "_id",
					"type": "uint256"
				}
			],
			"name": "choiceAddedEvent",
			"type": "event"
		},
		{
			"anonymous": false,
			"inputs": [
				{
					"indexed": true,
					"internalType": "uint256",
					"name": "_id",
					"type": "uint256"
				}
			],
			"name": "votedEvent",
			"type": "event"
		},
		{
			"inputs": [
				{
					"internalType": "string",
					"name": "_name",
					"type": "string"
				}
			],
			"name": "addChoice",
			"outputs": [],
			"stateMutability": "nonpayable",
			"type": "function"
		},
		{
			"inputs": [
				{
					"internalType": "uint256",
					"name": "i",
					"type": "uint256"
				}
			],
			"name": "choices",
			"outputs": [
				{
					"components": [
						{
							"internalType": "uint256",
							"name": "id",
							"type": "uint256"
						},
						{
							"internalType": "string",
							"name": "name",
							"type": "string"
						},
						{
							"internalType": "uint256",
							"name": "votes",
							"type": "uint256"
						}
					],
					"internalType": "struct IPoll.Choice",
					"name": "",
					"type": "tuple"
				}
			],
			"stateMutability": "view",
			"type": "function"
		},
		{
			"inputs": [],
			"name": "num_choices",
			"outputs": [
				{
					"internalType": "uint256",
					"name": "",
					"type": "uint256"
				}
			],
			"stateMutability": "view",
			"type": "function"
		},
		{
			"inputs": [],
			"name": "purpose",
			"outputs": [
				{
					"internalType": "string",
					"name": "",
					"type": "string"
				}
			],
			"stateMutability": "view",
			"type": "function"
		},
		{
			"inputs": [
				{
					"internalType": "bytes4",
					"name": "interfaceId",
					"type": "bytes4"
				}
			],
			"name": "supportsInterface",
			"outputs": [
				{
					"internalType": "bool",
					"name": "",
					"type": "bool"
				}
			],
			"stateMutability": "pure",
			"type": "function"
		},
		{
			"inputs": [],
			"name": "unnecessaryFunction",
			"outputs": [
				{
					"internalType": "string",
					"name": "",
					"type": "string"
				}
			],
			"stateMutability": "view",
			"type": "function"
		},
		{
			"inputs": [
				{
					"internalType": "uint256",
					"name": "_id",
					"type": "uint256"
				}
			],
			"name": "vote",
			"outputs": [],
			"stateMutability": "nonpayable",
			"type": "function"
		},
		{
			"inputs": [
				{
					"internalType": "address",
					"name": "",
					"type": "address"
				}
			],
			"name": "voted",
			"outputs": [
				{
					"internalType": "bool",
					"name": "",
					"type": "bool"
				}
			],
			"stateMutability": "view",
			"type": "function"
		}
	]
}